:100000000C9481030C94C8030C94C8030C94C8038B
:100010000C94C8030C94C8030C94C8030C94C80334
:100020000C94C8030C94C8030C9473220C944723BB
:100030000C94E61C0C94C8030C94C8030C94C803DD
:100040000C94C8030C94C8030C94C8030C94C80304
:100050000C94C8030C943D1D0C94C8030C94C80365
:100060000C94C8030C94C8030C94C8030C94C803E4
:100070000C94C8030C94C8030C94C8030C94C803D4
:100080000C94C8030C94C8030C94C8030C94C803C4
:100090000C94C8030C94C8030C94C8030C94C803B4
:1000A0000C94C8030C94C8030C94C80329003A00AC
:1000B0003B003C003D003E003F004000410042004C
:1000C000430044004500460035001E001F0020008C
:1000D00021002200230024002500260027002D00F7
:1000E0002E002A002B0014001A000800150017002B
:1000F0001C0018000C00120013002F0030004700F5
:10010000390004001600070009000A000B000D006A
:100110000E000F003300340031002800E1001D0004
:100120001D001B000600190005001100100036001C
:1001300037003800E5004900E000E300E20000007D
:10014000000000002C00E600E400500051004F00C9
:1001500052004C0000000000000000000000000001
:100160004A004B004E004D005C005D005E005700F1
:1001700000000000000000000000000053005400D8
:100180005500560059005A005B005800000000005E
:1001900000000000000000005F006000610000003F
:1001A0006200000063000000010001000100010086
:1001B0000100010001000100010001000100010037
:1001C0000100010001000100010001000100010027
:1001D0000100010001000100010001000100010017
:1001E0000100010001000100010001000100010007
:1001F00001000100010001000100010001000100F7
:1002000001000100010001000100010001000100E6
:1002100001000100010001000100010001000100D6
:1002200001000100010001000100010001000100C6
:1002300001000100010001000100000000000000B9
:1002400001000100010001000100010001000100A6
:10025000000000000000000000000000010001009C
:100260000100010001000100010001000000000088
:10027000000000000000000001000100010001007A
:10028000010001000100010000000000000000006A
:10029000000000000100010001000000010000005A
:1002A0000100000001000100010001000100010047
:1002B0000100010001000100010001000100010036
:1002C0000100010001000100010001000100010026
:1002D0000100010001000100010001000100010016
:1002E0000100010001000100010001000100010006
:1002F00001000100010001000100010001000100F6
:1003000001000100010001000100010001000100E5
:1003100001000100010001000100010001000100D5
:1003200001000100010001000100010001000100C5
:1003300001000100010000000000000001000100B8
:1003400001000100010001000100010000000000A7
:100350000000000000000000010001000100010099
:100360000100010001000100000000000000000089
:100370000000000001000100010001000100010077
:10038000010001000000000000000000000000006B
:100390000100010001000000010000000100000058
:1003A0000100010001000100010001000100010045
:1003B0000100010001000100010001000100010035
:1003C0000100010001000100010001000100010025
:1003D0000100010001000100010001000100010015
:1003E0000100010001000100010001000100010005
:1003F00001000100010001000100010001000100F5
:1004000001000100010001000100010001000100E4
:1004100001000100010001000100010001000100D4
:1004200001000100010001000100010001000100C4
:1004300001000000000000000100010001000100B7
:1004400001000100010001000000000000000000A8
:100450000000000001000100010001000100010096
:10046000010001000000000000000000000000008A
:100470000100010001000100010001000100010074
:10048000000000000000000000000000010001006A
:100490000100000001000000010000000000000059
:1004A000000000002A2B28000000000000000000CF
:1004B0000000000000000029000000002C1E342075
:1004C000212224342627252E362D3738271E1F209B
:1004D0002122232425263333362E37381F040506E0
:1004E0000708090A0B0C0D0E0F1011121314151624
:1004F0001718191A1B1C1D2F3130232D3504050622
:100500000708090A0B0C0D0E0F1011121314151603
:100510001718191A1B1C1D2F3130354C0000000014
:1005200000000000000000000000000000000000CB
:1005300000000000000000000000000000000000BB
:100540007E0F00D4FFFFFFC70000007812036B008E
:100550006500790062006F006100720064000000B5
:10056000160371006D006B006200750069006C007D
:1005700064006500720000000403090409025B00C6
:10058000030100A0FA090400000103010100092190
:10059000110100012240000705810308000A090437
:1005A00001000203000000092111010001222200C4
:1005B0000705820320000107050303200001090449
:1005C0000200010300000009211101000122B60010
:1005D0000705840320000A1201000200000008ED54
:1005E000FE60600100010200010660FF0961A101D7
:1005F0000962150026FF0095207508810209631520
:100600000026FF00952075089102C005010902A18E
:100610000185020901A10005091901290815002514
:1006200001950875018102050109300931158125FF
:100630007F95027508810609381581257F9501751A
:10064000088106050C0A38021581257F9501750879
:100650008106C0C005010980A101850319012AB7DF
:1006600000150126B700950175108100C0050C0921
:1006700001A101850419012AA002150126A00295F5
:100680000175108100C005010906A1018505050756
:1006900019E029E715002501950875018102050774
:1006A000190029EF1500250195F075018102050853
:1006B00019012905950575019102950175039101AF
:1006C000C005010906A101050719E029E715002564
:1006D00001950875018102950175088101050719C9
:1006E0000029FF150026FF00950675088100050802
:1006F000190129059505750191029501750391016F
:10070000C00011241FBECFEFDAE0DEBFCDBF04B6BC
:1007100003FE27C08091C3029091C402A091C5023C
:10072000B091C6028730904BA740B04BD1F41092E5
:10073000C3021092C4021092C5021092C60214BEE7
:1007400084B7877F84BF0FB6F894A8958091600026
:10075000886180936000109260000FBEE0E0F8E3D3
:10076000099511E0A0E0B1E0E4E7FBE402C00590E8
:100770000D92AE39B107D9F722E0AEE9B1E001C080
:100780001D92A33CB207E1F70E94F8130C947D255B
:100790000C94000081FF03C0539A5B98089553980E
:1007A000FCCF81E0089581E008950C94D30308956F
:1007B0000C94D7031F93CF93DF9300D000D00F92F8
:1007C000CDB7DEB749835A836B833091A00189810D
:1007D0009A8131111DC06623B9F02223A9F00E942D
:1007E000360A182F682F89819A810E94E20969814F
:1007F0007A81812F0F900F900F900F900F90DF91C3
:10080000CF911F910C949D180E940E0A182FEFCFC4
:100810000E94360A69817A81EDCFFC01262F408142
:1008200051816281738184810C94DA0381E008959F
:10083000CF93DF93EC0160E00E940D04BE01DF91D5
:10084000CF910C94D803E1E0F0E0DF0102C0AA0FE1
:10085000BB1F6A95E2F7BD01DF0102C0AA0FBB1FF3
:100860004A95E2F76A2B01C0EE0F2A95EAF7962F18
:100870009823961302C08E2B0895E0958E23089539
:10088000242F462F682F8091D1010E9423040C94BD
:100890009F090E9484120E9490050C949F120C9450
:1008A000A21208950E9437090E9451042FEF84E399
:1008B0009CE0215080409040E1F700C000000C9483
:1008C000611D0F931F93CF93DF938C0161E00E9412
:1008D0000D04EC01B8010E94E5168823D9F1B80196
:1008E000CE010E94D5038823A9F1B801CE010E9450
:1008F000D219882379F1B801CE010E94241A8823E5
:1009000049F1B801CE010E94471B882319F1F80173
:100910008281882361F0CA35FDE5DF0721F170F49B
:10092000C115ECE5DE07A1F0CE3DDC45C9F0C801FC
:10093000DF91CF911F910F910C94D103CB358DE5B1
:10094000D807A1F0CC35DD4591F70E94FE0DEFCF21
:100950000E94520480E0DF91CF911F910F91089582
:100960000E94740FF7CF0E94070EE1CF0E940A0E7B
:10097000DECFDF92EF92FF920F931F93CF93DF931F
:10098000E82FF0E0E456FB4FD490282F26952695CB
:10099000269530E0F901E45CFA4F0491877010E08D
:1009A000082E02C0159507950A94E2F701701127E9
:1009B000F901E45DFA4FE490F12C082E02C0F594A1
:1009C000E7940A94E2F791E0E922FF24F901E45E5A
:1009D000FA4FC491D0E002C0D595C7958A95E2F749
:1009E000C170DD270115110519F081EE0E94DC05AB
:1009F000E114F10419F086EE0E94DC058D2D0E94B1
:100A0000DB06EF2819F086EE0E946E06012B19F026
:100A100081EE0E946E06CD2B51F08CE2DF91CF91DA
:100A20001F910F91FF90EF90DF900C94DB06DF9108
:100A3000CF911F910F91FF90EF90DF900895EF926B
:100A4000FF920F931F93CF93DF93EC01162F0AE0D1
:100A50008881882309F454C0813009F04EC089810F
:100A6000813099F47E0122E0E20EF11C8A810E941D
:100A7000DB06E7012196812F815050F3EFE9FFE07B
:100A80003197F1F700C00000F7CF823041F47E01CA
:100A900082E0E80EF11C8A810E94DC05EACF8330F7
:100AA00041F47E01E2E0EE0EF11C8A810E946E06A6
:100AB000E0CF843011F02196DDCF2A81229690E09C
:100AC00080E0AE014F5F5F4F2053330B2A3031057A
:100AD00048F0019778F2EFE9FFE03197F1F700C0B5
:100AE0000000F7CF089FB001099F700D1124C901C4
:100AF000860F971F2981EA01E4CF0E94B904BACF7B
:100B0000DF91CF911F910F91FF90EF90089560E0DA
:100B10000C941F050C94CA0381E008950C948C0575
:100B20000895CF93C82F0E948A058C2FCF910C94E3
:100B30008E05CF93DF93CDB7DEB72B970FB6F89422
:100B4000DEBF0FBECDBF4F83588769877A878B87FB
:100B500061110E942D0E1E821D8285E0FE013796D6
:100B6000DE01119601900D928A95E1F78C819D81AD
:100B7000892B89F449815A816B817C818D819E8189
:100B80000E942D0D2B960FB6F894DEBF0FBECDBF81
:100B9000DF91CF91089589819A8189238F3F51F305
:100BA000CE0101960E9416048111E4CFEBCFFC0127
:100BB000808191810C94630ACF93C82F882309F414
:100BC0008BC08238C1F40E94761B81FD85C089E309
:100BD0000E94C70D0E945D0E2FEF81EE94E0215020
:100BE00080409040E1F700C0000089E30E94CE0DF4
:100BF000CF910C945D0E8338A1F40E94761B80FD8A
:100C00006BC083E50E94C70D0E945D0E2FEF81EE41
:100C100094E0215080409040E1F700C0000083E55F
:100C2000E5CF8438A1F40E94761B82FD55C087E48D
:100C30000E94C70D0E945D0E2FEF81EE94E02150BF
:100C400080409040E1F700C0000087E4CFCF8CEFF8
:100C50008C0F813A90F46C2F8091000190910101EA
:100C60000E94EA1B882329F08C2F0E94CE0D0E943F
:100C70005D0E8C2F0E94C70DBBCF80E28C0F883099
:100C800048F4C77081E001C0880FCA95EAF70E9456
:100C9000100EAECFEBE5EC0FE33040F4F0E0ED5B8F
:100CA000FE4F808190E0CF910C94AA1BE8E5EC0FF9
:100CB000E73150F4F0E0EE0FFF1FEB5EFE4F808156
:100CC0009181CF910C94C01BC03F30F08C2F0E94BB
:100CD0008614CF910C945915CF910895882309F467
:100CE00052C0823871F40E94761B81FF4CC089E3A8
:100CF0000E94C70D0E945D0E89E30E94CE0D0C94E8
:100D00005D0E833859F40E94761B80FF3CC083E55A
:100D10000E94C70D0E945D0E83E5EFCF843859F421
:100D20000E94761B82FF2FC087E40E94C70D0E949D
:100D30005D0E87E4E2CF9CEF980F913AF0F290E2DB
:100D4000980F983050F4877091E001C0990F8A9500
:100D5000EAF7892F0E94160ED2CF9BE5980F9330A9
:100D600020F490E080E00C94AA1B98E5980F97314E
:100D700020F490E080E00C94C01B803F20F00E94A3
:100D8000E0140C94591508951F93CF93DF93182FF7
:100D9000EB010E94DC05209731F4812FDF91CF9188
:100DA0001F910C946E068FE99FE00197F1F700C048
:100DB00000002197F0CF70E060E0893311F460E526
:100DC00070E00C94C406882321F00E94100E0C944D
:100DD0005D0E0895882321F00E94160E0C945D0E7E
:100DE0000895BF92CF92DF92EF92FF920F931F93DD
:100DF000CF93DF936C01D62FC72FFC0112810581A1
:100E000002950F700E94E50DE82E8823A1F0E12ED7
:100E1000112389F08C2F807F803429F080E28D0FA0
:100E2000E12C883040F082E00E94AE0E0E94E50D79
:100E300091E0E82EE926BC2EB2949FE0B922EB2D7A
:100E4000F0E0E158FA4D0C940D250C2F0F70C07F87
:100E500011F00295007F1123A9F0002359F080E2E0
:100E60008D0F883010F0D11109C0802F0E94100E14
:100E70000E945D0E8D2F0E94DC0514C0802F0E9401
:100E8000200EF6CF8D2F0E946E06002359F080E2CF
:100E90008D0F883010F0D1112CC0802F0E94160EBB
:100EA0000E945D0E2B2D2850330B2430310520F489
:100EB0000E94761B0E949105EE2009F479C10E94E0
:100EC000E10D80FD75C1F60112820E94DB0D0E94CA
:100ED000B009C6010E94F9080E94DB0DDF91CF9195
:100EE0001F910F91FF90EF90DF90CF90BF900C94E7
:100EF000BB09802F0E94260ED3CFFC2FFF70FF2E40
:100F0000C07FC03219F0F29480EFF822DD2369F03F
:100F1000D13049F1112391F1002351F1F60185817E
:100F200080FFA8CF8F70858323C0112381F001112A
:100F300006C00E94400E8F290E94E306B3CF013005
:100F4000C1F70E94400E8F290E94460EABCF0111BF
:100F500006C00E94530E8F2D0E94EA06A3CF0130D7
:100F600009F4A0CFF6CF112329F0063008F09ACF6C
:100F70008F2DE2CF053008F095CFEDCF002359F348
:100F8000D93349F4FFEF27EE33E0F15020403040F1
:100F9000E1F700C000008D2F0E946E0683CF8C2FDA
:100FA00086958695837069F0813009F07BCF8D2F0F
:100FB0009C2F9370111102C090E080E00E94C01B32
:100FC00071CF8D2F9C2F9370111102C090E080E0A3
:100FD0000E94AA1B67CF8D2F112329F00E9486142F
:100FE0000E9459155FCF0E94E014FACF8C2F8370B6
:100FF00079F5111157CF4D2F429546954770440F03
:10100000440F8D2F8F70042E01C0880F0A94EAF7C9
:101010002D2F2071D4FF07C02FE030E001C0220F38
:101020004A95EAF72095C695C695C370822BC230C3
:1010300049F058F4C13019F00E94910933CF0E9451
:101040008C0930CF0E9496092DCF0E948A092ACFA1
:101050008695112311F08C2F8170882309F422CFFB
:101060004D2F429546954770440F440F8D2F8F703A
:10107000042E01C0880F0A94EAF72D2F2071D4FFA7
:1010800007C02FE030E001C0220F4A95EAF7209513
:10109000C695C695C370822BC23049F058F4C13052
:1010A00019F00E94D709FECE0E94D209FBCE0E9401
:1010B000DC09F8CE0E949F09F5CECF70112329F0EC
:1010C0008C2F0E94B0098D2F37CF8D2F0E94EA06FA
:1010D0008C2F0E94BB09E6CED23F89F160F4D03F4D
:1010E000C9F0D13F29F1112309F442C00111C2CE48
:1010F0008C2F8F7121C0D33F39F1D43FA1F7112339
:1011000069F1CF718C2F0E94B00963E08C2F0E948F
:10111000930EC8CE112341F0053008F0C3CE8C2FBA
:101120008F710E94C709BECE063008F0BBCEF7CF44
:101130008C2F8F71112369F20E94B009B3CE8C2FCE
:101140008F711123C9F3C5CF112329F08C2F8F7113
:101150000E94A809A7CE0E94A509A4CE81E00E9402
:10116000AE0E023008F49ECE82E00E94AE0E9ACE01
:10117000002359F0D93309F00ECF8FEF97EEE3E05B
:1011800081509040E040E1F704CF8C2F8F71A1CFC8
:101190004C2F4F706D2FC6010E946A100E94910A59
:1011A00081CE4C2F4F706D2FC6010E946D107ACEEC
:1011B000DF91CF911F910F91FF90EF90DF90CF9033
:1011C000BF9008950F931F93CF93DF93EC01688135
:1011D00079818A810E946D0A8C010E94E1090E9436
:1011E0008909B801CE01DF91CF911F910F910C9425
:1011F000F106CF93DF93EC018B819C81892B29F041
:101200008881998189238F3F59F4DF91CF91089587
:10121000CE010E94E208CE01DF91CF910C94180418
:10122000CE010E9461048111F3CF0E94E50D882355
:1012300061F38A81882349F382E0DF91CF910C9496
:10124000AE0E90E080E00E94AA1B90E080E00E9439
:10125000C01B0E942D0E0E943D0E0E945D0E0E943A
:1012600080160C9459150E94D50D0C9421090E94EA
:101270001D0E0C943309E92FE295EF70E250EE3029
:1012800070F4F0E0E157FA4D0C940D25803F19F011
:1012900020F4883E20F481E00895843FE1F380E06B
:1012A0000895883EC0F3813FD1F7F5CF93FB88279F
:1012B00080F90895FC01808191810E94630A0C9459
:1012C0003B09CF93DF9300D000D00F92CDB7DEB7AC
:1012D0000F900F900F900F900F90DF91CF91089586
:1012E000CF93DF9300D000D000D0CDB7DEB72696E5
:1012F0000FB6F894DEBF0FBECDBFDF91CF9108953A
:1013000008950C9480090E9481098093D2010C9465
:10131000210908950C9483099091D201892B0C9492
:1013200083099091D20189230C9483099091D20171
:1013300089270C9483090C9480090C949B090E94C2
:101340009D098093D1010C94210980E00C949F09A0
:1013500091E001C0990F8A95EAF7892F0C949F09B3
:1013600021E030E001C0220F8A95EAF78091D10197
:10137000822B0C949F0921E030E001C0220F8A9556
:10138000EAF720958091D10182230C949F0921E0F6
:1013900030E001C0220F8A95EAF78091D1018227BF
:1013A0000C949F099091D101892B0C949F099091E5
:1013B000D10189230C949F099091D10189270C9424
:1013C0009F0908952EE0929F800D1124982F977009
:1013D00041E001C0440F9A95EAF786958695869577
:1013E00093E0899FF0011124EF55FE4F90E080E0DB
:1013F00070E05191DF0111979B01082E02C03695D4
:1014000027950A94E2F72170219525272423252783
:101410002C9301968330910561F708952EE0929FF9
:10142000800D1124982F977086958695869523E0D8
:10143000829FF0011124EF55FE4F50E040E080E024
:10144000219130E0092E02C0369527950A94E2F7E3
:1014500021703327042E01C0220F0A94EAF7822B51
:101460004F5F5F4F4330510559F70895CF92DF9298
:10147000FF920F931F93CF93DF936C010091D101E3
:101480008091D201082BC7E0D0E010E0FC2EC8010B
:101490000C2E02C0959587950A94E2F780FD0CC04A
:1014A0002197A0F7F12C8F2DDF91CF911F910F91F4
:1014B000FF90DF90CF900895B6018C2F0E94891184
:1014C000019771F3F0CFCF93DF93EC010E94360ABE
:1014D000BE01DF91CF910C9489111F93CF93DF93BD
:1014E000EB019091A001992331F0CB01DF91CF91D5
:1014F0001F910C94630A882379F0CB010E94360A6D
:10150000182F682FCE010E94E209BE01812FDF91C2
:10151000CF911F910C948911CB010E940E0A182FB4
:10152000F4CFEF92FF920F931F93CF93DF938C0131
:10153000892B81F0F12CEE24E394E8012196F80147
:101540008491843770F4843008F05FC08130B1F04A
:101550008230A1F1DF91CF911F910F91FF90EF9019
:101560000895853709F44CC008F43DC09CE7980FF6
:10157000903780F78F770E946E0649C00E5F1F4F2D
:10158000FE01849190E2980F983060F48770FE2DF0
:1015900001C0FF0F8A95EAF78F2F0E94300E0E943C
:1015A0005D0E02C00E94DC058F2D815030F2EFE904
:1015B000FFE03197F1F700C00000F7CF0E5F1F4F3B
:1015C000FE01849190E2980F983050F48770FE2DC0
:1015D00001C0FF0F8A95EAF78F2F0E94360EDFCFEA
:1015E0000E946E06E1CF0E5F1F4FFE01C491C150F5
:1015F000D8F28FE99FE00197F1F700C00000F7CF24
:101600000E5F1F4FFE01F490CFCF0E94DC058E01CC
:10161000CBCF1F93CF93DF93C091D30116E080917E
:10162000D4018C1304C0DF91CF911F910895D0E0B5
:101630001C9FF0011D9FF00D1124EB52FE4F4081C5
:10164000518162817381848195810E947009219604
:10165000C770E5CF409105025091060260910702E4
:10166000709108028091090290910A020C9470090D
:101670001F93CF93DF9380910A02807FA9F480911A
:101680000702882389F08091D301C091D401609131
:10169000050270910602A0910802B0910902D62FAE
:1016A000D72316E0C81304C0DF91CF911F9108958E
:1016B00090E0109711F0DF3F19F401968770F2CF98
:1016C000189F9001199F300D1124F901EB52FE4F24
:1016D00041814713F2CF40814613EFCF4281411140
:1016E000ECCF438154814A1B5B0B483C510528F7E2
:1016F00080910A028F70806180930A02F901E6529C
:10170000FE4F80818F708061808385E092E00E942F
:10171000F908DF91CF911F910C94090BAF92BF9202
:10172000CF92DF92EF92FF920F931F93CF93DF93AD
:10173000CDB7DEB761970FB6F894DEBF0FBECDBF51
:101740008C0185E0F801DE011D9601900D928A95CD
:10175000E1F7F801E28085E0C82E82E0D82E6091A2
:101760000802709109026115710509F45AC190913E
:10177000050220910602892F82238F3F09F451C16F
:1017800040815181A380B480F0900702F501E61BEF
:10179000F70BFF2009F4F6C080910A02382F307F42
:1017A000E83CF10508F0AFC0311179C0FE2C2513DB
:1017B00023C0941321C0E1101FC08F7080618093FB
:1017C0000A020E942A0BC6010E94F90880910A02AF
:1017D000F80185838F2D61960FB6F894DEBF0FBE9A
:1017E000CDBFDF91CF911F910F91FF90EF90DF90D0
:1017F000CF90BF90AF900895AB2829F0842F852318
:101800008F3F09F027C180E0F82FF170DF2E80FFB5
:101810003CC08091D3012091D40136E0821315C0E1
:101820004D875E878D859E850E94630A292F2295AC
:101830002F702230F0F0243018F59F70F1F0F8018D
:101840009581907FD1F4D12C1EC090E0389FF0019B
:10185000399FF00D1124EB52FE4F6181651306C0D4
:101860006081641303C06281E6120FC00196877025
:10187000D5CF9F7011F0882331F3805E883018F344
:10188000C8010E94F908FD2CA5CFEE2009F4A2CFD3
:1018900080910A02816080930A02F12C9BCF25136C
:1018A00006C0941304C0F801EE2009F487C0C801F3
:1018B0000E945A09882319F1EE2009F180910A0249
:1018C000803270F0209105023091060238872F8314
:1018D0001986BB86AA868C87CE0107960E94F908D6
:1018E00086E0F801A5E0B2E001900D928A95E1F75B
:1018F0000E94380B0E942A0BFF24F3946BCFC8017F
:101900000E94F908F9CF311113C07A2DB98AA88A3B
:101910006E2D89890E94610985E092E00E94F90894
:1019200086E0F60111928A95E9F70E942A0BB5CF5D
:1019300025130FC094130DC0E1100BC0F80185836F
:10194000C8010E94F90886E0F60111928A95E9F72C
:1019500041CFC8010E945A09882389F2EE2079F20A
:1019600080910A02803208F4BBCF209105023091A9
:1019700006023A8329831B82BD82AC828E83CE010C
:101980000196ACCFE83CF10508F03EC0FE2CEE20FD
:1019900009F4B5CF25132AC0941328C080910A02F8
:1019A00080FD1BC0982F907FC1F0F8018583903F88
:1019B00031F0982F907F905F8F70892B8583C801BD
:1019C0000E94F90886E0F801A5E0B2E001900D92CE
:1019D0008A95E1F70E942A0BFDCE86E0F801A5E08A
:1019E000B2E001900D928A95E1F7F4CEC8010E9411
:1019F0005A09811175CF80910A02816080930A0291
:101A0000C8010E94F908E6CE7A2DB98AA88A6E2DFF
:101A100089890E94610986E0F60111928A95E9F7A9
:101A2000D9CFEE2009F46BCFC8010E945A09F82ED5
:101A3000882309F464CF86E0F801A5E0B2E00190C4
:101A40000D928A95E1F785E092E00E94D7050E9409
:101A5000380BC0CF81E08E25D7CE1F93CF93DF9375
:101A6000CDB7DEB72C970FB6F894DEBF0FBECDBF53
:101A70004F83588769877A878B879C87CE01079623
:101A80000E948E0B882369F08A859B85892B39F00B
:101A90004F815885842F85238F3F09F071C016E050
:101AA0005FC086E0FE013796DE01119601900D922F
:101AB0008A95E1F78A859B85892B89F38F819885A3
:101AC00089238F3F61F32091D40130E0C901019651
:101AD000877099274091D3014817190671F40E9425
:101AE00037091092D4011092D30186E0E5E0F2E0CC
:101AF000DF011D928A95E9F7D2CF96E0929FD0013F
:101B0000939FB00D1124AB52BE4FFE013196019050
:101B10000D929A95E1F78093D4010E94090BBFCFF3
:101B2000819FC00111248B529E4F0E948E0B8823EF
:101B3000E9F0E091D3011E9FF0011124EB52FE4F1A
:101B40004081518162817381848195810E947009F5
:101B50008091D30190E00196877099278093D301FB
:101B60008091D3019091D4018913DACF2C960FB6CE
:101B7000F894DEBF0FBECDBFDF91CF911F910895C6
:101B800069857A858B859C850E94700988CF682F2E
:101B900080910001909101010C946A1C682F809142
:101BA0000001909101010C94751C809100019091AD
:101BB00001010C94801C80910B028595859585957B
:101BC000089580910B028770089590910B02977091
:101BD00081E009F480E0089590918D0292FB222724
:101BE00020F9281751F080FB92F990938D02809193
:101BF0008C0290918D020C94F10E089580918D02CB
:101C000082FB882780F991E089270C94EC0D81E014
:101C10000C94EC0D80E00C94EC0D80912F02089553
:101C200090912F02892B80932F0208958095909197
:101C30002F02982390932F02089510922F02089557
:101C400090912E02892B80932E0208958095909179
:101C50002E02982390932E02089510922E0208953A
:101C600090912D02892B80932D020895809590915B
:101C70002D02982390932D02089510922D0208951D
:101C800080910C02089508950C94430E90918D025A
:101C900092FD08C090910C02981721F080930C02DD
:101CA0000C94440E089580910C02882329F0109220
:101CB0000C0280E00C94440E0895E0910001F09134
:101CC000010180912F028083E0910001F0910101D8
:101CD000808190912E02892B8083E0910001F09108
:101CE0000101808190912D02892B808390910C02BB
:101CF000992381F0E0910001F09101018081892B0D
:101D0000808380910001909101010E94D61B811176
:101D10000E94530E80910001909101010C94821B4E
:101D200008950C94900E90918D0292FD10C098E051
:101D3000899F90011124622B60930B020E94B009CD
:101D400080910B028595859585950C94910E0C9448
:101D5000B00910920B0280E00C94910E90910B024E
:101D60008095892380930B02282F277039F4282F20
:101D7000082E000C330B9217130621F490918D025C
:101D800092FF07C08595859585950E94BB090C94A7
:101D9000A90E08956FEF7FEF90E080E00C94672527
:101DA00090E080E00E944325893E9E4F11F40C9400
:101DB0008E1680E0089582E090E00C943B2583E04D
:101DC00090E00C943B25CF9384E090E00E943B256B
:101DD000C82F82E290E00E943B25982F8C2FCF9154
:101DE0000895CF93C92F682F84E090E00E94492581
:101DF0006C2F82E290E0CF910C944925AB01BC019D
:101E00008FE090E00C945B25AB01BC0183E190E096
:101E10000C945B2560E070E0CB010C94040F60E053
:101E200070E0CB010E94FE0E0C940A0F69EE7EEF6B
:101E300090E080E00E94672560E082E090E00E94F0
:101E4000492560E083E090E00E9449251092D2018C
:101E500060E084E090E00E94492560E082E290E04A
:101E60000E94492560E085E090E00E94492560E0FD
:101E700086E090E00E9449256FEF87E090E00E94A5
:101E8000492540E050E0BA0188E090E00E945B25DF
:101E900060E08DE090E00E94492540E050E0BA010A
:101EA00088E190E00E945B2560E087E190E00E947D
:101EB000492540E050E0BA018CE190E00E945B25AA
:101EC00070E060E080E290E00E94672540E050E032
:101ED000BA0188E190E00E945B2580E00E94A7168D
:101EE0000E94CD160C940F0F0C94160F682F8EE0E5
:101EF00090E00C9449250E94221D60934702709344
:101F000048028093490290934A026093430270937F
:101F100044028093450290934602089585B78068F5
:101F200085BF85B7806885BF0895089508950C948E
:101F3000950F08950C94990F0E948E0F87E692E1F9
:101F40000E94851D0E94960F0C94970F81E00895C2
:101F50000C94A60F089508950E94AA0F0C94AB0F3D
:101F60000E940D1D0E94DC160E9460130C949A0FB3
:101F70008F929F92AF92BF92CF92DF92EF92FF9299
:101F80000F931F93CF93DF93CDB7DEB72A970FB68A
:101F9000F894DEBF0FBECDBF0E94731381110E9463
:101FA0007B0F51E3852E52E0952E10E000E0A02E2D
:101FB000802F0E94A4126C01F401E190F1904F0176
:101FC000E816F90609F45CC080914B0281FD0E947D
:101FD000AD12C7018C259D25B12CEE24E394F12C84
:101FE0009C012E213F21232B09F444C00E94A80FFD
:101FF0008823A9F0BE82AF82CE20DF2081E0CD28E9
:1020000009F480E088870E94161D8160782F9A87E6
:1020100089874E815F8168858A850E949905000FB6
:10202000111FF801EF5CFD4F80819181E826F926B0
:10203000F182E0820E9474150E94761B909130021A
:102040008917A9F10E94761B809330022A960FB659
:10205000F894DEBF0FBECDBFDF91CF911F910F91DE
:10206000FF90EF90DF90CF90BF90AF909F908F90B8
:102070000C949105B394EE0CFF1CFEE0BF12B0CFA0
:102080000F5F1F4F0930110509F091CF8FEF898342
:102090008A831B820E94161D8160782F9D838C830A
:1020A00049815A816B818D810E949905C3CF2A96FF
:1020B0000FB6F894DEBF0FBECDBFDF91CF911F9159
:1020C0000F91FF90EF90DF90CF90BF90AF909F90D7
:1020D0008F90089590E080E008950895FC01EE0F40
:1020E000FF1FE45BFA4F859194910895CF93DF939E
:1020F0000E948D11EC01811520E5920708F042C085
:10210000811530E4930708F0BDC0883E910528F59D
:10211000803E910508F09DC0883A910588F4853A83
:10212000910508F08FC08130910509F492C00097A5
:1021300009F48FC0049708F08CC0D0E0C0E089C0DB
:102140008F3B910508F489C0805C9109C03CD105A2
:10215000A0F30E946E10EC017CC08115904250F4F7
:10216000C11581E0D80708F074C0C03FD10528F33D
:10217000D0656FC0C11590E3D90708F079C0CE01D2
:102180009F70E7CF811525E5920758F5811534E555
:10219000930708F0A6C0811542E5940750F4C115D5
:1021A00081E5D80708F471C0DC2FCC27C16FD06A55
:1021B00050C0982F969596959E0123703327C11590
:1021C000D34508F07FC0C1E0D0E002C0CC0FDD1FD6
:1021D0002A95E2F720E2929FC0011124C82BD92B47
:1021E0006FC0C11589E5D807A8F4C11598E5D907CE
:1021F00008F07CC0C11526E5D20708F09ECF8C2FD1
:102200000E942412C82FD0E0DC2FCC27CC27DF710E
:10221000D0621FC0C1153AE5D30708F46CC0CE01E7
:1022200090568115904208F088CF8D2F8F710E94B3
:10223000241290E0982F882788279F719C012C2BCF
:10224000E901E6CFC55AD0E0CC58DE4FC881D0E0D6
:10225000D064CE01DF91CF910895C85AD0E0CC0F61
:10226000DD1FCA5BDE4F0990D881C02DD464F1CF49
:10227000CE019927D3FF03C0EC01D86CEACFEC0163
:10228000D06CE7CFDF70D06AE4CFCE01E4E0969562
:102290008795EA95E1F783702C2F26952695237074
:1022A00090E2299F90011124382B8C2F8370C1E07C
:1022B000D0E002C0CC0FDD1F8A95E2F7C22BD32BF2
:1022C000DC68C7CFC1E0D0E002C0CC0FDD1F2A958B
:1022D000E2F730E2939FC0011124C82BD92BDA68B2
:1022E000B8CFD82FCC27C46FD06AB3CFDC2FCC2780
:1022F000C06FD06AAECF8C2F8F700E94241234E052
:10230000D695C7953A95E1F7CF709C2FEC01D0692F
:10231000A0CF0E949D180C94761082389105B1F1DF
:10232000B0F48133910509F475C048F48932910500
:1023300009F469C08A32910509F473C008958533A0
:10234000910509F459C08933910501F10895833E3F
:102350009105A9F138F4803E9105F9F0823E91058E
:1023600049F10895863E9105A9F1873E9105C9F18D
:10237000843E910519F520918D0221FF1FC08091A7
:102380008C0284FD14C087EE90E0089520918C02A9
:102390002370A1F080EE90E0089520918C0220FD42
:1023A00047C030918D0230FF09C024FF44C090E047
:1023B00080E004C020918C0222FDF7CF0895209187
:1023C0008C0222FD3BC030918D0230FDE3CF24FF13
:1023D000F5CFEDCF20918C0223FFF0CF24FDE7CF86
:1023E000D2CF20918C0223FD2CC030918D0231FF81
:1023F000EECF84EE90E0089520918C0225FFDECF91
:1024000089E290E0089520918C0225FFD7CF85E3E3
:1024100090E0089520918C0226FFD0CF8AE290E0D0
:10242000089520918C0226FFC9CF81E390E00895A2
:1024300089E390E0089583EE90E0089582EE90E0C5
:10244000089586EE90E0089590918C0292FF06C068
:10245000282F28712830F9F4877F846093FF06C005
:10246000282F28712831F1F4877E846120918D0214
:1024700020FF06C0382F38713830D9F4877F81604B
:1024800021FF06C0282F28712831D1F4877E816171
:1024900094FD877E0895282F24712430F9F68B7FD0
:1024A0008860DCCF282F2471243101F78B7E88616E
:1024B000DDCF382F3171313019F78E7F8860E0CF52
:1024C000282F2171213121F78E7E8861E1CF80E0B4
:1024D00008950C94CA0E0E9473132FEF86E791E0C3
:1024E000215080409040E1F700C000000E9473132B
:1024F00080E00E94A41280FF04C00E9469120C9424
:10250000611D08950C946B120E94D00E811102C0BF
:102510000E94740F0E94DB0E80934B020E94E30E18
:1025200090938D0280938C020E9482120E94DF0E93
:102530000E948A098091D1010C949D0908950C9400
:102540009E1208950C94A112E82FF0E0EE0FFF1FE9
:10255000E056FD4F808191810895089580EA8A9523
:10256000F1F7089500C008950C94AE12F894E82F86
:10257000E295EF70F0E031A1282F2F7081E090E01C
:1025800001C0880F2A95EAF7982F9095932391A37D
:1025900092A1892B82A378940895CF93DF93C5E805
:1025A000D1E089918F3F11F00E94B61281E0CE38C0
:1025B000D807B9F7C7E7D1E089918F3F11F00E94A2
:1025C000B61281E0C538D807B9F7DF91CF910895E9
:1025D000AF92BF92CF92DF92EF92FF920F931F9331
:1025E000CF93DF938C01B62EC62FD0E0CE018B5750
:1025F0009E4F7C01FC0120812F3F09F453C0F894C9
:10260000E22FE295EF70F0E031A12F7081E090E0D1
:1026100001C0880F2A95EAF7932F982B91A392A1D6
:102620008095892382A378940E94B212E7E7F1E0B3
:1026300030E020E0D12CC12C41E050E081918F3F6F
:10264000E1F1A82FA295AF70B0E090966C9170E088
:102650008F7002C0759567958A95E2F760FD2DC071
:10266000CA01022E02C0880F991F0A94E2F7C82AF5
:10267000D92A2F5F3F4F2E30310501F7F7018081B6
:102680008F3F11F00E94B61261E0C114D10409F429
:1026900060E08B2D0E94B412CC0FDD1FC00FD11F44
:1026A000D982C882DF91CF911F910F91FF90EF9057
:1026B000DF90CF90BF90AF90089590E080E0D7CFAB
:1026C0000E94CD12EEE8F2E0A0EAB2E0119211927F
:1026D0001D921D9282E0E03AF807C1F789E00E945E
:1026E000BE130C944904FF920F931F93CF93DF9373
:1026F000CDB7DEB762970FB6F894DEBF0FBECDBF81
:102700008E010F5F1F4F82E1F80111928A95E9F760
:10271000F12C6F2DC8010E94E812F394F9E0FF122A
:10272000F8CF42E150E0B8018EE892E00E942E25F9
:10273000FF24F394009709F4F12C892B41F082E1F6
:10274000F801AEE8B2E001900D928A95E1F72F2DE5
:1027500049E060EA72E08EE892E00E94BF130E94B6
:102760004F048F2D62960FB6F894DEBF0FBECDBF1B
:10277000DF91CF911F910F91FF9008950895FF92DF
:102780000F931F93CF93DF93F82E092F162FD72F78
:10279000C42F222349F081E080934E020E94161D2F
:1027A00090934D0280934C0280914E028823A1F0B9
:1027B00080914C0290914D020E942E1D059760F071
:1027C000EF2DF02FA12FBD2F90E080E0D0E08C17EF
:1027D0009D0744F010924E02DF91CF911F910F910F
:1027E000FF900895219131912D933D930196EFCF64
:1027F0000E94921C0E942B1F0E94441F0E94561F81
:102800000E94AC0FFBCF8091550280FF12C06091F7
:10281000070185E0689FB00111247595679575954E
:10282000679560387105A8F561157105A1F1862FCE
:10283000089581FF09C06091070185E0689FB0019C
:10284000112475956795EDCF6091070182FD0AC04F
:10285000809154028823D1F0909106016091070184
:10286000891728F085E0689FB0011124DACF869F90
:10287000B001112485E0869F9001879F300D1124BF
:10288000692F70E0C9010E94F924CBCF65E070E0A8
:10289000CECF8FE7089581E008958091550280FFA3
:1028A0000CC06091030170E075956795759567950B
:1028B0006115710549F1862F089581FF06C0609169
:1028C000030170E075956795F3CF6091030182FD78
:1028D0000BC0909153029923A1F060910201809165
:1028E0000301961738F0682F70E06038710500F327
:1028F0008FE70895899FC001112470E00E94F92498
:10290000F4CF61E070E0D7CF81E00895803F31F4EB
:102910000E9403148195809359020895813F19F410
:102920000E940314F8CF823F31F40E940314819572
:10293000809358020895833F19F40E940314F8CF3E
:10294000893F29F40E944D1480935A0208958A3FCA
:1029500021F40E944D148195F7CF8B3F31F40E94F2
:102960004D14819580935B0208958C3F19F40E9469
:102970004D14F8CF9CE0980F953070F4845F990B5C
:1029800021E030E001C0220F8A95EAF780915702DA
:10299000822B8093570208958D3F31F48091550228
:1029A00081608093550208958E3F21F480915502F5
:1029B0008260F7CF8F3FB9F7809155028460F1CFE5
:1029C00040915802803F59F48091590287FF0DC011
:1029D0001092590241110BC01092540208C0813F5D
:1029E00081F48091590218169CF3442381F0809160
:1029F0005A0290915B02892B09F05AC0109253023F
:102A00000895823F49F447FFF0CF10925802809119
:102A100059028111ECCFE0CF833F19F41416ACF3C7
:102A2000E4CF90915A02893F29F41916F4F61092D6
:102A30005A02DBCF8A3F19F497FFD7CFF8CF909196
:102A40005B028B3F29F497FFD0CF10925B02CDCF72
:102A50008C3F19F41916CCF3C8CF9CE0980F953031
:102A600090F4845F990B21E030E0B90102C0660F59
:102A7000771F8A95E2F7CB018095909157028923C1
:102A800080935702B2CF8D3F31F4809155028E7FF3
:102A900080935502AACF8E3F21F4809155028D7FFD
:102AA000F7CF8F3F09F0A1CF809155028B7FF0CFF8
:102AB00008950E94161D9C01909158028091590220
:102AC000982B21F0309352022093510290915A0298
:102AD00080915B02982B21F03093500220934F029B
:102AE00086E592E00C949C1BEF92FF920F931F934C
:102AF000CF93DF9300D000D000D0CDB7DEB786E013
:102B0000E6E5F2E0DE01119601900D928A95E1F77B
:102B1000E0905802F090590200915A0210915B0225
:102B2000109258021092590210925A0210925B02AF
:102B30008E2D8F2991F080915102909152020E9426
:102B40002E1DAC0190915402992309F43FC080914D
:102B500008018417150608F447C0802F812B91F0D7
:102B600080914F02909150020E942E1DAC019091D5
:102B70005302992309F477C0809104018417150644
:102B800008F47FC08091580290915902892B90914E
:102B90005A02892B90915B02892B11F00E945915E2
:102BA00086E0FE013196A6E5B2E001900D928A958D
:102BB000E1F726960FB6F894DEBF0FBECDBFDF91CA
:102BC000CF911F910F91FF90EF90089520910901EF
:102BD0008AE0289F900111242417350708F0BDCF03
:102BE0009F5F9093540202C09F3FD1F7EE2059F0AF
:102BF0000E9403149FEF1E140CF491E0899F802D16
:102C0000112480935802FF2059F00E9403149FEF73
:102C10001F140CF491E0899F802D11248093590298
:102C200030915802332309F498CF2091590222237E
:102C300009F493CF45EB3403C0011124992359F0D3
:102C40009093580245EB240390011124332339F06B
:102C50003093590282CF81E080935802F3CF81E014
:102C6000809359027ACF209105018AE0289F900134
:102C700011242417350708F085CF9F5F90935302E6
:102C800002C09F3FD1F7002359F00E944D149FEFDF
:102C900010160CF491E0899F802D112480935A0224
:102CA000112359F00E944D149FEF11160CF491E07E
:102CB000899F802D112480935B0230915A02332327
:102CC00009F460CF20915B02222309F45BCF45EB2E
:102CD0003403C0011124992359F090935A0245EB13
:102CE000240390011124332339F030935B024ACF3F
:102CF00081E080935A02F3CF81E080935B0242CF60
:102D000086E0E6E5F2E0DF011D928A95E9F7109290
:102D100054021092530210925502089583E290E0FB
:102D20000E943B25823289F484E290E00E943B2598
:102D3000873059F485E290E00E943B2591E088308D
:102D400009F090E0892F8170089580E0FCCFCF9347
:102D5000C82F6FEF811162E283E290E00E94492563
:102D60006FEFC11167E084E290E00E9449256FEFA8
:102D7000C11168E085E290E0CF910C944925089557
:102D800086E290E00E943B25682F70E090E080E0B2
:102D9000089586E290E00C94492580E00E94A716F1
:102DA00060E070E0CB010E94C9160E9415180E94D5
:102DB000FF1881E00C94A7160E94BF160E948E1681
:102DC000811102C00C94CD160895CF93FB01C281EE
:102DD000CC2309F19C0122513F452031310520F5DA
:102DE00082510E940F19C0E08C2FCF91089581E08D
:102DF0000E94B00943E062E081E00E944004F3CF0A
:102E000081E00E94BB0943E062E081E00E9440044F
:102E1000EBCF82E0F6CF8031FFE59F0789F3813168
:102E20009F45B9F3C1E0E0CF8031EFE59E07F9F2AD
:102E300081319F45C9F682E0DBCF2FEFFC01208373
:102E40000895EF92FF920F931F93CF93DF93EC01BE
:102E5000062FE881E150E33108F05EC0F0E0E35670
:102E6000FA4D0C940D25198289E08A83602FCE01DA
:102E7000DF91CF911F910F91FF90EF900C94201E46
:102E80008981823069F0833071F08130D9F40E94F9
:102E9000221D0E9413256A837B838C839D83E6CF4A
:102EA0000E94C016F6CF7E0110E0812F0E94A4126E
:102EB000F701928383831F5FF2E0EF0EF11C19305C
:102EC000A1F7D4CF602FCE010E941D17CFCF8981EB
:102ED0008230C1F76A817B818C819D810E9413259C
:102EE0000E94C916C3CF4B816A8189810E94E7176E
:102EF0009827892798279D838C83B8CF2C813D8183
:102F00003227232732274B816A8189810E9400184A
:102F1000ADCF0E941518AACF8FEF8883A7CF0E944C
:102F2000AA188983A3CF0E94AC18982789279827CD
:102F30009A8389839BCF6B8170E089819A81AE01EE
:102F40004C5F5F4F9827892798270E94AF188ECF34
:102F50006B8170E089819A81AE014C5F5F4F982749
:102F6000892798270E94D51881CF0E94FF187ECF0D
:102F70000E94D517D6CF6B8170E089819A81AE010E
:102F80004C5F5F4F9827892798270E944D186ECF76
:102F90006B8170E089819A81AE014C5F5F4F982709
:102FA000892798270E94731861CF83E0089550E025
:102FB000440F551F9CE1699F400D511D11249CEF4A
:102FC000899F400D511D1124CA01879608950F93C2
:102FD0001F93CF93DF930E94D7178C010E943B254C
:102FE000C82FD0E0DC2FCC27C80101960E943B25DA
:102FF0009E01282BC901DF91CF911F910F91089558
:103000000F931F93CF93DF93122F032F0E94D71795
:10301000EC01602F0E944925612FCE010196DF91BE
:10302000CF911F910F910C944925AF92BF92CF92EF
:10303000DF92EF92FF921F93CF93DF938CEAC82E1B
:1030400080E0D82ED0E07601C0E014C0F5012591D3
:103050003491412F6C2F8D2F0E94001882E0A80E12
:10306000B11C1F5F1E3091F78CE1E80EF11CCF5FA1
:10307000C93019F0570110E0E9CFDF5F8CEFC80EBF
:10308000D11CD33001F7DF91CF911F91FF90EF90CA
:10309000DF90CF90BF90AF900895EF92FF920F9383
:1030A0001F93CF93DF93EC018A017C01E60EF71E9C
:1030B000CE018796CE15DF0539F4DF91CF911F91B0
:1030C0000F91FF90EF900895C43F22E0D20740F4A3
:1030D0000E943B25F80180830F5F1F4F2196E8CFA8
:1030E000F8011082F9CFCF92DF92EF92FF920F9307
:1030F0001F93CF93DF937C016A018C01060F171F8A
:10310000EC01CE018796C017D10749F4DF91CF912A
:103110001F910F91FF90EF90DF90CF900895C43FE3
:1031200022E0D20740F4FE01EE19FF09EC0DFD1D6F
:1031300060810E9449252196E4CF462F833038F4E0
:10314000793028F46E3018F4672F0C94E71790E06C
:1031500080E0089580E1089585EE90E00895EF9273
:10316000FF920F931F93CF93DF93EC018A017C01B1
:10317000E60EF71ECE01855E9C4FCE15DF0539F4B5
:10318000DF91CF911F910F91FF90EF900895C53E71
:10319000D10540F40E943B25F80180830F5F1F4F4B
:1031A0002196E8CFF8011082F9CFCF92DF92EF920B
:1031B000FF920F931F93CF93DF937C016A018C01E1
:1031C000060F171FEC01CE01855E9C4FC017D1077B
:1031D00049F4DF91CF911F910F91FF90EF90DF9015
:1031E000CF900895C53ED10540F4FE01EE19FF09C8
:1031F000EC0DFD1D60810E9449252196E4CFCF93FF
:10320000DF93CBE1D3E060E0CE010E944925219617
:10321000C11584E0D807B9F7DF91CF910895DF9207
:10322000EF92FF920F931F93CF93DF9300D000D0C4
:10323000CDB7DEB7F82E8FE08F1540F08FEF93E01B
:103240000E943B250BE113E08823C1F00F900F9003
:103250000F900F90DF91CF911F910F91FF90EF9002
:10326000DF900895011584E0180781F3C8010E94DA
:103270003B25811101C0FA940F5F1F4FF110F2CF6F
:1032800019821A821B821C82DD24D39478018FEF6D
:10329000E81AF80AC8010E943B2589831A8288230C
:1032A000A9F29FEF980F933078F48A83D9820E5F4A
:1032B0001F4FC7010E943B258B83882339F2CE0123
:1032C00001960E948705E2CF8701F9CF0F931F93E4
:1032D000CF93DF93C42FD22FFC0182818823C9F0C2
:1032E00040935E020E94161D90935D0280935C02E3
:1032F00080E28C0F883008F050C0C77081E001C0B8
:10330000880FCA95EAF7DF91CF911F910F910C9426
:10331000E30610915E02141335C080915C02909117
:103320005D020E942E1D883C910560F5C0E2CD0F24
:103330001D17B9F080E2810F883040F4177081E0EA
:1033400001C0880F1A95EAF70E94EA06C83048F4CF
:1033500081E09D2F977001C0880F9A95EAF70E942F
:10336000E306802F0E94DB06C830B8F4D77081E0F6
:1033700001C0880FDA95EAF7DF91CF911F910F9185
:103380000C94EA0680E28C0F883038F4C77081E034
:1033900001C0880FCA95EAF7EFCFDF91CF911F9157
:1033A0000F9108950F939C01CB01233F4CE5340707
:1033B00059F1A8F4283DFCE53F0701F1293D4CE512
:1033C0003407D1F1273D3C4591F406E221EE41EE70
:1033D00067ED7CE50E94661980E00F910895253F16
:1033E000FCE53F07E9F0B0F0263F3C45F9F0FC0171
:1033F0008281882339F110925E02EFCF07E225EE39
:1034000045EE68ED7CE5E6CF06E221EE40EE63EFA7
:103410007CE5E0CF07E225EE44EE64EF7CE5DACF11
:1034200006E221EE42EE65EF7CE5D4CF07E225EE21
:1034300046EE66EF7CE5CECF08E221E045EE69ED91
:103440007CE5C8CF81E0C9CFCF93DF93EC01FB01CE
:103450008281882309F419C1C230FCE5DF07C0F17D
:10346000C6319CE5D90730F09E012A5F3C452930E2
:10347000310570F50E94E30E90938D0280938C02CB
:10348000C031ECE5DE0709F4CFC008F05BC0C830FE
:103490008CE5D80709F4B6C088F5C430ECE5DE0742
:1034A00009F4A8C0C0F4C2308CE5D80709F49CC068
:1034B00080918C028260C330DC4509F498C0809111
:1034C0008C0290918D020E94F10E0E94370980E0DB
:1034D000DF91CF91089580918C028061C630ECE538
:1034E000DE0709F484C080918C028860C730DC4517
:1034F00008F47DC080918C02806279C0CC308CE56C
:10350000D80709F489C070F480918C028C60CA30AD
:10351000ECE5DE0709F46BC008F478C080918C02FA
:103520008E7F65C0CE308CE5D80709F479C08091D4
:103530008C028B7FCF30DC4508F459C080918C021F
:103540008F7E55C0CB3FECE5DE0709F457C030F560
:10355000C3318CE5D80709F46FC078F4C131ECE5CC
:10356000DE0709F465C0C231DC4509F0A8CF0E942E
:10357000370980918C028F773AC0C5318CE5D80726
:1035800009F462C008F476C080918D028160CA3F60
:10359000DC4509F094CF80938D0291CFCF3FFCE5BD
:1035A000DF0709F44DC088F480918D028D7FCD3FF7
:1035B0009CE5D90781F380918D028E7FCE3FDC455B
:1035C00050F380918D028360E6CFC130FDE5DF07C7
:1035D00009F459C008F444C080E0C230DD4509F068
:1035E0006ECF0E94760F6BCF80918C0281608093AA
:1035F0008C0265CF80918C028460F9CF80918D021E
:103600008260C9CF80918C028064F1CF0E9437091B
:1036100080918C028068EBCF80918C028D7FE7CF08
:1036200080918C02877FE3CF80918C028F7DDFCFEA
:1036300080918C028F7BDBCF80918C02837FD7CFF0
:1036400080918D028C7FA7CF80918C0282FB99277D
:1036500090F921E0922790FB82F990FB83F9C7CF84
:1036600080918D02982F909591708E7F892B90FB81
:1036700081F991CF0E94370990918C02892F97FB95
:1036800087F98058B4CF81E0ACCF81E021CFCF93D0
:10369000DF93EB0186319C4511F50E940D0E9A8156
:1036A000992399F08A7A91E009F490E090935F026F
:1036B000811109C089E20E94C70D0E945D0E80E061
:1036C000DF91CF91089585E3F6CF80915F0281115C
:1036D00004C089E20E94CE0DF0CF85E3FBCF81E0EC
:1036E000EFCF90936502809364020895E0916402A5
:1036F000F0916502309721F00190F081E02D09945E
:1037000080E00895E0916402F0916502309799F0AD
:1037100020911401222359F020918C0227FF07C029
:10372000DC012C9111962C93119725E02C930280AB
:10373000F381E02D09940895E0916402F09165020F
:10374000309739F022E0DC012C930480F581E02DE4
:103750000994089520916202309163022817390775
:1037600071F09093630280936202E0916402F091A1
:103770006502309721F00680F781E02D09940895C5
:1037800020916002309161022817390771F09093FF
:10379000610280936002E0916402F09165023097CB
:1037A00021F00084F185E02D09940895FC01329602
:1037B00080911401882321F080918C029EE187FF83
:1037C00096E080E0915008F4089521912223D1F3EE
:1037D0008F5FF8CF662301F1209114012223F1F0CD
:1037E00020918C0227FF1AC0462F46954695469594
:1037F0004E3190F4677021E030E002C0220F331F99
:103800006A95E2F7840F911DFC01828190E02823E4
:10381000392381E0232B69F480E00895FC0132967E
:1038200008962191261721F0E817F907D1F7F4CF70
:1038300081E008959C01FC0132969FEF80E0419168
:10384000461751F09F3F19F4411101C0982F8F5F27
:103850008630A9F79F3F09F40895290F311D97FD80
:103860003A95F90162830895FC01329608962191F8
:10387000261303C0DF0111971C92E817F907B9F767
:103880000895E62FE695E695E695EE3168F4E80FA3
:10389000F92FF11D677021E030E001C0220F6A9519
:1038A000EAF78281822B82830895E62FE695E695DA
:1038B000E695EE3170F4E80FF92FF11D677021E005
:1038C00030E001C0220F6A95EAF720958281282313
:1038D0002283089520911401222329F020918C0243
:1038E00027FD0C94411C0C941A1C209114012223D6
:1038F00029F020918C0227FD0C94551C0C94341C4B
:10390000FC01329680911401882351F080918C0241
:1039100087FF06C08EE1DF011D928A95E9F70895C1
:1039200086E0F9CF0895089508950C94941C809131
:10393000BA02843049F10E94951C80E00E949105F2
:103940001092660288E190E020E40FB6F894A89502
:10395000809360000FBE2093600083B7817F8460F6
:1039600083BF83B7816083BF7894889583B78E7F48
:1039700083BF0FB6F894A89580916000886180930A
:103980006000109260000FBE08950895CF930E94CA
:10399000931C0E9473130E94C51CC0E08C2F0E94D0
:1039A000A412892B31F4CF5FC930C1F780E0CF91E9
:1039B000089581E0FCCF08950C94DB1C0E94370928
:1039C0000E94761B0E9491050C94DC1C1F921FB66E
:1039D0001F9211248F939F93AF93BF9380916602A0
:1039E000811113C08091B2029091B302A091B402F0
:1039F000B091B5024196A11DB11D8093B202909382
:103A0000B302A093B402B093B502BF91AF919F915E
:103A10008F911F901FBE1F90189582E084BD93E088
:103A200095BD9AEF97BD80936E0008952FB7F894D7
:103A30008091B2029091B302A091B402B091B5020C
:103A40002FBF08952FB7F8946091B2027091B3021E
:103A50008091B4029091B5022FBF08959C014FB799
:103A6000F8948091B2029091B302A091B402B09107
:103A7000B5024FBF821B930B089578941F921FB617
:103A80001F9211248F939F93AF93BF938091B202A3
:103A90009091B302A091B402B091B5020196A11D1C
:103AA000B11D8093B2029093B302A093B402B0937D
:103AB000B502BF91AF919F918F911F901FBE1F9034
:103AC000189581E08093E00080E28093D800109206
:103AD000C9008FE19EE40197F1F700C0000087E084
:103AE00090EBDC018093C3029093C402A093C502C3
:103AF000B093C60288E19CE00FB6F894A895809335
:103B000060000FBE90936000FFCF90939F01809361
:103B10009E01089580918A0208959091BA0294308E
:103B200029F580936702709369026093680290930D
:103B3000E9008FEF9091E800815095FD06C095ED6A
:103B40009A95F1F700008111F5CF8091E80085FF8B
:103B50000DC050E040E063E070E087E692E00E9434
:103B600019208091E8008E778093E8000895BC01C9
:103B700084E00C948D1DBC0183E00C948D1D9C0190
:103B800084E08093E9009FEF8091E800915085FDEB
:103B900006C085ED8A95F1F700009111F5CF80916F
:103BA000E80085FF0CC050E040E066E070E0C9012D
:103BB0000E9419208091E8008E778093E800089594
:103BC000CF93DF93EC01809114018823B1F18091B0
:103BD0008C0287FF32C060E284E08093E9008FEFBF
:103BE0009091E800815095FD06C095ED9A95F1F70A
:103BF00000008111F5CF8091E80085FF1BC0809106
:103C0000140170E050E040E0811104C050E040E059
:103C100068E070E0CE010E9419208091E8008E7764
:103C20008093E80080E2FE01AAE6B2E001900D92E6
:103C30008A95E1F7DF91CF91089568E081E0CDCFDB
:103C4000CF93FC01603221F58091BA02843001F5F6
:103C5000C091E900CF702091EC00922F917020FD6F
:103C600090E8C92B82E08093E9008091E80080FF12
:103C70000CC050E040E060E270E0CF010E941920EB
:103C80008091E8008E778093E800CF70C093E900C0
:103C9000CF9108958091B902811109C00E94F82145
:103CA0000E9455228091E20084608093E200089592
:103CB0001092B902089508950895089542E061ECC4
:103CC00081E00E94742142E261EC84E00E94742150
:103CD00042E261EC82E00E94742142E260EC83E007
:103CE0000C9474218091BC02833009F461C030F4DB
:103CF0008130D1F1823009F49DC008958A3009F4F1
:103D000089C08B3009F46FC0893009F050C08091B0
:103D1000BB02813209F04BC08091BF029091C0027A
:103D2000009719F0029709F042C08091E800877F60
:103D30008093E8008091E80082FF35C09091F30005
:103D40008091F200029729F48091F1008B7F8130FD
:103D500021F48091F10080938A028091E8008B77B2
:103D60008093E8000C94A8218091BB02813AF9F479
:103D70008091E800877F8093E8008091BF02909156
:103D8000C002892B61F460E28AE692E070E00E9452
:103D9000B7208091E8008B778093E800089560E079
:103DA00090E080E0F3CF8091BA028111C3CF0895F3
:103DB0008091BB02813AD9F78091BF029091C002F5
:103DC000892BA9F78091E800877F8093E800809194
:103DD000E80080FFFCCF809114018093F100809176
:103DE000E8008E77BDCF8091BB02813201F78091D0
:103DF000BF029091C002892BD1F68091E800877FA5
:103E00008093E8000E94A8218091BD028093140154
:103E10000C9437098091BB02813249F68091E80009
:103E2000877F8093E8000E94A8218091BE02809342
:103E30008B0208958091BB02813A09F0B8CF80913E
:103E4000E800877F8093E8008091E80080FFFCCF46
:103E500080918B02C2CF84B7877F84BF0FB6F8945E
:103E6000A895809160008861809360001092600046
:103E70000FBE80E890E00FB6F894809361009093B5
:103E800061000FBE0C949C0F0E94F8210E945522E5
:103E9000E2EEF0E080818460808378940E94DE24EA
:103EA0000E94B00F8AE091E00C94711BCF93DF93D6
:103EB000CDB7DEB7A0970FB6F894DEBF0FBECDBF6B
:103EC0008091BA02853031F48091BA02853091F147
:103ED0000E94DE1C0E94B80F8091BA02843009F55E
:103EE00083E08093E9008091E80082FF1AC080910E
:103EF000E80090E085FF09C050E040E060E270E03B
:103F0000CE0101960E94682091E08091E8008B77B5
:103F10008093E800992329F060E2CE0101960E9487
:103F20002117A0960FB6F894DEBF0FBECDBFDF916C
:103F3000CF9108950E94971C8091B802882321F2A6
:103F40000E94C61C882309F4BFCF0E9403200E9450
:103F50003709BACF0C94AC1F292F332723303105F2
:103F600021F168F42130310509F443C022303105D4
:103F700009F444C090E080E030E020E026C0213227
:103F8000310551F122323105A9F76330710590F7FF
:103F9000FB01EE0FFF1FEF56FE4F2081318162576C
:103FA0007E4FFB01808190E010C099278130910500
:103FB00081F0009729F00297E9F6ECE4F5E002C001
:103FC000E8E7F5E0849190E09F01FA0131832083D6
:103FD0000895E0E6F5E0F6CF6330710558F6660F18
:103FE000771FFB01E956FE4F2081318189E090E087
:103FF000ECCF82E190E027ED35E0E7CF8BE590E074
:104000002CE735E0E2CF80E189BD82E189BD09B4CA
:1040100000FEFDCF8091D8008F7D8093D8008091E5
:10402000E00082608093E0008091E00081FDFCCFA1
:104030000895AF92BF92CF92DF92FF920F931F939A
:10404000CF93DF936C01EB018A010E94C721F82E08
:10405000811123C00115110539F0F801808191818A
:10406000C81BD90BC80ED91EB12CA12C2097A9F0C2
:104070008091E80085FD22C08091E8008E778093D2
:10408000E80001151105A1F0F80180819181A80EC9
:10409000B91EB182A08285E0F82E8F2DDF91CF91DD
:1040A0001F910F91FF90DF90CF90BF90AF90089538
:1040B0000E94C7218823D1F2F82EEFCFF60181911B
:1040C0006F018093F1002197FFEFAF1ABF0ACECFA7
:1040D000AF92BF92CF92DF92FF920F931F93CF9335
:1040E000DF936C01EB018A010E94C721F82E811138
:1040F00023C00115110539F0F80180819181C81B99
:10410000D90BC80ED91EB12CA12C2097A9F08091F3
:10411000E80085FD22C08091E8008B778093E8005D
:1041200001151105A1F0F80180819181A80EB91E39
:10413000B182A08285E0F82E8F2DDF91CF911F9163
:104140000F91FF90DF90CF90BF90AF9008950E94A5
:10415000C7218823D1F2F82EEFCF8091F100F6012C
:1041600081936F012197FFEFAF1ABF0ACECFFC01F9
:104170008091C1029091C20286179707A0F0611545
:10418000710529F49091E8009E779093E80090E003
:104190006115710551F4911108C08091E80082FF0A
:1041A00034C080E00895BC01F2CF8091BA02882328
:1041B000C1F18530C1F18091E80083FD30C080916C
:1041C000E80082FDEACF8091E80080FFE1CF809196
:1041D000F3002091F200382F6115710519F0283095
:1041E000310558F091E02830310509F090E0209138
:1041F000E8002E772093E800CBCF81918093F100E7
:10420000615071092F5F3F4FE7CF8091BA02882339
:1042100041F0853041F08091E80083FFBECF81E01E
:10422000089582E0089583E00895FC018091C10221
:104230009091C20286179707A0F06115710529F4C5
:104240008091E8008E778093E80090E06115710519
:1042500051F4911108C08091E80082FF35C080E0E0
:104260000895BC01F2CF8091BA028823C9F185304C
:10427000C9F18091E80083FD31C08091E80082FDA2
:10428000EACF8091E80080FFE1CF8091F300209198
:10429000F200382F6115710519F02830310558F0FA
:1042A00091E02830310509F090E08091E8008E77A8
:1042B0008093E800CBCF84918093F10031966150D8
:1042C00071092F5F3F4FE6CF8091BA02882341F0FA
:1042D000853041F08091E80083FFBDCF81E00895F3
:1042E00082E0089583E00895982F973028F08F702A
:1042F0008093E90081E008959093E900242F762FC0
:1043000050E0981731F07091EC002091ED00509141
:10431000F00021FD02C09F5FE8CF3091EB003E7FAF
:104320003093EB003091ED003D7F3093ED00309104
:10433000EB0031603093EB007093EC002093ED00C4
:104340005093F0002091EE0027FDE5CF80E0089526
:104350008091BB0287FF13C08091E80082FF06C0F6
:104360008091E8008B778093E80004C08091BA02C6
:104370008111F2CF08958091BA028823D9F38091F8
:10438000E80080FFF8CF8091E8008E77ECCF209195
:10439000E4003091E50095E6A9012091EC00822F20
:1043A000817020FF06C08091E80080FF06C080E099
:1043B00008952091E80022FD1AC08091BA02882356
:1043C00089F0853089F08091EB0085FD0FC0209148
:1043D000E4003091E50042175307F9F29150E1F6FD
:1043E00084E0089582E0089583E0089581E00895CF
:1043F0000E9466220E946E22E0EEF0E080818160E1
:104400008083E8EDF0E080818F77808319BCA7ED91
:10441000B0E08C918E7F8C9380818F7E8083109210
:10442000B90208950F931F93CF93DF930E946622E2
:104430000E946E22C8EDD0E088818F7788838881C2
:104440008068888388818F7D888319BC1092BA0226
:104450001092B6021092B8021092B70200EE10E06D
:10446000F80180818B7F808388818160888342E02E
:1044700060E080E00E947421E1EEF0E080818E7FB8
:104480008083E2EEF0E080818160808380818860BB
:104490008083F80180818E7F80838881806188831A
:1044A000DF91CF911F910F910895E8EDF0E08081A9
:1044B0008F7E8083E7EDF0E080818160808384E0FF
:1044C00082BF81E08093B9020C941222E8EDF0E003
:1044D00080818E7F80831092E20008951092DA002E
:1044E0001092E10008951F920F920FB60F921124BF
:1044F0002F933F934F935F936F937F938F939F93EC
:10450000AF93BF93EF93FF938091E10082FF0BC0C5
:104510008091E20082FF07C08091E1008B7F809351
:10452000E1000E94DD248091DA0080FF19C08091B3
:10453000D80080FF15C08091DA008E7F8093DA006A
:104540008091D90080FF96C080E189BD82E189BD5C
:1045500009B400FEFDCF81E08093BA020E944A1E9A
:104560008091E10080FF19C08091E20080FF15C0BA
:104570008091E2008E7F8093E2008091E200806172
:104580008093E2008091D80080628093D80019BCAB
:1045900085E08093BA020E945C1E8091E10084FF56
:1045A0002BC08091E20084FF27C080E189BD82E1B9
:1045B00089BD89B5982F917080FFFBCF8091D8007D
:1045C0008F7D8093D8008091E1008F7E8093E10001
:1045D0008091E2008F7E8093E2008091E200816012
:1045E0008093E2008091B602882309F449C084E0F8
:1045F0008093BA020E945D1E8091E10083FF29C072
:104600008091E20083FF25C08091E100877F809345
:10461000E10082E08093BA021092B6028091E1003C
:104620008E7F8093E1008091E2008E7F8093E20094
:104630008091E20080618093E20042E060E080E0EF
:104640000E9474218091F00088608093F0000E94A5
:104650005B1EFF91EF91BF91AF919F918F917F91E1
:104660006F915F914F913F912F910F900FBE0F90DF
:104670001F90189519BC1092BA020E94581E70CF54
:104680008091E30087FD93E09093BA02B3CF1F922D
:104690000F920FB60F9211242F933F934F935F9376
:1046A0006F937F938F939F93AF93BF93CF93DF933A
:1046B000EF93FF93D091E900DF708091EC00C82F59
:1046C000C17080FDC0E81092E9008091F000877F02
:1046D0008093F00078940E948B231092E9008091DF
:1046E000F00088608093F000CD2BCF70C093E9007C
:1046F000FF91EF91DF91CF91BF91AF919F918F91FA
:104700007F916F915F914F913F912F910F900FBECD
:104710000F901F9018951F93CF93DF93CDB7DEB7FF
:10472000AA970FB6F894DEBF0FBECDBF8BEB92E019
:104730002091F100FC012193CF01F2E0833C9F071F
:10474000B9F70E94721E8091E80083FF1EC180911C
:10475000BB029091BC029A3008F017C1E92FF0E03B
:10476000E055FA4D0C940D25803899F0823809F007
:104770000CC18091BF028F70873008F006C1809312
:10478000E9008091EB0085FB882780F91092E90011
:1047900006C08091B7029091B80291118260909109
:1047A000E800977F9093E8008093F1001092F10069
:1047B0008091E8008E77E5C0882309F4D3C0823069
:1047C00009F0E3C08091BD028111D6C08091BF0283
:1047D0008F702FEF280F263008F0D7C08093E900A4
:1047E0002091EB0020FFC8C0933031F48091EB00A2
:1047F00080628093EB00C0C09091EB009061909339
:10480000EB0021E030E001C0220F8A95EAF7209307
:10481000EA001092EA008091EB008860EACF8111F3
:10482000B4C01091BD021F778091E3008078812B86
:104830008093E3008091E800877F8093E8000E94E6
:10484000A8218091E80080FFFCCF8091E300806880
:104850008093E30082E0111183E08093BA0295C057
:104860008058823008F091C08091BD029091BE02C4
:104870008C3D23E09207A1F583E08A838AE2898355
:104880004FB7F894DE01139620E03EE051E2E32FAB
:10489000F0E050935700E49120FF03C0E295EF70E1
:1048A0003F5FEF708E2F90E0EA30C0F0C7968D9397
:1048B0009D932F5F243159F74FBF8091E800877F88
:1048C0008093E8006AE270E0CE0101960E94B72072
:1048D0008091E8008B778093E80057C0C096E7CFBF
:1048E0006091BF027091C002AE014F5F5F4F0E94A6
:1048F000AA1FBC01892B09F448C09091E800977F5A
:104900009093E80089819A810E941521E1CF803837
:10491000E1F58091E800877F8093E8008091B602FE
:104920008093F10045CF811130C09091BD0292304B
:1049300060F58091E800877F8093E8009093B6024D
:104940000E94A8218091B602882311F084E005C05E
:104950008091E30087FDFACF81E08093BA020E9444
:104960005E1E13C08091BD02813079F481E09330E6
:1049700009F080E08093B8021092E9008091E8008D
:10498000877F8093E8000E94A8218091E80083FF40
:104990000AC08091E800877F8093E8008091EB0057
:1049A00080628093EB00AA960FB6F894DEBF0FBE2C
:1049B000CDBFDF91CF911F9108950895CF9380913E
:1049C000BA028823A1F0C091E900CF709091EC0069
:1049D000892F817090FD80E8C82B1092E9008091AA
:1049E000E80083FD0E948B23CF70C093E900CF9134
:1049F000089597FB072E16F4009407D077FD09D091
:104A00000E941A2507FC05D03EF4909581959F4F92
:104A10000895709561957F4F0895EE0FFF1F0590E3
:104A2000F491E02D0994692796276927782787272D
:104A300078270895AA1BBB1B51E107C0AA1FBB1F03
:104A4000A617B70710F0A61BB70B881F991F5A951A
:104A5000A9F780959095BC01CD010895FB01DC017B
:104A600004C08D910190801921F441505040C8F745
:104A7000881B990B0895F999FECF92BD81BDF89AD4
:104A8000992780B50895A8E1B0E042E050E00C9489
:104A90006F25262FF999FECF92BD81BDF89A019717
:104AA00000B4021639F01FBA20BD0FB6F894FA9A76
:104AB000F99A0FBE08950396272F0E944A250E9457
:104AC0004925252F0E944A25242F0C944A2501961A
:104AD000272F0E944A250C944925DC01CB01FC01BB
:104AE000F999FECF06C0F2BDE1BDF89A319600B447
:104AF0000D9241505040B8F70895F894FFCF250724
:104B000025077D077D07CF07EB0752075207F607FA
:104B10005D086C086C08C80852075207D10846099E
:104B200046094F094F0951094F094F094F094609D5
:104B3000460956094F094F09560933174017671799
:104B400073177E1789178C178C178C178C178C1777
:104B50008F1793179B17A817B517B817BB17C81748
:104B6000B423DC23C524DC23C5240F243024C5242E
:044B700087249324DF
:104B74000D022808641E140A321E8A1DE01DBF1D82
:104B8400BB1DB71D01E200E900EA00B500B600B79D
:104B940000CD008301CC008A0192019401210223FB
:104BA4000224022502260227022A02B300B4006F5F
:104BB400007000818283E200E900EA00B500B600DB
:104BC400B700CD008301CC008A0192019401210237
:104BD400230224022502260227022A02B300B4007B
:104BE4006F0070008182839496973435366667F639
:104BF400F5F4F1F030C6379091F795313233402215
:0E4C0400B6C106E9050B068E05A705C705001B
:00000001FF
