:100000000C9437080C946F080C946F080C946F08CC
:100010000C946F080C946F080C946F080C946A335E
:100020000C946F080C946F080C941B250C945D24A1
:100030000C946F080C946F080C946F080C946F0864
:100040000C946F080C946F080C946F080C946F0854
:100050000C946F080C94FA280C946F080C946F0899
:100060000C946F080C947F140C94A6140C946F08D5
:100070000C946F080C946F080C946F080C946F0824
:100080000C946F080C946F080C946F080C946F0814
:100090000C946F080C946F080C946F080C946F0804
:1000A0000C946F080C946F080C946F0824102710A0
:1000B000491056105D1068106B109F10C1105A1136
:1000C0005A11CC10CE10D110F410131116111911B1
:1000D0003B11A018A018DB18DB180719FF19FF192E
:1000E000FF1923199719A819A81975229C224524CC
:1000F0009C224524E8220B2345240024102400DA06
:10010000028180D9F1DB20A4A62EAF00A0C000A1FF
:10011000C800AED580A81FD300408D1420007F3FBB
:100120001F643214643214783C1E0000000000008A
:100130000000FCFF7F000000000000000000000045
:10014000F8FF037986FFFFFFFFFF000000000000BB
:100150003C00FEFFFFFF0000000000000000FFFF6A
:10016000FFFFFF3F00000000000000000000000053
:100170000000FCFF7F000000000000000000000005
:10018000F8FF037986FFFFFFFFFF0000000000007B
:100190003CBBFFFFFF3F0F00000000000000FFFF1F
:1001A000FFFF0000F8FF3F000000808080404020FB
:1001B0002010080402040810102020404080803FD6
:1001C000C101010202040404040202010101804091
:1001D0008080403030010264180412C2CA2488F0C2
:1001E000808040404040202020201010101008083F
:1001F0000808040404040202020201010101E018DB
:1002000006018083834040404020212120101010AF
:100210001008080808040404040202020201010193
:10022000018080808040404040202020201010101D
:1002300010080F0808040404040204081010202009
:10024000404041422498C088888C9C1C1E0E0600A9
:10025000000000000000000000000000008080801E
:1002600040402020100804020408101020204040C4
:1002700080803FC1010102020484444442820101A2
:1002800001804080804030300102040408081020C2
:10029000408080808040404040202020201010106E
:1002A0001008080808040404040202020201010103
:1002B00001E01806010C0302181905FE8083834033
:1002C0004040402021212010101010080808080488
:1002D0000404040408304080800186986080808097
:1002E00080404040402020202010101010080F08AF
:1002F00008040404040202020201010101060F0FB6
:1003000007030361F0F8FC600101013C78F8F0702C
:100310008080804040202010080402040810102033
:1003200020404080803FC1010102020484444442D5
:100330008201010180408080403030010264180455
:1003400012C2CA2488F080804040404020202020F3
:100350001010101008080808040404040202020225
:1003600001010101E01806010C0302181905FE80C5
:1003700083834040404020212120101010100808A5
:100380000808040404040202020201010101808041
:100390008080404040402020202010101010080F86
:1003A0000808040404040202020201010101000021
:1003B000000000000000FCFF7F00000000000000C3
:1003C00000000000F8FF037986FFFFFFFFFF000039
:1003D000000000003CBBFFFFFFFF0000000000002A
:1003E0000000FFFFFFFF0000000000000000000011
:1003F000000000000080FFFF7F0000000000000000
:1004000000000000F8FF007986FFFFFFFFFF0000FB
:10041000000000003C00FEFFFF3F0F000000000056
:100420000000FFFFFFFF1F0000C0010000000000F0
:10043000000000000000FCFF0F00000000000000B2
:1004400000000000F8FF0348F6FFFFFFFFFF000079
:10045000000000003C00FEFFFF3F0F000000000016
:100460000000FFFFFFFF1F0000C0010000000000B0
:10047000000000000080FFFF7F000000000000007F
:1004800000000000FEFF007986FFFFFFFFFF000075
:10049000000000003C00FEFFFF3F0F0000000000D6
:1004A0000000FFFFFFFF1F0000C001000000808070
:1004B000404040202020202018040201020408109F
:1004C0002020404080803FC1010102020404040456
:1004D000020201804080804030300102040408089C
:1004E000102040808080804040404020202020100C
:1004F0001010100808080804040404020202020193
:10050000010101E018060180838340404040202122
:10051000212010101010080808080404040404081E
:1005200030408080018698608080808040404040DC
:100530002020202010101010080F080804040404C4
:1005400002040810102020404041422418010101FB
:1005500000008080808040402010080402040810C1
:10056000204080807E8202020404080808080404F7
:10057000020101808060600101020404080810107B
:10058000202040808080804040404020202020105B
:1005900010101008080808040404040202020201F2
:1005A000010101C0300C038086864040404021227A
:1005B000222011111010080808080404040404087B
:1005C000304080800186986080808080404040403C
:1005D0002020202010101010080F08080404040424
:1005E000020408101020204040414224180101015B
:1005F000000000000000808040404020202020209B
:100600001804020102040810202040408080060DDA
:1006100031C1010101020202040402020180408092
:10062000804030300102040408081020408080809F
:100630008040404040202020201010101008080862
:1006400008040404040202020201010101E0180688
:100650000180838340404040202121201010101051
:100660000808080804040404040830408080018657
:1006700098608080808040404040202020201010E2
:100680001010080F080804040404020408101020C5
:1006900020404041422418010101000000000000F8
:1006A000000000000000000000000000000000004A
:1006B00000000000000000000000000000007E0FAD
:1006C00000D4FFFFFFC7000000780000000000001A
:1006D00000002A2B2800000000000000000000009D
:1006E000000000000029000000002C1E3420212200
:1006F00024342627252E362D3738271E1F20212269
:10070000232425263333362E37381F0405060708E1
:10071000090A0B0C0D0E0F101112131415161718D1
:10072000191A1B1C1D2F3130232D3504050607080F
:10073000090A0B0C0D0E0F101112131415161718B1
:10074000191A1B1C1D2F3130354C05010980A101E0
:10075000850319012AB700150126B7009501751008
:100760008100C0050C0901A101850419012AA0021C
:10077000150126A002950175108100C00660FF09D1
:1007800061A1010962150026FF009520750881020C
:100790000963150026FF00952075089102C0050128
:1007A0000906A101050719E029E7150025019508AB
:1007B000750181029501750881010507190029FF5E
:1007C000150026FF00950675088100050819012906
:1007D00005950575019102950175039101C0090206
:1007E0005B00030100A0FA090400000103010100FD
:1007F00009211101000122400007058103080001C1
:100800000904010002030000000921110100012276
:1008100022000705820320000107050303200001D1
:100820000904020001030000000921110100012256
:1008300032000705840320000112010002000000BD
:1008400008616E63600100010200010A0353004E5B
:100850000041005000000012036E0075006C006C37
:1008600000620069007400730000000403090407BB
:10087000087F0807003E5B4F5B3E003E6B4F6B3EC0
:10088000001C3E7C3E1C00183C7E3C18001C577D22
:10089000571C001C5E7F5E1C0000183C180000FF07
:1008A000E7C3E7FF00001824180000FFE7DBE7FFBD
:1008B0000030483A060E00262979292600407F0597
:1008C000050700407F05253F005A3CE73C5A007F62
:1008D0003E1C1C0800081C1C3E7F0014227F2214B2
:1008E000005F5F005F5F0006097F017F000066898F
:1008F000956A0060606060600094A2FFA2940008A6
:10090000047E04080010207E20100008082A1C081D
:1009100000081C2A0808001E10101010000C1E0CE5
:100920001E0C0030383E383000060E3E0E06000029
:10093000000000000000005F00000000070007004A
:1009400000147F147F1400242A7F2A120023130826
:10095000646200364956205000000807030000007A
:100960001C224100000041221C00002A1C7F1C2A7E
:100970000008083E080800008070300000080808E1
:100980000808000000606000002010080402003E1B
:100990005149453E0000427F4000007249494946A6
:1009A000002141494D33001814127F10002745459E
:1009B0004539003C4A4949310041211109070036B7
:1009C0004949493600464949291E000000140000E3
:1009D00000004034000000000814224100141414E8
:1009E0001414000041221408000201590906003EB7
:1009F000415D594E007C1211127C007F49494936F5
:100A0000003E41414122007F4141413E007F494932
:100A10004941007F09090901003E41415173007FAE
:100A20000808087F0000417F4100002040413F014D
:100A3000007F08142241007F40404040007F021C9C
:100A4000027F007F0408107F003E4141413E007F4D
:100A500009090906003E4151215E007F0919294616
:100A60000026494949320003017F0103003F40400D
:100A7000403F001F2040201F003F4038403F0063A0
:100A800014081463000304780403006159494D43BA
:100A900000007F4141410002040810200000414154
:100AA000417F000402010204004040404040000039
:100AB00003070800002054547840007F284444383D
:100AC00000384444442800384444287F00385454B3
:100AD00054180000087E09020018A4A49C78007F26
:100AE000080404780000447D4000002040403D00A0
:100AF000007F102844000000417F4000007C047803
:100B00000478007C0804047800384444443800FC2D
:100B1000182424180018242418FC007C0804040855
:100B20000048545454240004043F4424003C4040F2
:100B3000207C001C2040201C003C4030403C0044F5
:100B400028102844004C9090907C004464544C44FD
:100B50000000083641000000007700000000413628
:100B60000800000201020402003C2623263C00008B
:100B70000000000000404040F0F8F8FF38FFF8F8AF
:100B80003FF8F8FF38FFF8F8F04040400000000060
:100B9000000080C0C0C0800000C0C0800000008095
:100BA000C0C000C0C0000080C0C00000000000C085
:100BB000C0C0C0C000C0C0000000000000000000B5
:100BC0000000000000000000000000000000000025
:100BD0000000000000000000000000000000000015
:100BE0000000000000000000000000000000C0F055
:100BF000F8FC3E1E06010000007F4141417F007F5E
:100C00004141417F000080C0E07E5B4F5BFEC00041
:100C100000C000DCD7DEDEDED7DC00C00000000054
:100C200000000000000000000000000000000000C4
:100C30000000000000494949FFFFFFFFE0DFBFBFA0
:100C400000BFBFDFE0FFFFFFFF4949490000000090
:100C5000001F3F6060E0BF1F007F7F071E381E0738
:100C60007F7F007F7F0E1F3B716000000000007FD0
:100C70007F0C0C0C007E7E007F7E0303007F7E03D2
:100C8000037E7E03037F7E000F3E703C063C703E79
:100C90000F00327B49493F7E007F7E0303001E3FE9
:100CA00069696F2600000000000000000000030FCB
:100CB0001F3F3C7870600000007F4141417F007F12
:100CC0004141417F00307B7F7830202030787F3B6E
:100CD0000003000F7F0F0F0F7F0F000300000000C5
:100CE0000000000000000000000000000000000004
:100CF0000000000000010101070F0F7F0F7F0F0FA1
:100D00007E0F0F7F0F7F0F0F070101010000000012
:100D100000000000000001010000000000000000D1
:100D200000000000000000000000000000000000C3
:100D300000000000000000000000000000000000B3
:100D400000000000000000000000000000000000A3
:100D50000000000000000000000000000000000093
:100D60000000000000000000000000000000000083
:100D70000000000000000000000000000000000073
:100D80000000000000000000000000000000000063
:100D90000000000000000000000000000000000053
:100DA0000000000000000000000000000000000043
:100DB000AF00AE000029003A003B003C003D003E81
:100DC000003F00BD00C25C35001E001F0020002156
:100DD0000022002300BE0000002B0014001A0008AF
:100DE0000015000000170000000000390004001684
:100DF000000700090000000A000000C35CE10032A7
:100E0000001D001B000600190005000000C45CE086
:100E100000E300E2000000015100002C000000404F
:100E2000004100420043004400450046004C00A938
:100E30000024002500260027002D002E002A004C4B
:100E400000AA001C0018000C00120013002F003034
:100E500000A800AE000B000D000E000F00330034A0
:100E60000028003100000011001000360037003863
:100E700000E50052004B0000002C000151E600E4A8
:100E800000500051004F004E000000000000000024
:100E90000000000000000000000000C95C0000002D
:100EA00000000000000000000000000000CA5C001C
:100EB0000000000000000000000000000000000032
:100EC0000000000000000000000000000000000022
:100ED0000000000000000000000000000000000012
:100EE0000000000000000000000000000000000002
:100EF00000000000000000000000000000000000F2
:100F000000000000000000C55C00000000000000C0
:100F1000000000000000000000C65C0000000000AF
:100F200000000000000000000000000000000000C1
:100F300000000000000000000000000000000000B1
:100F400000000000000000000000000000000000A1
:100F50000000000000000000000000000000000091
:100F60000000000001010101010101010102020272
:100F70000202020202020303030303030303040445
:100F8000040404040405050505050606060606070F
:100F90000707070708080808090909090A0A0A0BC8
:100FA0000B0B0C0C0C0D0D0D0E0E0E0F0F0F101069
:100FB00011111112121313141415151616171718F0
:100FC0001819191A1A1B1B1C1D1D1E1E1F2020215B
:100FD0002222232424252626272829292A2B2C2DA2
:100FE0002D2E2F30313232333435363738393A3BC3
:100FF0003C3D3E3F404142434445464748494A4CB8
:101000004D4E4F50515354555658595A5B5D5E5F83
:10101000616264656668696B6C6D6F707273757719
:10102000787A7B7D7E8082838587888A8C8E8F917B
:10103000939596989A9C9EA0A2A3A5A7A9ABADAFA5
:10104000B1B3B5B7BABCBEC0C2C4C6C9CBCDCFD18F
:10105000D4D6D8DBDDDFE2E4E7E9EBEEF0F3F5F838
:10106000FAFDFF0809000102060703040500112428
:101070001FBECFEFDAE0DEBFCDBF04B603FE18C05F
:101080008091CC079091CD07A091CE07B091CF076A
:101090008730904BA740B04B59F41092CC07109278
:1010A000CD071092CE071092CF07E0E0F8E3099544
:1010B00011E0A0E0B1E0E4EDFBE602C005900D9286
:1010C000AE3FB107D9F727E0AEEFB1E001C01D9206
:1010D000AC3CB207E1F70E9471080C94E8350C941F
:1010E0000000A2E3B0E0E7E7F8E00C949F3485B796
:1010F000806885BF85B7806885BF84B7877F84BFD8
:101100000FB6F894A8958091600088618093600084
:10111000109260000FBE90E080E80FB6F8948093C4
:101120006100909361000FBE81E29AE19093FF010C
:101130008093FE010E94A1240E94C0248091E200BD
:1011400084608093E2007894809101058823A1F067
:101150001091E9001F709091EC00892F817090FD33
:1011600080E8182B1092E9008091E80083FD0E942E
:1011700090211F701093E90082E084BD93E095BD3B
:101180009AEF97BD80936E000E944A2B811102C096
:101190000E943A2B0E943C1C8093220180912201E4
:1011A000882321F010927C0185E003C085E08093C4
:1011B0007C0180937D010E94191C81110E942533BE
:1011C00080912201882311F090E001C096E0909375
:1011D000190286E0891B80931802809122018111F7
:1011E0000CC084E191E090932101809320018FE075
:1011F00091E0909313018093120180E090E061E010
:1012000070E0E0911201F0911301E80FF91F2081C5
:10121000E22FE295EF70F0E041A12F70DB0102C0F8
:10122000AA0FBB1F2A95E2F79D01242B21A301964B
:101230008330910531F780E090E061E070E0E0916B
:101240001201F0911301E80FF91F2081E22FE295BE
:10125000EF70F0E032A12F70AB0101C0440F2A956E
:10126000EAF7242F2095232322A3019683309105AA
:1012700031F780E090E041E050E0E0912001F09112
:101280002101E80FF91F2081A22FA295AF70B0E0D5
:1012900091963C9191972F70BA0101C0660F2A95E3
:1012A000EAF7262F2095232391962C932081E22F75
:1012B000E295EF70F0E062A12F70DA0102C0AA0F90
:1012C000BB1F2A95E2F79D01262B22A301968630AB
:1012D000910599F680912201811102C026982E9ADB
:1012E000E0E0F2E0A2E4B3E0119211921D921D92AF
:1012F00022E0E831F207C1F780E00E94CE140E949C
:101300002E1E811102C00E94852B82E090E00E9477
:10131000DF348093AC0284E090E00E94DF34182F29
:1013200082E290E00E94DF34212F30E0382B3093AE
:101330001B0220931A020E946E1F3FEF49EF60E0EC
:10134000315040406040E1F700C000000E946E1F35
:101350008091420380FF08C06FEF7FEF80E090E054
:101360000E9411350E94D62883E090E00E94DF346D
:101370000E94E92E0E94EA2A0E94191C811106C0CF
:101380000E943C1C81111FC082E01EC010921403F9
:1013900010921303109212038FEF8093A802E2E6DB
:1013A000F2E0ACE1B2E011921D9272E0E83AF70788
:1013B000D1F716E241E06FE1812F0E94882A1F5F7A
:1013C0001C36C1F7DDCF80E080933D0380E8809339
:1013D0000B050E94D8316DE070E081E191E00E9440
:1013E0003321892B89F580913D0363E070E081FD15
:1013F00028C08EE091E00E943321892B29F56DE011
:1014000070E08EEF90E00E943321892BE9F40E9476
:101410004B29DC01CB01805A9541AF4FBF4F8093E0
:101420003F0790934007A0934107B09342070E9463
:10143000EA2A81E0809344078093430710923E0399
:1014400003C08BE091E0D7CF8091A902811138C011
:101450000E942E1E811104C00E94852B0E94113013
:1014600088E090E00E94E73460933A0770933B076E
:1014700080933C0790933D07809119078360809388
:1014800019076E7F71F40E94113088E090E00E948D
:10149000E73460933A0770933B0780933C0790933F
:1014A0003D070E94C72F0E947E2B80913A0780FF44
:1014B00004C060E086950E94833181E08093A90298
:1014C0009091220181E0982790930903A82FA91BEE
:1014D000A093AB029091220180930A039091220184
:1014E0008093AA0280912201811106C084E3809337
:1014F000310185E38093300180913101E82FE2953D
:10150000EF70F0E041A1282F2F7081E090E0BC0146
:1015100002C0660F771F2A95E2F79B01362F3095A0
:10152000342331A332A1232B22A320913001E22FB7
:10153000E295EF70F0E031A12F7001C0880F2A957D
:10154000EAF7982F9095932391A392A1892B82A3D8
:101550008FE891E00197F1F700C0000070910A0355
:10156000ABE0B3E001E311E040E351E060E0671776
:1015700051F1F80121918F01822F82958F7090E0B7
:10158000FC0180A190E02F7002C0959587952A9567
:10159000E2F78170FA019191AF01292F22952F7006
:1015A00030E0F90120A130E09F7002C03595279509
:1015B0009A95E2F720FF02C092E001C090E0892BEB
:1015C0008D936F5FD4CF0E94191C811102C00E94BD
:1015D000283383E291E090934807809347072224C1
:1015E0002394312C6AE7862E9E012F5F3F4F5901CD
:1015F00080910105853041F500E112E180910105FE
:101600008530D1F480910105843021F00E94482A70
:101610000E943A1E80910005882381F30E946E1F6C
:10162000E2E4F3E081919191892B09F06BC633E0FC
:10163000EA35F307B9F7E2CF1092F4040E94EE2ED8
:101640000E948F290E94DB140E946E1F982E811128
:101650000E944B29EDEAF2E0A2E4B3E000E010E0E2
:10166000602F2D913D918191919182279327009731
:1016700079F170E0EE24E394F12CAC014E215F216E
:10168000452B09F179A36AA32E213F2181E0232B69
:1016900009F480E08BA30E9457298160782F9DA3D5
:1016A0008CA349A15AA16BA18DA10E947412000FB5
:1016B000111FF801E355FD4F80819181E826F9263D
:1016C000F182E0821AC07F5FEE0CFF1C7930A9F630
:1016D0000F5F1F4F0C30110519F68FEF8EA38FA3EC
:1016E00018A60E9457298160782F9AA789A74EA132
:1016F0005FA168A58AA50E9474120E94191C882304
:1017000009F4D0C0C090D002D090D1020D2C000CB2
:10171000EE08FF0810912F01412F50E0E2EDF2E0BA
:1017200081E090E04817590764F021913191290137
:10173000330F66087708C40CD51CE61CF71C01960D
:10174000F1CFF7FE03C0C12CD12C76016091CC0201
:101750007091CD028091CE029091CF020E942029FB
:101760006BA77CA78DA79EA7A0E6BAEEA70196015E
:101770000E94A3352B013C0188EC189F9001112495
:10178000C901330FAA0BBB0B2BA53CA54DA55EA52C
:10179000280F391F4A1F5B1FA5E0B0E00E94A33548
:1017A0009B01AC01C301B2010E94553529013A01E8
:1017B00057FD0BC0213F3105410551054CF0A0EF0D
:1017C0004A2E512C612C712C03C0412C512C32011A
:1017D0006BA57CA58DA59EA5693C7105810591052C
:1017E00014F18091CB0290E0019669E170E00E94D3
:1017F00041358093CB02880F991FFC01E053FD4FC8
:1018000011821082183110F41F5F01C018E110938B
:101810002F010E944B296093CC027093CD028093DC
:10182000CE029093CF0272E0C716D104E104F10416
:101830001CF4412C512C32016091C7027091C802F6
:101840008091C9029091CA020E9420296B017C01FB
:1018500085E6C816D104E104F10484F00E944B2906
:101860006093C7027093C8028093C9029093CA0222
:10187000809115038093C6024092C5021091C60262
:10188000A091C502B0E0A11BB109A70196010E9479
:10189000AE3524E630E040E050E00E947735120F8C
:1018A0001093150380911807882309F493C0809141
:1018B0001707E0913A07E695E81BE093C8078230E6
:1018C00059F4F0E0E95DFE4FE4910E2F10E0E1E005
:1018D000EE2EE8E2FE2E2FC0853061F4E695F0E0B2
:1018E000EC5DFE4FE4910E2F10E077ECE72E77E2EF
:1018F000F72E21C08B3061F4E695F0E0EF5DFE4FEE
:10190000E4910E2F10E06BE3E62E67E2F62E13C093
:10191000813159F4F0E0E25EFE4FE4910E2F10E0C9
:1019200055EBE52E56E2F52E06C000ED17E040E53A
:10193000E42E46E2F42E8091C907882361F01092CC
:10194000C9070E9457299093C7078093C607109232
:10195000CB071092CA070E945729E091C607F09161
:10196000C7079C012E1B3F0B2F3F3F4798F5209147
:1019700004032223B1F0109204032091020330915A
:101980000303821B930B8F3F9F4758F4205D3A4817
:10199000309303032093020380911907886080939A
:1019A0001907C090CA07D090CB070E0F1F1F1093C6
:1019B000C7070093C60786EC97E0F7010995809169
:1019C000CA079091CB07892B29F4CD2819F081E023
:1019D00080930403D12CF12C80910A03D81608F0CF
:1019E0008AC00D2D10E0F801EF5CFE4F8081E82FDA
:1019F000E295EF70F0E0E0A1F0E08F7002C0F595A5
:101A0000E7958A95E2F7E170D801A05DBE4F2C9171
:101A1000A22FA295AF70B0E090968C9190E02F70BD
:101A200002C0959587952A95E2F780FF02C082E073
:101A300001C080E04E2F482BD801A55FBC4FEC9130
:101A40008E2F837090E0242F042E000C330B82170E
:101A5000930709F44EC0EE0FEE0FE42BEC93E090E9
:101A60000903ED0CEF70F0E0E057FE4F095F1C4FEB
:101A70009081D8018C91890F8C938430ACF08E2D9D
:101A800090E0FC01EB5FFC4F20812F5F2083880FEB
:101A9000991F880F991FFC01E857FE4F828193819F
:101AA0000E94E81421E001C020E0F80180818D3F10
:101AB000A4F48E2D90E0FC01EB5FFC4F20812150BF
:101AC0002083880F991F880F991FFC01E857FE4F4C
:101AD000808191810E94E81421E0D8018C91082E28
:101AE000000C990B64E070E00E944135F80180839E
:101AF000F22AD39471CFF1100E94C01D8091440747
:101B0000882309F449C280913F03909140030E94C9
:101B10003C29883C910508F43AC10E9457299093CA
:101B2000400380933F0380E00E947E210E943C1C82
:101B3000882309F4ABC08091140381112EC00E9448
:101B4000BB130E94501380E090E00E942F141FE10D
:101B50000FE1D02E8FE0C82E8D2D811B6C2D0E94A1
:101B60002735911108C041E0612F85E70E94882A3E
:101B7000B3E0EB2E02C0A2E0EA2E00E041E0612FCC
:101B8000882D801B0E94882A0F5F0E11F7CF1350FB
:101B90001E3F11F781E0809314034090150380E00D
:101BA0000E947E2184E891E00E94662181E00E94EB
:101BB0007E2180913201481205C08091110380334B
:101BC00009F449C04092320180E380931103512C03
:101BD000612C712C10921003C301B2012AE030E095
:101BE00040E050E00E945535605D603329F04114BB
:101BF00051046104710409F460E360930F03C301AD
:101C0000B2012AE030E040E050E00E945535211555
:101C100031054105510551F0CA01B9012AE030E012
:101C200040E050E00E945535605D01C060E3609384
:101C30000E03C301B20124E630E040E050E00E9410
:101C40005535211531054105510511F0205D01C0C3
:101C500020E320930D038DE093E00E9466218091A4
:101C60001203909113030E943C298D32914008F495
:101C70008EC0809115030E94BB130E9450130E94D6
:101C80005729909313038093120381C06091190325
:101C900070911A0380911B0390911C030E942029CC
:101CA00020913301022F10E020E030E006171707E3
:101CB0002807390708F05BC00E944B29609319037D
:101CC00070931A0380931B0390931C0380E00E947F
:101CD0007E2180911803813009F443C0F8F08230EE
:101CE00009F045C08091160390E001968170992714
:101CF00080931603B101681B790BCB0123EB289F5E
:101D0000B001299F700D112466557E4FE6E0880FC3
:101D1000991FEA95E1F7865D9E4F27C080911703D2
:101D200090E0019663E070E00E94413580931703D4
:101D30009101281B390BC90137FF03C0919581958B
:101D4000910924EA289FB001299F700D1124625542
:101D50007B4FF6E0880F991FFA95E1F782519C4F6F
:101D600004C060E173E08EEA93E00E941313809157
:101D70001503823020F4109218038FEFF1C28E31D8
:101D800008F0EAC281E0809318030E944B298091F9
:101D90004407882309F4E5C020910C0530910D0516
:101DA0002115310509F4DDC080913E038111D9C0B0
:101DB000082F10E03101082E02C0660C771C0A942F
:101DC000E2F7A90146215721452B11F48F5FF0CF8F
:101DD00090913D03980165E0220F331F6A95E1F76A
:101DE00090FD12C08295880F807680933601220F75
:101DF000232F221F330B319520933901815E80936D
:101E0000370110923A0112C045E0369527954A9560
:101E1000E1F7220F220F220F209336011092390191
:101E2000295F2093370183E080933A0124E630E074
:101E300047E050E064E371E088E70E948332892B39
:101E400009F08FC080913D0380FD22C0A80125E0EC
:101E5000440F551F2A95E1F7425F5A4F04E610E000
:101E600020E230E060E488E70E94A432892B09F088
:101E700078C00E94622A6094709480910C059091C1
:101E80000D056822792270920D0560920C0569C0DB
:101E900080E2EDE1F3E0DF011D928A95E9F7680148
:101EA00095E0CC0CDD1C9A95E1F7E4EAF1E0FAABA1
:101EB000E9AB20EA31E03CA72BA7A9A9BAA90D916B
:101EC000BAABA9ABEBA5FCA58191FCA7EBA796014A
:101ED000280F311DB901625F7A4F78AB6FA710E010
:101EE000035E1C4FF80197E09F01201B310B322D40
:101EF00001C0330F2A95EAF74FA458A820E0D20179
:101F00008D912D018323692F621B6770462F062E4A
:101F1000000C550BB82F01C0BB0F6A95EAF76B2F69
:101F20005195419551094770552701C086954A95AD
:101F3000EAF7682B8081682B60832F5F2830F9F6E1
:101F4000915031969F3F81F6E9A9FAA9E85AF140EC
:101F500009F0B3CF04E610E020E230E04DE153E0B9
:101F600081CF809143078823B9F00E944B290091CB
:101F70003F07109140072091410730914207DC0153
:101F8000CB01801B910BA20BB30B8F3F9F4FAF4F29
:101F9000BF4710F40E94482A911001C0F1100E941E
:101FA000622A0E948F2990914103891721F0809322
:101FB00041030E94DB1480910105843009F018CBA5
:101FC00083E08093E9008091E80082FF11CB80914B
:101FD000E80085FF23C00E94F22581111DC080E228
:101FE000E82EF12C8E010F5F1F4F09C08091F10088
:101FF000D8018D938D01B1E0EB1AF10869F0809161
:10200000E80085FDF3CF8091E8008B778093E800AE
:102010000E94F225882399F391E001C090E080911D
:10202000E8008B778093E800992309F4E1CAE981FD
:102030008E2F90E0FC013197E331F10508F03AC1B1
:10204000EA5AFF4F0C9496351A8289E098C08A812B
:10205000823009F478C1833051F0813009F02AC10F
:102060000E944B299B838C837D836E8325C1FE0157
:102070003196CE014996A2E4B3E02C9111963C91A1
:1020800011971296328323833296E817F907A9F73E
:1020900013C18A81823009F00DC16B817C818D81F1
:1020A0009E810E949C350E94162B06C14C816B813B
:1020B0008A810E940C2A9D834DC12D813E81322749
:1020C000232732274C816B818A810E94B029F4C07A
:1020D0000E94D729F1C08A818138B1F050F480384C
:1020E00009F0EAC020E04B8160913C0780913B07FA
:1020F00023C08238E9F0833809F0DEC020E0409147
:102100003D076C818B8118C060E08B810E94833118
:102110008B81811103C00E946B31CEC080913A0740
:10212000816080933A0760E086950E948331C4C045
:102130008B8180933E07C0C00E94B530BDC08A81AC
:10214000813899F030F4803809F0B6C080913D07AD
:1021500016C0823891F0833809F0AEC080913B07F9
:102160008B8380913C078C83A7C080913A0780FFC6
:1021700002C0869504C080E002C080913E078B8338
:102180009BC060913A0770913B0780913C0790910A
:102190003D070E94DA2F90C080E149C01A8289E78A
:1021A000EECF0A811B81102701271027CC80D12C6C
:1021B0007501C80189579C4F97012A193B092C15B5
:1021C0003D0508F079C00937110528F40E94DF3475
:1021D000F701848303C0D70114961C920F5F1F4F31
:1021E000BFEFEB1AFB0AE5CF0A811B8110270127FD
:1021F0001027CC80D12C7501C80189579C4F9701BD
:102200002A193B092C153D0508F056C00937110560
:1022100020F4F70164810E94F3340F5F1F4FFFEF3A
:10222000EF1AFF0AE9CF0E94A02946C084E08A8302
:1022300043C00A811B81102701271027CC80D12C95
:102240007501C801879697012A193B092C153D0590
:1022500098F5003623E0120730F40E94DF34D701EE
:1022600014968C9302C0F70114820F5F1F4FFFEF8B
:10227000EF1AFF0AE6CF0A811B81102701271027DA
:10228000CC80D12C7501C801879697012A193B098A
:102290002C153D0588F4003623E0120728F4D701F9
:1022A00014966C910E94F3340F5F1F4FBFEFEB1A2F
:1022B000FB0AE9CF8FEF898380910105843009F013
:1022C00097C91091E9001F709091EC00892F8170DF
:1022D00090FD80E8182B82E08093E9008091E8006F
:1022E00080FF0CC040E050E060E270E0C5010E9459
:1022F00025268091E8008E778093E8001F70109368
:10230000E90076C909BD19BD09B400FEFDCF809171
:10231000D8008F7D8093D8008091E0008260809308
:10232000E0008091E00081FDFCCF1092F4040E9457
:10233000EE2E4FEF64E37CE0415060407040E1F7E7
:1023400000C000005BC986E290E00E94DF341B827F
:102350001C821D828E83B0CF82E0809318038BE4B1
:102360008093330114CD1092F4040E94EE2E2FEFCF
:1023700084E39CE0215080409040E1F700C00000E1
:102380009CE088E10FB6F894A895809360000FBE9A
:1023900090936000FFCF8823B9F19CEF980F913A9A
:1023A00060F4E2E5F7E09281891301C01282319670
:1023B00047E0E835F407B9F714C090E2980F983079
:1023C00098F4877021E030E0A90102C0440F551F46
:1023D0008A95E2F7CA0180959091F404892380934D
:1023E000F4040E94F02B08959BE5980F933028F495
:1023F00080E090E00E9479290895885A873120F47E
:1024000080E090E00E94632908950F931F93CF937B
:10241000882309F465C0C82F8CEF8C0F813A50F5E2
:1024200004E517E08AE597E0F8012191C21721F051
:102430008E179F07D1F70EC0E2E5F7E088E597E039
:102440002281C21301C0128231968E179F07C1F7F5
:102450000E94F02BEFEF80E0D8019D918D01C9170C
:10246000C9F0EF3F19F4911101C0E82F8F5F86305A
:1024700099F72DC080E28C0F883078F4C77081E026
:1024800090E001C0880FCA95EAF79091F404892B77
:102490008093F4040E94F02B23C0EBE5EC0FE330B3
:1024A00040F4F0E0E855FE4F808190E00E947929E9
:1024B00017C0C85AC731A0F4EC2FF0E0EE0FFF1F91
:1024C000E555FE4F808191810E94632909C0EF3F4D
:1024D00009F30E2E000CFF0BEE5AF84FC283DACF31
:1024E000CF911F910F910895A7E1B0E0EAE7F2E1E3
:1024F0000C94AE344B8B5C8B6D8B7E8B8F8B611110
:102500001092C40786E09E01235F3F4FD901E82F58
:102510001D92EA95E9F795E0FE017396D9010190C5
:102520000D929A95E1F79C894E895F897B897D8719
:102530009E876F87598B488BF901DE0117960190B2
:102540000D928A95E1F7CE0107960E94F32C811136
:102550003EC086E0FE013796DE01119601900D9295
:102560008A95E1F7FF81E8856A857B8561157105AC
:1025700031F0EF3F31F481E0FF3F19F403C081E017
:1025800001C080E080FD23C020918A0730E0C901AE
:102590000196877099274091BB0750E084179507F3
:1025A00079F1F983EA837D836C8396E0929FD00171
:1025B000939FB00D1124A557B84FFE01319601909D
:1025C0000D929A95E1F780938A070E94242C16E0D9
:1025D0008091BB0790918A07891709F1189FC00164
:1025E00011248557984F0E94F32C8823C1F08091C5
:1025F000BB0790E00196877099278093BB07E8CFCF
:102600001092F4040E94EE2E10928A071092BB07DB
:10261000E4E8F7E086E0DF011D928A95E9F7679626
:10262000E3E00C94CA34A0E0B0E0E9E1F3E10C94FB
:10263000A5347C016B01C0E0D0E000E010E0AA24EA
:10264000A394B12CFE0183E0F695E7958A95E1F716
:10265000EE0DFF1DE4918C2F8770950102C0220FB3
:10266000331F8A95E2F7E22369F048013FEF831AAE
:10267000930AF601E00FF11F8491BE010E94C62A61
:10268000840104C0BE0180E00E94C62A2196C115C3
:1026900082E0D807B9F6CDB7DEB7ECE00C94C134D0
:1026A000A0E0B0E0E6E5F3E10C94AA3490911403C5
:1026B0008091610291111FC01FE1181B85E0E82E77
:1026C000F12CC0E091E7D92EDC2F0D2D0C1B8D2FA6
:1026D00090E08E159F0544F4612F6D1B41E0802F23
:1026E0000E94882ADF5FF3CFCF5F81E0E81AF1080C
:1026F000C33051F73BC090916002282F291B12165E
:10270000D4F41FE1191B153088F1DAE1D91BC0E0C0
:1027100001E7F02EFC1A612F6C1B40E08F2D0E9408
:10272000882A41E06D2F8F2D0E94882ACF5FDF5FBE
:10273000C33079F71BC02223C9F01FE1181B1530E5
:10274000A8F0DAE1D81BC0E001E7F02EFC1A40E067
:102750006D2F8F2D0E94882A612F6C1B41E08F2DD9
:102760000E94882ACF5FDF5FC33079F7CDB7DEB72D
:10277000E7E00C94C634A0E0B0E0E1ECF3E10C94A7
:10278000A934082F80911403882351F082E6C82EC3
:1027900082E0D82ECCE1D2E016E29FE1E92E24C0FF
:1027A000C6E241E06FE18C2F0E94882ACF5FCC36D1
:1027B000C1F750C08881F980F81AF7FE06C06E2D67
:1027C000681B40E0812F0E94882AF6018181819355
:1027D0006F0189818993FF2031F06E2D681B41E0E4
:1027E000812F0E94882A1F5F9E012C5132401B3688
:1027F00009F7C9018E599D4F7C01FC019081E901C7
:10280000C45EDD4F901740F48881282F30E02F31CF
:10281000310514F48F5F10C0091710F001110DC0BD
:102820008881882351F088816FE1681B40E08BE646
:102830000E94882A888181508883F70100838881DB
:1028400021979881891731F06FE1681B41E08BE691
:102850000E94882ACDB7DEB7E8E00C94C534EF9229
:10286000FF920F931F93CF93DF937C01809114030A
:1028700081111DC0C1E041E062E18C2F0E94882AD5
:1028800041E06FE18C2F0E94882ACF5FC33299F715
:10289000C3E141E06C2F80E00E94882A41E06C2F68
:1028A00083E20E94882ACF5FCF3199F723C0F701D6
:1028B0002181822F66E00E9427358081263008F032
:1028C000885F990F880F11E0180FC3E0C80F03E16C
:1028D000090FD4E1D90FF7014281602F812F0E94A7
:1028E000882AF70142816D2F812F0E94882A1F5F5D
:1028F000C113F1CFCDB7DEB7E6E00C94C7341F9219
:102900000F920FB60F9211242F938F939F93EF93F3
:10291000FF939091CE0080919D048F5F803408F0EA
:1029200080E020919C04821739F0E82FF0E0E45A0F
:10293000FB4F908380939D04FF91EF919F918F9126
:102940002F910F900FBE0F901F9018951F920F920E
:102950000FB60F9211248F939F93EF93FF93909153
:102960005B0480915A04981304C088E98093C900DD
:102970000CC080915A048F5FE82FF0E0E65AFC4FBC
:1029800090819093CE0080935A04FF91EF919F9194
:102990008F910F900FBE0F901F901895813031F0DE
:1029A00038F0823039F4809A889A0895809801C06E
:1029B000809A88980895CF9381FBCC27C0F90E9414
:1029C000191C882319F08C2F0E94CE14CF910895E2
:1029D000AAE0B0E0EEEEF4E10C94AD34182F092F2C
:1029E0009E838F8381E088870E9457298160782F9A
:1029F0009A8789874E815F8168858A850E947412D3
:102A000009831A831B820E9457298160782F9D8336
:102A10008C8349815A816B818D810E9474122A9620
:102A2000E4E00C94C934A9E0B0E0E9E1F5E10C94EC
:102A3000A234FC018081918123813481232B31F0E8
:102A40009F3F31F491E08F3F19F403C091E001C042
:102A500090E090FDF2C47F0185E0DE0111960190C7
:102A60000D928A95E1F7F701228189819A812223CB
:102A700049F00E94972C182F682F89819A810E9413
:102A8000962E03C00E94622E182F69817A81812FB1
:102A90000E943A2A8C01F7018281882399F1C801AA
:102AA00090568115F0E29F0748F0905E811520E175
:102AB000920720F0915C81159F4118F4C801992775
:102AC00008C00F3F110521F018F080E090E001C030
:102AD000C8019C01245031092432310518F08B972C
:102AE0000E9780F4E091CB02F0E0EE0FFF1FE05371
:102AF000FD4F808191818F3F4FE7940719F0019638
:102B000091838083F7018281882309F481C4C801FD
:102B100082519F45409708F00BC18FEF93E00E94D0
:102B2000DF3481118AC40251F7E8AF2EF3E0BF2EE3
:102B3000002379F0A114F4E0BF0609F47EC4C501B6
:102B40000E94DF34811101C001502FEFA21AB20A96
:102B5000EFCF1E821F821886198666246394EAE0EE
:102B60005E2E85010F5F1F4FC5010E94DF348E83EB
:102B70001F82882309F461C49FEF980F933060F49B
:102B80008F836E8232E0A30EB11CC8010E94DF3435
:102B90008887811102C051C458018E010A5F1F4FFE
:102BA000F80120812223E9F2213009F053C081810C
:102BB000813081F47801F2E0EF0EF11CF80182819E
:102BC000893319F060E070E002C060E570E00E94B7
:102BD0000D2F0AC0823051F47801F2E0EF0EF11CA3
:102BE000F80182810E940512870190C0833049F468
:102BF0007801F2E0EF0EF11CF80182810E94CB1106
:102C0000F3CF843019F00F5F1F4F80C0F80122818D
:102C10000E5F1F4F80E090E030E0205331092A30F2
:102C2000310568F4589EA001599E500D1124C90128
:102C3000840F951F0F5F1F4FF8012081EDCF009784
:102C400009F464C0EFE9FFE03197F1F700C000003C
:102C50000197F5CFE22FF0E0E653F94F7490822F01
:102C600086958695869590E0FC01E654F94FE490B0
:102C70002770F12C022E02C0F594E7940A94E2F733
:102C8000F1E0EF22FF24FC01E655F94FC490D12C6E
:102C9000022E02C0D594C7940A94E2F731E0C32211
:102CA000DD24FC01E656F94F8490912C02C09594E6
:102CB00087942A95E2F741E084229924E114F104F3
:102CC00019F081EE0E940512C114D10441F186EE83
:102CD0000E94051289E37816E1F060E070E0872D2C
:102CE0000E940D2FC114D10419F086EE0E94CB1161
:102CF000E114F10419F081EE0E94CB1181149104CA
:102D000029F060E070E08CE20E940D2F0F5F1F4FF2
:102D100047CF60E570E089E30E940D2FE6CFF9E32D
:102D20007F12DBCF60E570E089E30E940D2FE0CFDA
:102D300000312FE5120711F481E005C001313FE5B4
:102D4000130731F482E00E94DD2E0E945A2175C3E0
:102D50000E943C1C8823B1F1C7010E942F14F70187
:102D60008281882309F44EC08091A802082E000CAD
:102D7000990B01966FE170E00E9441358093A802A3
:102D8000892B81F47CE7C72ED12C40E06D2D8C2D52
:102D90000E94882AD394FFE1DF12F7CFC3942FE774
:102DA000C212F2CF5CE7D52E6FE1C62E8091A80249
:102DB0006C2D681B41E08D2D0E94882AD3943FE73B
:102DC000D312F4CF00384FE5140709F101388FE52D
:102DD000180709F46AC001159CE5190709F080C0BD
:102DE000F7018281882309F428C30E94191C8823D3
:102DF00009F423C381E00E94CE140E946B310E942B
:102E0000482AAEC000389FE5190709F049C0F7010C
:102E10008281882309F464C060E070E082E70E9448
:102E20000D2F80913A0780FF5BC090919E049923FB
:102E300041F0816080933A0760E086950E9483317B
:102E400028C00E947E2B80913A0780FF22C09E01FD
:102E50002A5F3F4F40913D076FEF8FEF0E9429306F
:102E600088859E812F8130913A0730FF12C0EBE1B7
:102E7000F7E0248393838583339637E0E732F307C3
:102E8000C1F70E94252F8FE99FE00197F1F700C05D
:102E9000000090919E0481E0892780939E0420C0C9
:102EA0000138EFE51E0709F0C2C2F70182818823CD
:102EB000A1F08091A304811106C081E08093A30456
:102EC00082EE0E9405120E9457299093A2048093DB
:102ED000A1048BE20E94051203C08BE20E94CB1179
:102EE000F701828181111BC08091F40482720B3C36
:102EF000FCE51F0709F4DBC008F059C0063C3CE5BF
:102F0000130709F4C0C0E8F5033C9CE5190709F470
:102F1000AEC048F5023CFCE51F0709F47EC0F7018E
:102F20008281882309F4DEC00E3DFCE51F0709F409
:102F3000D5C0073A2DE5120709F4D2C001153CE5CA
:102F4000130709F0CFC01092F4040E94EE2E4FEF49
:102F500084E39CE0415080409040E1F700C00000D5
:102F60000E94D6286AC2043C2CE5120709F484C0EA
:102F7000053C3CE5130799F64CE351E366E471E345
:102F80007FC0083C4CE5140709F487C008F480C0F2
:102F9000093CECE51E0709F485C00A3CFCE51F0767
:102FA00009F0BDCF45E151E368E071E369C0003D40
:102FB0002CE5120709F48AC0A0F40D3C4CE5140777
:102FC00009F47FC008F478C00E3CECE51E0709F454
:102FD00034C20F3CFCE51F0709F0A1CF64E082E09A
:102FE0007AC0063D2CE5120790F4033D3CE513073B
:102FF00008F023C2013D4CE5140709F46AC0023D04
:103000008CE5180709F08BCF63E181E164C00D35D1
:103010009DE5190709F411C282CF80913A0780FF1C
:1030200020C08E7F80933A0760913A0770913B07EA
:1030300080913C0790913D070E94DA2F0E947E2BE1
:1030400080911907816080931907EFEFF0E722E084
:10305000E150F0402040E1F700C000000E94252F21
:10306000ECC1816080933A0761E086952CC043EC07
:1030700051E36DEC71E304C04DEC51E363EC71E39B
:103080000E94772BDAC146E451E36CE371E3F8CF99
:1030900042E251E36FE271E3F3CF4FE251E362E2C8
:1030A00071E3EECF48E051E365E171E3E9CF4DEE26
:1030B0005FE26FEF7FE2E4CF4FEF5FE26DEE7FE222
:1030C000DFCF61E081E00E948331B7C16AE085E033
:1030D00002C060E18BE00E94632BAFC10E94852B90
:1030E0000E94B311F70100811181882349F0C801C2
:1030F0000E94972CD82E682FC8010E94962E04C0DB
:10310000C8010E94622ED82EB8018D2D0E943A2A45
:103110000E94451C082FD82EF70122813581329557
:103120003F70F92EF2944FE0F4224F2D50E04C30D6
:10313000510508F064C1FA01E759FF4F0C94963528
:10314000892F807F9F70192F882311F01295107F8F
:103150002223B9F0112309F43EC180E2800F8830A8
:1031600010F0D11006C09091F404192B1093F404C0
:1031700005C09091C407192B1093C4070E94F02B2F
:103180002AC1802F0E94CB11112309F438C1005E9F
:103190001095083010F0D11006C09091F404192356
:1031A0001093F40405C09091C40719231093C40729
:1031B0000E94F02B24C1492F407F892F8F7040320D
:1031C00011F08295807FF1E0DF120AC0222321F006
:1031D000363008F014C108C0353008F010C114C0F2
:1031E000222329F03111F7C00E94032F08C1332395
:1031F00059F0093309F000C12FEF37EE43E02150B9
:1032000030404040E1F7F6C00E94F82EF8C0892F08
:1032100086958695837019F0813059F0F0C022238D
:1032200019F0802F937002C080E090E00E9479290D
:1032300004C1222319F0802F937002C080E090E037
:103240000E946329FAC0892F8370A9F52111DBC080
:10325000802F829586958770880F880F202F2F707A
:10326000082E01C0220F0A94EAF704FF09C04FE0BC
:1032700050E001C0440F8A95EAF7842F809501C081
:1032800080E096959695492F4370423069F088F416
:103290009091C507413019F0822B892302C0922BEF
:1032A000892B0E94E92EAFC0822B9091C5078927F8
:1032B000F8CF822BF6CF222319F0892F817001C01D
:1032C0008695882309F49FC0802F82958695877004
:1032D000880F880F202F2F70082E01C0220F0A940C
:1032E000EAF704FF09C04FE050E001C0440F8A959F
:1032F000EAF7842F809501C080E096959695492F36
:103300004370423059F078F490911607413019F02B
:10331000822B892309C0922B892B06C0822B909186
:103320001607892701C0822B0E94CB2E6CC0192F53
:103330001F70222339F0812F0E94DD2E802F0E94E2
:10334000032F61C00E94F82E812F0E94D02E5BC0F7
:10335000E1EF8E1709F1E81720F0F0EF8F1741F039
:1033600036C042EF8417F9F0E3EF8E1719F12FC042
:10337000222379F0353008F042C0292F2F7181E0E7
:1033800090E001C0880F2A95EAF7909116078927E7
:103390001BC03630A0F5F1CF222339F0892F8F7171
:1033A0000E94DD2E2CC02223C9F3892F8F710E9429
:1033B000D02E25C0222339F09F7181E001C0880FF3
:1033C0009A95EAF701C080E00E94CB2E18C0222314
:1033D00031F0332319F3802F0E94051210C03323DC
:1033E00021F3893349F4FFEF27EE33E0F150204019
:1033F0003040E1F700C00000802F0E94CB1188EF21
:103400008F0D8430D0F40E948F290E94DB1415C0E8
:1034100000314FE5140721F481E00E94D02E95CCB5
:1034200001318FE5180709F093CC82E0F6CF011542
:10343000FCE51F0709F058CDD3CC2996EFE00C949A
:10344000BE3480E0089590911A0292FF0DC0282F9B
:103450002871283019F4877F846006C0282F2471D2
:10346000243011F48B7F886093FF0DC0282F2871C2
:10347000283119F4877E846106C0282F24712431F5
:1034800011F48B7E886120911B0220FF0DC0382F24
:103490003871383019F4877F816006C0382F317158
:1034A000313011F48E7F886021FF0DC0282F2871E4
:1034B000283119F4877E816106C0282F21712131BE
:1034C00011F48E7E886194FD877E0895A0E0B0E0BF
:1034D000ECE6FAE10C94A7347C015B016A0180916F
:1034E000F2048A3018F001E010E002C00AE010E0B7
:1034F000C1E0D0E0B501C701F6010995811115C001
:1035000021960C171D0794F0CC9F9001CD9F300D94
:10351000300D112480E090E045E34A95F1F700007A
:10352000019682179307C1F7E5CF81E0CDB7DEB7EB
:10353000EAE00C94C334A0E0B0E0E1EAFAE10C94D4
:10354000A934C82F7B01D42F6901FB0160817181EF
:10355000828193810E94202964367105810591053D
:1035600010F4DD2339F10C2E000CDD0B01151105D3
:10357000A9F0FE0183E0EE0FFF1F8A95E1F7E55CFD
:10358000FE4F8181928187559B4F408150E0041707
:10359000150708F4A801B6010E94DF35CE010E948C
:1035A0001034882341F00E944B29F7016083718316
:1035B0008283938381E0CDB7DEB7E8E00C94C53415
:1035C000A1E0B0E0E6EEFAE10C94AD34809143075F
:1035D00089832091CD0430E090E041E0281739073D
:1035E00009F440E001E010E09E012F5F3F4F6EEED6
:1035F00074E087E00E949B1A2196E4E00C94C934A1
:10360000A1E0B0E0E6E0FBE10C94AD34809115035D
:10361000898341E09091CC04981301C040E001E01F
:1036200010E09E012F5F3F4F6AEE74E086E00E943B
:103630009B1A2196E4E00C94C934A8E0B0E0E3E2E0
:10364000FBE10C94AD3485E0EAE3F7E0DE0111968E
:1036500001900D928A95E1F78091170790911807D4
:10366000A09119078E839F83A88741E088858111E7
:1036700001C040E008E010E09E012F5F3F4F66EE82
:1036800074E085E00E949B1A811110921907289618
:10369000E4E00C94C9340F931F93CF93DF93EC01B4
:1036A0004CE050E066EB74E00E94D23541E0892B9B
:1036B00009F440E00CE010E09E016EED74E082E061
:1036C0000E949B1ADF91CF911F910F910895A1E065
:1036D000B0E0EDE6FBE10C94A334C62E4A0159019B
:1036E000682E880F7708C3010E941034882309F4DC
:1036F00066C0C30123E0880F991F2A95E1F7FC01FA
:10370000E55CFE4F438150E04115510511F041E069
:1037100050E0FC01E55CFE4F6481758167557B4F8D
:10372000CE0101960E94DF35F401608171818281B2
:1037300093810E942029643671058105910538F432
:10374000B701C8010E94FF2A99818917D1F10C2C79
:10375000000CDD08C6010E941034782E8823E1F0A9
:10376000E114F104C9F0960183E0220F331F8A951A
:10377000E1F7F901E55CFE4F438150E0E416F50600
:1037800008F4A701F901E55CFE4F64817581675576
:103790007B4FC5010E94DF35B701C8010E94FF2A97
:1037A00091E02981281390E0D92ED72089F00E943A
:1037B0004B29F401608371838283938309C0D12CE8
:1037C00002C0DD24D394A701B801C5010E94DF35F2
:1037D0008D2D2196EEE00C94BF34ACE0B0E0E3EF29
:1037E000FBE10C94A9346B018CE0E82EF12C0AEA81
:1037F00014E09E012F5F3F4F4AED54E061E080E00E
:103800000E94671B882349F09CE0FE013196AEECD4
:10381000B4E001900D929A95E1F79CE0EEECF4E0B3
:10382000D60101900D929A95E1F72C96E8E00C9460
:10383000C5348091A804811118C08091D80080619E
:103840008093D8008AE18A95F1F700C08091D90071
:1038500080FD02C082E001C081E08093A804823034
:1038600021F40E94A1241092010581E09091A80406
:10387000913009F080E0089526982E9883B186FB58
:10388000882780F991E089270895CF93DF938238C4
:10389000910569F1B0F48133910509F46FC048F4E2
:1038A0008932910509F465C08A32910509F46BC02B
:1038B0008AC08533910509F457C089339105B9F061
:1038C00082C0833E910571F138F4803E9105B1F0DC
:1038D000823E910511F177C0863E9105B9F1873E90
:1038E0009105C9F1843E910509F06DC024C0209175
:1038F0001A0220FD53C021FD51C065C080911A02FB
:1039000080FD46C080911B0280FF48C080911A0252
:1039100084FD31C183EE90E030C180911A0282FFB4
:103920003AC0F4CF80911A0282FD35C080911B020B
:1039300080FD34C0EBCF80911B0281FF35C08091A8
:103940001A0284FD18C187EE90E017C180911A0217
:1039500083FF27C0F4CF80911A0283FD22C080919B
:103960001B0281FD21C0EBCF80911A0285FD1FC093
:1039700021C080911A0285FD1DC019C080911A02D4
:1039800086FD1BC01DC080911A0286FD19C015C09E
:1039900089E390E0F2C082EE90E0EFC080EE90E02C
:1039A000ECC086EE90E0E9C084EE90E0E6C089E2EB
:1039B00090E0E3C085E390E0E0C08AE290E0DDC003
:1039C00081E390E0DAC0811531E5930708F062C029
:1039D000811540E59407F0F09C0154E03695279559
:1039E0005A95E1F7922F9370482F437021E030E011
:1039F00002C0220F331F4A95E2F73C68392B982FFB
:103A00009F709695969540E2949FC0011124822B59
:103A1000932BB3C08F3B910520F5883A910558F060
:103A2000885AE82FF0E0EE0FFF1FE555FE4F80812A
:103A300091819464A2C0853A910548F0855AE82F97
:103A4000F0E0E855FE4F808190E0906496C08430AD
:103A5000910508F092C0019709F08DC081E090E0D7
:103A60008CC0811520E2920768F4811531E093073C
:103A700008F083C09C01205E31092830310508F030
:103A80007AC07BC0811540E4940708F474C09F702D
:103A9000906A73C0811524E59207C8F5811533E556
:103AA0009307B0F09C012370332741E050E002C03F
:103AB000440F551F2A95E2F7282F2695269580E278
:103AC000289F90011124CA01822B932B9A6855C01C
:103AD000811542E5940728F4982F8827816F906A12
:103AE0004CC09C012370332741E050E002C0440FDA
:103AF000551F2A95E2F7282F2695269580E2289FC4
:103B000090011124CA01822B932B9C6836C0EC01D2
:103B1000C1158AE5D807F8F4C11529E5D20790F058
:103B20008C2F8F700E94231A94E0D695C7959A9592
:103B3000E1F7CF70D0E0DC2FCC27D0699E01282B95
:103B4000C9011BC0C11538E5D307A8F09C2F8827F1
:103B5000806F906A12C0CE0190568115904258F441
:103B60008D2F8F710E94231A282F2F71CE01992734
:103B70009062922B02C080E090E0DF91CF91089597
:103B80000E944B290895A1E0B0E0E9ECFDE10C941E
:103B9000A534EE24E394F12C03EC14E09E012F5F96
:103BA0003F4F42EE54E064E083E00E94671B982E92
:103BB000882309F44EC0E12C80E09091AA02E91616
:103BC00008F044C00091AB020E0D10E098012B5F8D
:103BD0003C4F6901E1E0F0E0EC0FFD1FEE0DF11D3F
:103BE000F080F9019081F91A8F2C9801220F331F70
:103BF000220F331FA90146575E4F5A01181464F46F
:103C00008A94F60180818F5F8083F50180819181A4
:103C10000E94E81481E0F2CF9F2DF7FC90E0F91AA2
:103C2000000F111F000F111F08571E4FFF2061F0DA
:103C3000F394F601808181508083F8018081918125
:103C40000E94E81481E0F2CFE394B7CF81110E9483
:103C5000C01D892D2196ECE00C94C13480E090E0E9
:103C60000E94ED34883E9E4F19F40E944A2B08951D
:103C700080E00895ACE0B0E0E0E4FEE10C94AB3409
:103C80000E94191C9E012F5F3F4F7901E09119029C
:103C9000882309F49FC08CE0D9011D928A95E9F729
:103CA0000E2F10E0000F111F0E5B1C4F8091F204CD
:103CB0008A3050F44DEE5BE1B701C8010E94661AEC
:103CC000882309F448C00AC080919F049091A00401
:103CD0000E943C29843F914068F74EC04BE45BE171
:103CE000B701C8010E94661A8823A9F143EC5DE17F
:103CF000B701C8010E94661A882369F14DE15BE1B2
:103D0000B701C8010E94661A882329F140E05BE1EF
:103D1000B701C8010E94661A8823E9F040EE5AE113
:103D2000B701C8010E94661A8823A9F01092F20414
:103D30008091180290E0880F991F4CE050E0B70185
:103D40008E5B9C4F0E94D23521E02093A404892BE6
:103D5000F1F410E02AC08091F2048F3F19F08F5FD8
:103D60008093F2048091F2048A3010F30E94572964
:103D70009093A00480939F048091A404882349F326
:103D80008CE0F70111928A95E9F71092A404A091B2
:103D90001802B0E0AA0FBB1FAE5BBC4F8CE0F7016E
:103DA00001900D928A95E1F711E08091A304882398
:103DB00009F48FC08091A1049091A2040E943C2933
:103DC000893E934008F485C082EE0E94CB11109288
:103DD000A3047FC010911802F0E0EE0FFF1FEE5B0E
:103DE000FC4F8CE0AAEAB4E001900D928A95E1F7CD
:103DF0006CE070E08AEA94E00E94FF2A8093A904B4
:103E0000A12FB0E0AA0FBB1FAE5BBC4F8CE0E6EB6E
:103E1000F4E001900D928A95E1F740910A0350E099
:103E20006091090370E06B5F7C4FC7010E94DF3532
:103E300089818093C30461E070E0C7010E94FF2A7A
:103E40008093C2048091CB048823A9F180FF10C025
:103E50008091C40480FF0AC090913A0791609093CA
:103E60003A0760E086950E94833102C00E946B3160
:103E70008091CB0481FF09C020E04091C70460918C
:103E8000C6048091C5040E94B5308091CB0482FFA6
:103E900009C08091CA04882319F00E94503102C0E1
:103EA0000E947E2B8091CB0483FF03C081E080932E
:103EB000C9071092CB048091CC04809315038091A4
:103EC000CD04882319F00E94622A02C00E94482A69
:103ED00010E0812F2C96E6E00C94C7342F923F928D
:103EE0005F926F927F928F929F92AF92BF92CF928A
:103EF000DF92EF92FF920F931F93CF93DF93CDB793
:103F0000DEB768970FB6F894DEBF0FBECDBF88E16D
:103F1000E0E0F2E0DE01119601900D928A95E1F762
:103F200080E090E061E070E0C12CD12C7601C39478
:103F30004CE0842E42E0942E20E030E0FB01022E83
:103F400002C0EE0FFF1F0A94E2F7E823F923022EC6
:103F500002C0F595E7950A94E2F74091120150915D
:103F60001301E11113C0FA01E20FF31F4081E42FA6
:103F7000E295EF70F0E0A2A14F708B0102C0000F3C
:103F8000111F4A95E2F7A8014A2B12C0FA01E20F6D
:103F9000F31F4081E42FE295EF70F0E052A14F70E3
:103FA000DB0101C0AA0F4A95EAF74A2F4095452345
:103FB00042A32F5F3F4F2330310509F0BFCF1AE1F5
:103FC0001A95F1F700C097018601082E04C0000F72
:103FD000111F221F331F0A94D2F75801A8014095E0
:103FE0005095209020013090210100E012E02CE05B
:103FF000622E22E0722EF801D1015D901D01252D67
:1040000022952F7030E0D90190962C9130E0B52D9B
:10401000BF7002C035952795BA95E2F720FD05C01F
:10402000208131812A293B2904C020813181242328
:1040300035233183208332968E169F06E9F601964A
:104040008830910509F078CF8091220181110DC04F
:1040500080910402909105021E9902C0916001C0F6
:104060009E7F909305028093040248E150E060E057
:1040700072E0CE0101960E94D2357C01D0901902E7
:10408000892B49F081E08093A7040E9457299093DF
:10409000A6048093A5048091A7048823C9F0809189
:1040A000A5049091A6040E943C290A9788F0ED2D62
:1040B000F0E0EE0FFF1FEE5BFC4FD8018D919D915C
:1040C0008D01819391936A167B06B9F71092A7042C
:1040D000EF2819F40E943A1E02C081E090E0689631
:1040E0000FB6F894DEBF0FBECDBFDF91CF911F9109
:1040F0000F91FF90EF90DF90CF90BF90AF909F9087
:104100008F907F906F905F903F902F900895CF9306
:10411000DF93C0911407D09115078A30B1F4209134
:104120000B05CE018E509540622F70E00E948B34BB
:10413000281B822F66E00E942735C82FC15008F443
:104140008FC080E20E948720F9CF8D30E9F4CE50F5
:10415000D54020910B05622F70E0CE010E948B3478
:10416000281B822F9E01280F311D2115324018F087
:1041700080E0C0E0D0E0C80FD11DC25FDA4FD0931D
:104180001507C09314076CC096E0FE01AEE0B7E0DF
:1041900001900D929A95E1F7803E30F086E0FE01A5
:1041A00011928A95E9F70BC0F6E08F9FB0011124B8
:1041B0006159774F46E050E0CE010E94D634C0915D
:1041C0001407D091150746E050E0BE018EE097E05D
:1041D0000E94D235892B49F19E012E503540A9010C
:1041E00085E0569547958A95E1F781E090E0BC011E
:1041F00002C0660F771F4A95E2F740910C05509177
:104200000D05462B572B2B5F3F4F65E036952795C5
:104210006A95E1F702C0880F991F2A95E2F7842B6F
:10422000952B90930D0580930C059E0128503540E9
:1042300040910B05642F70E0C9010E948B34481B2C
:10424000463010F4240F311D211582E0380710F09C
:1042500020E030E0225F3A4F309315072093140797
:10426000DF91CF910895EF92FF920F931F93CF9319
:10427000DF93EC017B0164E670E088E70E94DE31A9
:104280008C01EC0EFD1ECE15DF0561F017FD0AC096
:10429000FE01849164E670E00E9453328C01219605
:1042A000892B89F30E94CB32C801CDB7DEB7E6E097
:1042B0000C94C73480911607982F9670963011F49D
:1042C000886001C0877F0E94CB2E08950F931F93B3
:1042D000CF93DF93EC01FC0101900020E9F78F01FF
:1042E00001501109C017D10720F489910E9487203D
:1042F000F9CFDF91CF911F910F91089590910B0508
:10430000899FC0011124811522E0920714F080E0FA
:1043100090E0825F9A4F9093150780931407089559
:10432000AAE2B0E0E6E9F1E20C94AE34E3E0F5E0B5
:104330008BE095E02091F10021938E179F07D1F734
:1043400080910405833009F463C030F4813071F04A
:10435000823009F49FC0B6C08A3009F48BC08B301C
:1043600009F46EC0893009F0ADC020C0809103050A
:10437000813A09F0A7C08091E800877F8093E80028
:104380008091070590910805892B21F468E087EF5B
:1043900094E003C060E080E090E070E00E94782844
:1043A0008091E8008B778093E8008CC080910305B2
:1043B000813209F087C08091070590910805009728
:1043C00019F0029709F07EC08091E800877F809302
:1043D000E8008091E80082FD05C08091010581110F
:1043E000F8CF70C02091F3008091F20090E0922B02
:1043F000029731F48091F100813011F0863021F480
:104400008091F1008093F6048091E8008B7756C08C
:1044100080910305813A09F055C08091070590917C
:104420000805892B09F04EC08091E800877F8093B2
:10443000E8008091E80080FFFCCF80917B0139C0CB
:10444000809103058132F1F580910705909108056F
:10445000892BC1F58091E800877F8093E8000E9456
:1044600024288091050580937B011092F4040E941A
:10447000EE2E28C080910305813221F58091E8005D
:10448000877F8093E8000E9424288091060580930E
:10449000F50418C080910305813AA1F48091E800E9
:1044A000877F8093E8008091E80080FFFCCF8091B7
:1044B000F5048093F1008091E8008E778093E80006
:1044C0000E9424288091E80083FFDFC180910305CA
:1044D00090910405492F50E04A30510508F0D5C1AC
:1044E000FA01EB58FF4F0C949635803821F0823852
:1044F00009F0CBC108C08091FF0490910005992379
:1045000089F082600FC0809107058F70873008F0B6
:10451000BCC18093E9008091EB0085FB882780F97E
:104520001092E9009091E800977F9093E8008093C3
:10453000F1001092F10070C1282F2D7F09F0A5C164
:10454000882319F0823061F0A0C180910505813087
:1045500009F09BC1933009F080E0809300052EC0E4
:104560008091050581112AC0809107058F702FEF7A
:10457000280F263008F089C18093E9002091EB00D4
:1045800020FF1CC0933021F48091EB00806214C0A6
:104590009091EB0090619093EB0021E030E0A90155
:1045A00002C0440F551F8A95E2F74093EA0010922B
:1045B000EA008091EB0088608093EB001092E900A4
:1045C0008091E800877F8093E8000E9424285DC1E5
:1045D00081115BC1109105051F778091E300807800
:1045E000812B8093E3008091E800877F8093E8002F
:1045F0000E9424288091E80080FFFCCF8091E30096
:1046000080688093E300111102C082E001C083E062
:10461000809301053AC18058823008F036C120915C
:104620000505309106052C3D53E0350779F583E00B
:104630008A838AE289834FB7F894DE01139620E0DB
:104640003EE051E2E32FF0E050935700E49120FF69
:1046500003C0E295EF703F5FEF708E2F90E0EA307D
:1046600010F0C79601C0C0968D939D932F5F2431A3
:1046700049F74FBF8091E800877F8093E8006AE2A6
:1046800070E0CE0101960E947828B4C080910705A1
:1046900090910805432F552743305105A9F068F440
:1046A0004130510509F400C14230510509F0EDC017
:1046B0008BE590E0EEEDF7E04BC04132510529F17A
:1046C0004232510589F1E1C0C90199278130910534
:1046D000A1F058F0029709F0D8C0EBE4F8E0E491BB
:1046E0008E2F90E0EBE4F8E030C0EBE6F8E0E491E8
:1046F0008E2F90E0EBE6F8E028C0E7E5F8E0E491E3
:104700008E2F90E0E7E5F8E020C08330910508F0B7
:10471000BCC0880F991FFC01EC51FE4F0190F08145
:10472000E02D89E090E014C08330910508F0ADC021
:10473000FC01EE0FFF1FE252FE4F0190F081E02DD1
:10474000DC01A552BE4F8C9190E0009709F49DC00A
:104750002091E800277F2093E800209109053091FF
:104760000A052817390708F4C90140E0009789F1C4
:1047700020910105222309F43DC02530D9F1209173
:10478000E80023FD37C02091E80022FD2FC02091D2
:10479000E80020FFEBCF4091F3002091F20030E0E1
:1047A000342B009759F02830310540F44491409360
:1047B000F100319601972F5F3F4FF3CF41E0283052
:1047C000310509F040E02091E8002E772093E800C1
:1047D000CDCF4111CDCF0AC080910105882351F082
:1047E000853041F08091E80083FD04C08091E800AD
:1047F00082FFF2CF8091E8008B778093E80045C07C
:10480000803809F042C08091E800877F8093E800FB
:10481000809102058093F1008091E8008E77D3CEDD
:10482000811133C080910505909106059927029763
:1048300064F58091E800877F8093E800109105057A
:10484000109302050E942428111106C08091E300F4
:1048500087FD02C081E001C084E08093010542E051
:1048600061EC81E00E94432842E261EC84E00E9416
:10487000432842E261EC82E00E94432842E260EC7D
:1048800083E00E944328809101058091E80083FF26
:1048900010C08091E800877F8093E8008091EB0052
:1048A00080628093EB0005C082E190E0E9E3F8E0EC
:1048B0004FCFAA96E3E00C94CA341F920F920FB622
:1048C0000F9211242F933F934F935F936F937F9396
:1048D0008F939F93AF93BF93CF93DF93EF93FF9308
:1048E000C091E900CF708091EC00D82FD17080FD8D
:1048F000D0E81092E9008091F000877F8093F0006B
:1049000078940E9490211092E9008091F0008860D4
:104910008093F000CD2BCF70C093E900FF91EF9111
:10492000DF91CF91BF91AF919F918F917F916F91C7
:104930005F914F913F912F910F900FBE0F901F905D
:104940001895E8EDF0E080818E7F80831092E20080
:104950001092DA001092E100A0EEB0E08C9181603C
:104960008C9380818F77808319BCA7EDB0E08C9108
:104970008E7F8C9380818F7E80831092F3040895C4
:10498000A0E0B0E0E6ECF4E20C94A934C8EDD0E08D
:1049900088818F7E8883E7EDF0E08081816080836D
:1049A00084E082BF81E08093F30488818E7F8883D6
:1049B00002EE10E0F80110821092DA0081EEC82EAB
:1049C000D12CF601108288818F7788838881806856
:1049D000888388818F7D888319BC1092010510928D
:1049E0000205109200051092FF0490EEE92EF12CC2
:1049F000F70180818B7F808388818160888342E09A
:104A000060E080E00E944328F60180818E7F8083F1
:104A1000F801808181608083808188608083F701D4
:104A200080818E7F8083888180618883CDB7DEB767
:104A3000E8E00C94C5341F920F920FB60F92112428
:104A40002F933F934F935F936F937F938F939F9396
:104A5000AF93BF93EF93FF938091E10082FF09C072
:104A60008091E20082FF05C08091E1008B7F8093FE
:104A7000E1008091DA0080FF2AC08091D80080FF99
:104A800026C08091DA008E7F8093DA008091D90071
:104A900080FF18C080E189BD82E189BD09B400FEB4
:104AA000FDCF81E0809301058091F30481110FC057
:104AB0000E94A1240E94C0248091E200846080931F
:104AC000E20005C019BC109201051092F304809118
:104AD000E10080FF17C08091E20080FF13C0809149
:104AE000E2008E7F8093E2008091E20080618093FB
:104AF000E2008091D80080628093D80019BC85E0E4
:104B0000809301058091E10084FF30C08091E20034
:104B100084FF2CC080E189BD82E189BD09B400FE1B
:104B2000FDCF8091D8008F7D8093D8008091E100E7
:104B30008F7E8093E1008091E2008F7E8093E2007F
:104B40008091E20081608093E200809102058823D9
:104B500011F084E007C08091E30087FD02C081E08E
:104B600001C083E080930105809101058091E100FF
:104B700083FF27C08091E20083FF23C08091E10082
:104B8000877F8093E10082E0809301051092020507
:104B90008091E1008E7F8093E1008091E2008E7F22
:104BA0008093E2008091E20080618093E20042E025
:104BB00060E080E00E9443288091F000886080934C
:104BC000F000FF91EF91BF91AF919F918F917F91F5
:104BD0006F915F914F913F912F910F900FBE0F906A
:104BE0001F9018952091E4003091E50095E64091E2
:104BF000EC00842F817040FF23C08091E80080FD8D
:104C00001DC080910105882399F0853099F080912D
:104C1000EB0085FD11C04091E4005091E5002417A0
:104C2000350729F3915011F09A01E1CF84E00895FE
:104C300082E0089583E0089581E0089580E008957A
:104C40004091E80042FFDDCF0895EF92FF920F936D
:104C50001F93CF93DF937C018B010E94F22581117A
:104C600019C0E70101151105A1F08091E80085FD4B
:104C70000AC08091E8008E778093E8000E94F225B8
:104C8000882381F307C089918093F10001501109B5
:104C9000E9CF80E0CDB7DEB7E6E00C94C7340895E5
:104CA000089508958091F604089580934F077093B6
:104CB000510760935007809101058430F9F4809387
:104CC000E9008FEF9091E800815095FD06C095EDC9
:104CD0009A95F1F700008111F5CF8091E80085FFEA
:104CE0000DC040E050E063E070E08FE497E00E9488
:104CF00025268091E8008E778093E8000895BC0116
:104D000084E00E9455260895BC0183E00E94552648
:104D10000895CF93DF9321E02093E9002FEF3091A6
:104D2000E800215035FD06C035ED3A95F1F7000059
:104D30002111F5CF2091E80025FF14C0EC0140E0DF
:104D400050E068E070E00E9425268091E8008E77B0
:104D50008093E80088E0FE01A7EFB4E001900D9297
:104D60008A95E1F7DF91CF9108951F93CF93DF9359
:104D7000EC018C81811109C081E08C83109239078C
:104D800092E0909382018093810180917E019091C5
:104D90007F01891770F4E82FF0E09F01220F331F85
:104DA000E20FF31FE55EF84F1182108212828F5FCF
:104DB000F0CF10E0609180011617C0F5E12FF0E010
:104DC00070E0CF010E94413520917E01820F209139
:104DD0003907022E000C330B90E0E217F307CCF0FA
:104DE00020918201022E000C330B2E173F078CF00E
:104DF0009C01220F331F820F931F9C01255E384FA9
:104E000040913D0760913C0780913B070E9429300B
:104E10000BC0FC01EE0FFF1F8E0F9F1FFC01E55E14
:104E2000F84F1182108212821F5FC4CF0E94252F7B
:104E30008091810120913907280F209339079091A3
:104E40008201980F9093820119165CF4022E000CD7
:104E5000330B4091800150E0415051092417350730
:104E600034F0819580938101813009F41C82DF91B7
:104E7000CF911F910895A0E0B0E0E1E4F7E20C9437
:104E8000A434EC018A8180FF03C0BB24BA9402C021
:104E9000BB24B3948C8181110DC081E0B81206C08F
:104EA00080918001815080931A0702C010921A07E6
:104EB00081E08C83A12C4AE0842E90908001A9147B
:104EC00008F041C080917E01CA2CD12C8601080FC8
:104ED000111DC801880F991F080F191F055E184F73
:104EE000F80111821082128234E0E32EF12C712C31
:104EF00080911A07870D8B302CF0682D0E94333576
:104F0000892F02C087FD890D082E000C990BC81649
:104F1000D90691F480913D078E9DA0018F9D500D83
:104F200011245595479555954795980160913C07F3
:104F300080913B070E9429307B0CF1E0EF1AF108C9
:104F4000B9F6A394BACF0E94252F80911A0791E059
:104F5000B9120EC0811107C08091800181508093E9
:104F60001A071C820FC0815080931A07BC820AC0A6
:104F700090E001966091800170E00E94413580933D
:104F80001A078C83CDB7DEB7EDE00C94C034FF92E6
:104F90000F931F93CF93DF93EC01F12C0FEF10E0F1
:104FA00060918001F616F0F480917E012F2D30E0A3
:104FB000280F311DC901880F991F280F391F255E41
:104FC000384F70E0C8010E944135962F8C81409186
:104FD0003D0760913C07F99E800D11240E94293005
:104FE000F394DECF0E94252F9A818C8190FF02C01E
:104FF0008F5F01C081508C83CDB7DEB7E5E00C94A4
:10500000C834A3E0B0E0E7E0F8E20C94AD348C01E2
:1050100080913A0780FF10C09E012F5F3F4F409163
:105020003D0760913C07F80184810E9429304B8143
:1050300069818A810E94AC2FF80184818F5F84830B
:105040002396E4E00C94C9348091030587FF11C0D6
:105050008091E80082FD05C0809101058111F8CFA3
:1050600011C08091E8008B770BC0809101058823E7
:1050700049F08091E80080FFF8CF8091E8008E77BA
:105080008093E8000895982F973068F59093E90091
:10509000981739F07091EC002091ED005091F000DC
:1050A00003C0242F762F50E021FD02C09F5FECCF7C
:1050B0003091EB003E7F3093EB003091ED003D7F6F
:1050C0003093ED003091EB0031603093EB00709342
:1050D000EC002093ED005093F0002091EE0027FDAE
:1050E000E5CF80E008958F708093E90081E0089516
:1050F0002091090530910A052617370748F06115F8
:10510000710539F42091E8002E772093E80001C062
:10511000B901FC0120E06115710579F1809101056B
:105120008823F1F18530F1F18091E80083FD3CC0E6
:105130008091E80082FD2EC08091E80080FFEBCFD7
:105140002091F3008091F20090E0922B611571059F
:1051500051F08830910538F421912093F10061508D
:1051600071090196F3CF21E0089709F020E08091C2
:10517000E8008E778093E800CECF2111CFCF0AC010
:1051800080910105882361F0853061F08091E8000D
:1051900083FD0AC08091E80082FFF2CF80E008958D
:1051A00082E0089583E0089581E0089581E080938E
:1051B000E00080E28093D8001092C9008FE19EE465
:1051C0000197F1F700C0000087E090EBDC018093CD
:1051D000CC079093CD07A093CE07B093CF079CE068
:1051E00088E10FB6F894A895809360000FBE909365
:1051F0006000FFCF78941F920F920FB60F92112488
:105200008F939F93AF93BF9380914B0790914C07DF
:10521000A0914D07B0914E070196A11DB11D80933D
:105220004B0790934C07A0934D07B0934E07BF9147
:10523000AF919F918F910F900FBE0F901F90189577
:10524000CF92DF92EF92FF922FB7F894C0904B0766
:10525000D0904C07E0904D07F0904E072FBFA7016C
:105260009601261B370B480B590BCA01B901FF9059
:10527000EF90DF90CF9008959C014FB7F894809104
:105280004B0790914C07A0914D07B0914E074FBF2F
:10529000821B930B08952FB7F89460914B07709180
:1052A0004C0780914D0790914E072FBF08952FB75F
:1052B000F89480914B0790914C07A0914D07B091C5
:1052C0004E072FBF08952091490730914A072817AC
:1052D000390771F090934A0780934907E091470797
:1052E000F0914807309721F00084F185E02D099571
:1052F000089520914507309146072817390771F026
:105300009093460780934507E0914707F09148073F
:10531000309721F00680F781E02D099508950E94CD
:10532000191C882359F0E0914707F09148073097FE
:1053300029F00190F081E02D0995089580E008950D
:10534000CF93DF93C7E8D3E060E0CE010E94F3344F
:105350002196C11584E0D807B9F7DF91CF91089560
:105360001F93CF93DF93962F8430E8F46C30D8F4FA
:105370004930C8F4632F122FC42FD0E0CC0FDD1FAB
:1053800022E1929FC00DD11D112498ED899FC00D7F
:10539000D11D1124CE0187960E94F334612FCE01D6
:1053A00088960E94F334DF91CF911F910895A0E079
:1053B000B0E0EDEDF9E20C94A734A12CE12CF12C36
:1053C000B12C00E010E0C0E0D0E06701C00ED11EBB
:1053D000FE01EE0FFF1FEC0DFD1DED54F24F259168
:1053E00034914C2F6B2D8A2D0E94B0292196C93003
:1053F000D10571F70E5E1F4FB3948CE0B812E3CF66
:1054000088EDE80EF11CA39484E0A812D9CFCDB7A3
:10541000DEB7EAE00C94C3340F931F93CF93DF936E
:10542000843008F56C30F8F44930E8F4C42FD0E04B
:10543000CC0FDD1F22E1629FC00DD11D112438ED7C
:10544000839FC00DD11D1124CE0187960E94DF34A9
:1054500090E0182F0027CE0188960E94DF34980133
:10546000282BC90102C080E090E0DF91CF911F910D
:105470000F910895843048F47C3038F4693028F472
:10548000462F672F0E940C2A089580E090E008952F
:105490008091440790914307882389F0992369F00C
:1054A00062E070E081EB9DE00E943321892B19F0CE
:1054B000809143070895109243079091430781E03C
:1054C00089270895809144078823F9F00E944B2989
:1054D000DC01CB01805A9541AF4FBF4F80933F070E
:1054E00090934007A0934107B093420780914307F0
:1054F00081110BC062E070E08FEA9DE00E943321D1
:10550000892B19F481E08093430780914307089524
:1055100030910B058317C8F590E0262F2695269528
:105520002695239F800D911D1124811522E092075D
:1055300064F5FC01E25FFA4F5081677021E030E0D2
:1055400001C0220F6A95EAF7442311F0252B02C00F
:10555000209525232517C9F0208325E0969587956A
:105560002A95E1F721E030E0A90102C0440F551F60
:105570008A95E2F7CA0120910C0530910D05822B26
:10558000932B90930D0580930C050895613092E064
:10559000790710F060E072E0FB01E25FFA4F908162
:1055A0009817B9F0808385E0769567958A95E1F73D
:1055B00081E090E002C0880F991F6A95E2F7209180
:1055C0000C0530910D05822B932B90930D05809344
:1055D0000C050895EEE0F5E080E092E0DF019C012B
:1055E0001D9221503040E1F7F0931507E093140726
:1055F0008FEF9FEF90930D0580930C050895FC01AC
:10560000680F791F8FEF91E3E617F70771F021918B
:10561000822728E030E087FF03C0880F892701C078
:10562000880F21503109B9F7EFCF089586E290E055
:105630000E94F3340895CF93C82F811102C06FEFF9
:1056400001C062E283E290E00E94F334C11102C023
:105650006FEF01C066E084E290E00E94F334C11174
:1056600002C06FEF01C063E185E290E00E94F33475
:10567000CF91089580E00E941B2B60E070E0CB0189
:105680000E94162B0E94D7290E94A02981E00E9427
:105690001B2B089583E290E00E94DF34823281F474
:1056A00084E290E00E94DF34863051F485E290E09D
:1056B0000E94DF3491E0833109F090E0892F01C02E
:1056C00080E08170089590913A0790FF04C096950C
:1056D000981748F003C0811106C090E0961718F49F
:1056E0000E94CD31089561E00E948331089588239E
:1056F00011F0FA0101C0FB0109950895E7E1F7E017
:105700001182828184608283089568EE7EEF80E05A
:1057100090E00E94113560E082E090E00E94F33456
:1057200060E083E090E00E94F3341092C50760E0EF
:1057300084E090E00E94F33464E082E290E00E9412
:10574000F33460E085E090E00E94F33460E086E0AE
:1057500090E00E94F3346FEF87E090E00E94F33412
:1057600040E050E0BA0188E090E00E94053560E03A
:105770008DE090E00E94F33440E050E0BA0188E10F
:1057800090E00E94053560E087E190E00E94F334EC
:1057900040E050E0BA018CE190E00E94053560E005
:1057A00070E080E290E00E94113540E050E0BA01E4
:1057B00088E190E00E94053580E00E941B2B0E944A
:1057C0003A2B40E050E0BA018FE090E00E940535AE
:1057D00040E050E0BA0183E190E00E940535089571
:1057E0009091F4048091C407892B8093520748E07C
:1057F00050E06CEB77E082E597E00E94D235892B90
:10580000A9F088E0E2E5F7E0ACEBB7E001900D929B
:105810008A95E1F7E0914707F0914807309731F01A
:105820000280F381E02D82E597E00995089580E0FC
:1058300090E00E94792980E090E00E946329109214
:10584000C4070E94F02B08958091BB0790918A07AE
:10585000891719F08F5F8770FBCF08950F931F93FF
:10586000CF93DF938091890782958F7009F05AC09A
:1058700080918607882309F455C08091BB07109159
:105880008A076091840770918507C0918707D0913E
:10589000880791E06F3F09F090E0292F06E081171B
:1058A00009F440C0209721F07F3F21F030E003C091
:1058B00031E001C0322F90E030FD31C0089FF0018F
:1058C000099FF00D1124DF01A557B84F11963C91A7
:1058D0001197371324C03C91361321C012963C9186
:1058E000129731111CC013964D915C9114974C1B6B
:1058F0005D0B483C510598F4809189078F70806159
:1059000080938907E057F84F80818F708061808392
:1059100084E897E00E9413150E94242C03C001968E
:105920008770BDCFDF91CF911F910F910895CF92D6
:10593000DF92FF920F931F93CF93DF936C0100913F
:1059400016078091C507082BC7E0D0E010E0C8011A
:105950000C2E02C0959587950A94E2F780FD04C04D
:105960002197A8F7F12C09C0FC2EB6018C2F0E94BC
:105970003A2A0E94451C019799F38F2DDF91CF9110
:105980001F910F91FF90DF90CF900895CF93DF93F9
:10599000EC010E94972CBE010E943A2A0E94451CED
:1059A000DF91CF910895FC01808191810E94C62CE6
:1059B00092959F70963079F010F4925001C09A50F1
:1059C000923068F4803F69F018F4883E40F409C0D2
:1059D000843F29F406C0883E20F0813F11F080E02A
:1059E000089581E00895A1E1B0E0E9EFFCE20C94B4
:1059F000A6348C0185E0F801DE011D9601900D9220
:105A00008A95E1F7F801E28090918407609185071B
:105A100040918707509188074115510531F06F3F3C
:105A200031F481E09F3F19F403C081E001C080E0C0
:105A3000F82FF1709F2E80FD03C1F8013081218184
:105A4000C380D48084E8A82E87E0B82EF090860723
:105A5000F601E41BF50BFF2009F4CBC08091890708
:105A6000E83CF10508F096C0482F407F09F051C08E
:105A7000621311C093130FC0FE2CE1100CC08F7085
:105A8000806180938907C5010E9413158091890761
:105A9000F801858312C1C114D10431F02F3F31F4D4
:105AA00081E03F3F19F403C081E001C080E080FD48
:105AB00003C081E08E2502C080E090E0F82FF170F5
:105AC000FF2E80FF1CC08091BB0740918A0756E0E3
:105AD000841709F4D0C090E0589FF001599FF00D51
