:100000000C94A50A0C94E90A0C94040B0C94E90ACC
:100010000C94E90A0C94E90A0C94E90A0C94E90A94
:100020000C94E90A0C94E90A0C942C280C94E90A23
:100030000C94E90A0C94E90A0C94E90A0C94E90A74
:100040000C94E90A0C94E90A0C94E90A0C94E90A64
:100050000C94E90A0000000000000000000000000D
:100060000000000000000000000000000000000090
:100070000000000000000000000000000000000080
:1000800000000000000000000000000000008040B0
:10009000402020202010101010100808040404082C
:1000A0003040800000000000000000000000000060
:1000B0000000000000000000000000000000000040
:1000C0000000000000000000000000000000000030
:1000D00000808080000000000000000000000000A0
:1000E0000000000000000000000000000000000010
:1000F0000000000000000000000000000000000000
:1001000000000000001864820202020202010000E6
:10011000000080800000000000000000008000302F
:100120003000C0C1C1C2040810204080000000801F
:100130008080804040404020202020101010100877
:100140000808080804040404040202020201010170
:10015000010000000000000000000000000000009E
:10016000000000000000000000000000000000008F
:10017000000000000000000000000000000000007F
:1001800000000000C0380403000000000000000C64
:100190000C0C0D010040A0212212111111090808B8
:1001A0000808040408081010101010110F010100B5
:1001B000000000000000000000000000000000003F
:1001C000000000000000000000000000000000002F
:1001D000000000000000000000000000000000001F
:1001E000000000000080808080804040404040202F
:1001F00020202020101010101008080808080404FF
:1002000004040402030202010101010101020204CB
:1002100004080808080807000000000000000000AB
:1002200000000000000000000000000000000000CE
:1002300000000000000000000000000000000000BE
:1002400000000000000000000000000000000000AE
:10025000000000000000000000000000000000009E
:10026000000000000000000000000000000000008E
:10027000000000000000000000000000000000007E
:1002800000000000000000000000000000008040AE
:10029000402020202010101010100808040404082A
:1002A000304080000000000000000000000000005E
:1002B000000000000000000000000000000000003E
:1002C000000000000000000000000000000000002E
:1002D000008080800000000000000000000000009E
:1002E000000000000000000000000000000000000E
:1002F00000000000000000000000000000000000FE
:1003000000000000001864820202020202010000E4
:10031000000080800000000000000000008000302D
:100320003000C0C1C1C2040810204080000000801D
:100330008080804040404020202020101010100875
:10034000080808080404040404020202020101016E
:10035000010000000000000000000000000000009C
:10036000000000000000000000000000000000008D
:10037000000000000000000000000000000000007D
:1003800000000000C0380403000000000000000C62
:100390000C0C0D010040A0212212111111090808B6
:1003A0000808040408081010101010110F010100B3
:1003B000000000000000000000000000000000003D
:1003C000000000000000000000000000000000002D
:1003D000000000000000000000000000000000001D
:1003E000000000000080808080804040404040202D
:1003F00020202020101010101008080808080404FD
:1004000004040402030202010101010101020204C9
:1004100004080808080807000000000000000000A9
:1004200000000000000000000000000000000000CC
:1004300000000000000000000000000000000000BC
:1004400000000000000000000000000000000000AC
:10045000000000000000000000000000000000009C
:10046000000000000000000000000000000000008C
:10047000000000000000000000000000000000007C
:1004800000000000000000000000000000000080EC
:100490008040404040202020201008040202041820
:1004A000608000000000000000000000000000006C
:1004B000000000000000000000000000000000003C
:1004C000000000000000000000000000000000002C
:1004D000008080800000000000000000000000009C
:1004E000000000000000000000000000000000000C
:1004F00000000000000000000000000000000000FC
:1005000000000000003CC2010102020404020100DC
:10051000000000000000000000000000000000607B
:1005200060008182828408102040800000000080EA
:100530008080804040404020202020101010100873
:10054000080808080404040404020202020101016C
:10055000010000000000000000000000000000009A
:10056000000000000000000000000000000000008B
:10057000000000000000000000000000000000007B
:100580000000000080701906000000000000001844
:1005900018181B030040A02224141212120B080882
:1005A0000808050509091010101010110F010100AD
:1005B000000000000000000000000000000000003B
:1005C000000000000000000000000000000000002B
:1005D000000000000000000000000000000000001B
:1005E000000000000080808080804040404040202B
:1005F00020202020101010101008080808080404FB
:1006000004040402030202010101010101020204C7
:1006100004080808080807000000000000000000A7
:1006200000000000000000000000000000000000CA
:1006300000000000000000000000000000000000BA
:1006400000000000000000000000000000000000AA
:10065000000000000000000000000000000000009A
:10066000000000000000000000000000000000008A
:10067000000000000000000000000000000000007A
:1006800000000000000000808000000000008040AA
:100690004020202020101010100804020101020C3C
:1006A000304080000000000000000000000000005A
:1006B000000000000000000000000000000000003A
:1006C000000000000000000000000000000000002A
:1006D000008080800000000000000000000000009A
:1006E000000000000000000000000000000000000A
:1006F00000000000000000000000000000000000FA
:1007000000000000001EE1000001010202010000E3
:100710000000808000000000000000000080003029
:100720003000C0C1C1C20408102040800000008019
:100730008080804040404020202020101010100871
:10074000080808080404040404020202020101016A
:100750000100000000000000000000000000000098
:100760000000000000000000000000000000000089
:100770000000000000000000000000000000000079
:100780000000000080700C03000000000000000C5E
:100790000C0C0D010040A0212212111111090808B2
:1007A0000808040408081010101010110F010100AF
:1007B0000000000000000000000000000000000039
:1007C0000000000000000000000000000000000029
:1007D0000000000000000000000000000000000019
:1007E0000000000000808080808040404040402029
:1007F00020202020101010101008080808080404F9
:1008000004040402030202010101010101020204C5
:1008100004080808080807000000000000000000A5
:1008200000000000000000000000000000000000C8
:1008300000000000000000000000000000000000B8
:1008400000000000000000000000000000000000A8
:100850000000000000000000000000000000000098
:100860000000000000000000000000000000000088
:100870000000000000000000000000000000000078
:1008800000000000000000000000000000008040A8
:10089000402020202010101010080804020202043A
:1008A0003840800000000000000000000000000050
:1008B0000000000000000000000000000000000038
:1008C0000000000000000000000000000000000028
:1008D0000080808000000000000000000000000098
:1008E0000000000000000000000000000000000008
:1008F00000000000000000000000000000000000F8
:1009000000000000001CE2010102020202010000DE
:100910000000808000000000000000000080003027
:100920003000C0C1C1C20408102040800000008017
:10093000808080404040402020202010101010086F
:100940000808080804040404040202020201010168
:100950000100000000000000000000000000000096
:100960000000000000000000000000000000000087
:100970000000000000000000000000000000000077
:100980000000000080700C03000000000000000C5C
:100990000C0C0D010040A0212212111111090808B0
:1009A0000808040408081010101010110F010100AD
:1009B0000000000000000000000000000000000037
:1009C0000000000000000000000000000000000027
:1009D0000000000000000000000000000000000017
:1009E0000000000000808080808040404040402027
:1009F00020202020101010101008080808080404F7
:100A000004040402030202010101010101020204C3
:100A100004080808080807000000000000000000A3
:100A200000000000000000000000000000000000C6
:100A300000000000000000000000000000000000B6
:100A400000000000000000000000000000000000A6
:100A50000000000000000000000000000000000096
:100A60000000000000000000000000000000000086
:100A70000000000000000000000000000000000076
:100A800000000000000000808000000000008040A6
:100A90004020202020101010100804020101020C38
:100AA0003040800000000000000000000000000056
:100AB0000000000000000000000000000000000036
:100AC0000000000000000000000000000000000026
:100AD0000080808000000000000000000000000096
:100AE0000000000000000000000000000000000006
:100AF00000000000000000000000000000000000F6
:100B000000000000001EE10000010102028180805F
:100B10000000808000000000000000000080003025
:100B200030000001E11A06093135018A7C0000809D
:100B3000808080404040402020202010101010086D
:100B40000808080804040404040202020201010166
:100B50000100000000000000000000000000000094
:100B60000000000000000000000000000000000085
:100B70000000000000000000000000000000000075
:100B80000000000080700C0300001806059899848E
:100B9000C37C414140402021221211111109080853
:100BA0000808040404040404020202010101010013
:100BB0000000000000000000000000000000000035
:100BC0000000000000000000000000000000000025
:100BD0000000000000000000000000000000000015
:100BE0000000000000808080808040404040402025
:100BF00020202020101010101008080808080404F5
:100C000004040402030202010101010101000000C9
:100C100000000000000000000000000000000000D4
:100C200000000000000000000000000000000000C4
:100C300000000000000000000000000000000000B4
:100C400000000000000000000000000000000000A4
:100C50000000000000000000000000000000000094
:100C60000000000000000000000000000000000084
:100C70000000000000000000000000000000000074
:100C800000000000000000808000000000008040A4
:100C90004020202020101010100804020101020C36
:100CA00030408000000000000000F8F8F8F8000074
:100CB0000000008080000000000000000000000034
:100CC0000000000000000000000000000000000024
:100CD0000080808000000000000000000000000094
:100CE0000000000000000000000000000000000004
:100CF00000000000000000000000000000000000F4
:100D000000000000001EE10000010102028180805D
:100D10000000808000000000000000000080003023
:100D2000300000010102040810204387070100B8C9
:100D3000BCBE9F5F5F4F4C20202020101010100879
:100D40000808080804040404040202020201010164
:100D50000100000000000000000000000000000092
:100D60000000000000000000000000000000000083
:100D70000000000000000000000000000000000073
:100D80000000000080700C0300001806059899848C
:100D9000437C4141404020212212111111090808D1
:100DA0000808040408081010101010110F013D7CF1
:100DB000FCFCFCFCFC3C0C000000000000000000FF
:100DC0000000000000000000000000000000000023
:100DD0000000000000000000000000000000000013
:100DE0000000000000808080808040404040402023
:100DF00020202020101010101008080808080404F3
:100E000004040402030202010101010101000000C7
:100E100000000000000000000000000000000000D2
:100E200000000000000000000000000000000000C2
:100E300000010303000000000000000000000000AB
:100E400000000000000000000000000000000000A2
:100E50000000000000000000000000000000000092
:100E60000000000000000000000000000000000082
:100E70000000000000000000000000000000000072
:100E800000000000000000808000000000008040A2
:100E90004020202020101010100804020101020C34
:100EA0003040800000000000000000000000000052
:100EB0000000000000000000000000000000000032
:100EC0000000000000000000000000000000000022
:100ED0000080808000000000000000000000000092
:100EE0000000000000000000000000000000000002
:100EF00000000000000000000000000000000000F2
:100F000000000000001EE1000001010202010000DB
:100F10000000808000000000000000000080003021
:100F200030000001E11A06093135018A7C00008099
:100F30008080804040404020202020101010100869
:100F40000808080804040404040202020201010162
:100F50000100000000000000000000000000000090
:100F60000000000000000000000000000000000081
:100F70000000000000000000000000000000000071
:100F80000000000080700C03000000000000000062
:100F9000000001010040A0212212111111090808CE
:100FA000080804040404040402020201010101000F
:100FB0000000000000000000000000000000000031
:100FC0000000000000000000000000000000000021
:100FD0000000000000000000000000000000000011
:100FE0000000000000808080808040404040402021
:100FF00020202020101010101008080808080404F1
:1010000004040402037A7A79797979393102020485
:10101000040808088888878000000000000000009D
:1010200000000000000000000000000000000000C0
:1010300000000000000000000000000000000000B0
:1010400000000000000000000000000000000000A0
:1010500000000000165C3A003B003C003D003E00F2
:101060003F004000410042004300440045000000B2
:101070004600A80035001E001F00200021002200AD
:10108000230024002500260027002D002E0000004C
:101090002A0049002B0014001A0008001500170050
:1010A0001C0018000C00120013002F00300000007C
:1010B00031004C00390004001600070009000A0046
:1010C0000B000D000E000F00330034000000000084
:1010D00028004B00E10000001D001B000600190065
:1010E000050011001000360037003800E500000050
:1010F00052004E00E000E300E200000000000000AB
:101100002C00000000000000E6000151500000002B
:1011100051004F0001000100010001000100010029
:1011200001000100010001000100010001000000B8
:1011300001000100010001000100010001000100A7
:101140000100010001000100010001000100000098
:10115000010001000100010001000100005C01002C
:101160000100010001000100010001000100000078
:10117000010001003900010001000100010001002F
:101180000100010001000100010001000000000059
:101190000100010001000000010001000100010048
:1011A0000100010001000100010001000100000038
:1011B000010001000100010001000000000000002A
:1011C0000100000000000000E600015101000000E5
:1011D0000100010001000100010001000100010007
:1011E00001000100010001000100010001000000F8
:1011F00001000100010001000100010001000100E7
:1012000001000100010001000100010001000000D7
:10121000010001000100010001000100005C01006B
:1012200001000100010001000100010001000000B7
:10123000010001003900010001000100010001006E
:101240000100010001000100010001000000000098
:101250000100010001000000010001000100010087
:101260000100010001000100010001000100000077
:101270000100010001000100010000000000000069
:101280000100000000000000E60001510100000024
:101290000100010001000100010001000100010046
:1012A0000100010001000100010001000100000037
:1012B0000100010001000100010001000100010026
:1012C0000100010001000100010001000100000017
:1012D000010001000100010001000100005C0100AB
:1012E00001000100010001000100010001000000F7
:1012F00001000100390001000100010001000100AE
:1013000001000100010001000100010000000000D7
:1013100001000100010000000100010001000100C6
:1013200001000100010001000100010001000000B6
:1013300001000100010001000100000000000000A8
:101340000100000000000000E60001510100000063
:101350000100010000000000000000002A2B28000E
:101360000000000000000000000000000000002954
:10137000000000002C1E3420212224342627252E94
:10138000362D3738271E1F202122232425263333CC
:10139000362E37381F0405060708090A0B0C0D0EF8
:1013A0000F101112131415161718191A1B1C1D2FC4
:1013B0003130232D350405060708090A0B0C0D0EE4
:1013C0000F101112131415161718191A1B1C1D2FA4
:1013D0003130354C0000000000000000000000002B
:1013E00000000000000000000000000000000000FD
:1013F00000000000000000007E0F00D4FFFFFFC7C8
:101400000000007800AE00AF00DA0281FFD9F1DB06
:1014100020A4A62EAF00A0C000A1C800AED580A811
:101420001FD300408D14200009025B00030100A0BF
:10143000FA09040000010301010009210101000172
:10144000224000070581030800010904010002038E
:101450000000000921010100012222000705840388
:101460000800010705040308000109040200010344
:101470000000000921010100012232000705830359
:101480000800011201100100000008567863610293
:1014900000010200010C036C0063006B0037003593
:1014A0000000000C034C00790073006F0031000055
:1014B00000040309040660FF0961A1010962150027
:1014C00026FF009520750881020963150026FF009C
:1014D000952075089102C005010980A101850319B5
:1014E000012AB700150126B700950175108100C0CB
:1014F000050C0901A101850419012AA00215012684
:10150000A002950175108100C005010906A1010521
:101510000719E029E7150025019508750181029555
:1015200001750881030507190029FF150026FF0032
:1015300095067508810005081901290595057501AD
:101540009102950175039103C00011241FBECFE5E0
:10155000D8E0DEBFCDBF04B603FE24C080914805AD
:1015600090914905A0914A05B0914B058730904B69
:10157000A740B04BB9F4109248051092490510925B
:101580004A0510924B0514BE84B7877F84BF0FB6FF
:10159000F894A89581B5886181BD11BC0FBEE0E0CB
:1015A000F8E3099511E0A0E6B0E0EEECF9E502C041
:1015B00005900D92AE30B107D9F725E0AEE0B1E06D
:1015C00001C01D92A834B207E1F70E945A1C0C9486
:1015D000B42C0C940000A82FB92F80E090E041E0DB
:1015E00050EA609530E009C02D9182279795879544
:1015F00010F084279527305EC8F36F5FA8F3089535
:10160000EADF8D939D930895CF93CFB7CF93DF9368
:10161000C395839BE9F7839B10C0839B0EC0839B7C
:101620000CC0839B0AC0839B08C0839B06C0C091EB
:101630001F05C395C0931F058EC06F93C0911E05F3
:10164000DD27CA5DDA4F2F9365E5839B03C02F9199
:101650006F91E1CF0F931F934F9320E040E15F9391
:1016600000B30C7003FB27F93F9350E03BE039C017
:101670001C7040642F77012F5F5F1EC0406810B35D
:101680001C702F7752501FC0406400B32F770C702E
:10169000D1F15F5F00C023C0406210B32F771C7090
:1016A00091F15F5F00C025C00C701027515012F4FB
:1016B0005D5F0000115027952C3F10B3C8F61C70D9
:1016C0000127015027952C3FC8F64227499300B3C4
:1016D0000C7010274F73115027952C3FA8F6469594
:1016E000469510B31C7079F00127015027952C3FC7
:1016F00098F66B5A60F3315000B3B0F600C010E8B2
:101700001ABF00271CC03B503195C31BD04010E8C6
:101710001ABF0881033C21F10B3411F120911B0504
:101720001981110F1213EDCF4A81441F093679F147
:101730000D3211F0013E29F74F7009F0042F00938C
:1017400024053F915F914F911F910F912F916F91C0
:10175000CAB7C7FD5DCFDF91CF91CFBFCF911895AD
:1017600020912405222369F310912205112309F009
:1017700049C034300AF448C03093220520931D0537
:1017800010911E053BE0311B30931E053DC00091BA
:1017900022050130BCF50AE54F7049F4309179001B
:1017A00034FD33C000937900C8EFD4E032C0433039
:1017B00059F0443091F03091030534FD26C0009378
:1017C0000305C4E0D5E025C030913C0534FD1DC0C3
:1017D00000933C05CDE3D5E01CC030910F0534FDEE
:1017E00014C000930F05C0E1D5E013C0052710E039
:1017F00000C0000002BB1AC0052710E0221F1DC058
:1018000010E021C04AE502C032ED432FC4E1D0E030
:1018100032E011B31C60939A02B311BB5CE020E884
:1018200065E320FF052702BB279517951C3FF0F6BF
:101830006695B8F7B1F720FF052702BB27951795E6
:101840001C3FD0F62795179517FF052700001C3F72
:1018500002BBB0F629913A9519F7037F1091230541
:10186000110FC651D04002BB11F010931B0510E8B8
:101870001ABF086011B3137F402F437F54E05A957D
:10188000F1F702BB11BB42BB5CCF0E9425258F3113
:10189000C8F48091100190E0019665E070E00E942C
:1018A000E22B8093100124E030E0A901481B590B82
:1018B000CA01982F8827990F60E072E08C5A9F4FD9
:1018C0000E94551E0E9425258F3150F00E9425252B
:1018D000883230F460E072E084E59AE00E94551EA0
:1018E0000E9425258832B0F02091110130E02F5F51
:1018F0003F4F217033272093110181E090E0821B3C
:10190000930B982F8827990F60E072E08C5A934FC1
:101910000C94551E08951F93CF93DF93182FD62F45
:101920000E94E323C82F882341F0111106C0DD2354
:1019300049F089EA0E941A10CD2F8C2FDF91CF91A8
:101940001F9108958AEA0E941A10F7CF82E0089545
:101950000E94CC1F882359F10E942525882349F134
:101960000E94951E609116017091170180911801D7
:10197000909119010E941028693C7105810591051B
:1019800060F00E94F5276093160170931701809311
:101990001801909319010E94450C0E94F52760934D
:1019A000120170931301809314019093150180E04C
:1019B000089560911201709113018091140190912A
:1019C00015010E941028613177428105910518F0B8
:1019D0000E94B11FECCF60911601709117018091A8
:1019E0001801909119010E941028693C7105810528
:1019F0009105E8F20E94F527609316017093170194
:101A000080931801909319010E94450CD0CF9C013E
:101A10003A9521153F4150F5FC01EE27F170BC01CC
:101A200066277270AC01442754709C0122273870DD
:101A300094FF0EC080E1EF2B09F480E0672B09F0E2
:101A40008062452B09F08064232B89F0806808951B
:101A500081E0EF2B09F480E0672B09F08260452BD1
:101A600009F08460232B19F08860089580E00895C0
:101A7000CF93DF93EC010E94070D9E01205E310998
:101A80002830310510F0209739F40E9422108C2F55
:101A9000DF91CF910C94950F0E94C211F8CFCF9394
:101AA000DF93EC010E94DB0FCE010E94070D9E0127
:101AB000205E31092830310510F0CD2B21F4DF9163
:101AC000CF910C942910DF91CF910C94C911CF9331
:101AD000DF93EC010E94380DCE01DF91CF910C9481
:101AE0004F0D81E0089581E008950C94730D0895E1
:101AF0000C94770D1F93CF93DF9300D000D00F92FB
:101B0000CDB7DEB749835A836B8330911A0189813F
:101B10009A8131111DC06623B9F02223A9F00E94D9
:101B2000E012182F682F89819A810E948D12698195
:101B30007A81812F0F900F900F900F900F90DF916F
:101B4000CF911F910C9413230E94B912182FEFCF3D
:101B50000E94E01269817A81EDCFFC01262F40813D
:101B600051816281738184810C947A0D81E00895A2
:101B7000CF93DF93EC0160E00E94AD0DBE01DF91D9
:101B8000CF910C94780DE1E0F0E0DF0102C0AA0FE4
:101B9000BB1F6A95E2F7BD01DF0102C0AA0FBB1FA0
:101BA0004A95E2F76A2B01C0EE0F2A95EAF7962FC5
:101BB0009823961302C08E2B0895E0958E230895E6
:101BC000242F462F682F80913F010E94C30D0C9453
:101BD0004A120E94E61A0E94490F0E9422200C9489
:101BE000011B0E945E250C94041B089508950C941B
:101BF000F60D0E94F70D80E00E944A0F0C94B11F71
:101C000008950E94E2110E94000E2FEF84E39CE0F1
:101C1000215080409040E1F700C000000C94502813
:101C20000F931F93CF93DF93EC0161E00E94AD0D02
:101C30008C018A81882319F0C8010E945125BE01B8
:101C4000C8010E94BE1C882389F1BE01C8010E9400
:101C5000750D882359F1BE01C8010E94ED2088232B
:101C600029F1BE01C8010E94D3248823F9F0BE01E6
:101C7000C8010E9420218823C9F0BE01C8010E942A
:101C80003D24882399F08A81882339F001158CE559
:101C9000180751F00E3D1C4579F0CE01DF91CF9130
:101CA0001F910F910C94710D0E94010E80E0DF9145
:101CB000CF911F910F9108950E94CE17F7CF0C94EA
:101CC000F50D0E9439270E944A0F0C945F0EDF9297
:101CD000EF92FF920F931F93CF93DF93E82FF0E0E3
:101CE000EC5AFC4ED490282F26952695269530E068
:101CF000F901EC50FC4E0491877010E0082E02C0F0
:101D0000159507950A94E2F701701127F901EC5136
:101D1000FC4EE490F12C082E02C0F594E7940A944E
:101D2000E2F791E0E922FF24F901EC52FC4EC49164
:101D3000D0E002C0D595C7958A95E2F7C170DD273E
:101D40000115110519F081EE0E94950FE114F104BF
:101D500019F086EE0E94950F8D2D0E941A10EF2823
:101D600019F086EE0E94DB0F012B19F081EE0E9424
:101D7000DB0FCD2B51F08CE2DF91CF911F910F91B2
:101D8000FF90EF90DF900C941A10DF91CF911F918C
:101D90000F91FF90EF90DF900895EF92FF920F93D5
:101DA0001F93CF93DF93EC01162F0AE088818823DD
:101DB00009F454C0813009F04EC08981813099F412
:101DC0007E0122E0E20EF11C8A810E941A10E701D6
:101DD0002196812F815050F3EFE9FFE03197F1F721
:101DE00000C00000F7CF823041F47E0182E0E80EAF
:101DF000F11C8A810E94950FEACF833041F47E0165
:101E0000E2E0EE0EF11C8A810E94DB0FE0CF84300D
:101E100011F02196DDCF2A81229690E080E0AE017C
:101E20004F5F5F4F2053330B2A30310548F0019745
:101E300078F2EFE9FFE03197F1F700C00000F7CF4B
:101E4000089FB001099F700D1124C901860F971FCB
:101E50002981EA01E4CF0E94670EBACFDF91CF91CA
:101E60001F910F91FF90EF90089560E00C94CD0EBC
:101E7000982F9F709A50963018F0805D0C94670EE2
:101E8000895AFCCF08950C94420F81E008950C9478
:101E9000450F0895CF93C82F0E94430F8C2FCF91E9
:101EA0000C94470FCF93DF93CDB7DEB72B970FB6C8
:101EB000F894DEBF0FBECDBF4F83588769877A87FE
:101EC0008B8761110E9411171E821D8285E0FE0121
:101ED0003796DE01119601900D928A95E1F78C817B
:101EE0009D81892B89F449815A816B817C818D8107
:101EF0009E810E9421162B960FB6F894DEBF0FBE6E
:101F0000CDBFDF91CF91089589819A8189238F3F39
:101F100051F3CE0101960E94B60D8111E4CFEBCFB3
:101F2000FC01808191810C940D13CF93C82F8823DD
:101F300009F43FC08CEF8C0F813AA0F46C2F809194
:101F40006200909163000E947F27882329F08C2FE4
:101F50000E94C2160E94CF168C2F0E94BB16CF91F2
:101F60000C94CF1680E28C0F883048F4C77081E063
:101F700001C0880FCA95EAF70E94F116F0CFEBE591
:101F8000EC0FE33040F4F0E0E855FF4F808190E043
:101F9000CF910C945327C85AC73158F4EC2FF0E076
:101FA000EE0FFF1FE658FF4F80819181CF910C9477
:101FB0006927CF910895882329F19CEF980F913AD2
:101FC00020F40E94C2160C94CF1690E2980F98301D
:101FD00050F4877091E001C0990F8A95EAF7892F34
:101FE0000E94F716F0CF9BE5980F933020F490E015
:101FF00080E00C945327885A873120F490E080E0E9
:102000000C94692708951F93CF93DF93182FEB014A
:102010000E94950F209731F4812FDF91CF911F916E
:102020000C94DB0F8FE99FE00197F1F700C00000EF
:102030002197F0CF70E060E0893311F460E570E043
:102040000C940310882321F00E94F1160C94CF16F3
:102050000895882321F00E94F7160C94CF16089556
:102060000F931F93CF93DF93DC01062F972F1296C8
:102070002C91129715963C91159732953F70C72F6A
:10208000C295CF70D0E0FE01EA54F34D0C94372C8A
:10209000172F1F70907F11F01295107F2223A9F047
:1020A000112359F080E2800F883010F0011109C02F
:1020B000812F0E94F1160E94CF16802F0E94950F4B
:1020C00014C0812F0E940417F6CF802F0E94DB0FCF
:1020D000112359F080E2800F883010F0011111C0F7
:1020E000812F0E94F7160E94CF162897249708F098
:1020F00011C10E943927DF91CF911F910F910C944C
:102100004A0F812F0E940A17EECF872F8F70907F82
:10211000903211F08295807F013061F4222329F002
:10212000363018F70E942210E0CF3530F0F60E94CA
:102130002910DBCF222319F03323A1F3BECF3323A1
:10214000B1F3093349F42FEF87EE93E0215080403B
:102150009040E1F700C00000802F0E94DB0FC5CF48
:10216000872F86958695837061F0813009F0BDCF09
:10217000862F9370211102C090E080E00E946927B1
:10218000B4CF862F9370211102C090E080E00E94AE
:102190005327ABCF872F837081F52111A6CF862FD0
:1021A000829586958770880F880F462F4F70082E6E
:1021B00001C0440F0A94EAF7262F207164FF07C07C
:1021C0002FE030E001C0220F8A95EAF7209596951E
:1021D00096959370822F842B923049F058F4913069
:1021E00019F00E943C1281CF0E9437127ECF0E94CC
:1021F00041127BCF0E94351278CF8695222311F0B1
:10220000872F8170882309F470CF802F829586955F
:102210008770880F880F402F4F70082E01C0440F21
:102220000A94EAF7202F207104FF07C02FE030E066
:1022300001C0220F8A95EAF720959695969593709E
:10224000822F842B923049F058F4913019F00E947B
:1022500082124BCF0E947D1248CF0E94871245CF39
:102260000E944A1242CF172F1F70222329F0812F7C
:102270000E945B12802F56CF862F0E942910812F3B
:102280000E94661232CF613F19F148F4603F91F02D
:10229000222369F1311111CF892F8F711DC0623F47
:1022A000F1F0633FA9F72223F9F0872F8F710E9485
:1022B00053121BCF222341F0353008F016CF892F5F
:1022C0008F710E94721211CF363008F00ECFF7CF07
:1022D000872F8F712223A1F20E945B1206CF872FD6
:1022E0008F712223C9F3CCCF0E945012FECE311140
:1022F00028CF892F8F71C4CF472F4F70CD010E94F7
:10230000EB180E943B13F1CE472F4F70CD010E9476
:10231000EE18EBCEDF91CF911F910F9108950F939F
:102320001F93CF93DF93EC01688179818A810E94AA
:1023300017138C010E948C120E943412B801CE0136
:10234000DF91CF911F910F910C943010CF93DF93B9
:10235000EC018B819C81892B29F0888199818923CB
:102360008F3F19F4DF91CF910895CE010E94100E96
:102370008823C1F3CE010E948F11CE01DF91CF914E
:102380000C94B80D882321F00E9404170C94CF16EA
:102390000895882321F00E940A170C94CF160895FF
:1023A00090E080E00E94532790E080E00E9469273F
:1023B0000E9411170E9421170C94CF160E94C91673
:1023C0000C94D0110E9401170C94DE11E92FE295B4
:1023D000EF70E250EE3070F4F0E0EA53F34D0C94FD
:1023E000372C803F19F020F4883E20F481E00895D6
:1023F000843FE1F380E00895883EC0F3813FD1F748
:10240000F5CF93FB882780F90895FC0180819181A5
:102410000E940D130C94E611CF93DF9300D000D0EF
:102420000F92CDB7DEB70F900F900F900F900F90D7
:10243000DF91CF910895CF93DF9300D000D000D0EB
:10244000CDB7DEB726960FB6F894DEBF0FBECDBF70
:10245000DF91CF91089508950C942B120E942C12B5
:10246000809340010C94D01108950C942E129091F9
:102470004001892B0C942E129091400189230C94D9
:102480002E129091400189270C942E120C942B123D
:102490000C9446120E94481280933F010C94D01174
:1024A00080E00C944A1291E001C0990F8A95EAF7F6
:1024B000892F0C944A1221E030E001C0220F8A9546
:1024C000EAF780913F01822B0C944A1221E030E020
:1024D00001C0220F8A95EAF7209580913F0182235F
:1024E0000C944A1221E030E001C0220F8A95EAF7ED
:1024F00080913F0182270C944A1290913F01892BD1
:102500000C944A1290913F0189230C944A129091A5
:102510003F0189270C944A1208959295907F890F64
:10252000982F977041E001C0440F9A95EAF786957D
:102530008695869593E0899FF0011124E55EFE4F14
:1025400030E020E070E05191DF011197CB01022EC5
:1025500002C0969587950A94E2F781708195852748
:10256000842385278C932F5F3F4F2330310559F704
:1025700008959295907F890F982F977086958695EC
:10258000869523E0829FF0011124E55EFE4F50E026
:1025900040E080E0219130E0092E02C03695279579
:1025A0000A94E2F721703327042E01C0220F0A9407
:1025B000EAF7822B4F5F5F4F4330510559F708957B
:1025C000CF92DF92FF920F931F93CF93DF936C0113
:1025D00000913F0180914001082BC7E0D0E010E05E
:1025E000FC2EC8010C2E02C0959587950A94E2F73F
:1025F00080FD0CC02197A0F7F12C8F2DDF91CF919A
:102600001F910F91FF90DF90CF900895B6018C2F0E
:102610000E94EB19019771F3F0CFCF93DF93EC0198
:102620000E94E012BE01DF91CF910C94EB191F9331
:10263000CF93DF93EB0190911A01992331F0CB01F5
:10264000DF91CF911F910C940D13882379F0CB016A
:102650000E94E012182F682FCE010E948D12BE0139
:10266000812FDF91CF911F910C94EB19CB010E9428
:10267000B912182FF4CFEF92FF920F931F93CF93BD
:10268000DF938C01892B81F0F12CEE24E394E80197
:102690002196F8018491843770F4843008F05FC08B
:1026A0008130B1F08230A1F1DF91CF911F910F9174
:1026B000FF90EF900895853709F44CC008F43DC0B1
:1026C0009CE7980F903780F78F770E94DB0F49C007
:1026D0000E5F1F4FFE01849190E2980F983060F4D6
:1026E0008770FE2D01C0FF0F8A95EAF78F2F0E9499
:1026F00014170E94CF1602C00E94950F8F2D815093
:1027000030F2EFE9FFE03197F1F700C00000F7CFBA
:102710000E5F1F4FFE01849190E2980F983050F4A5
:102720008770FE2D01C0FF0F8A95EAF78F2F0E9458
:102730001A17DFCF0E94DB0FE1CF0E5F1F4FFE01A4
:10274000C491C150D8F28FE99FE00197F1F700C022
:102750000000F7CF0E5F1F4FFE01F490CFCF0E9415
:10276000950F8E01CBCF1F93CF93DF93C091410183
:1027700016E0809142018C1304C0DF91CF911F912C
:102780000895D0E01C9FF0011D9FF00D1124ED5B1A
:10279000FE4F4081518162817381848195810E94C5
:1027A0001B122196C770E5CF4091730150917401BF
:1027B0006091750170917601809177019091780117
:1027C0000C941B12209141019091420156E0291373
:1027D00002C080E0089530E0529FF001539FF00D59
:1027E0001124ED5BFE4F7181761306C07081781362
:1027F00003C07281741304C02F5F3F4F2770E7CF6F
:1028000081E00895FF920F931F93CF93DF93809100
:102810007801807FD1F4809175018823B1F0809197
:102820004101109142016091730170917401A09176
:102830007601B0917701062F0723C0916000D091F7
:10284000610096E0F92E181306C0DF91CF911F9119
:102850000F91FF90089590E0109711F00F3F19F439
:1028600001968770F0CFF89E9001F99E300D1124EB
:10287000F901ED5BFE4F41814713F2CF40814613D2
:10288000EFCF42814111ECCF438154814A1B5B0B56
:102890004C175D0728F7809178018F7080618093D5
:1028A0007801F901E85BFE4F80818F708061808341
:1028B00083E791E00E94A611DF91CF911F910F91C4
:1028C000FF900C94B3138F929F92AF92BF92CF92CE
:1028D000DF92EF92FF920F931F93CF93DF93CDB7C9
:1028E000DEB761970FB6F894DEBF0FBECDBF8C0187
:1028F00085E0F801DE011D9601900D928A95E1F7C1
:10290000D8011296EC90129783E7A82E81E0B82E9A
:1029100040917601509177014115510509F472C13A
:102920009091730120917401892F82238F3F09F4C4
:1029300069C1CC901196DC90119713968D909C9064
:102940001497F0907501B401641B750B4091600001
:1029500050916100FF2009F403C180917801382F64
:10296000307F6417750708F0BDC0311188C0FE2C98
:10297000D21225C09C1123C0E11021C08F7080614C
:10298000809378010E94D413C5010E94A611809102
:102990007801F80185838F2D61960FB6F894DEBF1C
:1029A0000FBECDBFDF91CF911F910F91FF90EF90A0
:1029B000DF90CF90BF90AF909F908F90089581143B
:1029C000910429F08D2D8C218F3F09F037C180E0D3
:1029D00080FF15C04E2D6D2D8C2D0E94E213882393
:1029E00071F083E791E00E94A61186E0E3E7F1E051
:1029F000DF011D928A95E9F70E94D4133EC0892811
:102A000029F08D2D8C218F3F09F015C180E0B82F62
:102A1000B170AB2E80FF29C04E2D6D2D8C2D0E94E4
:102A2000E213B82E811121C0CD86DE868D859E856C
:102A30000E940D13292F22952F70223050F0243040
:102A400078F49F7051F0F8019581907F31F4FB2C60
:102A5000A2CF9F7011F08823D1F3805E8830B8F345
:102A6000C8010E94A611BA2CF2CFEE2009F493CF30
:102A700080917801816080937801F12C8CCFD21203
:102A800005C09C1103C0EE2009F487C0C8010E9454
:102A90000512882319F1EE2009F180917801803226
:102AA00070F0209173013091740138872F8319865B
:102AB0009B868A868C87CE0107960E94A61186E0A7
:102AC000F801A3E7B1E001900D928A95E1F70E9429
:102AD00002140E94D413FF24F3945DCFC8010E9416
:102AE000A611F9CF311112C0782D998A888AA601D2
:102AF0006E2D89890E940C1283E791E00E94A61135
:102B000086E0F50111928A95E9F776CFD2120FC0CF
:102B10009C110DC0E1100BC015968C93C8010E944A
:102B2000A61186E0F50111928A95E9F734CFC80124
:102B30000E940512882391F2EE2081F280917801A3
:102B4000803208F4BCCF20917301309174013A8334
:102B500029831B829D828C828E83CE010196ADCF0C
:102B60006417750708F040C0FE2CEE2009F4B6CFBC
:102B7000D2122CC09C112AC08091780180FD1DC00A
:102B8000982F907FD1F015968C931597903F39F040
:102B9000982F907F905F8F70892B15968C93C8012A
:102BA0000E94A61186E0F801A3E7B1E001900D9222
:102BB0008A95E1F70E94D413EECE86E0F801A3E7F0
:102BC000B1E001900D928A95E1F7E5CEC8010E942F
:102BD0000512811174CF8091780181608093780112
:102BE000C8010E94A611D7CE782D998A888AA6019D
:102BF0006E2D89890E940C1286E0F50111928A954A
:102C0000E9F7D8CFEE2009F469CFC8010E94051278
:102C1000F82E882309F462CF86E0F801A3E7B1E03B
:102C200001900D928A95E1F783E791E00E94900F61
:102C30000E940214BFCF81E08E25E9CE81E08E256F
:102C4000C7CE1F93CF93DF93CDB7DEB72C970FB6C8
:102C5000F894DEBF0FBECDBF4F83588769877A8750
:102C60008B879C87CE0107960E946314882369F0A6
:102C70008A859B85892B39F04F815885842F852340
:102C80008F3F09F071C016E05FC086E0FE01379605
:102C9000DE01119601900D928A95E1F78A859B8558
:102CA000892B89F38F81988589238F3F61F3209148
:102CB000420130E0C9010196877099274091410196
:102CC0004817190671F40E94E21110924201109205
:102CD000410186E0E3E7F1E0DF011D928A95E9F723
:102CE000D2CF96E0929FD001939FB00D1124AD5B9F
:102CF000BE4FFE01319601900D929A95E1F78093B7
:102D000042010E94B313BFCF819FC00111248D5B8C
:102D10009E4F0E9463148823E9F0E09141011E9FB9
:102D2000F0011124ED5BFE4F40815181628173817E
:102D3000848195810E941B128091410190E001964F
:102D400087709927809341018091410190914201C0
:102D50008913DACF2C960FB6F894DEBF0FBECDBF25
:102D6000DF91CF911F91089569857A858B859C8528
:102D70000E941B1288CF682F80916200909163009F
:102D80000C94B527682F80916200909163000C9499
:102D9000B72780916200909163000C94B927E0916D
:102DA0006200F0916300809183018083E091620072
:102DB000F0916300808190918201892B8083E09162
:102DC0006200F0916300808190918101892B808362
:102DD00080916200909163000C9448278091830158
:102DE000089590918301892B8093830108958095A4
:102DF0009091830198239093830108958093830198
:102E0000089510928301089590918201892B8093F7
:102E10008201089580959091820198239093820178
:102E2000089510928201089590918101892B8093D9
:102E3000810108958095909181019823909381015B
:102E400008951092810108956FEF7FEF90E080E088
:102E50000C949E2C90E080E00E947B2C893E9E4F3B
:102E600011F40C94671C80E0089582E090E00C94CB
:102E7000732C83E090E00C94732CCF9384E090E06B
:102E80000E94732CC82F82E290E00E94732C982F2E
:102E90008C2FCF910895CF93C92F682F84E090E0B5
:102EA0000E94812C6C2F82E290E0CF910C94812CB7
:102EB000AB01BC018FE090E00C94922CAB01BC0103
:102EC00083E190E00C94922C60E070E0CB010C94D4
:102ED0005E1760E070E0CB010E9458170C946417F5
:102EE00069EE7EEF90E080E00E949E2C60E082E040
:102EF00090E00E94812C60E083E090E00E94812CB1
:102F00001092400160E084E090E00E94812C60E03B
:102F100082E290E00E94812C60E085E090E00E94D7
:102F2000812C60E086E090E00E94812C6FEF87E0CA
:102F300090E00E94812C40E050E0BA0188E090E0EF
:102F40000E94922C60E08DE090E00E94812C40E095
:102F500050E0BA0188E190E00E94922C60E087E1A5
:102F600090E00E94812C40E050E0BA018CE190E0BA
:102F70000E94922C70E060E080E290E00E949E2C23
:102F800040E050E0BA0188E190E00E94922C80E09D
:102F90000E94801C0E94A61C0C9469170C94701748
:102FA000682F8EE090E00C94812C0E94F5276093AE
:102FB000990170939A0180939B0190939C01609377
:102FC00095017093960180939701909398010895CD
:102FD0000E94F5276093990170939A0180939B0159
:102FE00090939C016093910170939201809393015F
:102FF00090939401089584B7806884BF84B78068F3
:1030000084BF0895089508950C94021808950C94AF
:1030100006180E94FB1789EC9AE10E942F270E9454
:1030200003180C94041881E008950C941318089563
:1030300008950E9417180C9418180E94E2270E9405
:10304000B51C0E94BA1B80E00E94F61D0E94E52379
:103050000C9407187F928F929F92AF92BF92CF925B
:10306000DF92EF92FF920F931F93CF93DF93CDB731
:10307000DEB72A970FB6F894DEBF0FBECDBF0E9411
:10308000CF1BA82E81110E94D51755E8852E51E03F
:10309000952E10E000E0702E802F0E94061B6C0120
:1030A000F401E190F1904F01E816F90609F468C0C7
:1030B00080919D0181FD0E940F1BC7018C259D25DC
:1030C000B12CEE24E394F12C9C012E213F21232BE3
:1030D00009F450C00E9415188823A9F0BE827F828F
:1030E000CE20DF2081E0CD2809F480E088870E948F
:1030F000E9278160782F9A8789874E815F8168856B
:103100008A850E94520F000F111FF801EB57FE4FE6
:1031100080819181E826F926F182E0820E94F623DF
:10312000182F81110E94E8170E94CE1FA11001C024
:1031300011110E94951E0E943927909184018917D0
:10314000B1F10E943927809384012A960FB6F89432
:10315000DEBF0FBECDBFDF91CF911F910F91FF90CA
:10316000EF90DF90CF90BF90AF909F908F907F9027
:103170000C944A0FB394EE0CFF1CF0E1BF12A4CFE5
:103180000F5F1F4F0630110509F085CF8FEF898340
:103190008A831B820E94E9278160782F9D838C831C
:1031A00049815A816B818D810E94520FB7CF2A9637
:1031B0000FB6F894DEBF0FBECDBFDF91CF911F9148
:1031C0000F91FF90EF90DF90CF90BF90AF909F90C6
:1031D0008F907F90089590E080E008950895FC011D
:1031E000EE0FFF1FEC5FFB4E859194910895CF93F6
:1031F000DF930E94EF19EC01811520E49207D8F5C6
:10320000811530E3930708F0B1C0803E910518F5B1
:10321000803C910508F0A2C0883A910570F4853A87
:10322000910508F093C08130910509F10097F9F0FC
:103230000497E8F4D0E0C0E01AC08F3B9105D0F7C6
:10324000C85AD0E0CC0FDD1FC555DF4F0990D8819B
:10325000C02DD4640CC0811540E2940708F084C0EE
:10326000C11581E0D80718F4C83ED10518F7CE0182
:10327000DF91CF910895C11593E5D90760F5C11588
:1032800022E5D20708F083C0C11531E5D30708F065
:1032900079C0C11540E5D40708F471C0CE0164E0DF
:1032A000969587956A95E1F783702C2F269526953C
:1032B000237090E2299F90011124382B8C2F83706A
:1032C000C1E0D0E002C0CC0FDD1F8A95E2F7C22B2F
:1032D000D32BDC68CCCFC11589E5D807F0F4C11534
:1032E00098E5D90708F064C0C11524E5D20708F0B5
:1032F000A1CFCE018370992721E030E002C0220FD8
:10330000331F8A95E2F7C695C69580E2C89FE00113
:103310001124C22BD32BDA68AACFC1153AE5D30703
:1033200008F44BC0CE0190568115904208F082CF30
:103330008D2F8F710E94861A90E0982F88278827FA
:103340009F719C012C2BE901D06291CFC55AD0E02E
:10335000C752DF4FC881D0E0D06489CF805C91092B
:103360000E94EF18EC0183CF9F70FACF9927D3FF0B
:1033700003C0EC01D86C7BCFEC01D06C78CFDF7050
:10338000D06A75CFDC2FCC27C16FD06A70CFCE0149
:103390008370992721E030E002C0220F331F8A9505
:1033A000E2F7C695C69540E2C49FE00111248FCF95
:1033B000DC2FCC27C06FD06A5ACF8C2F8F700E9421
:1033C000861A34E0D695C7953A95E1F7CF709C2FD1
:1033D000EC01D0694CCF0E9413230C94F71882386B
:1033E0009105B1F1B0F48133910509F475C048F449
:1033F0008932910509F469C08A32910509F473C0D4
:1034000008958533910509F459C08933910501F177
:103410000895833E9105A9F138F4803E9105F9F0B5
:10342000823E910549F10895863E9105A9F1873EB6
:103430009105C9F1843E910519F52091CE0221FF35
:103440001FC08091CD0284FD14C087EE90E00895E6
:103450002091CD022370A1F080EE90E0089520919C
:10346000CD0220FD47C03091CE0230FF09C024FFBD
:1034700044C090E080E004C02091CD0222FDF7CF4F
:1034800008952091CD0222FD3BC03091CE0230FD47
:10349000E3CF24FFF5CFEDCF2091CD0223FFF0CF76
:1034A00024FDE7CFD2CF2091CD0223FD2CC0309157
:1034B000CE0231FFEECF84EE90E008952091CD0250
:1034C00025FFDECF89E290E008952091CD0225FF0F
:1034D000D7CF85E390E008952091CD0226FFD0CF8D
:1034E0008AE290E008952091CD0226FFC9CF81E3C2
:1034F00090E0089589E390E0089583EE90E00895C8
:1035000082EE90E0089586EE90E008959091CD02CD
:1035100092FF06C0282F28712830F9F4877F846035
:1035200093FF06C0282F28712831F1F4877E84612B
:103530002091CE0220FF06C0382F38713830D9F4E0
:10354000877F816021FF06C0282F28712831D1F4A0
:10355000877E816194FD877E0895282F2471243011
:10356000F9F68B7F8860DCCF282F2471243101F796
:103570008B7E8861DDCF382F3171313019F78E7F26
:103580008860E0CF282F2171213121F78E7E88615C
:10359000E1CF80E008950C9424170E94CF1B2FEFF9
:1035A00089EF90E0215080409040E1F700C000009A
:1035B0000E94CF1B80E00E94061B80FF04C00E9477
:1035C000CB1A0C94502808950C94CD1A0E942A17F7
:1035D000811102C00E94CE170E94351780939D0171
:1035E0000E943D179093CE028093CD020E94E41A70
:1035F0000E9439170E94351280913F010C944812A5
:1036000008950C94001B08950C94031BE82FF0E020
:10361000EE0FFF1FE552FD4F8081918108950895BF
:1036200080EA8A95F1F7089500C008950C94101B64
:10363000F894E82FE295EF70F0E031A9282F2F7071
:1036400081E090E001C0880F2A95EAF7982F9095C5
:10365000932391AB92A9892B82AB78940895CF9351
:10366000DF93CCEED0E089918F3F11F00E94181BC0
:1036700080E0C23FD807B9F7CCEDD0E089918F3F09
:1036800011F00E94181B80E0CC3ED807B9F7DF91FB
:10369000CF910895AF92BF92DF92EF92FF920F9376
:1036A0001F93CF93DF938C01D62EC62FD0E0CE018F
:1036B00084519F4F7C01FC0120812F3F09F44DC0B4
:1036C000F894E22FE295EF70F0E031A92F7081E0DD
:1036D00090E001C0880F2A95EAF7932F982B91ABC1
:1036E00092A98095892382AB78940E94141BECEDFB
:1036F000F0E04CEE50E021E030E0B12CA12C6191E3
:103700006F3FA9F1A62FA295AF70B0E0D0968C9133
:1037100090E06F7002C0959587956A95E2F780FDFD
:1037200026C0C901A82AB92A220F331F4E175F07E6
:1037300031F7F70180818F3F11F00E94181B61E083
:10374000A114B10409F460E08D2D0E94161BCC0F6A
:10375000DD1FC00FD11FB982A882DF91CF911F91C9
:103760000F91FF90EF90DF90BF90AF90089590E0A1
:1037700080E0D8CF0E942F1B8CE0EBEDF2E0DF0160
:10378000982F1D929A95E9F7EFECF2E0DF011D9278
:103790008A95E9F786E00E941A1C0C94E90DFF92C5
:1037A0000F931F93CF93DF93CDB7DEB72C970FB650
:1037B000F894DEBF0FBECDBF8E010F5F1F4F8CE0B0
:1037C000F80111928A95E9F7F12C6F2DC8010E943A
:1037D0004A1BF394F6E0FF12F8CF4CE050E0B8013A
:1037E0008FEC92E00E94662CFF24F394009709F47A
:1037F000F12C892B41F08CE0F801AFECB2E00190A4
:103800000D928A95E1F72F2D46E06BED72E08FEC7B
:1038100092E00E941B1C0E94F10D8F2D2C960FB67A
:10382000F894DEBF0FBECDBFDF91CF911F910F91F6
:10383000FF9008950895FF920F931F93CF93DF9306
:10384000F82E092F162FD72FC42F222349F081E0FD
:103850008093A0010E94E92790939F0180939E018D
:103860008091A0018823A1F080919E0190919F01F9
:103870000E9401280A9760F0EF2DF02FA12FBD2F95
:1038800090E080E0D0E08C179D0744F01092A001FA
:10389000DF91CF911F910F91FF9008952191319168
:1038A0002D933D930196EFCF0E946A280E941D1828
:1038B0000C947B280E94C0270E9463280E9409184C
:1038C0000E94541C0E9489280E941918FBCF83E291
:1038D00090E00E94732C823289F484E290E00E948E
:1038E000732C863059F485E290E00E94732C91E0AD
:1038F000863209F090E0892F8170089580E0FCCF36
:10390000CF93C82F6FEF811162E283E290E00E94B3
:10391000812C6FEFC11166E084E290E00E94812C5F
:103920006FEFC11166E285E290E0CF910C94812C9B
:10393000089586E290E00E94732C682F70E090E07A
:1039400080E0089586E290E00C94812C80E00E9453
:10395000801C60E070E0CB010E94A21C0E948B22C0
:103960000E94752381E00C94801C0E94981C0E9488
:10397000671C811102C00C94A61C0895CF93FB0113
:10398000C281CC2309F19C0122513F4520313105F0
:1039900020F582510E948523C0E08C2FCF9108959D
:1039A00081E00E945B1243E062E081E00E94E00D52
:1039B000F3CF81E00E94661243E062E081E00E9462
:1039C000E00DEBCF82E0F6CF8031FFE59F0789F372
:1039D00081319F45B9F3C1E0E0CF8031EFE59E072B
:1039E000F9F281319F45C9F682E0DBCF2FEFFC0170
:1039F00020830895EF92FF920F931F93CF93DF934D
:103A0000EC01062FE881E150E33108F05EC0F0E000
:103A1000EC52F34D0C94372C198289E08A83602F85
:103A2000CE01DF91CF911F910F91FF90EF900C94F9
:103A300075298981823069F0833071F08130D9F441
:103A40000E94F5270E943D2C6A837B838C839D8393
:103A5000E6CF0E94991CF6CF7E0110E0812F0E94D4
:103A6000061BF701928383831F5FF2E0EF0EF11CC8
:103A70001630A1F7D4CF602FCE010E94F61CCFCF15
:103A800089818230C1F76A817B818C819D810E940E
:103A90003D2C0E94A21CC3CF4B816A8189810E9468
:103AA0005D229827892798279D838C83B8CF2C8106
:103AB0003D813227232732274B816A8189810E94E9
:103AC0007622ADCF0E948B22AACF8FEF8883A7CF1B
:103AD0000E9420238983A3CF0E942223982789272D
:103AE00098279A8389839BCF6B8170E089819A8123
:103AF000AE014C5F5F4F9827892798270E942523A6
:103B00008ECF6B8170E089819A81AE014C5F5F4FEF
:103B10009827892798270E944B2381CF0E947523DD
:103B20007ECF0E944A22D6CF6B8170E089819A8134
:103B3000AE014C5F5F4F9827892798270E94C322C8
:103B40006ECF6B8170E089819A81AE014C5F5F4FCF
:103B50009827892798270E94E92261CFCF92DF9288
:103B6000EF92FF920F931F93CF93DF936C017B0132
:103B700064E670E088E70E943E26EC0197FD12C0E3
:103B800010E000E0F601E00FF11F849164E670E0C0
:103B90000E94AF26EC01892B29F40F5F1F4F0E15F1
:103BA0001F0581F70E942C27CE01DF91CF911F9135
:103BB0000F91FF90EF90DF90CF90089508950C94AF
:103BC000DE1DE7EEF2E080E092E0DF019C011D9255
:103BD00021503040E1F7F093EC04E093EB048FEFD9
:103BE0009FEF9093C7018093C60108950E94A60C91
:103BF0000E94DF1D8093C20180FD0FC080E880938A
:103C0000C1010E942E266DE070E08BE194E10E94DC
:103C1000AE1D892B21F080E0089580E2F0CF8091E5
:103C2000C20163E070E081FD26C088E194E10E945A
:103C3000AE1D892B81F76DE070E088E094E10E9471
:103C4000AE1D892B41F70E94F527605F784D8F4F9D
:103C50009F4F6093E7047093E8048093E904909386
:103C6000EA040E94E11D81E08093C5018093C401B4
:103C70001092C301089585E194E1D9CF2091C1014B
:103C800036E0839FC0011124629F800D911D112495
:103C9000811522E0920714F090E080E089519D4F59
:103CA0009093EC048093EB040895CF93DF932091DD
:103CB000EB043091EC04275E3240A901460F571FF8
:103CC0004130524020F060E072E0621B730B409183
:103CD000C6015091C701FC01C901620F731FC1E009
:103CE000D0E08617970738F05093C7014093C6017C
:103CF000DF91CF9108952491DC01A951BD4F3C91F2
:103D0000321781F02C939C01A5E036952795AA9552
:103D1000E1F7DE0102C0AA0FBB1F2A95E2F79D0161
:103D20004A2B532B01963196DCCF8091C50181112E
:103D300003C08091C40108950E94F527605F784D0B
:103D40008F4F9F4F6093E7047093E8048093E904DA
:103D50009093EA048091C4018111EBCF62E070E09E
:103D600086E094E10E94AE1D892B19F781E08093D3
:103D7000C401DFCF2F923F925F926F927F928F921A
:103D80009F92AF92BF92CF92DF92EF92FF920F93EA
:103D90001F93CF93DF938091C501882369F0209111
:103DA000C6013091C7012115310531F08091C30161
:103DB00061E070E0882399F0DF91CF911F910F911E
:103DC000FF90EF90DF90CF90BF90AF909F908F903B
:103DD0007F906F905F903F902F9008958F5F082F96
:103DE00010E01B01082E02C0220C331C0A94E2F7DB
:103DF000A90142215321452B89F39091C20190FDE5
:103E000044C08295880F807680936600980136952D
:103E100027953695279520936900815E80936700EA
:103E200010926A0024E630E047E050E064E670E07B
:103E300088E70E94DA26892B09F0BECFA80125E089
:103E4000440F551F2A95E1F78091C20180FD2BC0D8
:103E500049515D4F04E610E020E230E060E488E77D
:103E60000E940027892B09F0A7CF0E94951EE1012F
:103E7000C095D0958091C6019091C701C823D923E0
:103E8000D093C701C093C60197CF880F880F880FC2
:103E90008093660010926900895F8093670083E0D9
:103EA00080936A00BFCFE1EAF1E080E2DF011D927A
:103EB0008A95E9F7A6EFB0E002EF10E08AEFC82E8E
:103EC00080E0D82E97E0592E772473948D91E801E5
:103ED00029918E01240F352F311D29513D4FE82F97
:103EE000F0E0EF55FE4F90E080E0652C681A872CDB
:103EF000082E01C0880C0A94EAF77901A12CE70189
:103F0000B9907E01B820662D6A196770962E062E2C
:103F1000000C770BDB2D01C0DD0F9A94EAF7719549
:103F2000619571096770772701C0B6946A95EAF7C1
:103F3000BD2A6081962E9B289082A39468E0A612E9
:103F4000DECF019631968830910579F6CA16DB06E8
:103F500009F0BCCF04E610E020E230E041EA51E095
:103F60007DCF8091C4019091C501911103C091E072
:103F700089270895882369F062E070E084E094E185
:103F80000E94AE1D892B19F08091C40108951092F2
:103F9000C4018091C401EBCF81E008950F931F937A
:103FA0008091C501882319F160E080E00E943E1EE7
:103FB0000E94A80C0E94BA1E8091C4018823B9F007
:103FC0000E94F5270091E7041091E8042091E9048C
:103FD0003091EA04601B710B820B930B6F3F7F4F94
:103FE0008F4F9F4720F41F910F910C94B11F1F9189
:103FF0000F910895CF93DF93EC0197FF0CC0FB0165
:104000008281882341F00E945B20CE019F770E942D
:10401000D2200E94AA2081E0DF91CF910895909153
:10402000EE04923069F48A3048F490E009966AE030
:1040300070E00E94E22B875A0C941A108650FCCF35
:104040000C94380F8CE090E00E94732C90E0B0E06C
:10405000A0E08093EE049093EF04A093F004B0935B
:10406000F1041092C80184E08093EE040895209139
:10407000C801082E000C990B820F911D27FD9A95FF
:1040800063E070E00E94E22B87FD0DC08093C801C1
:10409000E091C8010E2E000CFF0BE650FF4F80810F
:1040A0008093EE0408958D5FF1CF6091EE048CE073
:1040B00090E00C94812C0E94452786958170809316
:1040C000F3040E94452781708093ED048091EE04F3
:1040D000813039F48091F304882319F089E30E9438
:1040E0001A100E94EE168093F2040E94011780912C
:1040F000EE04813089F0882359F0823091F08430C9
:1041000021F18FE39CE90197F1F700C000000895C9
:1041100082EE0E94950FF5CF88E193E00E94670D33
:10412000F0CF8091ED04811103C083E50E941A1045
:1041300082EE0E94950F8FE39CE90197F1F700C092
:10414000000087E50E941A10DCCF86EE0E941A104C
:1041500088E1F8CF8091EE04813071F0882341F03E
:104160008230A9F08430E1F08091F2040C94FE16C4
:1041700082EE0E94DB0FF8CF8CE20E941A10809131
:10418000F304882389F389E30E941A10EDCF82EEAD
:104190000E94DB0F8091ED048111E6CF83E5F4CF1F
:1041A00088E2F2CF0F931F93CF93DF938C01CCE083
:1041B000D0E0C8010C2E02C0969587950A94E2F7CC
:1041C0008F700E940F202497CC3F8FEFD80789F77C
:1041D000DF91CF911F910F9108950F931F93CF936C
:1041E000DF93EC018B01FB018281882361F00E9447
:1041F000EE168272C03EFCE5DF07E1F060F4CF3DD1
:10420000ECE5DE0799F0B801CE01DF91CF911F9167
:104210000F910C94FA1FC63EFCE5DF07A0F78C2F28
:10422000815E8093EE040E945520EDCF811104C081
:1042300081E003C08111FCCF8FEF0E943720E3CFD4
:10424000CF93DF93EC01FB018281882309F420C125
:10425000C330FDE5DF07C8F5CA3F9CE5D90730F458
:104260009E0122503C452431310598F50E943D17AE
:104270009093CE028093CD02C031FCE5DF0709F4B4
:10428000E0C008F061C0C8309CE5D90709F4CBC094
:1042900088F5C430FCE5DF0709F4B3C0E8F4C230A8
:1042A0009CE5D90709F4A7C08091CD028260C33094
:1042B000DC4509F4A3C08091CD029091CE020E940A
:1042C0004B170E94E21180E004C0C136EDE5DE0725
:1042D00069F2DF91CF9108958091CD028061C6305F
:1042E000FCE5DF0709F48AC008F48FC08091CD0295
:1042F000806284C08091CD028D7FCC309CE5D9074F
:1043000009F47CC070F48091CD028C60CA30FCE569
:10431000DF0709F473C008F48AC08091CD028E7F54
:104320006DC08091CD02877FCE309CE5D90709F41E
:1043300065C08091CD028B7FCF30DC4508F45EC034
:104340008091CD028F7E5AC0CC3FFCE5DF0709F497
:1043500074C040F5C4319CE5D90709F48AC058F40B
:10436000C231FCE5DF0709F474C008F46EC0809127
:10437000CD02837F43C0CA3F9CE5D90709F449C0F9
:1043800008F04DC0C531DC4509F095CF8091CD02D4
:1043900082FB992790F921E0922790FB82F990FB0C
:1043A00083F92CC0C1158DE5D80709F458C088F4ED
:1043B0008091CE028360CE3FECE5DE0769F180910B
:1043C000CE028D7FCF3FDC4538F18091CE028C7FCD
:1043D00023C0C2308DE5D80709F458C008F452C094
:1043E000C136DD4509F067CF9091CD02892F8F7ED0
:1043F00094FF806103C08091CD0281608093CD02E3
:104400005ACF8091CD028460F9CF8091CD0288602F
:10441000F5CF8091CE0281608093CE024CCF809107
:10442000CE028260F9CF8091CD028064E7CF0E94F6
:10443000E2118091CD028068E1CF8091CE028E7F23
:10444000EBCF8091CD028F7DD9CF8091CD028F7B34
:10445000D5CF0E94E2118091CD028F77CFCF80918E
:10446000CE02982F909591708E7F892B90FB81F9C9
:10447000D3CF0E94E2119091CD02892F97FB87F94B
:104480008058BCCF81E00E94D01715CF80E0FBCFD1
:1044900081E01FCF84E0089590E2699FB00111246C
:1044A00050E0440F551F640F751F90EC899F600DFD
:1044B000711D1124CB01879608950F931F93CF93FD
:1044C000DF930E944C228C010E94732CC82FD0E0F5
:1044D000DC2FCC27C80101960E94732C9E01282B4B
:1044E000C901DF91CF911F910F9108950F931F93F1
:1044F000CF93DF93122F032F0E944C22EC01602FE9
:104500000E94812C612FCE010196DF91CF911F91E6
:104510000F910C94812CAF92BF92CF92DF92EF92C9
:10452000FF921F93CF93DF9384E5C82E80E1D82EAE
:10453000D0E07601C0E014C0F50125913491412FFF
:104540006C2F8D2F0E94762282E0A80EB11C1F5F77
:10455000103191F780E2E80EF11CCF5FC63019F000
:10456000570110E0E9CFDF5F80ECC80ED11CD430DA
:1045700001F7DF91CF911F91FF90EF90DF90CF90E7
:10458000BF90AF900895EF92FF920F931F93CF9338
:10459000DF93EC018A017C01E60EF71ECE018796BF
:1045A000CE15DF0539F4DF91CF911F910F91FF9068
:1045B000EF900895C11523E0D20740F40E94732CB8
:1045C000F80180830F5F1F4F2196E8CFF80110821A
:1045D000F9CFCF92DF92EF92FF920F931F93CF9379
:1045E000DF937C016A018C01060F171FEC01CE01DD
:1045F0008796C017D10749F4DF91CF911F910F9192
:10460000FF90EF90DF90CF900895C11523E0D2077F
:1046100040F4FE01EE19FF09EC0DFD1D60810E94C2
:10462000812C2196E4CF462F843038F4763028F45C
:10463000603118F4672F0C945D2290E080E00895BB
:1046400080E1089589ED90E00895EF92FF920F9335
:104650001F93CF93DF93EC018A017C01E60EF71ED6
:10466000CE01895D9C4FCE15DF0539F4DF91CF91E6
:104670001F910F91FF90EF900895C93DD10540F42F
:104680000E94732CF80180830F5F1F4F2196E8CFA3
:10469000F8011082F9CFCF92DF92EF92FF920F9341
:1046A0001F93CF93DF937C016A018C01060F171FC4
:1046B000EC01CE01895D9C4FC017D10749F4DF9111
:1046C000CF911F910F91FF90EF90DF90CF900895C1
:1046D000C93DD10540F4FE01EE19FF09EC0DFD1DA9
:1046E00060810E94812C2196E4CFCF93DF93C7E2B3
:1046F000D3E060E0CE010E94812C2196C11584E0B8
:10470000D807B9F7DF91CF910895DF92EF92FF922A
:104710000F931F93CF93DF9300D000D0CDB7DEB7B8
:10472000F82E8FE08F1540F08FEF93E00E94732CEE
:1047300007E213E08823C1F00F900F900F900F90C5
:10474000DF91CF911F910F91FF90EF90DF9008952F
:10475000011584E0180781F3C8010E94732C8111B0
:1047600001C0FA940F5F1F4FF110F2CF19821A8225
:104770001B821C82DD24D39478018FEFE81AF80A9B
:10478000C8010E94732C89831A828823A9F29FEFA3
:10479000980F933078F48A83D9820E5F1F4FC70138
:1047A0000E94732C8B83882339F2CE0101960E94DC
:1047B000350FE2CF8701F9CF8FE891E00197F1F74C
:1047C00000C00000089581E008958898909A899823
:1047D000919A0E94DC2380B38170819905C090E09A
:1047E000892B8093CB01089592E0FACFE091CB0121
:1047F000EE0FEE0FE093CB0140B3842F817040B3F6
:1048000041FB222720F941FF02C022E030E0822B49
:10481000E82BE093CB01EF70F0E0E350FF4F808195
:104820009091CA01890F8093CA0120E0823054F030
:104830008091C9018F5F8093C90160E080E00E9490
:104840008B0C21E08091CA018F3F54F48091C90103
:1048500081508093C90161E080E00E948B0C21E0CF
:104860008091CA01082E000C990B62E070E00E9452
:10487000E22B8093CA01822F0895CF93DF93EB013F
:1048800086319C4511F50E94EE169A81992399F084
:104890008A7A91E009F490E09093CC01811109C0EB
:1048A00089E20E94BB160E94CF1680E0DF91CF9173
:1048B000089585E3F6CF8091CC01811104C089E28F
:1048C0000E94C216F0CF85E3FBCF81E0EFCF0F93BC
:1048D0001F93CF93DF93C42FD22FFC0182818823B3
:1048E000C9F04093CF010E94E9279093CE018093B5
:1048F000CD0180E28C0F883008F050C0C77081E095
:1049000001C0880FCA95EAF7DF91CF911F910F91EF
:104910000C9422101091CF01141335C08091CD0159
:104920009091CE010E940128883C910560F5C0E27B
:10493000CD0F1D17B9F080E2810F883040F4177059
:1049400081E001C0880F1A95EAF70E942910C8304B
:1049500048F481E09D2F977001C0880F9A95EAF77F
:104960000E942210802F0E941A10C830B8F4D7700D
:1049700081E001C0880FDA95EAF7DF91CF911F91AE
:104980000F910C94291080E28C0F883038F4C77096
:1049900081E001C0880FCA95EAF7EFCFDF91CF9190
:1049A0001F910F9108950F939C01CB01233F4CE57C
:1049B000340759F1A8F4283DFCE53F0701F1293DF2
:1049C0004CE53407D1F1273D3C4591F406E221EE58
:1049D00041EE67ED7CE50E94672480E00F91089529
:1049E000253FFCE53F07E9F0B0F0263F3C45F9F0F4
:1049F000FC018281882339F11092CF01EFCF07E2C9
:104A000025EE45EE68ED7CE5E6CF06E221EE40EED0
:104A100063EF7CE5E0CF07E225EE44EE64EF7CE552
:104A2000DACF06E221EE42EE65EF7CE5D4CF07E275
:104A300025EE46EE66EF7CE5CECF08E221E045EEBE
:104A400069ED7CE5C8CF81E0C9CF80910D02089562
:104A50009C013056211540E2340748F0305E2115A4
:104A600040E1340720F0315C21153F4178F499276B
:104A70009C01245031092432310578F02752310944
:104A800081E02E30310550F080E008958F3F910590
:104A900079F370F390E080E0EBCF81E008950C941F
:104AA00028250E944F25882341F0E091D201F0E0B3
:104AB000ED52FE4F80818F5F808308958F929F9289
:104AC000AF92BF92CF92DF92EF92FF92CF93C090BE
:104AD000D3010C2C000CDD08EE08FF0820916B00C0
:104AE00030E081E090E0281739070CF0A4C0609115
:104AF000090270910A0280910B0290910C020E94AF
:104B000010284B015C01C0916B0085E6881691046A
:104B1000A104B104FCF08091D20190E0019662E31F
:104B200070E00E94E22B8093D2018D529E4FFC01D7
:104B300010828C2FC13308F080E38F5F80936B006D
:104B40000E94F5276093090270930A0280930B027A
:104B500090930C02F2E0CF16D104E104F1040CF4BE
:104B600079C0A0E6BAEEA70196010E94442C6B0121
:104B70007C0184E6C89F90011124032E000C440B95
:104B8000550B280D391D4A1D5B1DA5E0B0E00E94A4
:104B9000442C9B01AC01C701B6010E94F62B6901B0
:104BA0007A01E1EFCE16D104E104F10428F080EFA0
:104BB000C82ED12CE12CF12C6091050270910602D7
:104BC00080910702909108020E9410284B015C011D
:104BD000F5E68F169104A104B10484F00E94F52734
:104BE0006093050270930602809307029093080277
:104BF00080910D028093D101C092D001C091D1016A
:104C0000A091D001AC1BBB0BA50194010E944F2CBD
:104C100024E630E040E050E00E94182CC20FC09320
:104C20000D02CF91FF90EF90DF90CF90BF90AF90AB
:104C30009F908F900895FC01ED52FE4F4081042E0D
:104C4000000C550B660B770BC40ED51EE61EF71E27
:104C5000019649CFC12CD12C7601AECF11B88CE092
:104C600080B985B3836085BB86B7846086BF86B70D
:104C7000816086BF86B7806486BF08959F92AF9299
:104C8000BF92CF92DF92EF92FF920F931F93CF9339
:104C9000DF93B82EEB010E94E9276C01EE24E39428
:104CA000F12CC431D10560F025E0E22EF12CCF3F8C
:104CB000DC0731F0CE0164E170E00E94CE2B7B0175
:104CC00084EAA82E94E8992E16BEA6BE0E94E92773
:104CD0008C0106B607FE0BC081B1887F883031F1A8
:104CE00081B1887F803111F10FEF1FEF09C00E9461
:104CF000E927801B910B8E159F0558F30EEF1FEFD0
:104D0000CF3FDC0709F3C6010E9401288C179D07DD
:104D1000D8F2C801DF91CF911F910F91FF90EF90D2
:104D2000DF90CF90BF90AF909F900895B3B896BE9C
:104D30000E94E9278C0106B607FE09C081B1887F71
:104D4000883111F0803481F610E000E0E2CF0E945B
:104D5000E927801B910B8E159F0568F3CFCF0F932A
:104D60001F93CF93DF93EB0183B984E886BF0E9442
:104D7000E9278C0106B607FE10C021B1287F81E02B
:104D800090E0283211F490E080E0919581959109AE
:104D9000DF91CF911F910F910895CF3FDC0751F321
:104DA0000E94E927801B910B8C179D0718F38EEF4B
:104DB0009FEFEECFCF92DF92EF92FF920F931F9370
:104DC000CF93DF936B018A017901B9010E943E26DE
:104DD000E6010C0D1D1DC017D10759F424E926BFAB
:104DE000DF91CF911F910F91FF90EF90DF90CF90C7
:104DF000089597FDF3CFB70189910E94AF26EBCFBD
:104E0000CF92DF92EF92FF920F931F93CF93DF9396
:104E1000C62F6A017901B8010E943E2697FD0CC099
:104E2000B8018C2F0E94AF26E601EC0CFD1CCE15BC
:104E3000DF0511F097FF0BC024E926BFDF91CF916A
:104E40001F910F91FF90EF90DF90CF900895B801E0
:104E500089910E94AF26EBCF84E986BF0895909395
:104E60000F0180930E010895909313028093120214
:104E70000895E0911202F0911302309721F0019011
:104E8000F081E02D099480E008950E94392708956B
:104E9000E0911202F0911302309721F00280F38129
:104EA000E02D0994089520911002309111022817E5
:104EB000390771F09093110280931002E091120271
:104EC000F0911302309721F00680F781E02D0994CC
:104ED000089520910E0230910F022817390771F0C2
:104EE00090930F0280930E02E0911202F091130250
:104EF000309721F00084F185E02D09940895662310
:104F000049F0FC01329608962191261729F0E817FE
:104F1000F907D1F780E0089581E008959C01FC0134
:104F200032969FEF80E04191461751F09F3F19F470
:104F3000411101C0982F8F5F8630A9F79F3F09F478
:104F40000895290F311D97FD3A95F901628308955F
:104F5000FC01329608962191261303C0DF011197B8
:104F60001C92E817F907B9F708950C948E270C9452
:104F7000A827029626E0FC0111922A95E9F70895E8
:104F800008958091160281110C94F90D08950895E9
:104F90000895CF930E94C7270E94CF1B0E94C82765
:104FA000C0E08C2F0E94061B892B31F4CF5FC630E6
:104FB000C1F780E0CF91089581E0FCCF0E94E2111B
:104FC0000C94610E8BE083BF8AEF8CBF82E089BFB7
:104FD00008952FB7F8948091F4049091F504A0916E
:104FE000F604B091F7042FBF08952FB7F89460919D
:104FF000F4047091F5048091F6049091F7042FBFAA
:1050000008959C014FB7F8948091F4049091F504B1
:10501000A091F604B091F7044FBF821B930B089543
:10502000CF92DF92EF92FF922FB7F894C090F404E2
:10503000D090F504E090F604F090F7042FBFA7019C
:105040009601261B370B480B590BCA01B901FF907B
:10505000EF90DF90CF90089578941F921FB61F9223
:1050600011248F939F93AF93BF938091F4049091F9
:10507000F504A091F604B091F7040196A11DB11DAD
:105080008093F4049093F504A093F604B093F7048E
:10509000BF91AF919F918F911F901FBE1F90189548
:1050A00088E198E00FB6F894A89581BD0FBE91BD38
:1050B000A895F894D8E0CEE528E3299320E0299339
:1050C00014BEFFCF08950E94E927909315028093A4
:1050D000140208950E94B32B8B9A80E0815019F43A
:1050E0008B9878940895A895EFE9FFE03197F1F750
:1050F00000C00000F3CF0E94AF290E9434272FEF99
:1051000080E792E0215080409040E1F700C000002D
:10511000089580911F05882369F110921F050E9450
:10512000E927909315028093140280911602882338
:1051300041F0109216020E94DE2780911602811122
:105140001DC00E94C32A80912505882329F08091E3
:10515000030584FD0E942A180E941C290E94C32A6C
:10516000809125058823C9F180913C0584FF35C0D5
:105170000C94A32980911602882301F10E94C12773
:105180000E94C927882349F1F89421B3939A822F6A
:105190008C6081BB92B33CE0932792BB4FE788E3DE
:1051A00091E0415080409040E1F700C0000082B3A0
:1051B000832782BB21BB9398789408958091140231
:1051C000909115020E940128069708F4B6CF81E05D
:1051D000809316020E94C127B0CF08958091CC021F
:1051E0000895089590911C02981307C020911A0207
:1051F00030911B0226173707A9F080931C02709389
:105200001B0260931A028093170270931902609335
:10521000180280913C0584FF05C063E087E192E0BD
:105220000C94BB2A0895BC0184E00C94F228BC01C4
:1052300083E00C94F2280895CF93DF93CAE0D0E086
:105240008091030584FF1AC08091490290914A021F
:10525000981789F028E0829FC001112468E0855BDF
:105260009D4F0E94B72A8091490290E001968F706D
:10527000992780934902DF91CF9108950E94C32A14
:105280008FE99FE00197F1F700C000002197C1F678
:10529000F2CFCF93DF93EC01A0914A02B0E0CD01B1
:1052A00001968F70992720914902281779F093E091
:1052B000AA0FBB1F9A95E1F7A55BBD4F98E0FE01D1
:1052C00001900D929A95E1F780934A020E94C32AB9
:1052D0000E941C2988E0FE01A1E4B2E001900D9239
:1052E0008A95E1F7DF91CF9108950F931F93CF93A4
:1052F000DF93EC01603211F58C01005E1F4F02C09C
:105300000E94C32A80910F0584FFFACF68E0CE0186
:105310000E94BF2A2896C017D107A1F780910F05D8
:1053200084FF09C060E090E080E0DF91CF911F91A1
:105330000F910C94BF2A0E94C32AF0CFDF91CF9126
:105340001F910F91089580912002803239F460E21C
:1053500081E292E00E94FA1C1092200208958CE6ED
:1053600090E00895FC01808180768032F1F48181A3
:10537000813061F484819581892BB9F481E492E0D4
:10538000909321058093200588E00895823041F4B0
:105390008BEC92E0909321058093200581E00895A5
:1053A0008A3029F483818093CB0280E0089589308C
:1053B000E1F7828193818115924069F4848195811E
:1053C000892B49F481E080931F0286819781909315
:1053D0001E0280931D028FEF0895FC0180911D0233
:1053E00090911E02892B61F080911F02813041F45F
:1053F00090819093CC0210921E0210921D0208958B
:105400008FEF0895683019F01092200208952091CE
:1054100020022931C8F7FC01A22FB0E0AF5DBD4FDB
:10542000089631913D93E817F907D9F7285F209343
:1054300020020895FC018381833089F130F48130AA
:10544000F1F0823021F180E00895813209F441C009
:105450008232C9F7248135812130310509F457C0E2
:105460002115310509F44BC02230310561F787ED74
:1054700094E1909321058093200582E3089583E8C9
:1054800094E1909321058093200582E1089588E2BC
:1054900094E190932105809320058BE50895828106
:1054A000813079F0882329F0823069F685E994E12A
:1054B0000AC081EB94E1909321058093200584E05C
:1054C000089583EA94E190932105809320058CE070
:1054D00008958281813081F0882331F0823009F093
:1054E000B2CF83E794E102C08AE394E1909321056F
:1054F0008093200589E0089583E594E1F7CF89E062
:1055000095E1909321058093200580E4089525EB93
:1055100034E1309321052093200508951F93CF9304
:10552000DF93E82F792F162FEA01888184FF1CC0B2
:10553000298188E828272983CE010296DC012E2FB5
:10554000372F512F5E0FF90121912D939F01452F88
:105550004E1B1416C4F3612F0E94000B1C5F1883AE
:10556000DF91CF911F9108958AE58883E5CF43E0CD
:1055700055E00C948E2A4CE355E00C948E2A4FE0B3
:1055800055E00C948E2ACF93DF93609122056350EF
:1055900067FD12C080911E05CCE0D0E0C81BD10988
:1055A000CA5DDA4F80911D05803108F054C0CE01EC
:1055B0000E94022A109222058091790084FF3EC049
:1055C000809178008F3FD1F1C82F893008F0C8E072
:1055D000982F9C1B909378009091F80428E89227CC
:1055E0009093F8048823E9F080912005909121059B
:1055F00020911C0526FFAEC0FC012C2FA9EFB4E0C2
:1056000034913D9331962150D9F79C012F5F3F4F44
:105610008FEF8C0F820F932F911D90932105809314
:1056200020056C2F89EF94E00E94000BCC5FCC30FA
:1056300019F08FEF80937800C093790084E190B3E4
:105640009C7031F48150D9F71092230510921B05FC
:10565000DF91CF9108958D3209F069C0683009F06B
:10566000A9CF83EC8093F8048AE5809379001092A7
:105670001C058881807671F0CE010E94B2298F3F8F
:10568000C1F4988197FD8E8190E890931C058093DA
:10569000780090CF2A81109201059981911111C053
:1056A0001092020521E035E082E03093210520933D
:1056B00020059F819111EBCF9E81981740F7892F8C
:1056C000E6CF953029F42093230521E035E0EDCF96
:1056D000963099F49B81913021F4CE010E941A2AD0
:1056E00008C09230D1F39330C1F39132B1F39232CA
:1056F000A1F390E490931C05C2CF983089F09930C3
:1057000019F420932505E1CF9A3071F09B30E9F62A
:105710009BE49093040590933D0590931005D5CF9D
:1057200025E235E081E0C1CF21E035E0FBCF80917B
:105730001C0587FF3FCFCE010E94ED298F3F21F44A
:105740008EE18093790036CF882309F433CF10920D
:10575000780030CFDC012C2FE9EFF4E03D9131935C
:105760002150E1F752CFCF93DF9385B7886085BF93
:105770008BB780688BBFC3E0D5E08BE48983ACE353
:10578000B5E011968C931197EFE0F5E081838AE5FF
:1057900088838C938083DF91CF910895AA1BBB1BD4
:1057A00051E107C0AA1FBB1FA617B70710F0A61B21
:1057B000B70B881F991F5A95A9F780959095BC0142
:1057C000CD01089597FB072E16F4009407D077FDBE
:1057D00009D00E94CE2B07FC05D03EF49095819510
:1057E0009F4F0895709561957F4F0895A1E21A2EFD
:1057F000AA1BBB1BFD010DC0AA1FBB1FEE1FFF1F75
:10580000A217B307E407F50720F0A21BB30BE40BC4
:10581000F50B661F771F881F991F1A9469F760950B
:105820007095809590959B01AC01BD01CF010895C5
:10583000052E97FB1EF400940E942F2C57FD07D0D5
:105840000E94F62B07FC03D04EF40C942F2C50959D
:105850004095309521953F4F4F4F5F4F089590955C
:105860008095709561957F4F8F4F9F4F0895EE0FF4
:10587000FF1F0590F491E02D099469279627692769
:1058800078278727782708950E94572CA59F900D89
:10589000B49F900DA49F800D911D11240895B7FF12
:1058A0000C94442C0E94442C821B930B0895A29FBD
:1058B000B001B39FC001A39F700D811D1124911DE4
:1058C000B29F700D811D1124911D0895FB01DC0113
:1058D00004C08D910190801921F441505040C8F7C7
:1058E000881B990B0895E199FECF9FBB8EBBE09A70
:1058F00099278DB30895A8E1B0E042E050E00C9400
:10590000A62C262FE199FECF9FBB8EBBE09A019774
:105910000DB2021631F02DBB0FB6F894E29AE19A5F
:105920000FBE08950396272F0E94822C0E94812C7F
:10593000252F0E94822C242F0C94822C0196272F35
:105940000E94822C0C94812CDC01CB01FC01E1999A
:10595000FECF06C0FFBBEEBBE09A31960DB20D92B2
:1059600041505040B8F70895F894FFCF48104810C0
:1059700085108510B010751075107510CA10331190
:10598000431143117C11751075108411F111F1113F
:10599000FA11FA11FC11FA11FA11FA11F111F111BF
:1059A0000112FA11FA1101120C1D191D401D4C1D96
:1059B000571D621D651D651D651D651D651D681DE5
:0E59C0006C1D741D811D8E1D911D941DA11D59
:1059CE00C80079010021007F22000301EE28492939
:1059DE001B2917291329F128FF5AE200E900EA00D2
:1059EE00B500B600B700CD008301CC008A0192014C
:1059FE0094012102230224022502260227022A02F2
:105A0E00B300B4006F007000818283E200E900EA07
:105A1E0000B500B600B700CD008301CC008A01921C
:105A2E000194012102230224022502260227022AC2
:105A3E0002B300B4006F00700081828390609161A8
:105A4E0092629363946495969707060532333734C2
:105A5E003635000810181810080004000100FF0168
:0E5A6E0000010000FFFF0000010001FF00002A
:00000001FF
