:100000000C94F6030C942E040C942E040C942E04E1
:100010000C942E040C942E040C942E040C942E0498
:100020000C942E040C942E040C943D220C94F92173
:100030000C943A230C942E040C942E040C942E044D
:100040000C942E040C942E040C942E040C942E0468
:100050000C942E040C9416230C942E040C942E0451
:100060000C942E040C942E040C942E040C942E0448
:100070000C942E040C942E040C942E040C942E0438
:100080000C942E040C942E040C942E040C942E0428
:100090000C942E040C942E040C942E040C942E0418
:1000A0000C942E040C942E040C942E0405010902C9
:1000B000A10185020901A1000509190129081500FE
:1000C0002501950875018102050109300931158165
:1000D000257F95027508810609381581257F9501D0
:1000E00075088106050C0A38021581257F95017572
:1000F000088106C0C005010980A101850319012AF4
:10010000B700150126B700950175108100C0050CD8
:100110000901A101850419012AA002150126A002E6
:10012000950175108100C005010906A1018506052C
:100130000719E029E71500250195087501810205D9
:1001400007190029EF1500250195F07501810205B9
:10015000081901290595057501910295017503910D
:1001600001C00660FF0961A1010962150026FF00B8
:100170009520750881020963150026FF00952075FA
:10018000089102C005010906A101050719E029E748
:1001900015002501950875018102950175088101F9
:1001A0000507190029FF150026FF0095067508812F
:1001B000000508190129059505750191029501753C
:1001C000039101C01E0F0500047F3F1F64321464B9
:1001D0003214783C1E1E140A0500010101010101C0
:1001E00001010102020202020202020203030303EE
:1001F00003030303040404040404040505050505BE
:10020000060606060607070707070808080809097B
:1002100009090A0A0A0B0B0B0C0C0C0D0D0D0E0E26
:100220000E0F0F0F101011111112121313141415B9
:100230001516161717181819191A1A1B1B1C1D1D2D
:100240001E1E1F2020212222232424252626272883
:1002500029292A2B2C2D2D2E2F30313232333435B3
:10026000363738393A3B3C3D3E3F404142434445B6
:10027000464748494A4C4D4E4F5051535455565895
:10028000595A5B5D5E5F616264656668696B6C6D3F
:100290006F7072737577787A7B7D7E8082838587B5
:1002A000888A8C8E8F91939596989A9C9EA0A2A3F3
:1002B000A5A7A9ABADAFB1B3B5B7BABCBEC0C2C4F8
:1002C000C6C9CBCDCFD1D4D6D8DBDDDFE2E4E7E9B8
:1002D000EBEEF0F3F5F8FAFDFFFFAA7F554022237D
:1002E000252628292A2C2D2F3032333536383A3B13
:1002F0003D3E4042434547494A4C4E505153555765
:10030000595A5C5E6062646668696B6D6F71737583
:1003100077797B7D7F81838587898A8C8E90929483
:1003200096989A9C9E9FA1A3A5A7A8AAACAEAFB190
:10033000B3B4B6B8B9BBBCBEBFC1C2C3C5C6C7C9DA
:10034000CACBCCCDCED0D1D2D2D3D4D5D6D7D7D894
:10035000D9D9DADADBDBDBDCDCDCDCDCDDDDDDDDE6
:10036000DCDCDCDCDCDBDBDBDADAD9D9D8D7D7D6EE
:10037000D5D4D3D2D2D1D0CECDCCCBCAC9C7C6C5A5
:10038000C3C2C1BFBEBCBBB9B8B6B4B3B1AFAEACEB
:10039000AAA8A7A5A3A19F9E9C9A98969492908E96
:1003A0008C8A89878583817F7D7B79777573716F6F
:1003B0006D6B6968666462605E5C5A59575553514B
:1003C000504E4C4A4947454342403E3D3B3A383601
:1003D000353332302F2D2C2A2928262523220000C0
:1003E000000000000000000000000000000000000D
:1003F00000000000000000000000000000000000FD
:1004000000007E0F00D4FFFFFFC70000007800004F
:100410000000000000002A2B28000000000000005F
:1004200000000000000000000029000000002C1E59
:100430003420212224342627252E362D3738271E16
:100440001F202122232425263333362E37381F043C
:1004500005060708090A0B0C0D0E0F1011121314D4
:1004600015161718191A1B1C1D2F3130232D350492
:1004700005060708090A0B0C0D0E0F1011121314B4
:1004800015161718191A1B1C1D2F3130354C290051
:100490001E0020002200240026002D002A00350026
:1004A0001F0021002300250027002E002A00000045
:1004B000140008001700180012002F004C002B0039
:1004C0001A0015001C000C00130030000000000092
:1004D000040007000A000D000F003400000039007E
:1004E000160009000B000E00330028000000000079
:1004F0001D000600050010003700E5005200E10075
:100500001B00190011003600380000002252E000E4
:10051000E20000002C000000E600E3005100E300D0
:100520000000225200002C00E40050004F0029007F
:100530001E0020002200240026002D002A00350085
:100540001F0021002300250027002E002A000000A4
:10055000140008001700180012002F004C002B0098
:100560001A0015001C000C001300300000000000F1
:10057000040007000A000D000F00340000002A42AA
:10058000160009000B000E003300280000000000D8
:100590001D0006000500100037001B7C52001A7C6D
:1005A0001B00190011003600380000002252E00044
:1005B000E20000002C000000E600E3005100E30030
:1005C0000000225200002C00E40050004F00007C8C
:1005D0003A003C003E004000420044004C004152C2
:1005E0003B003D003F00410043004500007C00000F
:1005F0004A004D0001000100010001004C00405282
:1006000052004B00010049004600010000000000BC
:1006100050004F000100AC00AB00010000000100E1
:1006200051004E000100AE000100207800000000E3
:100630002D782E782C78A800A90039004B000100F5
:10064000317830783278AA003100000001000100D2
:100650000100000028000000010001004E00010020
:10066000000001000000630001004A004D00007C12
:100670003A003C003E004000420044004C00415221
:100680003B003D003F00410043004500007C00006E
:100690004A004D0001000100010001004C004052E1
:1006A00052004B000100490046000100000000001C
:1006B00050004F000100AC00AB0001000000010041
:1006C00051004E000100AE00010020780000000043
:1006D0002D782E782C78A800A90039004B00010055
:1006E000317830783278AA00310000000100010032
:1006F0000100000028000000010001004E00010080
:10070000000001000000630001004A004D00DA0013
:10071000D900DA00D900A900AA002B032B01DA00C6
:10072000D90025782678A900AA0050004F00297822
:100730002A7821782278DA00D90050004F00090287
:100740005B00030100A0FA0904000001030101009D
:100750000921110100012240000705810308000161
:100760000904010002030000000921110100012217
:100770002200070582032000010705030320000172
:1007800009040200010300000009211101000122F7
:10079000B6000705840320000112010002000000DA
:1007A00008D012661100020102000116034B00720C
:1007B00000610064006F00360036002000760032D1
:1007C00000000022034B007200610064006F0020F3
:1007D0000049006E006400750073007400720069C7
:1007E00000650073000000040309040011241FBE0B
:1007F000CFEFDAE0DEBFCDBF04B603FE18C08091B4
:100800005C0390915D03A0915E03B0915F0387301C
:10081000904BA740B04B59F410925C0310925D03CB
:1008200010925E0310925F03E0E0F8E3099523E085
:10083000A6EBB1E001C01D92AC35B207E1F711E0C3
:10084000A0E0B1E0E0E0F8E502C005900D92A63B23
:10085000B107D9F70E9461230C94952B0C940000EA
:10086000E8EDF0E080818E7F80831092E2001092AC
:10087000DA001092E100A0EEB0E08C9181608C93E0
:1008800080818F77808319BCA7EDB0E08C918E7F3B
:100890008C9380818F7E808310922A03089520910B
:1008A000E4003091E50095E6A9012091EC00822F4B
:1008B000817020FF06C08091E80080FF06C080E0C4
:1008C00008952091E80022FD1AC080914F038823EB
:1008D00089F0853089F08091EB0085FD0FC0209173
:1008E000E4003091E50042175307F9F29150E1F628
:1008F00084E0089582E0089583E0089581E00895FA
:100900008091510387FF13C08091E80082FF06C0E9
:100910008091E8008B778093E80004C080914F03BA
:100920008111F2CF089580914F038823D9F38091EC
:10093000E80080FFF8CF8091E8008E77ECCF982F09
:100940009093E900242F762F50E0891731F07091B1
:10095000EC002091ED005091F00021FD07C09F5F59
:10096000973071F78093E90081E008953091EB00B2
:100970003E7F3093EB003091ED003D7F3093ED00F2
:100980003091EB0031603093EB007093EC002093DA
:10099000ED005093F0002091EE0027FDE0CF80E0C5
:1009A0000895B0E0A0E0E7EDF4E00C94472AC8ED2C
:1009B000D0E088818F7E8883E7EDF0E080818160E0
:1009C000808384E082BF81E080932A0388818E7FC8
:1009D000888302EE10E0F80110821092DA0081EEB6
:1009E000C82ED12CF601108288818F778883888168
:1009F0008068888388818F7D888319BC10924F031B
:100A00001092500310924E0310924D0390EEE92E77
:100A1000F12CF70180818B7F8083888181608883BE
:100A200042E060E080E00E949F04F60180818E7FBA
:100A30008083F801808181608083808188608083E9
:100A4000F70180818E7F8083888180618883CDB724
:100A5000DEB7E8E00C94632AFC0180915703909183
:100A6000580386179707A0F06115710529F4909136
:100A7000E8009E779093E80090E06115710551F4CD
:100A8000911108C08091E80082FF34C080E0089591
:100A9000BC01F2CF80914F038823C1F18530C1F1B1
:100AA0008091E80083FD30C08091E80082FDEACFAC
:100AB0008091E80080FFE1CF8091F3002091F20067
:100AC000382F6115710519F02830310558F091E083
:100AD0002830310509F090E02091E8002E7720932E
:100AE000E800CBCF81918093F100615071092F5FB5
:100AF0003F4FE7CF80914F03882341F0853041F08D
:100B00008091E80083FFBECF81E0089582E00895E0
:100B100083E0089580912C0308959C014FB7F894C9
:100B20008091240390912503A0912603B09127037F
:100B30004FBF821B930B08952FB7F8946091240345
:100B40007091250380912603909127032FBF08956C
:100B50002FB7F8948091240390912503A091260348
:100B6000B09127032FBF089520911A012223C9F0C5
:100B70002091280327FF15C0E62FE695E695E69518
:100B8000EE31D8F4E80FF92FF11D677021E030E065
:100B900001C0220F6A95EAF72095828128232283DB
:100BA0000895FC01329608962191621303C0DF017B
:100BB00011971C92E817F907B9F7089520911A01C7
:100BC0002223C1F02091280327FF14C0E62FE695C9
:100BD000E695E695EE31F8F4E80FF92FF11D677010
:100BE00021E030E001C0220F6A95EAF78281822B72
:100BF00082830895FC0132962FEF30E04191641713
:100C000051F02F3F19F4411101C0232F3F5F3630BF
:100C1000A9F72F3F09F40895820F911D27FD9A959A
:100C2000FC0162830895A3E0B0E0E9E1F6E00C94F2
:100C30004D2A209121033091220328173907A1F072
:100C40009093220380932103E0911F03F0912003EE
:100C5000309751F024E029839B838A830680F781B3
:100C6000E02DCE01019609952396E2E00C94692AC5
:100C7000A3E0B0E0EEE3F6E00C944D2A20911D03D2
:100C800030911E0328173907A1F090931E0380931B
:100C90001D03E0911F03F0912003309751F023E0F2
:100CA00029839B838A830680F781E02DCE010196FC
:100CB00009952396E2E00C94692AE0911F03F091D4
:100CC0002003309729F00190F081E02D09950895D7
:100CD00080E00895FA01811101C0FB010995089592
:100CE000089580911403982F9E7F29F4817082606B
:100CF0008093140308958635E8F381708465F8CFF6
:100D0000AF92BF92DF92EF92FF920F931F93CF9318
:100D1000DF93082F162FE901E42FF0E0E752FE4F92
:100D2000611110C0E4915E2F4E2F4983E8835A83EE
:100D3000DF91CF911F910F91FF90EF90DF90BF90C7
:100D4000AF900895E62EF12C4491D42EE42FF0E0DC
:100D500026E0829FC00111242FEF30E0B9010E94EC
:100D6000F929802F90E0880F991F55E5569FD001F3
:100D7000579FB00D11248A1B9B0B982F990F890F39
:100D80005901AE18BF08AE9ED001AF9EB00DBE9EF9
:100D9000B00D11245B2F189F80011124012F112702
:100DA0005901A01AB10AAE9E8001AF9E100DBE9EE1
:100DB000100D11245901A81AB108AE9CC001AF9CB6
:100DC000900DBE9C900D1124892F9927281B390B5B
:100DD0002E9FC0012F9F900D3E9F900D1124E92F53
:100DE00062307105A1F050F46115710509F49DCFD1
:100DF0006130710581F0EB2F512F97CF6430710571
:100E000069F080F06630710509F48FCFF4CFE42FDC
:100E10004B2F592F8ACFE42F412F87CFEB2F542F01
:100E2000492F83CF4B2F5D2DE12F7FCF0E94A80547
:100E30009C019091950280919602982B21F030931D
:100E40009202209391029091970280919802982BA0
:100E500021F03093900220938F02E0911F03F091D4
:100E60002003309749F082E0809393020480F5815B
:100E7000E02D83E992E00995089580918E0280FD2E
:100E800016C081FD16C082FD16C080918D02882398
:100E9000A1F0883280F428E0829FC001112468E22A
:100EA00070E00E940D2A862F672B39F0089582E0AA
:100EB000089584E0089588E0089581E00895809180
:100EC0008E0280FD14C081FD14C082FD16C0809189
:100ED0008C02882381F08E3180F420E5829FC0014E
:100EE00011246EE170E00E940D2A862F089584E19E
:100EF000089588E2089588E0089580E5089580E0E7
:100F00000895F894E82FE295EF70F0E031A1282FD2
:100F10002F7081E090E001C0880F2A95EAF7982FA2
:100F20009095932391A392A1892B82A378940895FD
:100F30009091280392FF06C0282F28712830F9F4D9
:100F4000877F846093FF06C0282F28712831F1F431
:100F5000877E84612091290320FF06C0382F3871D5
:100F60003830D9F4877F816021FF06C0282F28718F
:100F70002831D1F4877E816194FD877E0895282FE2
:100F800024712430F9F68B7F8860DCCF282F247100
:100F9000243101F78B7E8861DDCF382F31713130FC
:100FA00019F78E7F8860E0CF282F2171213121F73A
:100FB0008E7E8861E1CF82389105B9F1B0F481333A
:100FC000910509F47DC048F48932910509F46DC09A
:100FD0008A32910509F47BC008958533910509F49F
:100FE0005FC08933910509F10895833E9105D9F1D8
:100FF00038F4803E910529F1823E910579F10895FA
:10100000863E9105D9F1873E910509F43EC0843EA4
:10101000910541F52091290321FF24C080912803E7
:1010200084FD19C087EE90E0089520912803237075
:1010300009F05AC02091290323FF14C089E290E0EF
:1010400008952091280320FD38C03091290330FFF6
:1010500009C024FF43C090E080E008952091280358
:1010600022FDF7CF08952091280322FD3AC0309148
:10107000290330FD39C024FFF5CFEDCF209128039F
:1010800023FFF0CF24FDE7CFCDCF2091280323FD10
:101090002EC03091290331FFEECF84EE90E0089509
:1010A0002091280325FFDECFC9CF2091280325FDFD
:1010B00021C02091290323FFD5CF89E390E0D2CF2F
:1010C0002091280326FFCECF8AE290E00895209158
:1010D000280326FFC7CF81E390E0089583EE90E0D8
:1010E000089582EE90E0089580EE90E0089586EEF7
:1010F00090E0089585E390E008951F93CF93DF93E8
:101100000E94DB07EC01C11580E5D807F0F5C11599
:1011100080E4D80708F09CC0C03ED10520F5CD3C46
:10112000D10508F082C0C83AD10578F4C53AD10596
:1011300008F073C0C130D10519F1209709F1C4300E
:10114000D105F0F4D0E0C0E01BC0C33CD105D0F71E
:10115000C85AD0E0CC0FDD1FC25EDE4F0990D881A7
:10116000C02DD4640DC0C11580E2D80708F0D1C0ED
:10117000C11581E0D80708F05AC0C83ED10510F764
:10118000CE01DF91CF911F910895C03682E5D80737
:1011900018F5C03482E5D80708F06BC0C03282E58C
:1011A000D80708F05FC0C11582E5D80708F497C0DA
:1011B0002C2F2695269580E2289F900111248C2FB4
:1011C0008370C1E0D0E002C0CC0FDD1F8A95E2F74A
:1011D000C22BD32BDD68D4CFC03A82E5D80760F4A8
:1011E000C03882E5D80708F459C0CF71D0E0DC2FB1
:1011F000CC27C46FD06AC4CFC03C82E5D80708F4BE
:1012000062C0C03E82E5D80708F09CCFDC2FCC2717
:10121000CC27DF71C06FD06AB3CFC55AD0E0C55EAE
:10122000DE4FC881D0E0D064ABCFD065A9CF8D2F81
:101230000E949807182FCE0199270E94DB07C12F23
:10124000D0E0DC2FCC27CC27DF71C82BD92B98CF4F
:10125000CE0199270E94DB07CC27DF70C82BD92B42
:10126000D06A8ECFCF71D0E0DC2FCC27C16FD06A8F
:1012700087CF2C2F26952695277080E2289F9001F6
:1012800011248C2F8370C1E0D0E002C0CC0FDD1F91
:101290008A95E2F7C22BD32BDC6872CF2C2F2695D0
:1012A0002695277080E2289F900111248C2F83704F
:1012B000C1E0D0E002C0CC0FDD1F8A95E2F7C22B5F
:1012C000D32BDA685DCF8C2F8F710E949807C82FBF
:1012D000D0E0DC2FCC27CC27DF71D06251CF8C2F10
:1012E0008F710E94980755E0D695C7955A95E1F7FA
:1012F000CF70D0E0DC2FCC27282F30E084FF05C052
:1013000044E0220F331F4A95E1F7C22BD32BD0695B
:1013100037CF8D2F8F710E949807182FCE019927F4
:101320000E94DB07C12FD0E0DC2FCC27CC27DF7158
:10133000C82BD92BD2CF809157028111109257021E
:10134000089580959091560298239093560208959F
:10135000209133029091020256E0291302C080E0EE
:10136000089530E0529FF001539FF00D1124ED5F7E
:10137000FD4F7181761306C07081781303C07281AE
:10138000741304C02F5F3F4F2770E7CF81E00895AB
:101390008091330290910202981301C008958F5FEB
:1013A0008770FACFA82FA77023E0969587952A9586
:1013B000E1F7FC01EE0FFF1FE80FF91FE60FF71F23
:1013C00050E040E080E0219130E00A2E02C03695E6
:1013D00027950A94E2F721703327042E01C0220FCB
:1013E0000A94EAF7822B4F5F5F4F4330510559F75C
:1013F00008959A3070F4883098F448E0949F9001F2
:1014000011246EED71E0820F932F911D0E94D2097D
:1014100008959C5F923020F46BED71E090E0F6CF80
:1014200080E00895262F277091E001C0990F2A953A
:10143000EAF723E0769567952A95E1F7FB01EE0F31
:10144000FF1FE60FF71FE40FF51F50E040E0682F85
:1014500070E08191DF0111979B01042E02C0369547
:1014600027950A94E2F72170219528272923282718
:101470002C934F5F5F4F4330510559F70895282F44
:10148000862F9A3068F4283050F438E0939FB001EA
:101490001124620F711D4EED51E00E94120A089551
:1014A0009C5F9230E0F7622F70E04BED51E0F5CF9A
:1014B0008093680208959091680221E030E0F9017C
:1014C00001C0EE0F8A95EAF7D90102C0AA0FBB1F2F
:1014D0006A95E2F7EA2B01C0220F4A95EAF7892FB5
:1014E0008E23E81305C0292B822F0E94580A0895E5
:1014F00020952923F9CF21E030E001C0220F8A9501
:10150000EAF720958091680282230E94580A089584
:10151000909134028095892380933402282F27707C
:1015200091F4282F082E000C330B9217130659F054
:101530009091290392FF07C08595859585950E9416
:101540007B0A10923402089521E030E001C0220F9E
:101550008A95EAF780916802822B0E94580A0895C2
:10156000809358020895662309F45DC08D3C41F4D0
:101570000E945F078195809396020E941607089546
:101580008E3C19F40E945F07F6CF8F3C31F40E9425
:101590005F07819580939502F0CF803D19F40E94FA
:1015A0005F07F8CF893D29F40E943D078093970299
:1015B000E4CF8A3D21F40E943D078195F7CF8B3D12
:1015C00031F40E943D07819580939802D6CF8C3DDF
:1015D00019F40E943D07F8CF9FE2980F983070F4FD
:1015E000815D990B21E030E001C0220F8A95EAF776
:1015F00080919402822B80939402BFCF8D3D31F471
:1016000080918E02816080938E02B7CF8E3D21F44F
:1016100080918E028260F7CF8F3D09F0AECF80912E
:101620008E028460F0CF409195028D3C59F48091F8
:10163000960287FF0DC01092960241110BC01092C6
:101640008C0208C08E3C81F48091960218169CF39F
:10165000442381F08091970290919802892B09F0A0
:101660008CCF10928D0289CF8F3C49F447FFF0CF89
:1016700010929502809196028111ECCFE0CF803DCF
:1016800019F41416ACF3E4CF90919702893D29F434
:101690001916F4F610929702DBCF8A3D19F497FFE2
:1016A000D7CFF8CF909198028B3D29F497FFD0CFF8
:1016B00010929802CDCF8C3D19F41916CCF3C8CFF7
:1016C0009FE2980F983090F4815D990B21E030E013
:1016D000B90102C0660F771F8A95E2F7CB018095AA
:1016E00090919402892380939402B2CF8D3D31F47E
:1016F00080918E028E7F80938E02AACF8E3D21F440
:1017000080918E028D7FF7CF8F3D09F0A1CF809120
:101710008E028B7FF0CF9C019A9581159F4130F40A
:10172000832F817031FF03C08260089580E00895A7
:101730000F931F93CF93DF938B01EA0190914F0397
:10174000943061F58093E9008FEF9091E80081502B
:1017500095FD06C095ED9A95F1F700008111F5CF42
:101760008091E80085FF1AC00E944F04811111C0CA
:101770008091E80085FD06C08091E8008E77809317
:10178000E800F2CFF80181918F018093F100219759
:1017900079F78091E8008E778093E800DF91CF9110
:1017A0001F910F91089543E050E0BC0184E00E9436
:1017B000980B089546E050E0BC0184E00E94980B2D
:1017C0000895CF93DF93EC0180911A01811111C02C
:1017D00048E050E0BE0181E00E94980B80E2FE01EB
:1017E000ADE2B3E001900D928A95E1F7DF91CF91E0
:1017F00008958091280387FF05C040E284E050E00F
:10180000BE01EACF48E081E0FACF81E08093E000BA
:1018100080E28093D8001092C9008FE19EE4019786
:10182000F1F700C0000087E090EBDC0180935C03DF
:1018300090935D03A0935E03B0935F0388E19CE007
:101840000FB6F894A895809360000FBE9093600047
:10185000FFCF8091140380FD0AC0E4EAF2E0118218
:1018600010821282339652E0EE3CF507C1F7229ABD
:1018700035B13B7F25B124604FB7F89484EA92E0FC
:10188000FC015191CF0168E025B9000000C057FF6D
:1018900035B9550F000000C000C000C035B900C008
:1018A0006A9591F7F2E08E3C9F0751F74FBF8FE5A5
:1018B00094E00197F1F700C000000895EF92FF92C5
:1018C0000F931F93CF93DF938C01C4EAD2E0F12CE6
:1018D000E12CF80194816091160380911503F7E0E3
:1018E000EF16F104ECF49923E9F09E0140911703FF
:1018F0000E9480062FEFE21AF20A23968EE0E81685
:10190000F10439F70E94290CF801848190E00196D6
:10191000817099278483CDB7DEB7E6E00C94652A01
:10192000992319F39E0140E0E3CFB0E0A0E0EBE99A
:10193000FCE00C94432AEC014C81042F10E0980148
:10194000D8010E94862B9B01AC010E94512B4B01B8
:101950005C01E0E2F0E0E01BF10BA5E5B0E0AC01DA
:101960009B010E94512B6B017C019F01DF010E94B2
:101970002E2A9B01AC010E945C2B9B01AC01280D1F
:10198000391D4A1D5B1DC701B6010E94642BF22E52
:10199000822F90E039E23F1598F143E0249F9001B7
:1019A000112435952795122F109594EAC92E92E0AF
:1019B000D92E00E085E5E82EEF188E2D01FD8F2D44
:1019C0009601412F609116030E9480060F5F53E03D
:1019D000C50ED11C0E3089F70E94290C9C8181E034
:1019E000992319F0903219F48FEF809319018091A7
:1019F0001901890F8C83CDB7DEB7ECE00C945F2A18
:101A000025E530E0A901481B590BCA019A01220FB4
:101A1000331F280F391F37FFC4CF2F5F3F4FC1CF70
:101A20000F931F93CF93DF93C4EAD2E0FE0111829C
:101A300010821282339682E0EE3CF807C1F710E084
:101A400000E08091A202082E000C990B08171907DC
:101A50008CF180911801082E000C990B80179107CA
:101A60004CF19E014091170360911603809115037C
:101A70000E9480060F5F1F4F23960E30110509F755
:101A80000E94290C809117019091A202980F9093C7
:101A9000A20220911801280F20931801121614F4A5
:101AA0009D301CF0819580931701DF91CF911F919C
:101AB0000F910895198218821A82DCCFB0E0A0E05D
:101AC000E4E6FDE00C94462AFC018281DD24DA94F0
:101AD00080FD02C0DD24D39404EA12E0D0E0C0E02F
:101AE0002EE0B22EF80111821082128294E0E92ECB
:101AF000F12CC12C8091A1028C0D8F30C4F16B2D83
:101B00000E94EB29892F082E000C990B8C179D073A
:101B100091F4809117038E9DA0018F9D500D11248B
:101B20005595479555954795980160911603809175
:101B300015030E948006CD0CF1E0EF1AF108D1F6F2
:101B400021960D5F1F4FCE30D10561F60E94290C02
:101B50008091A10291E0D91210C081110CC08DE0DA
:101B60008093A102CDB7DEB7E9E00C94622A87FF2B
:101B7000CACF825FC8CF8150F3CF90E00196BE01FB
:101B80000E940D2AEDCFEF92FF921F93CF93DF9328
:101B9000EC0184EAE82E82E0F82E10E08C819701B7
:101BA0004091170360911603810F0E9480061E5E0C
:101BB00083E0E80EF11C1C3F89F70E94290C9A81F2
:101BC0008C8190FF08C08F5F8C83DF91CF911F9134
:101BD000FF90EF9008958150F7CF9091140390FFFC
:101BE0000CC0E4EAF2E0818360834283339692E0A2
:101BF000EE3CF907C1F70E94290C0895A3E0B0E07C
:101C0000E4E0FEE00C944B2A8C018091A302811148
:101C10000AC09E012F5F3F4F4FEF6FEF0E9480067B
:101C20008A818093A302F8016481613069F0809118
:101C3000A30240E0662361F040E0623011F440917D
:101C4000A30280E060E004C06091A30240E080E075
:101C50000E94ED0DF801848190E0019663E070E050
:101C60000E940D2A84832396E4E00C94672AA3E063
:101C7000B0E0EDE3FEE00C944D2A9091140390FF48
:101C80000AC09E012F5F3F4F0E9480064B816981F1
:101C90008A810E94ED0D2396E2E00C94692ACF938D
:101CA000DF93EC01E4E1F3E0438162818C810E94E7
:101CB000370E8C818F5F8C83DF91CF910895CF9306
:101CC000DF93EC01EC81F0E0E252FD4F4491E4E15E
:101CD000F3E0628181810E94370E8C818F5F8C835B
:101CE000DF91CF910895CF93DF93C6EDD2E060E00E
:101CF000CE010E94FE2A2196C11584E0D807B9F7CB
:101D0000DF91CF9108950F931F93CF93DF93142FFB
:101D1000022F843018F5633008F594E0699FE001E4
:101D200011249CE0899FC00DD11D1124CA55DD4F9F
:101D300082E090E0442311F090E080E0632F8C0F6C
:101D40009D1F0E94FE2A83E090E0112311F081E0A4
:101D500090E0602F8C0F9D1F0E94FE2ADF91CF9193
:101D60001F910F9108951F93CF93DF93122F84300B
:101D7000E0F46A30D0F44830C0F490E1699FE001AB
:101D8000112450E0440F551FC40FD51F90EA899FBE
:101D9000C00DD11D1124632FCE0186960E94FE2A0C
:101DA000612FCE0187960E94FE2ADF91CF911F916D
:101DB0000895B0E0A0E0EFEDFEE00C94432A8EE041
:101DC000E82E87E0F82E0EE814E0C0E05801D0E0DD
:101DD00015C0F401259134914D2D6D2F8C2F0E944B
:101DE000B30E82E0880E911CD39488E0D812F1CF14
:101DF00080E1A80EB11CDF5FDA3019F04501D12C6B
:101E0000E8CF6701D0E0F6012591349141E06D2FD4
:101E10008C2F0E94830EF60132962591349140E07A
:101E20006D2F8C2F0E94830E84E0C80ED11CDF5FC3
:101E3000D33049F78CE0E80EF11CCF5F00561F4FFE
:101E4000C43009F0C3CFCDB7DEB7ECE00C945F2A05
:101E500080931903682F8CE090E00E94FE2A089579
:101E6000CF93C82F6FEF811163E282E290E00E946E
:101E7000FE2AC1110DC0CFEF6C2F83E290E00E94CB
:101E8000FE2A6C2F84E290E00E94FE2ACF910895F2
:101E9000C4E0F2CF80E00E94300F60E085E290E085
:101EA0000E94FE2A0E94D90E0E94730E81E00E94B9
:101EB000300F0895FF920F931F93CF93DF93F42E6B
:101EC000843068F5633058F524E0629F8001112466
:101ED0003CE0839F000D111D11240A551D4F82E027
:101EE00090E0442311F090E080E0800F911F0E9469
:101EF000EA2AC82FD0E0DC2FCC2783E090E0FF2037
:101F000011F081E090E0800F911F0E94EA2A9E016B
:101F1000282BC901CDB7DEB7E5E00C94662A90E026
:101F200080E0F8CF0F931F93CF93DF93843030F589
:101F30006A3020F5483010F520E1629F80011124BD
:101F400050E0440F551F040F151F30EA839F000D0A
:101F5000111D1124C80186960E94EA2AC82FD0E0DC
:101F6000DC2FCC27C80187960E94EA2A9E01282BE5
:101F7000C901DF91CF911F910F91089590E080E00A
:101F8000F8CF7A3048F4683070F4843060F4462F2B
:101F9000672F0E94920F08957D3F41F4633018F43B
:101FA00041E0843050F090E080E008957C3FD9F724
:101FB0006330C8F78430B8F740E00E945A0F0895A4
:101FC000CF92DF92FF920F931F93CF93DF936C0119
:101FD0000091680280915802082BC3E0D0E010E025
:101FE000FC2EC8010C2E02C0959587950A94E2F745
:101FF00080FD0CC02197A0F7F12C8F2DDF91CF91A0
:102000001F910F91FF90DF90CF900895B6018C2F14
:102010000E94C10F0E947D08019761F3EECFCF931C
:10202000DF93EC010E94E00FBE010E94C10F0E94ED
:102030007D08DF91CF910895FC0183819481892BE4
:1020400029F08081918189238F3F51F480E00895A8
:10205000843FE1F717C0883EA8F0813FB9F712C06E
:10206000808191810E940F1092959F70963099F314
:1020700058F4925F9F70923048F7803F19F040F714
:10208000883E20F781E008959A5FF4CF82E290E0E5
:102090000E94EA2A833289F483E290E00E94EA2ACD
:1020A000843059F484E290E00E94EA2A91E084307E
:1020B00009F090E0892F8170089580E0FCCFB0E0B6
:1020C000A0E0E5E6F0E10C943F2AFC016280448048
:1020D00081E08483EEEDF2E07490EDE5F3E0E491CD
:1020E000009117030695015810E0000F111F012FF2
:1020F0001127CEECD2E024EAC22E22E0D22E34E127
:10210000832E33E0932EAA24AA94B12C55245A94FA
:10211000E719EE2EF12C82E0861530F08091150340
:102120008883809116038983411016C01B821A820E
:1021300096014A81698188810E948006259683E004
:10214000C80ED11C8C169D0631F70E94290CCDB704
:10215000DEB7E0E10C945B2A8B818823E9F08150A3
:102160008B83859DC00111246C8170E00E94F92948
:10217000FB01FF27E252FD4F8491E82FE719E59D0F
:10218000C0011124B7010E94F92980911703689FAB
:10219000B00111247A83CCCF0E94C02AB5010E94DD
:1021A0000D2A8017910724F682E0861588F40E9494
:1021B000C02AB5010E940D2A88830E94C02A20915E
:1021C00016032695622F70E00E940D2A280F29839E
:1021D0001A8280911703893C20F088EC8C838B83D2
:1021E000A7CF8431D8F784E1F9CF609114036695C5
:1021F00070E04BE050E08CE091E00E94D02A892B07
:1022000019F481E08093A0020E94A80590939A029D
:10221000809399020895CF92DF92EF92FF926B0123
:102220007C010E947106B701A60188E090E00E943F
:10223000102BFF90EF90DF90CF900895A3E0B0E0D7
:10224000E4E2F1E10C94402AF82E762EE42E622E80
:102250009091140390FF29C0E92FE695AE2FB0E0CE
:10226000A458BE4F8C9180939F029E7F923009F5B7
:102270009E012F5F3F4F8F2D0E9480064B81698109
:102280008A810E94ED0DF092150370921603E09280
:102290001703662051F0609114037091150380912B
:1022A0001603909117030E940B112396EFE00C94F4
:1022B0005C2A823019F4E0901703E5CF863019F4D8
:1022C000F0901503E0CF8930D9F38931E1F6E95177
:1022D0008E2F8170582EE695F0E0E752FD4FE49185
:1022E0000E2F10E084EAC82E82E0D82EB12CA12C4B
:1022F0009EE0892E912CC501B4010E94F9298F2DF1
:10230000511013C0860F96014E2D672D0E94800636
:10231000A00EB11E83E0C80ED11C8EECC81682E060
:10232000D80649F70E94290CAECF861BECCFE4E11A
:10233000F3E043812CE0421B08F440E021E062819D
:1023400081810E941E110895E4E1F3E043812CE0B5
:10235000420F08F44FEF21E0628181810E941E113B
:102360000895E4E1F3E062812FE0621B08F460E08D
:1023700021E0438181810E941E110895E4E1F3E090
:1023800062812FE0620F08F46FEF21E043818181C9
:102390000E941E110895E4E1F3E0818121E0438170
:1023A00062818C500E941E110895E4E1F3E0818166
:1023B00021E043816281845F0E941E110895809113
:1023C0001803882319F08150809318036091140337
:1023D0007091150380911603909117030E940B11C1
:1023E000089580911803833018F48F5F8093180349
:1023F0006091140370911503809116039091170357
:102400000E940B1108959091140390FF2CC09170BD
:1024100081112AC0926090931403662351F0609159
:1024200014037091150380911603909117030E9475
:102430000B1160911403669570E04BE050E08CE066
:1024400091E00E94D02A892BB1F01092A00281E085
:1024500080939C0220E040911703609116038091C5
:1024600015030E941E1108958B3210F09465D3CF8E
:10247000880F982BD0CF0E94F510E9CFE4E1F3E06C
:1024800080818160808360E086950E9403120895B8
:10249000809114038695815009F48AE261E00E94DC
:1024A000031208958091140386958F5F8B3208F094
:1024B00081E061E00E94031208959091140390FF5F
:1024C00008C09695981728F0961718F40E94521293
:1024D000089561E00E9403120895E4E1F3E083E1CE
:1024E000808311828FEF8283838314826081718164
:1024F000828193810E940B110895809156029091E0
:102500005502892B8093B801909157029923A1F02D
:10251000892B8093B80180911A018823E1F1809181
:10252000280387FF38C08EE1EAEBF1E090E08150AC
:10253000A0F591110E949B0940E250E065E372E032
:1025400088EB91E00E94DD2A892B21F180E2E8EB03
:10255000F1E0A5E3B2E001900D928A95E1F7E091F8
:102560001F03F09120033097A9F080911A0188236E
:1025700059F08091280387FF07C08091B8018093AC
:10258000B90186E08093B8010280F381E02D88EBE9
:1025900091E00995089586E0C7CF2191222339F271
:1025A0009F5FC5CF882341F0809590915502892384
:1025B000809355020E947D120895882339F09091EE
:1025C0005502982B909355020E947D1208958823FE
:1025D00021F00E94A1090E947D120895882339F0FC
:1025E00090915602982B909356020E947D12089566
:1025F000882399F19CEF980F913A40F4682F88EB6B
:1026000091E00E94B4050E947D12089590E2980F17
:10261000983050F4877091E001C0990F8A95EAF7DD
:10262000892F0E94A109EFCF9BE5980F933028F4E2
:1026300090E080E00E943806089598E5980F9B315D
:1026400028F490E080E00E941306089593E3980F29
:10265000933118F460E00E94B30A0895CF93C82F15
:102660008823D9F18CEF8C0F813AC8F580911A013B
:10267000882311F18091280387FF1EC0EC2FE69577
:10268000E695E695F0E0E854FE4F828190E04C2F0D
:10269000477021E030E002C0220F331F4A95E2F775
:1026A00082239323892B91F06C2F88EB91E00E9479
:1026B000B4050E947D120AC0EAEBF1E080EC91E0E3
:1026C0002191C21789F38E179F07D1F76C2F88EBE2
:1026D00091E00E94DE050E947D12CF91089580E274
:1026E0008C0F883068F4C77021E030E001C0220F01
:1026F000CA95EAF780915602822B80935602EBCF5F
:10270000EBE5EC0FE33040F4F0E0E55EFE4F808156
:1027100090E00E943806E1CFE8E5EC0FEB3150F491
:10272000F0E0EE0FFF1FE25EFE4F808191810E947C
:102730001306D3CF83E38C0F833178F661E08C2FBF
:102740000E94B30ACACF1F93CF93DF93182FD0E014
:10275000C0E0893311F4C0E5D0E0812F0E942E1330
:10276000209739F4812F0E94F812DF91CF911F91A9
:1027700008958FE99FE00197F1F700C000002197CD
:10278000EFCF0F931F93CF93DF93C62FD42F022F3A
:10279000FC0182818823A9F060935B030E94A80555
:1027A00090935A0380935903C77081E001C0880F4A
:1027B000CA95EAF70E94EE12DF91CF911F910F9117
:1027C000089580915B03681332C080915903909102
:1027D0005A030E948D05883C910548F510E21D0FB3
:1027E000CD17B9F080E28C0F883040F4C77081E0DB
:1027F00001C0880FCA95EAF70E94E712183048F422
:1028000081E09D2F977001C0880F9A95EAF70E948A
:10281000EE12802F0E94A313183070F6D77081E05B
:1028200001C0880FDA95EAF70E94E712C5CFC7709A
:1028300081E001C0880FCA95EAF7F6CFB0E0A0E0CA
:10284000E4E2F4E10C94482AE82FF0E0E25FFB4F69
:10285000D490282F26952695269530E0F901E25050
:10286000FC4F0491877010E0082E02C01595079563
:102870000A94E2F701701127F901E251FC4FE4904C
:10288000F12C082E02C0F594E7940A94E2F791E047
:10289000E922FF24F901E252FC4FC491D0E002C0CA
:1028A000D595C7958A95E2F7C170DD270115110509
:1028B00019F081EE0E942E13E114F10419F086EE56
:1028C0000E942E138D2D0E94A313E114F10419F020
:1028D00086EE0E94F8120115110519F081EE0E9492
:1028E000F812CD2B19F08CE20E94A313CDB7DEB7FE
:1028F000E7E00C94642A90911903923071F48A30C5
:1029000050F490E009966AE070E00E940D2A875A20
:102910000E94A31308958650FBCF96EF980F963030
:1029200020F0805D0E941E140895895AFBCF8F927B
:102930009F92AF92BF92EF92FF920F931F93CF930C
:10294000DF934B015C01D09119038CE1E82EF12C4F
:1029500007E010E021E0D501C4010E2C04C0B695BB
:10296000A795979587950A94D2F7C82FCF70222301
:1029700039F0D43051F4CA3040F080E00E947B142A
:102980008C2F0E947B1420E005C0C111F9CF0430C8
:102990001105B4F30150110984E0E81AF1080F3F62
:1029A0001007C9F6DF91CF911F910F91FF90EF9023
:1029B000BF90AF909F908F900895CF92DF92EF924B
:1029C000FF920F931F93CF938C017B016C0180EEDC
:1029D000C81AD108C8010E948B0BC82F98E0C916ED
:1029E000D104D0F40E94EE12802F0E942E13E11425
:1029F000F104A9F4802F0E94F81288E0C816D104CF
:102A0000C0F48C2F0E94E712CF911F910F91FF907D
:102A1000EF90DF90CF9008950E94DD12E5CF8FE90F
:102A20009FE00197F1F700C0000091E0E91AF1087A
:102A3000DECF8C2F0E94D212E7CF67EE7EEF90E0C0
:102A400080E00E941C2B60E082E090E00E94FE2A61
:102A500060E083E090E00E94FE2A1092580260E05D
:102A600074E184E090E00E941C2B60E086E090E03E
:102A70000E94FE2A6FEF87E090E00E94FE2A40E06D
:102A800050E0BA0188E090E00E94102B60E08DE0F9
:102A900090E00E94FE2A40E050E0BA0188E190E018
:102AA0000E94102B60E087E190E00E94FE2A40E047
:102AB00050E0BA018CE190E00E94102B70E060E0E1
:102AC00080E290E00E941C2B40E050E0BA0188E1D7
:102AD00090E00E94102B80E00E94300F0E944A0F6D
:102AE00040E050E0BA018FE090E00E94102B40E0FF
:102AF00050E0BA0183E190E00E94102B089590917C
:102B0000290392FB222720F9281779F080FB92F9FC
:102B100090932903609128037091290384E090E049
:102B20000E941C2B82E00E94880A089590E080E0B9
:102B30000E94F82A873E9E4F19F40E94461008957D
:102B400080E008951092560280911A01EAEBF1E0BC
:102B5000882329F18091280387FF21C08EE1DF01BE
:102B60001D928A95E9F790E080E00E94380690E097
:102B700080E00E941306109255020E947D1286E0AA
:102B8000E3E9F2E0DF011D928A95E9F710928C02E9
:102B900010928D0210928E020E941607089586E010
:102BA000DECFAAE2B0E0E7EDF5E10C944C2A81E536
:102BB00093E02091F100DC012D93CD01B3E0893544
:102BC0009B07B9F780915203833009F472C0B8F4BF
:102BD000813009F449C0823009F4B3C08091E80023
:102BE00083FF8BC280915103909152039A3008F079
:102BF00084C2E92FF0E0E956F44D0C94212A8A3082
:102C000009F48EC08B3009F471C0893039F7809196
:102C10005103813219F78091550390915603009723
:102C200011F00297D9F68091E800877F8093E80041
:102C30008091E80082FF38C09091F3008091F2000B
:102C4000029731F48091F100813011F0863021F447
:102C50008091F10080932C038091E8008B77809322
:102C6000E8000E948004BACF80915103813A09F0B4
:102C7000B5CF8091E800877F8093E800809155036D
:102C800090915603892B61F460E28DE293E070E04D
:102C90000E942C058091E8008B778093E8009ECFFE
:102CA00060E090E080E0F3CF80914F038111C0CFCE
:102CB00095CF80915103813A09F090CF80915503CF
:102CC00090915603892B09F089CF8091E800877F86
:102CD0008093E8008091E80080FFFCCF80911A018A
:102CE0008093F1008091E8008E77B9CF80915103F5
:102CF000813209F073CF8091550390915603892B4F
:102D000009F06CCF8091E800877F8093E8000E94F3
:102D100080048091530380931A010E94A2155ECF14
:102D200080915103813209F059CF8091E800877F6B
:102D30008093E8000E9480048091540380932B03C9
:102D40004DCF80915103813A09F048CF8091E8003E
:102D5000877F8093E8008091E80080FFFCCF80911E
:102D60002B03BECF803899F0823809F0C6C180911C
:102D700055038F70873008F0C0C18093E9008091BF
:102D8000EB0085FB882780F91092E90006C080914E
:102D90004D0390914E03911182609091E800977FCE
:102DA0009093E8008093F1001092F1008091E80088
:102DB0008E779FC1882309F48DC1823009F09DC1AF
:102DC00080915303811190C1809155038F702FEF33
:102DD000280F263008F091C18093E9002091EB0084
:102DE00020FF82C1933031F48091EB0080628093A8
:102DF000EB007AC19091EB0090619093EB0021E0A1
:102E000030E001C0220F8A95EAF72093EA00109281
:102E1000EA008091EB008860EACF81116EC11091C9
:102E200053031F778091E3008078812B8093E30028
:102E30008091E800877F8093E8000E948004809161
:102E4000E80080FFFCCF8091E30080688093E3007E
:102E500082E0111183E080934F034FC1805882308C
:102E600008F04BC120915303309154032C3DE3E013
:102E70003E07A1F583E08A838AE289834FB7F894FD
:102E8000DE01139620E03EE051E2E32FF0E05093A4
:102E90005700E49120FF03C0E295EF703F5FEF70B1
:102EA0008E2F90E0EA30C0F0C7968D939D932F5FF0
:102EB000243159F74FBF8091E800877F8093E80065
:102EC0006AE270E0CE0101960E942C058091E80034
:102ED0008B778093E80011C1C096E7CF80915503AE
:102EE00090915603432F55274330510509F44AC0AA
:102EF00078F54130510509F47AC08BE590E0EEE3B6
:102F0000F7E04230510509F0F8C02091E800277F32
:102F10002093E800209157033091580382179307BC
:102F200008F49C0140E02115310509F065C041110C
:102F300063C08091E80082FDC9CF80914F03882350
:102F400029F2853019F28091E80083FFF2CFBECFDD
:102F50004132510509F43CC04232510509F0CDC05F
:102F60008330910508F0C9C0FC01EE0FFF1FE65544
:102F7000FE4F0190F081E02D89559E4FDC018C9130
:102F800090E01AC0332721303105D1F021153105E9
:102F900061F02230310509F0B0C0EBEAF7E0E491CE
:102FA0008E2F90E0EBEAF7E007C0E7EEF7E0E49160
:102FB0008E2F90E0E7EEF7E0009709F49EC0A5CFD2
:102FC000E3ECF7E0E4918E2F90E0E3ECF7E0F4CF50
:102FD0008330910508F091C0880F991FFC01E055DE
:102FE000FE4F0190F081E02D89E090E08ECF82E1EC
:102FF00090E0E9E9F7E089CF80914F03882309F455
:1030000065CF853009F462CF8091E80083FD5ECF03
:103010008091E80082FD8DCF8091E80080FF83CF12
:103020009091F3008091F2002115310519F088305C
:10303000910550F041E0089709F040E08091E800E8
:103040008E778093E8006FCF44914093F1003196E2
:10305000215031090196E8CF803809F04EC08091A7
:10306000E800877F8093E800809150038093F1000F
:103070009DCE811142C0109153031230F0F5809122
:10308000E800877F8093E800109350030E9480043B
:10309000112311F084E005C08091E30087FDFACF91
:1030A00081E080934F0342E061EC81E00E949F0445
:1030B00042E261EC84E00E949F0442E261EC82E023
:1030C0000E949F0442E260EC83E00E949F04809192
:1030D0004F0313C080915303813079F481E0933022
:1030E00009F080E080934E031092E9008091E8009F
:1030F000877F8093E8000E9480048091E80083FF2E
:103100000AC08091E800877F8093E8008091EB00FF
:1031100080628093EB00AA96E3E00C94682A0E94F8
:10312000A2152FEF84E39CE0215080409040E1F70E
:1031300000C0000088E19CE00FB6F894A895809349
:1031400060000FBE90936000FFCFA8E0B0E0EBEA14
:10315000F8E10C94432A7C01DC0113968D919C913B
:103160001497892B39F08C9111969C9189238F3F6C
:1031700009F0DAC52896ECE00C945F2A0E94E00F73
:10318000182F682F89819A810E943F0A69817A816C
:10319000812F0E94C10F8C01F7018281882309F4DD
:1031A00001C1C80197578038910508F0DBC0003194
:1031B00008F089C08FEF93E00E94EA2A811183C052
:1031C00056EDC52E52E0D52E01114AC0FE013396B0
:1031D00086E0DF011D928A95E9F74AE0942E860188
:1031E0000F5F1F4FC6010E94EA2A89831A82882333
:1031F00009F469C0813009F079C05601B2E0AB0E24
:10320000B11CC8010E94EA2A8A83882309F45BC0A2
:103210009FEF980F933090F5E3E0CE0ED11CC501DF
:103220000E94EA2A8B83882309F44DC01C828E01F8
:103230000F5F1F4FD8018C91882389F2813009F0EC
:103240008EC011969C91119712968C91913009F035
:103250004FC00E5F1F4F0E94A3130F5F1F4FEACF97
:10326000C114F4E0DF0679F1C6010E94EA2A811157
:1032700001C001502FEFC21AD20AA6CF65018430D7
:10328000B1F602E010E06501FFEFCF1ADF0AC501D9
:103290000E94EA2AE1E0F0E0EC0FFD1FE00FF11FD1
:1032A0008083882381F08C3741F4E2E0F0E0EC0F7A
:1032B000FD1FE00FF11F1082BACF0F5F1F4F5601A5
:1032C0000730110501F780913402877009F452CF5D
:1032D000D70112968C91882309F44CCF8091290351
:1032E00082FF48CF82E00E94880A44CF68019FCFC6
:1032F000923029F40E5F1F4F0E942E13AECF9330F1
:1033000029F40E5F1F4F0E94F812A7CF943019F0D6
:103310000F5F1F4FA2CF0E5F1F4F30E020E0B801BC
:103320006F5F7F4FF80141818053990B8A3091057F
:1033300058F02150310908F490CF8FE99FE00197B0
:10334000F1F700C00000F5CF929EF001939EF00DC2
:1033500011249C012E0F3F1F842F8B01E0CF0E9470
:103360001E147BCF0433ACE71A0709F482C050F473
:103370000233ECE71E0799F00333FCE71F0791F4D3
:1033800081E00EC006332CE7120709F476C008F47A
:1033900072C007338CE7180729F485E001C080E08C
:1033A0000E94280FD70112968C91882309F4C7C078
:1033B00017FFC5C00E945D068093D9019091190343
:1033C000913029F481FF03C089E30E94A313809107
:1033D00056028093D80110925602109255028091A5
:1033E0001903823009F46CC008F049C0882309F43D
:1033F0005CC0813009F45DC08FE39CE90197F1F76F
:1034000000C00000B8017F7790E080E00E94971430
:1034100080911903823009F487C008F06AC08823BC
:1034200009F473C0813009F474C08091D80180938D
:103430005602D70112968C91882309F4AAC41092DF
:103440005B03C8019057839708F08DC484E090E037
:103450000E94F82A9093290380932803F801E150F1
:10346000F047E232F10508F093C0EF55F44D0C94AB
:10347000212A82E095CF83E093CF84E091CF8430FE
:1034800099F1853009F0B8CF70E060E08BE191E010
:103490000E94DD1470E060E085E290E00E94DD149F
:1034A00070E060E088E290E008C082EE0E942E1397
:1034B000A3CF70E060E088E193E00E94DD149CCF30
:1034C0008091D90180FD03C083E50E94A31382EEA1
:1034D0000E942E13EFE3FCE93197F1F700C00000E2
:1034E00087E50E94A31388CF86EE0E94A31388E18C
:1034F000F8CF843011F1853009F097CF70E060E0AB
:1035000088E290E00E94DD1490CF82EE0E94F812D3
:103510008CCF8CE20E94A3138091D90181FF85CFCB
:1035200089E30E94A31381CF82EE0E94F81280915A
:10353000D90180FD7ACF83E5F4CF88E2F2CFF8019C
:10354000E851FC47E730F10508F073CFED53F44D37
:103550000C94212A26E241EE61EEC7010E94C113BC
:10356000B2CE27E245EE65EEF8CF26E241EE60EE00
:10357000F4CF27E245EE64EEF0CF26E241EE62EEB4
:10358000ECCF27E245EE66EEE8CF28E241E0EBCF54
:103590008091280381608093280395C0809129033E
:1035A0008860809329038FC0809128038260F3CFC5
:1035B000809128038460EFCF809128038860EBCF4F
:1035C000809129038160EDCF809129038260E9CF4A
:1035D000809128038061DFCF809128038062DBCF58
:1035E000809128038064D7CF0E94A2158091280380
:1035F0008068D1CF809128038C60CDCF8091290342
:103600008360CFCF809128038E7FC5CF809129031F
:10361000877FC7CF809128038D7FBDCF80912803FE
:103620008B7FB9CF80912803877FB5CF8091290305
:103630008E7FB7CF809129038D7FB3CF80912803F0
:103640008F7EA9CF809128038F7DA5CF80912803FD
:103650008F7BA1CF0E94A215809128038F779BCFEB
:1036600080912803837F97CF809129038C7F99CF06
:103670008091280382FB992790F921E0922790FB03
:1036800082F990FB83F987CF80912903982F909539
:1036900091708E7F892B90FB81F983CF90912803C5
:1036A000892F8F7B96FF806476CF0E94A215909120
:1036B0002803892F97FB87F980586DCF61E08EE052
:1036C00090E00E94FE2A609128037091290384E013
:1036D00090E00E941C2B0E94A215F5CD60E0EFCF78
:1036E00090912803892F8F7E94FF806154CF909111
:1036F0002803892F8E7F90FF81604DCF9091290301
:10370000892F877F93FF88604CCF8091DA0169E22F
:10371000811165E388EB91E00E94B40537C3809185
:10372000140380FF12C08E7F8093140360911403F2
:103730007091150380911603909117030E940B114D
:103740001092A0020E94290CBECD816080931403C8
:1037500061E086950E940312B6CD48E452E162E52D
:1037600072E10E946A06AFCD42E552E168E472E17F
:10377000F8CF4BEC51E165ED71E1F3CF45ED51E14F
:103780006BEC71E1EECF41EB51E16EEB71E1E9CF12
:103790004EEB51E161EB71E1E4CF47E951E164EABD
:1037A00071E1DFCF44EA51E167E971E1DACF4FED32
:1037B00051E161EF71E1D5CF41EF51E16FED71E181
:1037C000D0CF61E081E0C6CF65E082E00E945D126B
:1037D0007ACD68E086E0FACF6EE089E0F7CF64E169
:1037E0008FE0F4CF67E185E1F1CF61E088E1B2CF0E
:1037F00062E289E1EBCF61E083E2ACCF6AE285E28D
:10380000E5CF0737BCE71B0709F45AC00837ECE7D8
:103810001E0709F45EC0F7018281008111818823AF
:1038200009F496C0C8010E94E00FD82E682FC80185
:103830000E943F0AB8018D2D0E94C10F0E947D0891
:103840008C01882ED7011296DC9012971596BC90A9
:10385000B2943FE0B322809134028770F1F0AD2C36
:10386000DD20E1F0812F807F803451F080E2800FF5
:10387000883098F0B11004C0812F807E803269F0CA
:103880008091290382FF09C082E00E94880A80910A
:1038900034028770AA24A3948111A12C912E9294B2
:1038A0002FE09222BBE0B91508F4BEC0E92DF0E08C
:1038B000E653F44D0C94212A81E00E94A40A03C02F
:1038C00081E00E947B0A43E062E081E00E945B0AA3
:1038D000FACC82E0F6CF0330FCE71F0731F150F459
:1038E00001153CE71307A1F001301C4709F093CF05
:1038F0000E948F180B359CE7190741F10C35ACE796
:103900001A07D1F00A351C4709F085CF81E01BC0AA
:103910000E94A215EFEFF4E32CE0E150F0402040CC
:10392000E1F700C000000E94050C6FEF7FEF90E010
:1039300080E00E941C2BDCCF8091290382FB88272A
:1039400080F991E089270E947F1565CF80E0FBCF49
:10395000C8010E94F909D82E6DCFE12FEF70CE2E4D
:10396000107F19F0C29490EFC922DD20B9F0CC206D
:1039700069F080E2800F883010F0811009C08091DA
:103980005602C82AC09256020E947D12802F4AC059
:1039900080915502C82AC0925502F6CF802F0E940E
:1039A000F812CC2009F440C0005E083010F08110FD
:1039B00004C08C2D0E94A10906C0C09480915502BC
:1039C000C822C09255020E947D122EC0F12FFF70B6
:1039D000CF2E107F103219F0C29480EFC8228820B9
:1039E00089F021E0821609F46CC0DD2009F476C06C
:1039F000BB2009F46CC0F701858180FFC7CF8F70B1
:103A0000858365C02091290322FD34C0DD2061F14A
:103A1000CC2039F080915602C82AC09256020E94EA
:103A20007D1280E00E942E13A92DA850BB0B149785
:103A300010F40E945D06AA2009F49CCB8091340208
:103A400080FD98CBF70112828595859585950E941A
:103A5000A40AC7010E94A518809134028595859516
:103A600085950E947B0A86CB80E00E94F812CC20CC
:103A7000D9F29FCFDD2099F090915702892F8C29A0
:103A8000B11003C00E94EE12CFCF31E0B312FACFD3
:103A900022FFCACF981741F280935702C5CFB110C9
:103AA00006C00E949B098C2D0E94E712BDCF81E0C9
:103AB000B81609F4B9CF8C2D0E94E7120E949B0919
:103AC000B3CFDD2031F095E09B1508F4ADCF8C2D00
:103AD000D9CFA4E0AB1508F4A7CFE5CFBB2019F3ED
:103AE000F9E38F1209C02FEF37EE83E02150304009
:103AF0008040E1F700C00000802F0E94F81294CFB0
:103B0000812F86958695837061F0813009F08CCF86
:103B1000C8019370D11002C080E090E00E941306AB
:103B200083CFC8019370D11002C080E090E00E9462
:103B300038067ACF6D2D802F0E94B30A75CF812F62
:103B4000837089F5D11070CF402F4295469547700C
:103B5000440F440F802F8F70042E01C0880F0A94E9
:103B6000EAF7202F207104FF07C02FE030E001C0EA
:103B7000220F4A95EAF72095169516951370123084
:103B800069F050F430915802113029F0822B8323D0
:103B90000E94B00A49CF832B822BFACF282B809129
:103BA00058028227F5CF8695DD2011F0812F817094
:103BB000882309F439CF402F429546954770440F2A
:103BC000440F802F8F70042E01C0880F0A94EAF7EB
:103BD000202F207104FF07C02FE030E001C0220F2A
:103BE0004A95EAF72095169516951370123069F0EC
:103BF00050F430916802113029F0822B83230E9407
:103C0000580A12CF832B822BFACF282B809168027F
:103C10008227F5CF1F70DD2029F0812F0E94A40A92
:103C2000802F30CF802F0E94E712812F0E947B0AC5
:103C3000FBCE802F92EF8916B1F1981570F0A0EFAE
:103C40008A16D1F0B1EF8B1691F0DD2009F45CC03B
:103C5000B1109CCE812F8F712AC0E3EF8E1651F1E7
:103C6000F4EF8F12F2CF8091290382FD2FC0812FB4
:103C70008F71DD20D9F21BC0DD2081F024E02B15EF
:103C800008F4D2CE1F7181E090E0012E01C0880FB0
:103C90000A94EAF7909168028927B1CF35E03B1585
:103CA00008F4C2CEEFCF812F8F71D110BFCF0E9409
:103CB000A40ABACE80E0DD2009F4A1CF1F7181E013
:103CC000012E01C0880F0A94EAF799CFDD2089F010
:103CD0001F71812F0E94A40A8091290382FF07C0CF
:103CE000A8E01A9FC0011124836080933402812FC1
:103CF000DECF81E00E94880AB1E0BB1508F094CEC7
:103D000082E00E94880A90CEBB2059F0893309F0E6
:103D1000F3CEEFEFF7EE23E0E150F0402040E1F783
:103D2000E9CE812F8F7182CF85E0F701DE011196F8
:103D300001900D928A95E1F7D70112962C91898115
:103D40009A8121111BCA0E94F909182F1FCA07372F
:103D5000BCE71B0709F4B0CD0837ECE71E0709F0F4
:103D6000BACD82E0AACD0631FCE71F0781F780912A
:103D700056028A7A91E009F490E09093DA0169E2C0
:103D8000811165E388EB91E00E94DE050E947D12BF
:103D90009ACA06312CE7120709F4B7CC8091560273
:103DA0008272F801E052F847E531F10508F029CDBB
:103DB000EA52F44D0C94212A1F93CF93DF93809104
:103DC0000102807F09F04BC08091FE01882309F435
:103DD00046C080913302C09102024091FC01509193
:103DE000FD016091FF0170910002D42FD52316E0F0
:103DF000C817A9F190E061157105A9F1DF3F99F1AC
:103E0000189FF001199FF00D1124DF01AD5FBD4F28
:103E100011962C911197251326C02C91241323C0A1
:103E200012962C91129721111EC013962D913C9140
:103E3000261B370B283C3105B0F4809101028F70AE
:103E4000806180930102E85FFD4F80818F70806107
:103E500080838CEF91E00E94A5180E94C809DF9131
:103E6000CF911F91089501968770C2CFA1E1B0E074
:103E7000ECE3FFE10C94432A8C0185E0F801DE01BC
:103E80001D9601900D928A95E1F7F801E2808CEF82
:103E9000882E81E0982E4091FF015091000241153B
:103EA000510509F430C19091FC012091FD01892F49
:103EB00082238F3F09F427C1D080C180A380B480C2
:103EC000F090FE01B501641B750BFF2009F4E7C0FB
:103ED00080910102382F307F683C710508F0ABC03B
:103EE000311178C0FE2C2C1114C09D1112C0E110AC
:103EF00010C08F70806180930102C4010E94A518D8
:103F000080910102F80185838F2D6196ECE00C947D
:103F10005F2AA114B104C9F18D2D8C218F3FA9F125
:103F200081E08E2580FF05C04E2D6C2D8D2D0E94C9
:103F3000A809A114B10459F18D2D8C218F3F39F1BD
:103F400081E08E25F82FF170BF2E80FF39C04E2DF5
:103F50006C2D8D2D0E94A809A82E811131C0DD86FF
:103F6000CE868D859E850E940F10292F22952F7059
:103F7000243078F49F702230A8F09923B9F0F8012A
:103F80009581907F99F4FA2CBFCF80E0CBCF80E071
:103F9000D9CF2A5F2F70223068F0C8010E94A5187F
:103FA000AB2CF1CF992311F0882369F3805E883020
:103FB00050F3F3CF803F38F3815F833070F7E3CF66
:103FC000EE2009F4A1CF809101028160809301026B
:103FD000F12C9ACF2C1105C09D1103C0EE2009F4DD
:103FE00077C0C8010E941C10882309F1EE20F9F067
:103FF00080910102803270F02091FC013091FD012E
:1040000038872F831986BB86AA868C87CE010796B0
:104010000E94A51886E0F801ACEFB1E001900D9286
:104020008A95E1F70E94DC1EFF24F3946DCFC8014E
:104030000E94A518F9CF31110AC08CEF91E00E94BF
:10404000A51886E0F40111928A95E9F7C1CF2C11E9
:104050000EC09D110CC0E1100AC08583C8010E94EA
:10406000A51886E0F40111928A95E9F74DCFC801B1
:104070000E941C108823D9F2EE20C9F2809101021F
:10408000803240F22091FC013091FD013A83298376
:104090001B82BD82AC828E83CE010196B9CF683C73
:1040A0007105F8F6FE2CEE2011F22C111EC09D11A8
:1040B0001CC08091010280FD0FC0982F907F61F09D
:1040C0008583903F31F0982F907F905F8F70892B80
:1040D0008583C8010E94A51886E0F801ACEFB1E025
:1040E00001900D928A95E1F70FCFC8010E941C1034
:1040F000811190CF80910102816080930102C801FB
:104100000E94A51801CFEE2009F491CFC8010E94AA
:104110001C10F82E882309F48ACF86E0F801ACEF52
:10412000B1E001900D928A95E1F78091FC019091A8
:10413000FD010E940F100E94DC1EE6CEA7E1B0E058
:10414000E4EAF0E20C944C2A4B8B5C8B6D8B7E8BFB
:104150008F8B6111109255021A8A198A85E0FE012F
:104160007396DE011D9601900D928A95E1F786E027
:10417000FE013D96DE01179601900D928A95E1F7BA
:10418000CE0107960E94361F882359F016E08091D1
:10419000330290910202891343C06796E3E00C94C6
:1041A000682A86E0FE013796DE01119601900D9295
:1041B0008A95E1F78A859B85892B41F38F819885C4
:1041C00089238F3F19F32091020230E0C901019643
:1041D00087709927409133024817190671F40E949D
:1041E000A215109202021092330286E0ECEFF1E089
:1041F000DF011D928A95E9F7C9CF96E0929FD00121
:10420000939FB00D1124AD5FBD4FFE01319601901B
:104210000D929A95E1F7809302020E94C809B6CFE9
:10422000819FC00111248D5F9D4F0E94361F8823FE
:1042300009F4B3CF8091330290E0019687709927FB
:1042400080933302A4CFA5E0B0E0E9E2F1E20C9460
:104250004B2A0E94A8058C018091590290915A0224
:1042600080179107A1F08FEF89838A831B820E94B8
:10427000A8058160782F9D838C8349815A816B8149
:104280008D810E949E2010935A0200935902259618
:10429000E4E00C94672AAAE0B0E0E1E5F1E20C94D6
:1042A000442A8E010F5F1F4F8AE0F80111928A9510
:1042B000E9F784E5C82E81E0D82EF12CE12CAA2460
:1042C000A394B12CF60181916F018F3F09F443C093
:1042D000F894E82FE295EF70F0E021A18F70A5012E
:1042E00002C0440F551F8A95E2F7CA01922F982BFE
:1042F00091A392A18095892382A3789400C0EEE5D2
:10430000F1E0912C31E021912F3F09F465C0A22FFB
:10431000A295AF70B0E090968C9190E02F7002C0A3
:10432000959587952A95E2F780FD56C0832F982AA8
:10433000330F51E0E636F50731F7F601319780810A
:104340008F3F11F00E94810780EA8A95F1F7F8010A
:10435000EE0DFF1D9082EFEFEE1AFE0AFAE0EF1667
:10436000F10409F0AFCF4AE050E0B8018EE592E0E9
:104370000E94DD2A892B91F18AE0F801AEE5B2E0D6
:1043800001900D928A95E1F781E080935D020E9491
:10439000A80590935C0280935B0280915B029091F0
:1043A0005C020E948D050597E8F04AE050E06EE55A
:1043B00072E082E892E00E94DD2A892BC1F08AE057
:1043C000EEE5F2E0A2E8B2E001900D928A95E1F705
:1043D00081E010925D0207C080E0A9CF80915D026C
:1043E0008111DBCF80E02A96EBE00C94602A80E01C
:1043F000F0CF1F920F920FB60F9211242F933F937D
:104400004F935F936F937F938F939F93AF93BF93DC
:10441000CF93DF93EF93FF93D091E900DF7080910A
:10442000EC00C82FC17080FDC0E81092E9008091B7
:10443000F000877F8093F00078940E94D11510924D
:10444000E9008091F00088608093F000CD2BCF7060
:10445000C093E900FF91EF91DF91CF91BF91AF91B0
:104460009F918F917F916F915F914F913F912F918C
:104470000F900FBE0F901F9018951F920F920FB6BE
:104480000F9211242F933F934F935F936F937F93DA
:104490008F939F93AF93BF93EF93FF938091E1002E
:1044A00082FF09C08091E20082FF05C08091E10097
:1044B0008B7F8093E1008091DA0080FF24C080919F
:1044C000D80080FF20C08091DA008E7F8093DA00D0
:1044D0008091D90080FF9DC080E189BD82E189BDC6
:1044E00009B400FEFDCF81E080934F0380912A0341
:1044F000811109C00E9430040E94D1048091E20021
:1045000084608093E2008091E10080FF17C0809179
:10451000E20080FF13C08091E2008E7F8093E20072
:104520008091E20080618093E2008091D8008062F7
:104530008093D80019BC85E080934F038091E100FF
:1045400084FF2BC08091E20084FF27C080E189BDF9
:1045500082E189BD89B5982F917080FFFBCF809152
:10456000D8008F7D8093D8008091E1008F7E80936A
:10457000E1008091E2008F7E8093E2008091E20072
:1045800081608093E20080915003882309F447C042
:1045900084E080934F0380914F038091E10083FF7B
:1045A00027C08091E20083FF23C08091E100877FD4
:1045B0008093E10082E080934F031092500380913A
:1045C000E1008E7F8093E1008091E2008E7F8093F6
:1045D000E2008091E20080618093E20042E060E0CE
:1045E00080E00E949F048091F00088608093F0003A
:1045F000FF91EF91BF91AF919F918F917F916F91BB
:104600005F914F913F912F910F900FBE0F901F9090
:10461000189519BC10924F0310922A0374CF809101
:10462000E30087FD93E090934F03B5CF78941F92FA
:104630001FB61F9211248F939F93AF93BF938091C6
:10464000240390912503A0912603B091270301969E
:10465000A11DB11D8093240390932503A0932603ED
:10466000B0932703BF91AF919F918F911F901FBE71
:104670001F9018951F921FB61F9211248F939F931E
:10468000AF93BF9380912303811113C080912403C2
:1046900090912503A0912603B09127034196A11D77
:1046A000B11D8093240390932503A0932603B09318
:1046B0002703BF91AF919F918F911F901FBE1F90B5
:1046C0001895CDB7DEB7E9970FB6F894DEBF0FBEE9
:1046D000CDBF85B7806885BF85B7806885BF84B743
:1046E000877F84BF0FB6F894A89580916000886199
:1046F00080936000109260000FBE80E890E00FB6DB
:10470000F89480936100909361000FBE8FE797E06B
:104710009093B7018093B6010E9430040E94D104A7
:104720008091E20084608093E200789480914F034E
:104730008823A1F01091E9001F709091EC00892F5F
:10474000817090FD80E8182B1092E9008091E800BC
:1047500083FD0E94D1151F701093E90082E084BD93
:1047600093E095BD9AEF97BD80936E000E9446102E
:10477000811102C00E944A0F83E080937D0249E7C5
:1047800051E066E7862E61E0962E7CE7E72E71E029
:10479000F72E84019A0161E070E0D9018D919D01AD
:1047A000E82FE295EF70F0E0B1A08F706B0101C0CF
:1047B000CC0C8A95EAF79C2D90959B2191A382A120
:1047C0008C2982A3F80181918F01E82FE295EF7087
:1047D000F0E0B1A08F706B0101C0CC0C8A95EAF7B4
:1047E0009C2D90959B2191A382A18C2982A3EA16EE
:1047F000FB0699F68FE891E00197F1F700C0000001
:1048000010917D026EE772E0FB018E2F861B8117EF
:1048100008F458C004E511E0F80181918F018F3F41
:1048200011F00E948107F1E00E351F07A9F70EE590
:1048300011E056E6E52E51E0F52ED8018D918D015F
:104840008F3F11F00E948107E016F106B1F78AE070
:10485000E2E8F2E0DF01282F1D922A95E9F7EEE564
:10486000F2E0DF011D928A95E9F70E949615811109
:1048700002C00E941D1582E090E00E94EA2A809307
:104880006C0284E090E00E94F82A909329038093C0
:1048900028030E944B21BFEFE6E7F1E0B150E04072
:1048A000F040E1F700C000000E944B21809182029D
:1048B00080FF31C06FEF7FEF90E080E00E941C2B03
:1048C0000E94050CDA012D91AD01822F82958F7027
:1048D00090E0DC0190968C9190E02F7002C095954D
:1048E00087952A95E2F78170D4019D914D01292F7A
:1048F00022952F7030E0D90190962C9130E09F7076
:1049000002C0359527959A95E2F790E020FD92E058
:10491000892B81937ACF83E090E00E94EA2A0E945B
:10492000B00A8CE090E00E94EA2A90E0B0E0A0E0BB
:104930008093190390931A03A0931B03B0931C0355
:1049400080916902811133C00E949615811104C0C3
:104950000E941D150E946D1288E090E00E94F22ACC
:1049600060931403709315038093160390931703B9
:104970006E7F71F40E946D1288E090E00E94F22A2E
:104980006093140370931503809316039093170399
:104990000E9471061092A0028091140380FF04C04F
:1049A00060E086950E94031281E08093690284E0B2
:1049B00091E09093200380931F0338E1C32ED12C04
:1049C00040E4742EFF24F394EE24E39480914F038B
:1049D00000E112E1853009F490C00E944B219DE670
:1049E000892E92E0992E22E8A22E22E0B22E27E70D
:1049F00032E0D501F40191918D912E173F0709F412
:104A00008FC09817C1F310E0D5010D915D01F4013D
:104A100041904F01401619F14026612C55245394C2
:104A2000842D8521A1F06DAA1EAB91E0802F8521F8
:104A300009F490E09FAB0E94A8058160782F99AFA0
:104A400088AF4DA95EA96FA989AD0E949E2063948D
:104A5000550CF8E06F12E4CFF401319700831F5F2B
:104A60001A3091F60E949C055FC080914F038430FC
:104A700009F434C01092A00280916B0281110DC024
:104A8000E0926B0280911403982F917090936A02C8
:104A90008E7F809314030E94290C109223030FB67B
:104AA000F894A895C09260000FBE7092600083B722
:104AB000817F846083BF83B7816083BF789488954A
:104AC00083B78E7F83BF0FB6F894A895809160005E
:104AD000886180936000109260000FBE80914E0349
:104AE000882359F00E944B21E2E8F2E08191811184
:104AF0003DC422E0EC38F207C9F780914F038530BE
:104B000009F4B3CF0E94A2150E945D0610926B02B9
:104B100080916A0281110E943E120E94F5105DCFC1
:104B2000981371CF0E9423218091A0028823D1F194
:104B300080919F02E0911403E695E81BE0939B02AD
:104B4000823009F045C1F0E0EB52FE4FE4910E2FA8
:104B500010E08FE5A82E8EE0B82E80919C0288236D
:104B600061F010929C020E94A80590939A02809393
:104B7000990210929E0210929D020E94A805E09157
:104B80009902F0919A028E1B9F0B8F3F9F4750F422
:104B9000E00FF11FF0939A02E093990289E992E005
:104BA000F5010995612C512C84E0882E912C9CEF05
:104BB000492E2DEF322E80917D02681608F474C1C3
:104BC00051100E949C0586E0E3E9F2E0DE011196B7
:104BD00001900D928A95E1F710929502109296023B
:104BE00010929702109298028B819C81892B09F474
:104BF0004AC080919102909192020E948D059C0181
:104C000090918C02992309F4D5C325313105D8F14F
:104C10009F3F19F09F5F90938C021B81112359F0E5
:104C20000E945F079FEF11160CF491E0899F802D81
:104C30001124809395021C81112359F00E945F0773
:104C40009FEF11160CF491E0899F802D1124809321
:104C50009602309195023323B1F0209196022223DF
:104C600091F045EB3403C0011124992309F4BEC12E
:104C70009093950245EB240390011124332309F40A
:104C8000B8C1309396028D819E81892B09F44AC068
:104C900080918F02909190020E948D059C019091CD
:104CA0008D02992309F481C321353105D8F19F3F45
:104CB00019F09F5F90938D021D81112359F00E947E
:104CC0003D079FEF11160CF491E0899F802D112470
:104CD000809397021E81112359F00E943D079FEF98
:104CE00011160CF491E0899F802D11248093980275
:104CF000309197023323B1F020919802222391F052
:104D000045EB3403C0011124992309F475C1909334
:104D1000970245EB240390011124332309F46FC15A
:104D20003093980246E050E0BE016F5F7F4F83E909
:104D300092E00E94DD2A892B61F480919502909186
:104D40009602892B90919702892B90919802892B3A
:104D500011F00E94160786E0FE013196A3E9B2E049
:104D600001900D928A95E1F70E945D069091810273
:104D7000891721F0809381020E949C0580914F0346
:104D8000843009F023CE83E08093E9008091E8002D
:104D900082FF1CCE8091E80090E085FF06C00E9453
:104DA0004F04882309F42EC191E08091E8008B77AD
:104DB0008093E800992309F409CE8981EFEFE80F89
:104DC000E53108F046C1F0E0E551F44D0C94212A9C
:104DD000863059F4F0E0EE52FE4FE4910E2F10E0D1
:104DE000BFE4AB2EBEE0BB2EB8CE893061F4E695B1
:104DF000F0E0E153FE4FE4910E2F10E0A3ECAA2E59
:104E0000ADE0BA2EAACE8F3061F4E695F0E0E4531F
:104E1000FE4FE4910E2F10E0FEE5AF2EFDE0BF2E19
:104E20009CCE853159F4F0E0E753FE4FE4910E2F0C
:104E300010E0E0E1AE2EEDE0BE2E8FCE08E210E0F5
:104E400055E9A52E5CE0B52E883109F486CE833273
:104E500049F4E7ECF1E0059114917EEFA72E7DE097
:104E6000B72E7BCE04EF11E04EE5A42E4CE0B42E1D
:104E7000843209F472CE00ED17E030E7A32E36E05D
:104E8000B32E853209F069CE8E2F63E00E94DF29B0
:104E9000E92FF0E0EC53FE4FE4910E2F10E06FE5A8
:104EA000A62E60E1B62E59CE062D10E0F801E75887
:104EB000FE4F8081E82FE295EF70F0E0E0A1F0E096
:104EC0008F7002C0F595E7958A95E2F7E170D801F9
:104ED000AA58BE4F2C91A22FA295AF70B0E0909629
:104EE0008C9190E02F7002C0959587952A95E2F7F6
:104EF00080FD7AC080E08E2BD801A258BD4FEC9186
:104F00009E2F9370891709F46DC0EE0FEE0FE82BFA
:104F1000EC93EF70F0E0EA59FE4FC80186589D4FC0
:104F20005C018081D5019C91890F8C9320E08430B5
:104F30002CF1F801E958FD4F80818F5F80830E943A
:104F4000A8056BA63CA6FDA68160782F9FA78EA71B
:104F5000462D5DEF61E08FA50E949E200E94A8056E
:104F600068AA39AA1AAA8160782F9CAB8BAB462D10
:104F70005DEF60E08CA90E949E2021E0F501808118
:104F80008D3F2CF5F801E958FD4F808181508083D9
:104F90000E94A80569A24AA2FBA28160782F9DA366
:104FA0008CA3462D5CEF61E08DA10E949E200E94A3
:104FB000A8056EA24FA218A68160782F9AA789A78C
:104FC000462D5CEF60E08AA50E949E2021E0D5017D
:104FD0008C91082E000C990BB4010E940D2AF5014A
:104FE0008083522A6394E7CD82E085CFF0929502C8
:104FF00041CEF092960247CEF09297028ACEF0927E
:10500000980290CE00E210E0CE0101965C01809102
:10501000E80085FD0AC08091E8008B778093E80066
:105020000E944F04882399F3BFCE8091F100D501EF
:105030008D935D010150110951F7B6CE1A828CE0B3
:105040008B831BC08A81823009F4A6C128F4813089
:1050500061F08FEF898311C08330C1F08430C9F7CC
:105060001B821C821D821E8208C00E949C050E9419
:10507000272A6B837C838D839E8340E250E0BE01B0
:105080006F5F7F4F82E00E94980BA0CC2B81822F14
:1050900090E0FE013496245E8A30910570F7DC01C1
:1050A000AE57BD4F3C91319301962813F5CFE5CF14
:1050B0008A81823081F0853061F68091140380FF0F
:1050C00015C0809114038E7F809314031092A00268
:1050D0000E94290CD2CF6B817C818D819E810E94A0
:1050E000272A85E290E00E94FE2AC7CF0E943E1246
:1050F000C4CF4C816B818A810E94920F98278927A7
:1051000098279E838D83B9CF2D813E813227232717
:1051100032274C816B818A810E94B30EAECF0E94F0
:10512000D90EABCF9A81923009F093CF8830B1F18C
:10513000893009F45EC08B81823009F1A8F4813096
:1051400009F09BCF8C81BFEF8B9FC00111246FEFC3
:1051500070E00E94F929462F20E0609116038091AB
:1051600015030E941E1189CF8330A1F0843009F00D
:1051700084CF20E0409117036D818C81F2CF8C8128
:10518000882309F49ECF0E943E1260E08C810E9429
:10519000031273CF8C81809318036FCF8B81823081
:1051A000E1F078F4813009F068CF80911703EFEFD8
:1051B0008E9FC00111246FEF70E00E94F9296C836B
:1051C0005CCF833099F0843009F057CF809115037C
:1051D0008C83809116038D8350CF8091140380FFC0
:1051E00003C086958C8349CF80E0FCCF8091180363
:1051F000F9CF60911403709115038091160390917B
:1052000017030E940B1139CF80E18A8336CFFA82CF
:105210008AE216CF0A811B81102701271027CE01B1
:1052200001965C018C80DC01A80DB11D4D01C80107
:105230008A529D4FA814B90409F41FCF0A32B1E075
:105240001B0750F40E94EA2AF50184830F5F1F4F69
:10525000BFEFAB1ABB0AEBCFD50114961C92F6CF69
:105260000A811B81102701271027FE0131964F016B
:10527000AC80A00EB12EB11CC8018A529D4F0A15F8
:105280001B0509F4FACE0A32F1E01F0728F4D40115
:1052900014966C910E94FE2ABFEF8B1A9B0A0F5F37
:1052A0001F4FEACF0E94730EE8CE84E0AECF0A8192
:1052B0001B81102701271027FE0131965F018C808A
:1052C000CF01880D911D4C01C80186968A149B045C
:1052D00009F4D3CE0038A2E01A0750F40E94EA2A5B
:1052E000F50184830F5F1F4FBFEFAB1ABB0AECCFF2
:1052F000D50114961C92F6CF0A811B811027012735
:105300001027FE0131964F01AC80A00EB12EB11CCA
:10531000C8018696A016B10609F4AFCE0038F2E0B7
:105320001F0728F4D40114966C910E94FE2ABFEF47
:105330008B1A9B0A0F5F1F4FEBCF41E08C818111CD
:1053400001C040E06B818A810E945A0FD7CE2D8127
:105350003E8132272327322741E08C81811101C011
:1053600040E06B818A810E94830E87CE09BD19BD02
:1053700009B400FEFDCF8091D8008F7D8093D800C6
:105380008091E00082608093E0008091E00081FDE8
:10539000FCCF0E94A215B1CB85E290E00E94EA2AE0
:1053A0001B821C821D828E8368CE2B30310508F053
:1053B00080CCB8CC2B30310508F02CCC64CC991BB8
:1053C00079E004C0991F961708F0961B881F7A95FC
:1053D000C9F78095089587FB082E062687FD8195DD
:1053E00067FD61950E94DF290EF4919507FC819578
:1053F0000895AA1BBB1B51E107C0AA1FBB1FA6171C
:10540000B70710F0A61BB70B881F991F5A95A9F76D
:1054100080959095BC01CD01089597FB072E16F459
:10542000009407D077FD09D00E94F92907FC05D028
:105430003EF4909581959F4F0895709561957F4FAB
:105440000895EE0FFF1F0590F491E02D0994692750
:105450009627692778278727782708950E94862B23
:10546000332312F48A1B9B0B0C94382A0E94862B40
:10547000B7FF0895821B930B08952F923F924F928E
:105480005F926F927F928F929F92AF92BF92CF92D4
:10549000DF92EF92FF920F931F93CF93DF93CDB7DD
:1054A000DEB7CA1BDB0B0FB6F894DEBF0FBECDBF55
:1054B00009942A88398848885F846E847D848C8426
:1054C0009B84AA84B984C884DF80EE80FD800C812F
:1054D0001B81AA81B981CE0FD11D0FB6F894DEBF12
:1054E0000FBECDBFED0108958F929F92AF92BF92F4
:1054F000CF92DF92EF92FF92CF93DF93EC0168811E
:1055000079818A819B81611571058105910521F45D
:1055100064E279ED8BE597E02DE133EF41E050E077
:105520000E94322B49015A019B01AC01A7EAB1E468
:105530000E94512B6B017C01ACEEB4EFA5019401EC
:105540000E945F2BDC01CB018C0D9D1DAE1DBF1D8C
:10555000B7FF03C00197A109B04888839983AA8344
:10556000BB839F77DF91CF91FF90EF90DF90CF903B
:10557000BF90AF909F908F9008950E94742A0895D5
:1055800080E091E00E94742A0895B0E0A0E080934A
:10559000000190930101A0930201B09303010895CB
:1055A000FC014150504030F001900616D1F7319780
:1055B000CF010895882799270895FB01DC0104C0D5
:1055C0008D910190801921F441505040C8F7881BFB
:1055D000990B0895F999FECF92BD81BDF89A99274C
:1055E00080B50895A6E1B0E044E050E00C94242B8F
:1055F000A8E1B0E042E050E00C94242B262FF9996A
:10560000FECF92BD81BDF89A019700B4021639F021
:105610001FBA20BD0FB6F894FA9AF99A0FBE0895F2
:105620000396272F0E94FF2A0E94FE2A252F0E9400
:10563000FF2A242F0C94FF2A0196272F0E94FF2A6D
:105640000C94FE2ADC01CB01FC01F999FECF06C0C7
:10565000F2BDE1BDF89A319600B40D924150504030
:10566000B8F70895052E97FB1EF400940E94492B6D
:1056700057FD07D00E94642B07FC03D04EF40C9416
:10568000492B50954095309521953F4F4F4F5F4F97
:10569000089590958095709561957F4F8F4F9F4F9E
:1056A00008950E94862BA59F900DB49F900DA49FF6
:1056B000800D911D11240895B7FF0C94512B0E9469
:1056C000512B821B930B0895A1E21A2EAA1BBB1B20
:1056D000FD010DC0AA1FBB1FEE1FFF1FA217B307BE
:1056E000E407F50720F0A21BB30BE40BF50B661FD4
:1056F000771F881F991F1A9469F760957095809598
:1057000090959B01AC01BD01CF010895A29FB0010E
:10571000B39FC001A39F700D811D1124911DB29FE5
:10572000700D811D1124911D0895F894FFCFB216BC
:10573000DA167D18DA167D180D172E177D182C181D
:105740003918021B771B0A1BD41AD81A0E1BDC1A35
:10575000121B1E1BE81A701BEC1A221BF01A261BC8
:105760004E1BF41A2A1B551BFA1A301B381BE01A61
:10577000161BE41A1A1BFE1A341B441B5E1B6E1BFD
:10578000CE1A061B7E1BB51AB91AAA1AB11ABD1A6F
:10579000C11AC51AAD1CAD1CE61CE61C801D9A1D65
:1057A000141D141D9F1D0A1E191E191E8F1BAD1BD3
:1057B000B41BB91BBE1BC31BC81BCD1BD21BD71BE5
:1057C000DC1BE11BE41BE91BEC1BEF1BF21BF51BB5
:1057D000F81BFB1BFE1B1E2822285828792884282A
:1057E0008F289228922892282928292804290729D5
:1057F0000A2930295229552957297C299D29A72969
:10580000010000008A05E10BDA0BD30B01191A1B0A
:105810001C1D1E1F20212201020101818283E20042
:10582000E900EA00B500B600B700CD008301CC0066
:105830008A019201940121022302240225022602F8
:1058400027022A02B300B4006F0070009F01CB0151
:105850009F02A002F5F4F1F037C63435663667339F
:1058600090919293959400FF0100010000FFFF00CA
:1058700000010001FF003096F63197F700010202A7
:1058800002020606060909090909090F0F0F0F0F81
:105890000F15151518191919191919191919192385
:1058A000242525252525254022B684016201AC004A
:0658B0005007690789079B
:00000001FF
