:100000000C9436070C947D070C947D070C947D07A7
:100010000C947D070C947D070C947D070C947D0750
:100020000C947D070C947D070C94602F0C94343055
:100030000C9401270C947D070C947D070C947D078C
:100040000C947D070C947D070C947D070C947D0720
:100050000C947D070C9458270C947D070C947D0715
:100060000C947D070C947D070C947D070C947D0700
:100070000C947D070C947D070C947D070C947D07F0
:100080000C947D070C947D070C947D070C947D07E0
:100090000C947D070C947D070C947D070C947D07D0
:1000A0000C947D070C947D070C947D070763423602
:1000B000B79BD8A71A39685618AEBAAB558C1D3CF9
:1000C000B7CC5763BD6DEDFD753EF6177231BF00BD
:1000D0000000803F05A84CCDB2D44EB93836A902F5
:1000E0000C50B9918688083CA6AAAA2ABE00000036
:1000F000803F29001E001F00200021002200230055
:1001000024002500260027002D002E002A0049008B
:100110004B002B0014001A000800150017001C00EB
:1001200018000C00120013002F00300031004C00AA
:100130004E00390004001600070009000A000B00F9
:100140000D000E000F0033003400280000000000F6
:100150000000E1001D001B00060019000500110051
:100160001000360037003800E500520000000000A3
:10017000000000000000E000E300E2002C00E600C8
:10018000E7000151500051004F0000000000000046
:10019000000035003A003B003C003D003E003F00BF
:1001A00040004100420043004400450001000100BE
:1001B000A90001000100520001000100010001003E
:1001C0000100010001000100010001000100010027
:1001D000AA000100500051004F0001000100010081
:1001E0000100010001000100010001000000000009
:1001F00000000100010001000100010001000100F8
:1002000001000100010001000100C95C00000000C4
:100210000000000000000100010001000100C25CBC
:10022000C35C0100C85CCA5CC75C00000000000041
:1002300000000100010001000100010001000100B7
:1002400001000100010001000100010001000100A6
:100250000100010001000100010001000100010096
:100260000100010001000100010001000100010086
:100270000100010001000100010001000100010076
:100280000100010001000100010001000000000068
:100290000000010001000100010001000100010057
:1002A0000100010001000100010001000000000048
:1002B0000000000000000100010001000100010039
:1002C0000100010001000100010000000000000029
:1002D0000000010001000100010001000100010017
:1002E0000100010001000100010001000100010006
:1002F00001000100010001000100010001000100F6
:1003000001000100010001000100010001000100E5
:1003100001000100010001000100010001000100D5
:1003200001000100010001000100010000000000C7
:1003300000000100010001000100010001000100B6
:1003400001000100010001000100010000000000A7
:100350000000000000000100010001000100010098
:100360000100010001000100010000000000000088
:100370000000010001000100010001000100010076
:100380000100010001000100010001000100010065
:100390000100010001000100010001000100010055
:1003A0000100010001000100010001000100010045
:1003B0000100010001000100010001000100010035
:1003C0000100010001000100010001000000000027
:1003D0000000010001000100010001000100010016
:1003E0000100010001000100010001000000000007
:1003F00000000000000001000100010001000100F8
:1004000001000100010001000100000000000000E7
:1004100000000100010001000100010001000100D5
:1004200001000100010001000100010001000100C4
:1004300001000100010001000100010001000100B4
:1004400001000100010001000100010001000100A4
:100450000100010001000100010001000100010094
:100460000100010001000100010001000000000086
:100470000000010001000100010001000100010075
:100480000100010001000100010001000000000066
:100490000000000000000100010001000100010057
:1004A0000100010001000100010000000000000047
:1004B0000000010001000100010001000100010035
:1004C0000100010001000100010001000100010024
:1004D0000100010001000100010001000100010014
:1004E0000100010001000100010001000100010004
:1004F00001000100010001000100010001000100F4
:1005000001000100010001000100010000000000E5
:1005100000000100010001000100010001000100D4
:1005200001000100010001000100010000000000C5
:1005300000000000000001000100010001000100B6
:1005400001000100010001000100000000000000A6
:100550000000010001000100010001000100010094
:100560000100010001000100010001000100010083
:100570000100010001000100010001000100010073
:100580000100010001000100010001000100010063
:100590000100010001000100010001000100010053
:1005A0000100010001000100010001000000000045
:1005B0000000010001000100010001000100010034
:1005C0000100010001000100010001000000000025
:1005D0000000000000000100010001000100010016
:1005E0000100010001000100010000000000000006
:1005F00000000100010001000100010001000100F4
:1006000001000100010001000100010001000100E2
:1006100001000100010001000100010001000100D2
:1006200001000100010001000100010001000100C2
:1006300001000100010001000100010001000100B2
:1006400001000100010001000100010000000000A4
:100650000000010001000100010001000100010093
:100660000100010001000100010001000000000084
:100670000000000000000100010001000100010075
:100680000100010001000100010000000000000065
:100690000000010001000100010001000100010053
:1006A0000100010001000100010001000100010042
:1006B0000100010001000100010001000100010032
:1006C0000100010001000100010001000100010022
:1006D0000100010001000100010001000100010012
:1006E0000100010001000100010001000000000004
:1006F00000000100010001000100010001000100F3
:1007000001000100010001000100010000000000E3
:1007100000000000000001000100010001000100D4
:1007200001000100010001000100000000000000C4
:1007300000000100010001000100010001000100B2
:1007400001000100010001000100010001000100A1
:100750000100010001000100010001000100010091
:100760000100010001000100010001000100010081
:100770000100010001000100010001000100010071
:100780000100010001000100010001000000000063
:100790000000010001000100010001000100010052
:1007A0000100010001000100010001000000000043
:1007B0000000000000000100010001000100010034
:1007C0000100010001000100010000000000000024
:1007D0000000010001000100010001000100010012
:1007E0000100010001000100010001000100010001
:1007F00001000100010001000100010001000100F1
:1008000001000100010001000100010001000100E0
:1008100001000100010001000100010001000100D0
:1008200001000100010001000100010000000000C2
:1008300000000100010001000100010001000100B1
:1008400001000100010001000100010000000000A2
:100850000000000000000100010001000100010093
:100860000100010001000100010000000000000083
:100870000000010001000100010001000100010071
:100880000100010001000100010001000100010060
:100890000100010001000100010001000100010050
:1008A0000100010001000100010001000100010040
:1008B0000100010001000100010001000100010030
:1008C0000100010001000100010001000000000022
:1008D0000000010001000100010001000100010011
:1008E0000100010001000100010001000000000002
:1008F00000000000000001000100010001000100F3
:1009000001000100010001000100000000000000E2
:1009100000000100010001000100010001000100D0
:1009200001000100010001000100010001000100BF
:1009300001000100010001000100010001000100AF
:10094000010001000100010001000100010001009F
:10095000010001000100010001000100010001008F
:100960000100010001000100010001000000000081
:100970000000010001000100010001000100010070
:100980000100010001000100010001000000000061
:100990000000000000000100010001000100010052
:1009A0000100010001000100010000000000000042
:1009B0000000010001000100010001000100010030
:1009C000010001000100010001000100010001001F
:1009D000010001000100010001000100010001000F
:1009E00001000100010001000100010001000100FF
:1009F00001000100010001000100010001000100EF
:100A000001000100010001000100010000000000E0
:100A100000000100010001000100010001000100CF
:100A200001000100010001000100010000000000C0
:100A300000000000000001000100010001000100B1
:100A400001000100010001000100000000000000A1
:100A5000000001000100010001000100010001008F
:100A6000010001000100010001000100010001007E
:100A7000010001000100010001000100010001006E
:100A8000010001000100010001000100010001005E
:100A9000010001000100010001000100010001004E
:100AA0000100010001000100010001000000000040
:100AB000000001000100010001000100010001002F
:100AC0000100010001000100010001000000000020
:100AD0000000000000000100010001000100010011
:100AE0000100010001000100010000000000000001
:100AF000000000000000000000002A2B2800000079
:100B000000000000000000000000000000290000BC
:100B100000002C1E3420212224342627252E362D99
:100B20003738271E1F202122232425263333362E33
:100B300037381F0405060708090A0B0C0D0E0F10A5
:100B40001112131415161718191A1B1C1D2F3130EA
:100B5000232D350405060708090A0B0C0D0E0F108E
:100B60001112131415161718191A1B1C1D2F3130CA
:100B7000354C0000000000000000000000000000F4
:100B80000000000000007E0F00D4FFFFFFC7000040
:100B9000007832190A00047F3F1F64321464321453
:100BA000783C1E1E140A05FFAA7F55400001010172
:100BB000010101010101020202020202020202031A
:100BC00003030303030303040404040404040505EA
:100BD00005050506060606060707070707080808AD
:100BE00008090909090A0A0A0B0B0B0C0C0C0D0D5C
:100BF0000D0E0E0E0F0F0F101011111112121313F4
:100C00001414151516161717181819191A1A1B1B6C
:100C10001C1D1D1E1E1F20202122222324242526C8
:100C200026272829292A2B2C2D2D2E2F3031323200
:100C3000333435363738393A3B3C3D3E3F4041420C
:100C4000434445464748494A4C4D4E4F50515354F2
:100C5000555658595A5B5D5E5F61626465666869A6
:100C60006B6C6D6F7072737577787A7B7D7E808226
:100C7000838587888A8C8E8F91939596989A9C9E6F
:100C8000A0A2A3A5A7A9ABADAFB1B3B5B7BABCBE7F
:100C9000C0C2C4C6C9CBCDCFD1D4D6D8DBDDDFE24C
:100CA000E4E7E9EBEEF0F3F5F8FAFDFF04033000BA
:100CB00000001E03530075006E003600380020004F
:100CC0004B006500790062006F00610072006400F3
:100CD00000000803500048004C0000000403090411
:100CE00009025B00030100A0FA09040000010301EE
:100CF00001000921110100012240000705810308BC
:100D0000000A09040100020300000009211101008A
:100D100001222200070582032000010705030320AA
:100D20000001090402000103000000092111010073
:100D30000122BC000705840320000A1201100100F3
:100D400000000801A060600100010203010660FFCD
:100D50000961A1010962150026FF0095207508812F
:100D6000020963150026FF00952075089102C00551
:100D7000010902A10185020901A100050919012942
:100D80000515002501950575018102950175038101
:100D9000010501093009311581257F95027508810A
:100DA0000609381581257F950175088106050C0A0D
:100DB00038021581257F950175088106C0C005019F
:100DC0000980A101850319012AB700150126B70082
:100DD000950175108100C0050C0901A10185041958
:100DE000012AA002150126A002950175108100C0FC
:100DF00005010906A1018505050719E029E7150088
:100E000025019508750181020507190029EF1500D4
:100E1000250195F07501810205081901290595053F
:100E200075019102950175039101C005010906A1A3
:100E300001050719E029E7150025019508750181CD
:100E4000029501750881010507190029FF15002683
:100E5000FF0095067508810005081901290595050B
:100E600075019102950175039101C00011241FBE07
:100E7000CFEFDAE0DEBFCDBF04B603FE27C080911E
:100E8000290390912A03A0912B03B0912C03873062
:100E9000904BA740B04BD1F41092290310922A0333
:100EA00010922B0310922C0314BE84B7877F84BF4B
:100EB0000FB6F894A89580916000886180936000D7
:100EC000109260000FBEE0E0F8E3099511E0A0E0A9
:100ED000B1E0E4EEFDE602C005900D92AE3DB10733
:100EE000D9F723E0AEEDB1E001C01D92A932B207FF
:100EF000E1F70E94252C0C94A1360C94000090E0A0
:100F000080E008950895089581E0089581FF03C069
:100F10003E9A469808953E98FCCF81E008950C943F
:100F2000840708950C9491071F93CF93DF9300D00B
:100F300000D00F92CDB7DEB749835A836B833091CF
:100F4000200289819A8131111DC06623B9F02223C4
:100F5000A9F00E94E823182F682F89819A810E94A6
:100F6000952369817A81812F0F900F900F900F90B8
:100F70000F90DF91CF911F910C9429170E94C123EC
:100F8000182FEFCF0E94E82369817A81EDCFFC0111
:100F9000262F408151816281738184810C94940752
:100FA000CF93DF93EC0160E00E94C707BE01DF91A1
:100FB000CF910C949207FF920F931F93CF93DF93DF
:100FC000E82FF0E0EE50F54FF490C82FC695C69587
:100FD000C695D0E0FE01EE57F44F0491877010E003
:100FE000082E02C0159507950A94E2F701701127A3
:100FF000CE58D44FFE01C491D0E002C0D595C7951C
:101000008A95E2F7C170DD270115110519F081EE0F
:101010000E94851B209719F086EE0E94851B8F2D5C
:101020000E946D1CCD2B19F086EE0E94171C012B1F
:1010300041F081EEDF91CF911F910F91FF900C94C1
:10104000171CDF91CF911F910F91FF900895EF92A0
:10105000FF920F931F93CF93DF93EC01162F0AE0BB
:101060008881882309F454C0813009F04EC08981F9
:10107000813099F47E0122E0E20EF11C8A810E9407
:101080006D1CE7012196812F815050F3EFE9FFE0BD
:101090003197F1F700C00000F7CF823041F47E01B4
:1010A00082E0E80EF11C8A810E94851BEACF833022
:1010B00041F47E01E2E0EE0EF11C8A810E94171CD1
:1010C000E0CF843011F02196DDCF2A81229690E086
:1010D00080E0AE014F5F5F4F2053330B2A30310564
:1010E00048F0019778F2EFE9FFE03197F1F700C09F
:1010F0000000F7CF089FB001099F700D1124C901AE
:10110000860F971F2981EA01E4CF0E94DB07BACF3F
:10111000DF91CF911F910F91FF90EF90089560E0C4
:101120000C9427088F929F92AF92BF92CF92DF923A
:10113000EF92FF920F931F936B017C0181E090E08F
:10114000A0E0B0E04C015D0104C0880C991CAA1C11
:10115000BB1C4A95D2F7B501A4014C015D0104C046
:10116000880C991CAA1CBB1C2A95D2F7482959291E
:101170006A297B2904C0880F991FAA1FBB1F0A95E3
:10118000D2F78A019B010C211D212E213F2104173A
:1011900015072607370789F48C299D29AE29BF2911
:1011A000BC01CD011F910F91FF90EF90DF90CF9088
:1011B000BF90AF909F908F90089580959095A09547
:1011C000B0958C219D21AE21BF21EACF0F93382FFE
:1011D000262F60918B0270918C0280918D029091EC
:1011E0008E02042F432F0E9492080F910C94D32259
:1011F0000E94A2270E943225811102C00E94CF25A1
:101200000C94620B0C94640B0C94860781E0089597
:101210000C940609CF93C82F0E9404098C2FCF91FC
:101220000C94080908950E94FC1E0E9412092FEFD9
:1012300084E39CE0215080409040E1F700C0000032
:101240000C947C270F931F93CF93DF93EC0161E005
:101250000E94C7078C01BE010E94FD14882389F1FA
:10126000BE01C8010E948F07882359F1BE01C80141
:101270000E947F18882329F1BE01C8010E94D1185D
:101280008823F9F0BE01C8010E94F4198823C9F02F
:10129000BE01C8010E940A14882399F08A8188231C
:1012A00039F001158CE5180751F00E3D1C4579F019
:1012B000CE01DF91CF911F910F910C948D070E9469
:1012C000130980E0DF91CF911F910F9108950E9443
:1012D000CF25F7CF0895FC01EE0FFF1FEE56F44F18
:1012E000859194910895CF93DF930E9429170E94CE
:1012F000880AEC01811520E5920708F042C08115AB
:1013000030E4930708F0BDC0883E910528F5803E83
:10131000910508F09DC0883A910588F4853A9105B9
:1013200008F08FC08130910509F492C0009709F44C
:101330008FC0049708F08CC0D0E0C0E089C08F3B1C
:10134000910508F489C0805C9109C03CD105A0F3E7
:101350000E946B09EC017CC08115904250F4C115CC
:1013600081E0D80708F074C0C03FD10528F3D065EC
:101370006FC0C11590E3D90708F079C0CE019F7006
:10138000E7CF811525E5920758F5811534E59307D8
:1013900008F0A6C0811542E5940750F4C11581E517
:1013A000D80708F471C0DC2FCC27C16FD06A50C0B9
:1013B000982F969596959E0123703327C115D34596
:1013C00008F07FC0C1E0D0E002C0CC0FDD1F2A953D
:1013D000E2F720E2929FC0011124C82BD92B6FC0E5
:1013E000C11589E5D807A8F4C11598E5D90708F013
:1013F0007CC0C11526E5D20708F09ECF8C2F0E9435
:101400001F0BC82FD0E0DC2FCC27CC27DF71D06298
:101410001FC0C1153AE5D30708F46CC0CE01905641
:101420008115904208F088CF8D2F8F710E941F0B7D
:1014300090E0982F882788279F719C012C2BE90129
:10144000E6CFC55AD0E0C65ADE4FC881D0E0D0649E
:10145000CE01DF91CF910895C85AD0E0CC0FDD1FA7
:10146000C45DDE4F0990D881C02DD464F1CFCE0188
:101470009927D3FF03C0EC01D86CEACFEC01D06C04
:10148000E7CFDF70D06AE4CFCE01E4E09695879590
:10149000EA95E1F783702C2F26952695237090E22C
:1014A000299F90011124382B8C2F8370C1E0D0E04C
:1014B00002C0CC0FDD1F8A95E2F7C22BD32BDC686C
:1014C000C7CFC1E0D0E002C0CC0FDD1F2A95E2F704
:1014D00030E2939FC0011124C82BD92BDA68B8CF12
:1014E000D82FCC27C46FD06AB3CFDC2FCC27C06FE6
:1014F000D06AAECF8C2F8F700E941F0B34E0D69530
:10150000C7953A95E1F7CF709C2FEC01D069A0CF39
:1015100082389105B1F1B0F48133910509F475C0B9
:1015200048F48932910509F469C08A32910509F4B9
:1015300073C008958533910509F459C08933910525
:1015400001F10895833E9105A9F138F4803E91059B
:10155000F9F0823E910549F10895863E9105A9F181
:10156000873E9105C9F1843E910519F520911B0331
:1015700021FF1FC080911A0384FD14C087EE90E004
:10158000089520911A032370A1F080EE90E0089551
:1015900020911A0320FD47C030911B0330FF09C082
:1015A00024FF44C090E080E004C020911A0322FD93
:1015B000F7CF089520911A0322FD3BC030911B0301
:1015C00030FDE3CF24FFF5CFEDCF20911A0323FFA9
:1015D000F0CF24FDE7CFD2CF20911A0323FD2CC0FA
:1015E00030911B0331FFEECF84EE90E008952091FF
:1015F0001A0325FFDECF89E290E0089520911A03B7
:1016000025FFD7CF85E390E0089520911A0326FFA8
:10161000D0CF8AE290E0089520911A0326FFC9CF27
:1016200081E390E0089589E390E0089583EE90E0EF
:10163000089582EE90E0089586EE90E008959091EE
:101640001A0392FF06C0282F28712830F9F4877FEB
:10165000846093FF06C0282F28712831F1F4877E1B
:10166000846120911B0320FF06C0382F3871383069
:10167000D9F4877F816021FF06C0282F2871283187
:10168000D1F4877E816194FD877E0895282F24718F
:101690002430F9F68B7F8860DCCF282F2471243129
:1016A00001F78B7E8861DDCF382F3171313019F72A
:1016B0008E7F8860E0CF282F2171213121F78E7E27
:1016C0008861E1CF0C9482070C948307E82FF0E047
:1016D000EE0FFF1FEB50FD4F80819181089508951B
:1016E00080EA8A95F1F70895CF93DF93ADE6B1E0F4
:1016F00042E751E0C1E0D0E08D91E82FE295EF7034
:10170000F0E061A18F709E0101C0220F8A95EAF777
:10171000922F9095962391A382A1822B82A34A17A0
:101720005B0751F7ADE5B1E061E070E08D91E82F26
:10173000E295EF70F0E041A18F709B0101C0220F94
:101740008A95EAF7922F9095942391A382A1822BF8
:1017500082A381E0AD36B80749F71092EC021092EF
:10176000EB021092F6021092F5021092EE02109225
:10177000ED021092F8021092F7021092F00210920D
:10178000EF021092FA021092F9021092F2021092F5
:10179000F1021092FC021092FB021092F4021092DD
:1017A000F3021092FE021092FD0285E00E94630C8B
:1017B000DF91CF910C94F8088F929F92AF92BF92D5
:1017C000CF92DF92EF92FF920F931F93CF93DF930D
:1017D0008DE6E82E81E0F82E0BEE12E0912CAA2483
:1017E000A394B12CF70181917F01C82FC295CF70CE
:1017F000D0E099A18F70650101C0CC0C8A95EAF701
:10180000892F8C2989A38AA18C2C809488218AA372
:101810000E94700BEDE5F1E050E040E030E020E0A8
:101820006191A62FA295AF70B0E090968C9190E058
:101830006F7002C0959587956A95E2F780FD3EC06E
:10184000C501042E02C0880F991F0A94E2F7282BC5
:10185000392B4F5F5F4F4031510511F789A1882225
:1018600089A28AA1C82ACAA2F80180819181281779
:10187000390739F13183208381E0982A0E5F1F4FA9
:10188000F2E7EF16F1E0FF0609F0ACCF292D45E0B5
:1018900065EF72E08BEE92E00E94640C0E940209F8
:1018A000892DDF91CF911F910F91FF90EF90DF90E5
:1018B000CF90BF90AF909F908F90089590E080E080
:1018C000C6CF80E0DACF0895FF920F931F93CF9396
:1018D000DF93F82E092F162FD72FC42F222349F07C
:1018E00081E08093E0010E9431279093DF01809393
:1018F000DE018091E0018823A1F08091DE019091CA
:10190000DF010E944927069760F0EF2DF02FA12FED
:10191000BD2F90E080E0D0E08C179D0744F010923E
:10192000E001DF91CF911F910F91FF9008952191D8
:1019300031912D933D930196EFCFEF92FF920F934C
:101940001F93CF93DF93EB01E82FD11110C04423F5
:1019500021F0F0E0E455F44FE4916E2F7E2F8E2FAE
:10196000DF91CF911F910F91FF90EF9008950D2F70
:1019700010E0282F30E0442329F02455344FF9019A
:10198000249130E0F6E0CF9FC0011124EFEFF0E0AA
:10199000BF010E944935AB018C2F90E0880F991F41
:1019A000A5E5A49FB001A59F700D1124861B970B80
:1019B000982F990F980FBF01601B710B629FD00188
:1019C000639FB00D729FB00D11248B2F9D9FB001AE
:1019D0001124672F7727EF01C61BD70BBE01629F2B
:1019E000E001639FD00D729FD00D11247F01E91A91
:1019F000F108E09EB001E19E700DF09E700D112483
:101A0000672F7727E61BF70BE29F8001E39F100DFE
:101A1000F29F100D1124E12F722F4230510599F0E1
:101A200048F44115510569F04130510581F0EB2F23
:101A30008D2F07C04430510569F080F046305105C4
:101A4000B1F76E2F8DCFE22F7B2F812FFACFE22FB0
:101A50007D2FF7CFEB2F822F712FF3CF7B2F822F8C
:101A6000ED2FEFCF41E00C949D0C0895CF93DF93C1
:101A7000762FE901682F842F0E94320D79836883C5
:101A80008A83DF91CF9108954F3F09F44EEF0C9474
:101A9000360D8091FF02982F9E7F61F481708260E5
:101AA0008093FF02809102038F3F19F48EEF8093A1
:101AB000020308958635B0F381708465F1CF88E024
:101AC00090E00C944236CF92DF92EF92FF926B013E
:101AD0007C010E94490DB701A60188E090E0FF90CB
:101AE000EF90DF90CF900C9460366091FF02709180
:101AF000000380910103909102030C94630DEFEFBA
:101B0000F2E083E0808311828FEF82838EEF838304
:101B1000148260817181828193810C94630D809124
:101B2000FF0280FF02C08695089580E0089590919D
:101B30000303933018F49F5F90930303882351F0BD
:101B40006091FF0270910003809101039091020364
:101B50000C94630D089581E00C94970D909103030C
:101B6000992319F0915090930303882351F06091C9
:101B7000FF027091000380910103909102030C9485
:101B8000630D089581E00C94AE0D809103030895D8
:101B900080930303662351F06091FF02709100036C
:101BA00080910103909102030C94630D089560E00D
:101BB0000C94C80D8091000308958091010308954D
:101BC00080910203089570E00C947A1460910801EA
:101BD0008091FF0280FF0AC08091070123E0829F6D
:101BE000C00111248C5F9C4F0C94E30D809109017E
:101BF00090910A0123E0829FF0011124EC5FFC4FD9
:101C0000891750F71182108212828F5F3396F8CFB6
:101C10009091FF0290FF14C09091090120910A0158
:101C200033E0939FF0011124EC5FFC4F921710F00A
:101C30000C94E60D8183608342839F5F3396F6CFD9
:101C40000895CF93DF9300D00F92CDB7DEB7909178
:101C5000FF0290FF0AC09E012F5F3F4F0E94440D7C
:101C60004B8169818A810E94080E0F900F900F901E
:101C7000DF91CF910895CF93DF93EC016C8170E0F9
:101C800090E080E00E94303320E030E04FE753E402
:101C90000E9453322BED3FE049E450E40E94593456
:101CA0000E94C6340E94CD3222EB3AE54CEB5EE353
:101CB0000E94E63123EC3AEB44E552E40E945934A9
:101CC0000E94FF32462FEFEFF2E0628181810E9495
:101CD000210E8C818F5F8C83DF91CF910895CF93FC
:101CE000DF93EC01EFEFF2E0438162818C810E948F
:101CF000210E8C818F5F8C83DF91CF9108950F939C
:101D00001F93CF93DF9300D00F92CDB7DEB78C0136
:101D10008091E10181110AC09E012F5F3F4F4EEF7C
:101D20006FEF0E94440D8A818093E101F801648184
:101D3000613069F08091E10140E0662361F040E0AC
:101D4000623011F44091E10180E060E004C06091F4
:101D5000E10140E080E00E94080EF801848190E0FB
:101D6000019663E070E00E945D3584830F900F90D0
:101D70000F90DF91CF911F910F910895AF92BF9275
:101D8000CF92DF92EF92FF920F931F93CF93DF9347
:101D900000D00F92CDB7DEB7182FF62E042FE22E0B
:101DA0009091FF0290FF29C0E92FE695AE2FB0E099
:101DB000AE58BE4F8C91809309029E7F923059F5A8
:101DC0009E012F5F3F4F812F0E94440D4B816981FF
:101DD0008A810E94080E10930003F0920103009381
:101DE0000203EE2051F06091FF0270910003809198
:101DF0000103909102030E94630D0F900F900F90CA
:101E0000DF91CF911F910F91FF90EF90DF90CF90D6
:101E1000BF90AF900895823019F400910203DBCF98
:101E2000863019F410910003D6CF8930D9F3893167
:101E300091F6E9518E2F8170D82EE695F0E0E955A4
:101E4000F44FA590B490C12CBB2460910B01C61631
:101E500018F00E94E60DBFCF2C2D30E0A29EC001ED
:101E6000A39E900DB29E900D112470E00E94493502
:101E7000812FD11013C0860F40910901420F532FBB
:101E8000511D9A01220F331F240F351F2C5F3C4F29
:101E9000402F6F2D0E94440DC394D7CF861BECCFEB
:101EA000EFEFF2E09181282F4381628188E0890F72
:101EB0000C94BE0E81E00C94500FEFEFF2E0918194
:101EC000282F4381628188EF890F0C94BE0E81E038
:101ED0000C945D0FEFEFF2E0628128E0620F08F4EE
:101EE0006FEF282F438181810C94BE0E81E00C940A
:101EF0006A0FEFEFF2E0628128E0621B08F460E015
:101F0000282F438181810C94BE0E81E00C94790FBF
:101F1000EFEFF2E043812CE0420F08F44FEF282F5F
:101F2000628181810C94BE0E81E00C94880FEFEFEA
:101F3000F2E043812CE0421B08F440E0282F62814C
:101F400081810C94BE0E81E00C94970F20E00C94DC
:101F5000BE0EEF92FF921F93CF93DF93EC0110E040
:101F6000EE24EA94F12C60910B01161770F00E9498
:101F7000E60D9A818C8190FF27C08F5F8C83DF9163
:101F8000CF911F91FF90EF90089520910901422F6A
:101F9000410F5527551FCA019A01220F331F280FE1
:101FA000391F2C5F3C4F70E0C7010E945D35962FB2
:101FB0008C814091020360910103199F800D1124CF
:101FC0000E94440D1F5FCFCF8150D8CFAF92BF92F8
:101FD000CF92DF92EF92FF920F931F93CF93DF93F5
:101FE000FC0182810FEF80FF01E010E046E0A42EAB
:101FF00080910B011817C8F00E94E60D8091E30153
:10200000013009F055C0811102C080910B0181504F
:102010008093E301DF91CF911F910F91FF90EF909B
:10202000DF90CF90BF90AF900895C0910901C12E6D
:10203000D12CCC0DDD2DD11DCE01880F991FC80FDD
:10204000D91FCC5FDC4F198218821A8234E0E32E4C
:10205000F12CB12C8091E3018B0D87301CF16A2D9E
:102060000E943B35892F082E000C990BC816D90603
:1020700091F4809102038E9DA0018F9D500D11243B
:1020800055954795559547959E016091010380911F
:1020900000030E94440DB00EF1E0EF1AF108D1F6F2
:1020A0001F5FA6CF87FFDFCF90910B01890FDBCF9A
:1020B00090E0019660910B0170E00E945D35A8CF21
:1020C0000F931F93CF93DF938091090190910A01A1
:1020D00023E0829FF0011124EC5FFC4F891740F14F
:1020E000C0E0D3E060910B01C61740F10E94E60DFD
:1020F000209105018091E201820F8093E20190918D
:102100000601920F90930601191654F4082E000C44
:10211000990B40910B014150550B841795071CF00A
:10212000219520930501DF91CF911F910F91089583
:102130001182108212828F5F3396D0CF0C2F10E065
:1021400070E0C8010E945D3520910901820F482F7F
:1021500050E02091E201022E000C330B021713070E
:10216000BCF020910601022E000C330B2017310722
:102170007CF08D9F900111242C5F3C4F4091020315
:1021800060910103809100030E94440DCF5FAACFAC
:10219000FA01EE0FFF1FE40FF51FEC5FFC4F1182F9
:1021A00010821282F3CF8F929F92AF92BF92CF9202
:1021B000DF92EF92FF920F931F93CF93DF93EC0187
:1021C0004C81042F10E09801D8010E94A8359B0192
:1021D000AC010E94BE354B015C01E0E2F0E0E01B87
:1021E000F10BA5E5B0E0AC019B010E94BE356B018F
:1021F0007C019F01DF010E94A0359B01AC010E9480
:10220000C9359B01AC01280D391D4A1D5B1DC70155
:10221000B6010E947135F22E822F90E039E23F150F
:1022200060F143E0249F9001112435952795122FEA
:10223000109500E085E5E82EEF1880910B01081756
:1022400058F10E94E60D9C8181E0992319F09032AB
:1022500019F48FEF8093040180910401890F8C831E
:10226000DF91CF911F910F91FF90EF90DF90CF9072
:10227000BF90AF909F908F90089525E530E0B90111
:10228000681B790B9B01220F331F260F371F37FF67
:10229000CCCF2F5F3F4FC9CF8E2D01FD8F2D2091C9
:1022A0000901622F600F7727771F9B01220F331FD1
:1022B000260F371F2C5F3C4F412F609101030E9476
:1022C000440D0F5FBACF0F931F93CF93DF93EC01B1
:1022D00010E000E090910B019017110609F06CF4EA
:1022E0000E94E60D8C8190E00196817099278C8385
:1022F000DF91CF911F910F91089520910901A801BD
:10230000420F511D9A01220F331F240F351F2C5FDE
:102310003C4F4C816091010380910003969590178A
:10232000110651F04CF0442349F0409102030E9401
:10233000440D0F5F1F4FCECF4423B9F340E0F7CFDA
:102340008F929F92AF92BF92CF92DF92EF92FF92C5
:102350000F931F93CF93DF93FC01B280948081E0B1
:10236000848300E015E05BE4A52E88248394EE24AA
:10237000EA94F12C7BE4C72ED12C80910B01081735
:1023800070F0DF91CF911F910F91FF90EF90DF9050
:10239000CF90BF90AF909F908F900C94E60DC02F80
:1023A000D0E01C9FF0011D9FF00D1124EC51FE4F59
:1023B00091101CC01382128220910901CE01820F5C
:1023C000911D9C01220F331F280F391F2C5F3C4F9A
:1023D0001C9FF0011D9FF00D1124EC51FE4F428116
:1023E000618180810E94440D0F5FC7CF238122232A
:1023F00079F12150238334818A2D821B311101C050
:10240000822F1C9FF0011D9FF00D1124EC51FE4FF7
:1024100090910203899FC0011124B6010E944935A1
:102420006283211104C0332311F01482A38222E0BD
:102430002B1510F21C9FF0011D9FF00D1124EC5183
:10244000FE4F809100038083809101038183B4CF8C
:102450000E941D36823091400CF0AECF82E08B1589
:1024600030F50E941D36B7010E945D351C9FF001BA
:102470001D9FF00D1124EC51FE4F808322E02B159F
:10248000C8F40E941D36209101032695622F70E04A
:102490000E945D35280F1C9FF0011D9FF00D112437
:1024A000EC51FE4F21831282A382848285CF8091DA
:1024B0000003DCCF20910103EECFEFEFF2E080814B
:1024C0008E7F808360817181828193810E94630D00
:1024D00010920A022FEF80E792E021508040904056
:1024E000E1F700C000000C94E60DEFEFF2E0808110
:1024F0008E7F808310920A022FEF80E792E02150B6
:1025000080409040E1F700C000000C94E60D60911F
:10251000FF02669570E04BE050E08CE091E00E9495
:102520002D36892B19F481E080930A020E9431270D
:10253000909303028093020208959091FF0290FF0E
:1025400035C09170811128C092609093FF0266237C
:1025500051F06091FF02709100038091010390910E
:1025600002030E94630D6091FF02669570E04BE0EC
:1025700050E08CE091E00E942D36892BA1F0109262
:102580000A0281E0809305024091020360910103F9
:10259000809100030C94A60F8B3210F09465D5CF78
:1025A000880F982BD2CF0E948712EBCF0895682F07
:1025B0009091FF02969581E0890F8B3208F081E0BF
:1025C0000C949D1281E00C94D712682F9091FF0219
:1025D00096958FEF890F09F48AE20C949D1281E0A1
:1025E0000C94E51261E00C949D12EFEFF2E0808113
:1025F0008160808386950C94F2128091FF0280FDA9
:102600000C945D120C94F51260E00C949D12809174
:10261000080281112EC00E943225811104C00E943F
:10262000CF250E947F0D0E945F0D6093FF02709383
:10263000000380930103909302036E7F61F40E9474
:102640007F0D0E945F0D6093FF02709300038093E3
:102650000103909302030E94490D10920A02809197
:10266000FF0280FF03C086950E94041381E08093DF
:1026700008020895EFEFF2E0808181608083869503
:102680000C94041310920A0208950F931F93CF9392
:10269000DF9380910A02882309F49DC0809109028A
:1026A000E091FF02E695E81BE09304028230C9F551
:1026B000F0E0ED55F44FE491CE2FD0E00BE31EE0B7
:1026C00080910502882389F0109205020E9431272B
:1026D0009E0120953095820F931F90930302809363
:1026E000020210920702109206028091020290915B
:1026F00003020E9449278C179D0708F46CC0E091E3
:102700000202F0910302CE0FDF1FD0930302C093A9
:10271000020282E092E0F801DF91CF911F910F91C8
:102720000994863049F4F0E0E056F44FE491CE2F5E
:10273000D0E00FE61EE0C4CF893051F4E695F0E01A
:10274000E356F44FE491CE2FD0E009EA1FE0B8CF72
:102750008F3051F4E695F0E0E656F44FE491CE2F39
:10276000D0E006EE1FE0ACCF853149F4F0E0E95649
:10277000F44FE491CE2FD0E000E610E1A1CFC8E203
:10278000D0E003ED10E1883109F49ACF833239F4B7
:10279000E5E9FBE0C591D4910FE71EE091CFC4EFCE
:1027A000D1E003E611E1843209F48ACFC0EDD7E02D
:1027B00005E31DE0853209F083CF8E2F63E00E9490
:1027C0002F35E92FF0E0EE56F44FE491CE2FD0E014
:1027D00000EA11E175CFDF91CF911F910F9108951C
:1027E000FA01811101C0FB010994CF93DF93C82F37
:1027F000D62F0E948F0D8C1740F00E948F0D8D17E1
:1028000020F4DF91CF910C94E2128C2FDF91CF91C5
:102810000C94F2120F931F93CF938C01FB01C28192
:10282000CC2309F465C00E947D248272F801E25C29
:10283000FC45E431F10538F4ED55F94C0C94933531
:102840000E94FD12C0E08C2FCF911F910F9108952F
:102850004FEE52E162EE72E10E94F013F3CF42EECE
:1028600052E16FEE72E1F8CF47E65FE06AE57FE0A4
:10287000F3CF4AE55FE067E67FE0EECF45E85FE053
:1028800066E77FE0E9CF46E75FE065E87FE0E4CF19
:1028900043EA5FE064E97FE0DFCF44E95FE063EAB9
:1028A0007FE0DACF42EC5DE06BEA7DE0D5CF4BEA2A
:1028B0005DE062EC7DE0D0CF81E00E94F212C2CFF9
:1028C00065E082E00E94F513BDCF68E086E0FACFB4
:1028D0006EE089E0F7CF64E18FE0F4CF67E185E156
:1028E000F1CF88E1EACF62E289E1ECCF83E2E5CF84
:1028F000C1E0A9CF6E9A4EB14F7B5EB15064EFB785
:10290000F8949B01220F331F260F371F280F391F02
:102910002817390741F4EFBF8FE594E00197F1F7ED
:1029200000C000000895DC016D91CD0178E05EB932
:10293000000000C067FF4EB9660F000000C000C075
:1029400000C04EB900C07A9591F7E2CF82E290E0E4
:102950000E943A36813289F483E290E00E943A364E
:10296000853059F484E290E00E943A3691E0833257
:1029700009F090E0892F8170089580E0FCCFCF931B
:10298000C82F6FEF811161E282E290E00E944E3623
:102990006FEFC11165E083E290E00E944E366FEF69
:1029A000C11163E284E290E0CF910C944E3680E056
:1029B0000E94BF140C942C25089585E290E00E949B
:1029C0003A36682F70E090E080E0089585E290E06C
:1029D0000C944E360E94DC140E94A61481110CC087
:1029E00060E070E0CB010E94E6140E94A1160E94F4
:1029F0008D1781E00C94BF140895CF93FB01C28121
:102A0000CC2309F19C0122513F452031310520F5AD
:102A100082510E949D17C0E08C2FCF91089581E0D4
:102A20000E94F92243E062E081E00E94E608F3CFD1
:102A300081E00E941A2343E062E081E00E94E60800
:102A4000EBCF82E0F6CF8031FFE59F0789F381313C
:102A50009F45B9F3C1E0E0CF8031EFE59E07F9F281
:102A600081319F45C9F682E0DBCF2FEFFC01208347
:102A70000895CF93DF93EC0188818138A9F028F481
:102A8000803871F0DF91CF910895823881F08338DA
:102A9000C9F70E94DA0D89830E94DD0D8A83F2CF87
:102AA0000E94E00D8983EECF0E948F0DFBCF0E9424
:102AB000C50DF8CFCF93DF93EC0188818138E1F029
:102AC00028F4803869F0DF91CF910895823811F1B0
:102AD0008338C9F70E94E00D482F6A81898108C0B8
:102AE000D9810E94DD0DC82F0E94DA0D4D2F6C2F69
:102AF000DF91CF910C94A60F89810E9404138981E4
:102B0000811104C0DF91CF910C947512DF91CF91A8
:102B10000C943A138981DF91CF910C94D70DEF92E9
:102B2000FF920F931F93CF93DF93EC01062FDC01ED
:102B3000ED91CD01E150E33108F0BFC0F0E0E95480
:102B4000F94C0C949335198289E08A83602FCE0169
:102B5000DF91CF911F910F91FF90EF900C94192B63
:102B60008981823069F0833071F08130D9F40E941C
:102B70003D270E9499356A837B838C839D83E6CFB2
:102B80000E94DD14F6CF7E0110E0812F0E94660BBB
:102B9000F701928383831F5FF2E0EF0EF11C153083
:102BA000A1F7D4CF602FCE010E943515CFCF8981F8
:102BB0008230C1F76A817B818C819D810E94993529
:102BC0000E94E614C3CF4B816A8189810E947316EB
:102BD0009827892798279D838C83B8CF2C813D81A6
:102BE0003227232732274B816A8189810E948C16E4
:102BF000ADCF0E94A116AACF0E945A15A7CF0E945E
:102C00003915A4CF0E94750DA1CF0E943617898374
:102C10009DCF0E9438179827892798279A83898300
:102C200095CF6B8170E089819A81AE014C5F5F4FD7
:102C30009827892798270E943B1788CF6B8170E0DF
:102C400089819A81AE014C5F5F4F98278927982729
:102C50000E9462177BCF0E948D1778CF0E9460166A
:102C6000D6CF6B8170E089819A81AE014C5F5F4F56
:102C70009827892798270E94D91668CF6B8170E022
:102C800089819A81AE014C5F5F4F982789279827E9
:102C90000E94FF165BCF0E94D71458CFCE010E942E
:102CA000192B2FEF81EE94E0215080409040E1F706
:102CB00000C000000E947C2749CF8FEF888346CF59
:102CC00084E0089590E2699FB001112450E0440F20
:102CD000551F640F751F90EA899F600D711D1124A7
:102CE000CB01869608950F931F93CF93DF930E9495
:102CF00062168C010E943A36C82FD0E0DC2FCC2718
:102D0000C80101960E943A369E01282BC901DF9125
:102D1000CF911F910F9108950F931F93CF93DF933E
:102D2000122F032F0E946216EC01602F0E944E3674
:102D3000612FCE010196DF91CF911F910F910C94DD
:102D40004E36AF92BF92CF92DF92EF92FF921F93D7
:102D5000CF93DF9382EFC82E80E0D82ED0E07601AB
:102D6000C0E014C0F50125913491412F6C2F8D2FB7
:102D70000E948C1682E0A80EB11C1F5F103191F7E3
:102D800080E2E80EF11CCF5FC53019F0570110E06A
:102D9000E9CFDF5F80EAC80ED11CD43001F7DF91A4
:102DA000CF911F91FF90EF90DF90CF90BF90AF90A9
:102DB0000895EF92FF920F931F93CF93DF93EC014F
:102DC0008A017C01E60EF71ECE018696CE15DF0540
:102DD00039F4DF91CF911F910F91FF90EF900895FB
:102DE000C03822E0D20740F40E943A36F8018083CE
:102DF0000F5F1F4F2196E8CFF8011082F9CFCF92D5
:102E0000DF92EF92FF920F931F93CF93DF937C019A
:102E10006A018C01060F171FEC01CE018696C017C0
:102E2000D10749F4DF91CF911F910F91FF90EF905F
:102E3000DF90CF900895C03822E0D20740F4FE0121
:102E4000EE19FF09EC0DFD1D60810E944E362196A2
:102E5000E4CF462F843038F4753028F4603118F40C
:102E6000672F0C94731690E080E0089580E1089538
:102E70008AE591E00895EF92FF920F931F93CF930D
:102E8000DF93EC018A017C01E60EF71ECE018A5524
:102E90009D4FCE15DF0539F4DF91CF911F910F9132
:102EA000FF90EF900895CA3521E0D20740F40E94C8
:102EB0003A36F80180830F5F1F4F2196E7CFF80164
:102EC0001082F9CFCF92DF92EF92FF920F931F9370
:102ED000CF93DF937C016A018C01060F171FEC0171
:102EE000CE018A559D4FC017D10749F4DF91CF918C
:102EF0001F910F91FF90EF90DF90CF900895CA350A
:102F000021E0D20740F4FE01EE19FF09EC0DFD1D92
:102F100060810E944E362196E3CFCF93DF93C6EABD
:102F2000D2E060E0CE010E944E362196C11584E0C9
:102F3000D807B9F7DF91CF910895DF92EF92FF9212
:102F40000F931F93CF93DF9300D000D0CDB7DEB7A0
:102F5000F82E8FE08F1540F08FEF93E00E943A3605
:102F600006EA12E08823C1F00F900F900F900F90A7
:102F7000DF91CF911F910F91FF90EF90DF90089517
:102F8000011584E0180781F3C8010E943A368111C7
:102F900001C0FA940F5F1F4FF110F2CF19821A820D
:102FA0001B821C82DD24D39478018FEFE81AF80A83
:102FB000C8010E943A3689831A828823A9F29FEFBA
:102FC000980F933078F48A83D9820E5F1F4FC70120
:102FD0000E943A368B83882339F2CE0101960E94F3
:102FE0008F08E2CF8701F9CFAF92BF92CF92DF92E5
:102FF000EF92FF920F931F93CF93DF937C015B01BE
:10300000C42FD22FFC0182818823F9F040930D0256
:103010000E94312790930C0280930B0280E28C0F68
:10302000883008F061C0C77081E001C0880FCA9580
:10303000EAF7DF91CF911F910F91FF90EF90DF9012
:10304000CF90BF90AF900C94801C10910D02141380
:1030500040C080910B0290910C020E9449276C01A4
:10306000B701C5010E947221C816D90690F5C0E2C9
:10307000CD0F1D17B9F080E2810F883040F4177032
:1030800081E001C0880F1A95EAF70E94871CC830BA
:1030900048F481E09D2F977001C0880F9A95EAF758
:1030A0000E94801C802F0E946D1CC830E8F4D770ED
:1030B00081E001C0880FDA95EAF7DF91CF911F9187
:1030C0000F91FF90EF90DF90CF90BF90AF900C9456
:1030D000871C80E28C0F883038F4C77081E001C013
:1030E000880FCA95EAF7E9CFDF91CF911F910F9131
:1030F000FF90EF90DF90CF90BF90AF9008950F9327
:103100009C01CB01233F4CE5340759F1A8F4283D3D
:10311000FCE53F0701F1293D4CE53407D1F1273D9E
:103120003C4591F406E221EE41EE67ED7CE50E941C
:10313000F41780E00F910895253FFCE53F07E9F083
:10314000B0F0263F3C45F9F0FC018281882339F13B
:1031500010920D02EFCF07E225EE45EE68ED7CE51B
:10316000E6CF06E221EE40EE63EF7CE5E0CF07E23A
:1031700025EE44EE64EF7CE5DACF06E221EE42EE86
:1031800065EF7CE5D4CF07E225EE46EE66EF7CE501
:10319000CECF08E221E045EE69ED7CE5C8CF81E0C5
:1031A000C9CFCF93DF93EC01FB018281882309F41F
:1031B00019C1C230FCE5DF07C0F1C6319CE5D90773
:1031C00030F09E012A5F3C452930310570F50E94A0
:1031D000452590931B0380931A03C031ECE5DE076D
:1031E00009F4CFC008F05BC0C8308CE5D80709F4FB
:1031F000B6C088F5C430ECE5DE0709F4A8C0C0F419
:10320000C2308CE5D80709F49CC080911A03826013
:10321000C330DC4509F498C080911A0390911B03D8
:103220000E9453250E94FC1E80E0DF91CF910895FB
:1032300080911A038061C630ECE5DE0709F484C092
:1032400080911A038860C730DC4508F47DC0809106
:103250001A03806279C0CC308CE5D80709F489C0A4
:1032600070F480911A038C60CA30ECE5DE0709F433
:103270006BC008F478C080911A038E7F65C0CE3091
:103280008CE5D80709F479C080911A038B7FCF3081
:10329000DC4508F459C080911A038F7E55C0CB3F9E
:1032A000ECE5DE0709F457C030F5C3318CE5D807EB
:1032B00009F46FC078F4C131ECE5DE0709F465C0AC
:1032C000C231DC4509F0A8CF0E94FC1E80911A0390
:1032D0008F773AC0C5318CE5D80709F462C008F48D
:1032E00076C080911B038160CA3FDC4509F094CF12
:1032F00080931B0391CFCF3FFCE5DF0709F44DC05E
:1033000088F480911B038D7FCD3F9CE5D90781F325
:1033100080911B038E7FCE3FDC4550F380911B03D1
:103320008360E6CFC130FDE5DF0709F459C008F43A
:1033300044C080E0C230DD4509F06ECF0E94D12547
:103340006BCF80911A03816080931A0365CF8091BF
:103350001A038460F9CF80911B038260C9CF8091EA
:103360001A038064F1CF0E94FC1E80911A038068CA
:10337000EBCF80911A038D7FE7CF80911A03877F6F
:10338000E3CF80911A038F7DDFCF80911A038F7B6B
:10339000DBCF80911A03837FD7CF80911B038C7F73
:1033A000A7CF80911A0382FB992790F921E09227F9
:1033B00090FB82F990FB83F9C7CF80911B03982F74
:1033C000909591708E7F892B90FB81F991CF0E940F
:1033D000FC1E90911A03892F97FB87F98058B4CF70
:1033E00081E0ACCF81E021CFCF93DF93EB01863139
:1033F0009C4511F50E947D249A81992399F08A7A3F
:1034000091E009F490E090930E02811109C089E2E5
:103410000E9458240E94C92480E0DF91CF91089532
:1034200085E3F6CF80910E02811104C089E20E94EB
:103430005F24F0CF85E3FBCF81E0EFCF90931402C0
:10344000809313020895E0911302F09114023097D3
:1034500021F00190F081E02D099480E00895E09141
:103460001302F0911402309799F020912B0122233E
:1034700059F020911A0327FF07C0DC012C91119607
:103480002C93119725E02C930280F381E02D099471
:103490000895E0911302F0911402309739F022E080
:1034A000DC012C930480F581E02D0994089520918E
:1034B0001102309112022817390771F0909312020D
:1034C00080931102E0911302F0911402309721F0E1
:1034D0000680F781E02D0994089520910F02309124
:1034E00010022817390771F09093100280930F0291
:1034F000E0911302F0911402309721F00084F185DD
:10350000E02D0994089585B7806885BF85B78068E8
:1035100085BF0895089508950C948A1A08950C940F
:103520008E1A0E94831A0E948B1A0C948C1A81E0C6
:1035300008950C94971A0E9428270E94740B0E94E9
:10354000EA140E94B6270E9407130C948F1A9F92C8
:10355000AF92BF92CF92DF92EF92FF920F931F93A1
:10356000CF93DF93CDB7DEB72A970FB6F894DEBFBF
:103570000FBECDBF0E94DC0B0E94991A882309F46C
:1035800072C056E1A52E52E0B52E10E000E0902E5C
:10359000802F0E94660B6C01F501E190F1905F01B4
:1035A000E816F90609F459C08091B80281FD0E941D
:1035B0006F0B97012C253D2580E0EE24E394F12C40
:1035C000A9014E215F21452B09F441C08E839F82C2
:1035D000CE20DF2081E0CD2809F480E088870E949A
:1035E00031278160782F9A8789874E815F8168852E
:1035F0008A850E94561B000F111FF801EA5EFD4FDD
:1036000080819181E826F926F182E0820E944513AB
:103610000E9461290E94231A909115028917A1F135
:103620000E94231A809315022A960FB6F894DEBFE3
:103630000FBECDBFDF91CF911F910F91FF90EF9003
:10364000DF90CF90BF90AF909F900C940A098F5F4E
:10365000EE0CFF1C803109F0B3CF0F5F1F4F053018
:10366000110509F094CF8FEF89838A831B820E9412
:1036700031278160782F9D838C8349815A816B81AA
:103680008D810E94561BC2CF2A960FB6F894DEBFDA
:103690000FBECDBFDF91CF911F910F91FF90EF90A3
:1036A000DF90CF90BF90AF909F900895CF93DF931E
:1036B000CDB7DEB72B970FB6F894DEBF0FBECDBFE8
:1036C0004F83588769877A878B871E821D8285E0A2
:1036D000FE013796DE01119601900D928A95E1F771
:1036E00049815A816B817C818D819E812B960FB699
:1036F000F894DEBF0FBECDBFDF91CF910C94752142
:10370000FC01808191810C942A24CF93C82F8823B7
:1037100009F48BC08238C1F40E94231A81FD85C050
:1037200089E30E9458240E94C9242FEF81EE94E07F
:10373000215080409040E1F700C0000089E30E94E2
:103740005F24CF910C94C9248338A1F40E94231ADA
:1037500080FD6BC083E50E9458240E94C9242FEF8E
:1037600081EE94E0215080409040E1F700C00000DD
:1037700083E5E5CF8438A1F40E94231A82FD55C069
:1037800087E40E9458240E94C9242FEF81EE94E020
:10379000215080409040E1F700C0000087E4CFCF87
:1037A0008CEF8C0F813A90F46C2F809117019091DF
:1037B00018010E94EA25882329F08C2F0E945F249B
:1037C0000E94C9248C2F0E945824BBCF80E28C0F0A
:1037D000883048F4C77081E001C0880FCA95EAF7C5
:1037E0000E948024AECFEBE5EC0FE33040F4F0E034
:1037F000E553FE4F808190E0CF910C94571AE8E595
:10380000EC0FE73150F4F0E0EE0FFF1FE356FE4FF0
:1038100080819181CF910C946D1AC03F30F08C2F34
:103820000E945B28CF910C944629CF91089588235C
:1038300009F452C0823871F40E94231A81FF4CC0EF
:1038400089E30E9458240E94C92489E30E945F24CE
:103850000C94C924833859F40E94231A80FF3CC079
:1038600083E50E9458240E94C92483E5EFCF843861
:1038700059F40E94231A82FF2FC087E40E94582423
:103880000E94C92487E4E2CF9CEF980F913AF0F2AE
:1038900090E2980F983050F4877091E001C0990F32
:1038A0008A95EAF7892F0E948624D2CF9BE5980F4C
:1038B000933020F490E080E00C94571A98E5980F2C
:1038C000973120F490E080E00C946D1A803F20F056
:1038D0000E94C3280C9446290895CF93C82F0E94B4
:1038E000851BC93349F42FEF87EE93E021508040C8
:1038F0009040E1F700C000008C2FCF910C94171C72
:10390000882321F00E9480240C94C92408958823E0
:1039100021F00E9486240C94C9240895BF92CF926E
:10392000DF92EF92FF920F931F93CF93DF936C017F
:10393000D62FC72FFC01058102950F70128111113E
:103940000E949D240E947624E82E882391F0112362
:10395000D1F08C2F807F803421F080E28D0F883071
:1039600090F082E00E9414250E94762491E0E82ED7
:10397000E926BC2EB2949FE0B922EB2DF0E0E6538D
:10398000F94C0C949335E12CF4CF0C2F0F70C07FC1
:1039900011F00295007F1123A9F0002359F080E275
:1039A0008D0F883010F0D11109C0802F0E94802423
:1039B0000E94C9248D2F0E94851B14C0802F0E9455
:1039C0009024F6CF8D2F0E94171C002359F080E21F
:1039D0008D0F883010F0D1112CC0802F0E948624CA
:1039E0000E94C9242B2D2850330B2430310520F49C
:1039F0000E94231A0E940A09EE2009F49EC10E9427
:103A0000722480FD9AC1F60112820E946C240E94E9
:103A1000F922C6010E94BE1E0E946C24DF91CF9144
:103A20001F910F91FF90EF90DF90CF90BF900C947B
:103A30001A23802F0E949624D3CFFC2FFF70FF2ED5
:103A4000C07FC03219F0F29480EFF822DD2369F0D4
:103A5000D13049F1112391F1002351F1F601858113
:103A600080FFA8CF8F70858323C0112381F00111BF
:103A700006C00E94B0248F290E94801CB3CF013061
:103A8000C1F70E94B0248F290E94B624ABCF011148
:103A900006C00E94BF248F2D0E94871CA3CF013037
:103AA00009F4A0CFF6CF112329F0063008F09ACF01
:103AB0008F2DE2CF053008F095CFEDCF002359F3DD
:103AC000D93349F4FFEF27EE33E0F1502040304086
:103AD000E1F700C000008D2F0E94171C83CF8C2FB0
:103AE00086958695837069F0813009F07BCF8D2FA4
:103AF0009C2F9370111102C090E080E00E946D1A1B
:103B000071CF8D2F9C2F9370111102C090E080E037
:103B10000E94571A67CF8D2F112329F00E945B282E
:103B20000E9446295FCF0E94C328FACF8C2F837052
:103B300009F041C0111156CF4D2F4295469547705F
:103B4000440F440F0D2F0F7010E030E020E0042EE2
:103B500004C0000F111F221F331F0A94D2F760E028
:103B600070E0CB01D4FF0FC06FE070E080E090E028
:103B700004C0660F771F881F991F4A95D2F760957A
:103B8000709580959095C695C695C370602B712BE6
:103B9000822B932BC23049F058F4C13019F00E94A7
:103BA000AB2220CF0E9499221DCF0E94BD221ACFA6
:103BB0000E94972217CF8695112311F08C2F8170C8
:103BC000882309F40FCF4D2F429546954770440F37
:103BD000440F0D2F0F7010E030E020E0042E04C0E1
:103BE000000F111F221F331F0A94D2F760E070E00C
:103BF000CB01D4FF0FC06FE070E080E090E004C024
:103C0000660F771F881F991F4A95D2F760957095A8
:103C100080959095C695C695C370602B712B822BAD
:103C2000932BC23049F058F4C13019F00E94702330
:103C3000D9CE0E945E23D6CE0E948223D3CE0E948C
:103C4000D322D0CECF70112329F08C2F0E94F922DD
:103C50008D2F12CF8D2F0E94871C8C2F0E941A232C
:103C6000C1CED23F89F160F4D03FC9F0D13F29F1F4
:103C7000112309F442C001119DCE8C2F8F7121C0F8
:103C8000D33F39F1D43FA1F7112369F1CF718C2FC4
:103C90000E94F92263E08C2F0E94FF24A3CE1123FF
:103CA00041F0053008F09ECE8C2F8F710E943D238D
:103CB00099CE063008F096CEF7CF8C2F8F71112356
:103CC00069F20E94F9228ECE8C2F8F711123C9F3D5
:103CD000C5CF112329F08C2F8F710E94E42282CE50
:103CE0000E94DF227FCE81E00E941425023008F47A
:103CF00079CE82E00E94142575CE002359F0D93385
:103D000009F0E9CE8FEF97EEE3E081509040E0407C
:103D1000E1F7DFCE8C2F8F71A1CF4C2F4F706D2F1D
:103D2000C6010E947F070E940F225CCE4C2F4F706D
:103D30006D2FC6010E946A0955CEDF91CF911F9168
:103D40000F91FF90EF90DF90CF90BF9008950F9369
:103D50001F93CF93DF93EC01688179818A810E9460
:103D600034248C010E9494230E949622B801CE0133
:103D7000DF91CF911F910F910C948E1CCF93DF9305
:103D8000EC018B819C81892B29F088819981892381
:103D90008F3F59F4DF91CF910895CE010E94A71E65
:103DA000CE01DF91CF910C94D007CE010E94220961
:103DB0008111F3CF0E947624882361F38A818823BE
:103DC00049F382E0DF91CF910C9414250E949D2449
:103DD0000E94AD240E94C9240E946D2A0E94462997
:103DE00090E080E00E94571A90E080E00C946D1AF9
:103DF0000E9466240C94E61E0E948D240C94F81EEA
:103E0000E92FE295EF70E250EE3070F4F0E0E65208
:103E1000F94C0C949335803F19F020F4883E20F43F
:103E200081E00895843FE1F380E00895883EC0F387
:103E3000813FD1F7F5CF93FB882780F908950E9441
:103E40002A240C94001FCF93DF9300D000D00F9250
:103E5000CDB7DEB70F900F900F900F900F90DF91BE
:103E6000CF910895CF93DF9300D000D000D0CDB78D
:103E7000DEB726960FB6F894DEBF0FBECDBFDF913A
:103E8000CF9108951F93CF93DF93C091210216E045
:103E9000809122028C1304C0DF91CF911F9108956D
:103EA000D0E01C9FF0011D9FF00D1124ED5DFD4F32
:103EB0004081518162817381848195810E94321F8A
:103EC0002196C770E5CF4091530250915402609102
:103ED00055027091560280915702909158020C94AD
:103EE000321F1F93CF93DF9380915802807FA9F4F4
:103EF00080915502882389F080912102C09122028D
:103F00006091530270915402A0915602B0915702F1
:103F1000D62FD72316E0C81304C0DF91CF911F918D
:103F2000089590E0109711F0DF3F19F40196877023
:103F3000F2CF189F9001199F300D1124F901ED5D0A
:103F4000FD4F41814713F2CF40814613EFCF4281AD
:103F50004111ECCF438154814A1B5B0B483C510516
:103F600028F7809158028F70806180935802F90180
:103F7000E85DFD4F80818F708061808383E592E0F2
:103F80000E94BE1EDF91CF911F910C94421FAF92F1
:103F9000BF92CF92DF92EF92FF920F931F93CF9336
:103FA000DF93CDB7DEB761970FB6F894DEBF0FBED3
:103FB000CDBF8C0185E0F801DE011D9601900D92C8
:103FC0008A95E1F7F80140815181E28083E5C82EAE
:103FD00082E0D82E609156027091570261157105EA
:103FE00009F461C19091530220915402892F8223D8
:103FF0008F3F09F458C1A380B480F0905502F501B9
:10400000E61BF70BFF2009F4FCC080915802382F03
:10401000307FE83CF10508F0B2C0311179C0FE2CC8
:10402000251323C0941321C0E1101FC08F7080613D
:10403000809358020E94631FC6010E94BE1E809199
:104040005802F80185838F2D61960FB6F894DEBF74
:104050000FBECDBFDF91CF911F910F91FF90EF90D9
:10406000DF90CF90BF90AF900895AB2829F0842FB8
:1040700085238F3F09F033C180E0F82FF170DF2EE8
:1040800080FF3CC0809121022091220236E0821301
:1040900015C04D875E878D859E850E942A24292F15
:1040A00022952F702230F0F0243018F59F70F1F037
:1040B000F8019581907FD1F4D12C1EC090E0389FFB
:1040C000F001399FF00D1124ED5DFD4F6181651305
:1040D00006C06081641303C062816E110FC0019637
:1040E0008770D5CF9F7011F0882331F3805E8830C0
:1040F00018F3C8010E94BE1EFD2CA5CFEE2009F4C6
:10410000A2CF80915802816080935802F12C9BCFFE
:10411000251306C0941304C0F801EE2009F48DC0E5
:104120004D875E878D859E850E941F1F882319F10C
:10413000EE2009F180915802803270F020915302F4
:104140003091540238872F831986BB86AA868C87C4
:10415000CE0107960E94BE1E86E0F801A3E5B2E0FC
:1041600001900D928A95E1F70E94711F0E94631FD2
:10417000FF24F39468CFC8010E94BE1EF9CF31110D
:1041800013C07A2DB98AA88A6E2D89890E94231FAF
:1041900083E592E00E94BE1E86E0F60111928A95A8
:1041A000E9F70E94631FB2CF25130FC094130DC00F
:1041B000E1100BC0F8018583C8010E94BE1E86E095
:1041C000F60111928A95E9F73ECF4D875E878D857E
:1041D0009E850E941F1F882371F2EE2061F280915C
:1041E0005802803208F4B8CF209153023091540223
:1041F0003A8329831B82BD82AC828E83CE010196D5
:10420000A9CFE83CF10508F041C0FE2CEE2009F4EE
:10421000B2CF25132AC0941328C08091580280FD84
:104220001BC0982F907FC1F0F8018583903F31F03B
:10423000982F907F905F8F70892B8583C8010E9493
:10424000BE1E86E0F801A3E5B2E001900D928A95CA
:10425000E1F70E94631FF7CE86E0F801A3E5B2E024
:1042600001900D928A95E1F7EECE4D875E878D85A0
:104270009E850E941F1F81116FCF8091580281601F
:1042800080935802C8010E94BE1EDDCE7A2DB98AE5
:10429000A88A6E2D89890E94231F86E0F60111925B
:1042A0008A95E9F7D6CFEE2009F465CF4D875E8772
:1042B0008D859E850E941F1FF82E882309F45BCFF1
:1042C00086E0F801A3E5B2E001900D928A95E1F74E
:1042D00083E592E00E94801B0E94711FBACF81E0AB
:1042E0008E25CBCE88EC90E008951F93CF93DF937B
:1042F000CDB7DEB72C970FB6F894DEBF0FBECDBF9B
:104300004F83588769877A878B879C87CE0107966A
:104310000E94C71F882369F08A859B85892B39F005
:104320004F815885842F85238F3F09F071C016E097
:104330005FC086E0FE013796DE01119601900D9276
:104340008A95E1F78A859B85892B89F38F819885EA
:1043500089238F3F61F32091220230E0C901019649
:1043600087709927409121024817190671F40E941D
:10437000FC1E109222021092210286E0E3E5F2E098
:10438000DF011D928A95E9F7D2CF96E0929FD00186
:10439000939FB00D1124AD5DBD4FFE01319601908C
:1043A0000D929A95E1F7809322020E94421FBFCF9F
:1043B000819FC00111248D5D9D4F0E94C71F8823DE
:1043C000E9F0E09121021E9FF0011124ED5DFD4F07
:1043D0004081518162817381848195810E94321F65
:1043E0008091210290E001968770992780932102A5
:1043F00080912102909122028913DACF2C960FB678
:10440000F894DEBF0FBECDBFDF91CF911F9108950D
:1044100069857A858B859C850E94321F88CFEF92B3
:10442000FF920F931F93CF93DF938C01892B81F021
:10443000F12CEE24E394E8012196F801849184376D
:1044400070F4843008F05FC08130B1F08230A1F1A7
:10445000DF91CF911F910F91FF90EF9008958537D5
:1044600009F44CC008F43DC09CE7980F903780F7E2
:104470008F770E94171C49C00E5F1F4FFE01849169
:1044800090E2980F983060F48770FE2D01C0FF0F06
:104490008A95EAF78F2F0E94A0240E94C92402C0A7
:1044A0000E94851B8F2D815030F2EFE9FFE031979C
:1044B000F1F700C00000F7CF0E5F1F4FFE0184919F
:1044C00090E2980F983050F48770FE2D01C0FF0FD6
:1044D0008A95EAF78F2F0E94A624DFCF0E94171C2F
:1044E000E1CF0E5F1F4FFE01C491C150D8F28FE99A
:1044F0009FE00197F1F700C00000F7CF0E5F1F4F5C
:10450000FE01F490CFCF0E94851B8E01CBCF089582
:104510000C9487220E94882260938F0270939002ED
:1045200080939102909392020C94E61E08950C944D
:104530008A220F931F9300918F0210919002209175
:10454000910230919202602B712B822B932B1F9141
:104550000F910C948A220F931F9300918F02109158
:104560009002209191023091920260237123822364
:1045700093231F910F910C948A220F931F93009104
:104580008F02109190022091910230919202602747
:104590007127822793271F910F910C948A220C94E4
:1045A00087220C94CF220E94D12260938B027093B9
:1045B0008C0280938D0290938E020C94E61E60E034
:1045C00070E0CB010C94D3220F931F9341E050E095
:1045D00060E070E08A019B0104C0000F111F221FE0
:1045E000331F8A95D2F7C901B8011F910F910C941E
:1045F000D3220F931F9341E050E060E070E004C0CD
:10460000440F551F661F771F8A95D2F780918B0242
:1046100090918C02A0918D02B0918E028A019B0133
:10462000082B192B2A2B3B2BC901B8011F910F9185
:104630000C94D3220F931F9341E050E060E070E0B0
:1046400004C0440F551F661F771F8A95D2F7CB0110
:10465000BA01609570958095909500918B021091AC
:104660008C0220918D0230918E026023712382236F
:1046700093231F910F910C94D3220F931F9341E02A
:1046800050E060E070E004C0440F551F661F771FC4
:104690008A95D2F780918B0290918C02A0918D0225
:1046A000B0918E028A019B01082719272A273B27F0
:1046B000C901B8011F910F910C94D3220F931F933E
:1046C00000918B0210918C0220918D0230918E020C
:1046D000602B712B822B932B1F910F910C94D32263
:1046E0000F931F9300918B0210918C0220918D02E9
:1046F00030918E0260237123822393231F910F91A7
:104700000C94D3220F931F9300918B0210918C0273
:1047100020918D0230918E02602771278227932786
:104720001F910F910C94D32208959295907F890F39
:10473000982F977041E001C0440F9A95EAF786954B
:104740008695869595E0899FF0011124E75AFD4FE3
:1047500030E020E070E05191DF011197CB01022E93
:1047600002C0969587950A94E2F781708195852716
:10477000842385278C932F5F3F4F2530310559F7D0
:1047800008959295907F890F982F977086958695BA
:10479000869525E0829FF0011124E75AFD4F50E0F5
:1047A00040E080E0219130E0092E02C03695279547
:1047B0000A94E2F721703327042E01C0220F0A94D5
:1047C000EAF7822B4F5F5F4F4530510559F7089547
:1047D000BF92CF92DF92EF92FF920F931F93CF93EE
:1047E000DF938C01C0908B02D0908C02E0908D0200
:1047F000F0908E0280918F0290919002A091910290
:10480000B0919202C82AD92AEA2AFB2ACFE1D0E045
:10481000BC2ED701C6010C2E04C0B695A79597955E
:1048200087950A94D2F780FD0EC0219788F7B12CA6
:104830008B2DDF91CF911F910F91FF90EF90DF9023
:10484000CF90BF900895B8018C2F0E9473090197F3
:1048500061F3EECFCF93DF93EC010E94E823BE011A
:10486000DF91CF910C9473091F93CF93DF93EB01EA
:1048700090912002992331F0CB01DF91CF911F91CC
:104880000C942A24882379F0CB010E94E823182F66
:10489000682FCE010E949523BE01812FDF91CF9119
:1048A0001F910C947309CB010E94C123182FF4CFE0
:1048B000682F80911701909118010C946A26682F37
:1048C00080911701909118010C9475268091170121
:1048D000909118010C94802680919302859585957E
:1048E0008595089580919302877008959091930221
:1048F000977081E009F480E008958091B7020895EF
:104900009091B702892B8093B7020895809590917A
:10491000B70298239093B70208951092B7020895B2
:104920009091B602892B8093B6020895809590915C
:10493000B60298239093B60208951092B602089595
:104940009091B502892B8093B5020895809590913E
:10495000B50298239093B50208951092B502089578
:1049600080919402089508950C94B3249091940238
:10497000981721F0809394020C94B42408958091A8
:104980009402882329F01092940280E00C94B424BD
:104990000895E0911701F09118018091B70280838A
:1049A000E0911701F091180180819091B602892B56
:1049B0008083E0911701F091180180819091B502F8
:1049C000892B808390919402992381F0E0911701C3
:1049D000F09118018081892B80838091170190913B
:1049E00018010E94D62581110E94BF2480911701D1
:1049F000909118010C942F1A08950C94FC2498E0BF
:104A0000899F90011124622B609393020E94F922E6
:104A1000809193028595859585950C94FD2410923F
:104A2000930280E00C94FD24909193028095892359
:104A300080939302282F277071F4282F082E000CE2
:104A4000330B9217130639F08595859585950E944D
:104A50001A230C940F2508956FEF7FEF90E080E00C
:104A60000C946C3690E080E00E94483621E08C3E49
:104A70009E4F09F020E0822F089582E090E00C9490
:104A80003A3683E090E00C943A36CF9384E090E09D
:104A90000E943A36C82F81E290E00E943A36982F61
:104AA0008C2FCF910895CF93C92F682F84E090E089
:104AB0000E944E366C2F81E290E0CF910C944E36DE
:104AC000AB01BC018FE090E00C946036AB01BC01FF
:104AD00083E190E00C94603660E070E0CB010C94D0
:104AE000662560E070E0CB010E9460250C946C2587
:104AF0006CEE7EEF90E080E00E946C3660E082E039
:104B000090E00E944E3660E083E090E00E944E36D6
:104B100010928F02109290021092910210929202C3
:104B200060E084E090E00E944E3660E081E290E038
:104B30000E944E3660E085E090E00E944E3660E0D4
:104B400086E090E00E944E366FEF87E090E00E9492
:104B50004E3640E050E0BA0188E090E00E946036B6
:104B600060E08DE090E00E944E3640E050E0BA01F7
:104B700088E190E00E94603660E087E190E00E946A
:104B80004E3640E050E0BA018CE190E00E94603681
:104B900060E080E290E00E944E360C9471250C9407
:104BA0007825682F8EE090E00C944E36FC0132960A
:104BB00080912B01882321F080911A039EE187FFC9
:104BC00096E080E0915008F4089521912223D1F3DA
:104BD0008F5FF8CF662301F120912B012223F1F0A2
:104BE00020911A0327FF1AC0462F469546954695F1
:104BF0004E3190F4677021E030E002C0220F331F85
:104C00006A95E2F7840F911DFC01828190E02823D0
:104C1000392381E0232B69F480E00895FC0132966A
:104C200008962191261721F0E817F907D1F7F4CF5C
:104C300081E008959C01FC0132969FEF80E0419154
:104C4000461751F09F3F19F4411101C0982F8F5F13
:104C50008630A9F79F3F09F40895290F311D97FD6C
:104C60003A95F90162830895FC01329608962191E4
:104C7000261303C0DF0111971C92E817F907B9F753
:104C80000895E62FE695E695E695EE3168F4E80F8F
:104C9000F92FF11D677021E030E001C0220F6A9505
:104CA000EAF78281822B82830895E62FE695E695C6
:104CB000E695EE3170F4E80FF92FF11D677021E0F1
:104CC00030E001C0220F6A95EAF7209582812823FF
:104CD0002283089520912B01222329F020911A0389
:104CE00027FD0C9441260C941A2620912B01222397
:104CF00029F020911A0327FD0C9455260C94342694
:104D0000FC01329680912B01882351F080911A0387
:104D100087FF06C08EE1DF011D928A95E9F70895AD
:104D200086E0F9CF089508950C9493260E94942666
:104D300080912003843009F439C01092B90288E1CF
:104D400090E020E40FB6F894A895809360000FBE21
:104D50002093600080E00E940A090E944213809123
:104D6000BA0281110AC081E08093BA028091FF02E9
:104D700081708093BB020E9475120E94942683B7B3
:104D8000817F846083BF83B7816083BF7894889577
:104D900083B78E7F83BF0FB6F894A895809160008B
:104DA000886180936000109260000FBE089508959E
:104DB000CF930E9492260E94DC0B0E94D726C0E06F
:104DC0008C2F0E94660B892B31F4CF5FC530C1F761
:104DD00080E0CF91089581E0FCCF08950C94ED26FA
:104DE0000E94FC1E0E94231A0E940A091092BA0215
:104DF0008091BB0281110E943A130E9487120C9489
:104E0000EE261F921FB61F9211248F939F93AF938C
:104E1000BF938091B902811113C0809116039091C4
:104E20001703A0911803B09119034196A11DB11D5C
:104E30008093160390931703A0931803B09319035C
:104E4000BF91AF919F918F911F901FBE1F9018959A
:104E500082E084BD93E095BD9AEF97BD80936E008C
:104E600008952FB7F8948091160390911703A0919D
:104E70001803B09119032FBF08952FB7F8946091CC
:104E800016037091170380911803909119032FBF97
:104E900008959C014FB7F8948091160390911703E1
:104EA000A0911803B09119034FBF821B930B089573
:104EB00078941F921FB61F9211248F939F93AF93E4
:104EC000BF938091160390911703A0911803B0919E
:104ED00019030196A11DB11D80931603909317032A
:104EE000A0931803B0931903BF91AF919F918F9135
:104EF0001F901FBE1F90189581E08093E00080E214
:104F00008093D8001092C9008FE19EE40197F1F7D9
:104F100000C0000087E090EBDC01809329039093B0
:104F20002A03A0932B03B0932C0388E19CE00FB6D7
:104F3000F894A895809360000FBE90936000FFCF17
:104F40000C94D7140E94DC0B8FE39CE90197F1F7D6
:104F500000C000000E94DC0B80E00E94660B80FF16
:104F600004C00E94A0270C947C2708950E9432253B
:104F7000811102C00E94CF250E943D258093B80276
:104F80000E94452590931B0380931A030E9441259C
:104F9000682F70E090E080E00E94972260918B0281
:104FA00070918C0280918D0290918E020C94D1228E
:104FB0008091C20280FF12C060911E0185E0689F4F
:104FC000B0011124759567957595679560387105E1
:104FD000A8F561157105A1F1862F089581FF09C01B
:104FE00060911E0185E0689FB00111247595679559
:104FF000EDCF60911E0182FD0AC08091C10288231D
:10500000D1F090911D0160911E01891728F085E073
:10501000689FB0011124DACF869FB001112485E08A
:10502000869F9001879F300D1124692F70E0C90180
:105030000E945D35CBCF65E070E0CECF8FE708955D
:1050400081E008958091C20280FF0CC060911A0136
:1050500070E075956795759567956115710549F1CE
:10506000862F089581FF06C060911A0170E0759542
:105070006795F3CF60911A0182FD0BC09091C00239
:105080009923A1F06091190180911A01961738F0C7
:10509000682F70E06038710500F38FE70895899FED
:1050A000C001112470E00E945D35F4CF61E070E032
:1050B000D7CF81E00895803F31F40E94D8278195B1
:1050C0008093C6020895813F19F40E94D827F8CF33
:1050D000823F31F40E94D82781958093C5020895BC
:1050E000833F19F40E94D827F8CF893F29F40E9402
:1050F00022288093C70208958A3F21F40E94222823
:105100008195F7CF8B3F31F40E94222881958093BF
:10511000C80208958C3F19F40E942228F8CF843FDA
:1051200031F48091C40281608093C4020895853F68
:1051300021F48091C4028260F7CF863F21F48091F0
:10514000C4028460F1CF873F21F48091C40288605B
:10515000EBCF883F21F48091C4028061E5CF8D3F81
:1051600031F48091C20281608093C20208958E3F23
:1051700021F48091C2028260F7CF8F3FB9F780910E
:10518000C2028460F1CF9091C502803F59F48091B2
:10519000C60287FF0DC01092C60291110BC010927B
:1051A000C10208C0813F81F48091C60218169CF3A9
:1051B000992381F08091C7029091C802892B09F050
:1051C00064C01092C0020895823F49F497FFF0CF67
:1051D0001092C5028091C6028111ECCFE0CF833FCF
:1051E00019F41916ACF3E4CF2091C702893F29F4D2
:1051F0001216F4F61092C702DBCF8A3F19F427FF8C
:10520000D7CFF8CF2091C8028B3F29F427FFD0CF0A
:105210001092C802CDCF8C3F19F41216CCF3C8CF30
:10522000843F31F48091C4028E7F8093C402C0CF4A
:10523000853F21F48091C4028D7FF7CF863F21F412
:105240008091C4028B7FF1CF873F21F48091C4020B
:10525000877FEBCF883F21F48091C4028F7EE5CF1A
:105260008D3F31F48091C2028E7F8093C202A0CF25
:105270008E3F21F48091C2028D7FF7CF8F3F09F0DE
:1052800097CF8091C2028B7FF0CF08950E94312783
:105290009C019091C5028091C602982B21F0309319
:1052A000BF022093BE029091C7028091C802982B42
:1052B00021F03093BD022093BC0283EC92E00C9469
:1052C000491AEF92FF920F931F93CF93DF9300D071
:1052D00000D000D0CDB7DEB786E0E3ECF2E0DE012F
:1052E000119601900D928A95E1F7E090C502F09039
:1052F000C6020091C7021091C8021092C502109216
:10530000C6021092C7021092C8028E2D8F2991F00A
:105310008091BE029091BF020E944927AC019091FA
:10532000C102992309F43FC080911F01841715061B
:1053300008F447C0802F812B91F08091BC0290919E
:10534000BD020E944927AC019091C002992309F443
:1053500077C080911B018417150608F47FC08091E7
:10536000C5029091C602892B9091C702892B90911A
:10537000C802892B11F00E94462986E0FE01319671
:10538000A3ECB2E001900D928A95E1F726960FB654
:10539000F894DEBF0FBECDBFDF91CF911F910F916B
:1053A000FF90EF900895209120018AE0289F9001BE
:1053B00011242417350708F0BDCF9F5F9093C102D9
:1053C00002C09F3FD1F7EE2059F00E94D8279FEFEF
:1053D0001E140CF491E0899F802D11248093C50246
:1053E000FF2059F00E94D8279FEF1F140CF491E082
:1053F000899F802D11248093C6023091C5023323EA
:1054000009F498CF2091C602222309F493CF45EBEB
:105410003403C0011124992359F09093C50245EB40
:10542000240390011124332339F03093C60282CF34
:1054300081E08093C502F3CF81E08093C6027ACFEA
:1054400020911C018AE0289F900111242417350720
:1054500008F085CF9F5F9093C00202C09F3FD1F7B5
:10546000002359F00E9422289FEF10160CF491E0BF
:10547000899F802D11248093C702112359F00E9427
:1054800022289FEF11160CF491E0899F802D1124A2
:105490008093C8023091C702332309F460CF209172
:1054A000C802222309F45BCF45EB3403C001112469
:1054B000992359F09093C70245EB240390011124DE
:1054C000332339F03093C8024ACF81E08093C7027A
:1054D000F3CF81E08093C80242CF86E0E3ECF2E0B4
:1054E000DF011D928A95E9F71092C1021092C00265
:1054F0001092C20208958091E9020895CF93DF933C
:1055000000D00F92CDB7DEB790912003943011F503
:1055100089837B836A839093E9008FEF9091E80001
:10552000815095FD06C095ED9A95F1F70000811127
:10553000F5CF8091E80085FF0DC050E040E063E0CA
:1055400070E0CE0101960E94062D8091E8008E77D2
:105550008093E8000F900F900F90DF91CF91089506
:10556000BC0184E00C947E2ABC0183E00C947E2A6A
:105570009C0184E08093E9009FEF8091E8009150C6
:1055800085FD06C085ED8A95F1F700009111F5CFF4
:105590008091E80085FF0CC050E040E066E070E0DC
:1055A000C9010E94062D8091E8008E778093E80063
:1055B0000895CF93DF93EC0180912B018823B1F103
:1055C00080911A0387FF32C060E284E08093E90093
:1055D0008FEF9091E800815095FD06C095ED9A956A
:1055E000F1F700008111F5CF8091E80085FF1BC025
:1055F00080912B0170E050E040E0811104C050E048
:1056000040E068E070E0CE010E94062D8091E80045
:105610008E778093E80080E2FE01A9ECB2E0019071
:105620000D928A95E1F7DF91CF91089568E081E0CE
:10563000CDCFCF93FC01603221F5809120038430DF
:1056400001F5C091E900CF702091EC00922F91708C
:1056500020FD90E8C92B82E08093E9008091E8006A
:1056600080FF0CC050E040E060E270E0CF010E949B
:10567000062D8091E8008E778093E800CF70C0936C
:10568000E900CF91089580911F03811109C00E9404
:10569000E52E0E94422F8091E20084608093E20018
:1056A000089510921F030895089508950C94F0260C
:1056B00042E061EC81E00E94612E42E261EC84E014
:1056C0000E94612E42E261EC82E00E94612E42E281
:1056D00060EC83E00C94612E80912203833009F406
:1056E00061C030F48130D1F1823009F49DC0089559
:1056F0008A3009F489C08B3009F46FC0893009F011
:1057000050C080912103813209F04BC08091250364
:1057100090912603009719F0029709F042C08091FA
:10572000E800877F8093E8008091E80082FF35C021
:105730009091F3008091F200029729F48091F1009A
:105740008B7F813021F48091F1008093E902809178
:10575000E8008B778093E8000C94952E80912103CC
:10576000813AF9F48091E800877F8093E800809186
:10577000250390912603892B61F460E289EC92E085
:1057800070E00E94A42D8091E8008B778093E80060
:10579000089560E090E080E0F3CF809120038111D4
:1057A000C3CF089580912103813AD9F780912503D1
:1057B00090912603892BA9F78091E800877F809339
:1057C000E8008091E80080FFFCCF80912B0180935E
:1057D000F1008091E8008E77BDCF80912103813266
:1057E00001F78091250390912603892BD1F68091B2
:1057F000E800877F8093E8000E94952E8091230324
:1058000080932B010C94FC1E80912103813249F678
:105810008091E800877F8093E8000E94952E809118
:1058200024038093EA02089580912103813A09F0CC
:10583000B8CF8091E800877F8093E8008091E800EE
:1058400080FFFCCF8091EA02C2CFCDB7DEB7A09730
:105850000FB6F894DEBF0FBECDBF84B7877F84BF7D
:105860000FB6F894A89580916000886180936000DD
:10587000109260000FBE80E890E00FB6F89480931D
:105880006100909361000FBE0E94911A0E94E52E64
:105890000E94422F8091E20084608093E20078941D
:1058A0000E94CB310E949B1A81E291E00E941E1A55
:1058B00013E080912003853039F10E94A71A80916E
:1058C00020038430B1F71093E9008091E80082FF53
:1058D000F0CF8091E80090E085FF09C050E040E003
:1058E00060E270E0CE0101960E94552D91E080911A
:1058F000E8008B778093E8009923D9F260E2CE012B
:1059000001960E948F15D5CF0E94962680911E0386
:10591000882379F20E94D826882359F20E94F02C1D
:10592000C8CF0C94932C292F33272330310521F134
:1059300068F42130310509F449C02230310509F4F9
:105940004AC090E080E030E020E029C021323105FB
:1059500081F122323105A9F76330710590F7FB011F
:10596000EE0FFF1FEF52FE4F2081318162537E4FB9
:10597000FB01808190E013C099278130910599F057
:10598000009741F08230910589F00397D1F6ECEA57
:10599000FCE002C0ECEDFCE0849190E09F01FA0194
:1059A000318320830895E2EDFCE0F6CFE2EBFCE0EA
:1059B000F3CF6330710528F6660F771FFB01E952BC
:1059C000FE4F2081318189E090E0E9CF82E190E0D3
:1059D0002BE33DE0E4CF8BE590E020EE3CE0DFCF31
:1059E00080E189BD82E189BD09B400FEFDCF8091CF
:1059F000D8008F7D8093D8008091E00082608093F2
:105A0000E0008091E00081FDFCCF0895AF92BF924D
:105A1000CF92DF92FF920F931F93CF93DF936C018E
:105A2000EB018A010E94B42EF82E811123C00115CA
:105A3000110539F0F80180819181C81BD90BC80E7E
:105A4000D91EB12CA12C2097A9F08091E80085FDEA
:105A500022C08091E8008E778093E800011511053F
:105A6000A1F0F80180819181A80EB91EB182A082B7
:105A700085E0F82E8F2DDF91CF911F910F91FF9030
:105A8000DF90CF90BF90AF9008950E94B42E8823EE
:105A9000D1F2F82EEFCFF60181916F018093F100E2
:105AA0002197FFEFAF1ABF0ACECFAF92BF92CF922E
:105AB000DF92FF920F931F93CF93DF936C01EB0163
:105AC0008A010E94B42EF82E811123C00115110500
:105AD00039F0F80180819181C81BD90BC80ED91EFD
