:100000000C9437080C946F080C946F080C946F08CC
:100010000C946F080C946F080C946F080C942D349A
:100020000C946F080C946F080C945F1E0C94A11D27
:100030000C946F080C946F080C946F080C946F0864
:100040000C946F080C946F080C946F080C946F0854
:100050000C946F080C94B42C0C946F080C946F08DB
:100060000C946F080C9432140C9459140C946F086F
:100070000C946F080C946F080C946F080C946F0824
:100080000C946F080C946F080C946F080C946F0814
:100090000C946F080C946F080C946F080C946F0804
:1000A0000C946F080C946F080C946F0848104B1058
:1000B0006D107A1081108C108F10C310E5107E1116
:1000C0007E11F010F210F510181137113A113D1190
:1000D0005F11501850188B188B18B718AF19AF193B
:1000E000AF19D318471958195819B91BE01B891DA6
:1000F000E01B891D2C1C4F1C891D441D541D00DA5A
:10010000028180D9F1DB20A4A62EAF00A0C000A1FF
:10011000C800AED580A81FD300408D1420007F3FBB
:100120001F643214643214783C1E0000000000008A
:100130000000FCFF7F000000000000000000000045
:10014000F8FF037986FFFFFFFFFF000000000000BB
:100150003C00FEFFFFFF0000000000000000FFFF6A
:10016000FFFFFF3F00000000000000000000000053
:100170000000FCFF7F000000000000000000000005
:10018000F8FF037986FFFFFFFFFF0000000000007B
:100190003CBBFFFFFF3F0F00000000000000FFFF1F
:1001A000FFFF0000F8FF3F000000808080404020FB
:1001B0002010080402040810102020404080803FD6
:1001C000C101010202040404040202010101804091
:1001D0008080403030010264180412C2CA2488F0C2
:1001E000808040404040202020201010101008083F
:1001F0000808040404040202020201010101E018DB
:1002000006018083834040404020212120101010AF
:100210001008080808040404040202020201010193
:10022000018080808040404040202020201010101D
:1002300010080F0808040404040204081010202009
:10024000404041422498C088888C9C1C1E0E0600A9
:10025000000000000000000000000000008080801E
:1002600040402020100804020408101020204040C4
:1002700080803FC1010102020484444442820101A2
:1002800001804080804030300102040408081020C2
:10029000408080808040404040202020201010106E
:1002A0001008080808040404040202020201010103
:1002B00001E01806010C0302181905FE8083834033
:1002C0004040402021212010101010080808080488
:1002D0000404040408304080800186986080808097
:1002E00080404040402020202010101010080F08AF
:1002F00008040404040202020201010101060F0FB6
:1003000007030361F0F8FC600101013C78F8F0702C
:100310008080804040202010080402040810102033
:1003200020404080803FC1010102020484444442D5
:100330008201010180408080403030010264180455
:1003400012C2CA2488F080804040404020202020F3
:100350001010101008080808040404040202020225
:1003600001010101E01806010C0302181905FE80C5
:1003700083834040404020212120101010100808A5
:100380000808040404040202020201010101808041
:100390008080404040402020202010101010080F86
:1003A0000808040404040202020201010101000021
:1003B000000000000000FCFF7F00000000000000C3
:1003C00000000000F8FF037986FFFFFFFFFF000039
:1003D000000000003CBBFFFFFFFF0000000000002A
:1003E0000000FFFFFFFF0000000000000000000011
:1003F000000000000080FFFF7F0000000000000000
:1004000000000000F8FF007986FFFFFFFFFF0000FB
:10041000000000003C00FEFFFF3F0F000000000056
:100420000000FFFFFFFF1F0000C0010000000000F0
:10043000000000000000FCFF0F00000000000000B2
:1004400000000000F8FF0348F6FFFFFFFFFF000079
:10045000000000003C00FEFFFF3F0F000000000016
:100460000000FFFFFFFF1F0000C0010000000000B0
:10047000000000000080FFFF7F000000000000007F
:1004800000000000FEFF007986FFFFFFFFFF000075
:10049000000000003C00FEFFFF3F0F0000000000D6
:1004A0000000FFFFFFFF1F0000C001000000808070
:1004B000404040202020202018040201020408109F
:1004C0002020404080803FC1010102020404040456
:1004D000020201804080804030300102040408089C
:1004E000102040808080804040404020202020100C
:1004F0001010100808080804040404020202020193
:10050000010101E018060180838340404040202122
:10051000212010101010080808080404040404081E
:1005200030408080018698608080808040404040DC
:100530002020202010101010080F080804040404C4
:1005400002040810102020404041422418010101FB
:1005500000008080808040402010080402040810C1
:10056000204080807E8202020404080808080404F7
:10057000020101808060600101020404080810107B
:10058000202040808080804040404020202020105B
:1005900010101008080808040404040202020201F2
:1005A000010101C0300C038086864040404021227A
:1005B000222011111010080808080404040404087B
:1005C000304080800186986080808080404040403C
:1005D0002020202010101010080F08080404040424
:1005E000020408101020204040414224180101015B
:1005F000000000000000808040404020202020209B
:100600001804020102040810202040408080060DDA
:1006100031C1010101020202040402020180408092
:10062000804030300102040408081020408080809F
:100630008040404040202020201010101008080862
:1006400008040404040202020201010101E0180688
:100650000180838340404040202121201010101051
:100660000808080804040404040830408080018657
:1006700098608080808040404040202020201010E2
:100680001010080F080804040404020408101020C5
:1006900020404041422418010101000000000000F8
:1006A000000000000000000000000000000000004A
:1006B00000000000000000000000000000007E0FAD
:1006C00000D4FFFFFFC7000000780000000000001A
:1006D00000002A2B2800000000000000000000009D
:1006E000000000000029000000002C1E3420212200
:1006F00024342627252E362D3738271E1F20212269
:10070000232425263333362E37381F0405060708E1
:10071000090A0B0C0D0E0F101112131415161718D1
:10072000191A1B1C1D2F3130232D3504050607080F
:10073000090A0B0C0D0E0F101112131415161718B1
:10074000191A1B1C1D2F3130354C05010980A101E0
:10075000850319012AB700150126B7009501751008
:100760008100C0050C0901A101850419012AA0021C
:10077000150126A002950175108100C00660FF09D1
:1007800061A1010962150026FF009520750881020C
:100790000963150026FF00952075089102C0050128
:1007A0000906A101050719E029E7150025019508AB
:1007B000750181029501750881010507190029FF5E
:1007C000150026FF00950675088100050819012906
:1007D00005950575019102950175039101C0090206
:1007E0005B00030100A0FA090400000103010100FD
:1007F00009211101000122400007058103080001C1
:100800000904010002030000000921110100012276
:1008100022000705820320000107050303200001D1
:100820000904020001030000000921110100012256
:1008300032000705840320000112010002000000BD
:1008400008616E63600100010200010A0353004E5B
:100850000041005000000012036E0075006C006C37
:1008600000620069007400730000000403090407BB
:10087000087F0807003E5B4F5B3E003E6B4F6B3EC0
:10088000001C3E7C3E1C00183C7E3C18001C577D22
:10089000571C001C5E7F5E1C0000183C180000FF07
:1008A000E7C3E7FF00001824180000FFE7DBE7FFBD
:1008B0000030483A060E00262979292600407F0597
:1008C000050700407F05253F005A3CE73C5A007F62
:1008D0003E1C1C0800081C1C3E7F0014227F2214B2
:1008E000005F5F005F5F0006097F017F000066898F
:1008F000956A0060606060600094A2FFA2940008A6
:10090000047E04080010207E20100008082A1C081D
:1009100000081C2A0808001E10101010000C1E0CE5
:100920001E0C0030383E383000060E3E0E06000029
:10093000000000000000005F00000000070007004A
:1009400000147F147F1400242A7F2A120023130826
:10095000646200364956205000000807030000007A
:100960001C224100000041221C00002A1C7F1C2A7E
:100970000008083E080800008070300000080808E1
:100980000808000000606000002010080402003E1B
:100990005149453E0000427F4000007249494946A6
:1009A000002141494D33001814127F10002745459E
:1009B0004539003C4A4949310041211109070036B7
:1009C0004949493600464949291E000000140000E3
:1009D00000004034000000000814224100141414E8
:1009E0001414000041221408000201590906003EB7
:1009F000415D594E007C1211127C007F49494936F5
:100A0000003E41414122007F4141413E007F494932
:100A10004941007F09090901003E41415173007FAE
:100A20000808087F0000417F4100002040413F014D
:100A3000007F08142241007F40404040007F021C9C
:100A4000027F007F0408107F003E4141413E007F4D
:100A500009090906003E4151215E007F0919294616
:100A60000026494949320003017F0103003F40400D
:100A7000403F001F2040201F003F4038403F0063A0
:100A800014081463000304780403006159494D43BA
:100A900000007F4141410002040810200000414154
:100AA000417F000402010204004040404040000039
:100AB00003070800002054547840007F284444383D
:100AC00000384444442800384444287F00385454B3
:100AD00054180000087E09020018A4A49C78007F26
:100AE000080404780000447D4000002040403D00A0
:100AF000007F102844000000417F4000007C047803
:100B00000478007C0804047800384444443800FC2D
:100B1000182424180018242418FC007C0804040855
:100B20000048545454240004043F4424003C4040F2
:100B3000207C001C2040201C003C4030403C0044F5
:100B400028102844004C9090907C004464544C44FD
:100B50000000083641000000007700000000413628
:100B60000800000201020402003C2623263C00008B
:100B70000000000000404040F0F8F8FF38FFF8F8AF
:100B80003FF8F8FF38FFF8F8F04040400000000060
:100B9000000080C0C0C0800000C0C0800000008095
:100BA000C0C000C0C0000080C0C00000000000C085
:100BB000C0C0C0C000C0C0000000000000000000B5
:100BC0000000000000000000000000000000000025
:100BD0000000000000000000000000000000000015
:100BE0000000000000000000000000000000C0F055
:100BF000F8FC3E1E06010000007F4141417F007F5E
:100C00004141417F000080C0E07E5B4F5BFEC00041
:100C100000C000DCD7DEDEDED7DC00C00000000054
:100C200000000000000000000000000000000000C4
:100C30000000000000494949FFFFFFFFE0DFBFBFA0
:100C400000BFBFDFE0FFFFFFFF4949490000000090
:100C5000001F3F6060E0BF1F007F7F071E381E0738
:100C60007F7F007F7F0E1F3B716000000000007FD0
:100C70007F0C0C0C007E7E007F7E0303007F7E03D2
:100C8000037E7E03037F7E000F3E703C063C703E79
:100C90000F00327B49493F7E007F7E0303001E3FE9
:100CA00069696F2600000000000000000000030FCB
:100CB0001F3F3C7870600000007F4141417F007F12
:100CC0004141417F00307B7F7830202030787F3B6E
:100CD0000003000F7F0F0F0F7F0F000300000000C5
:100CE0000000000000000000000000000000000004
:100CF0000000000000010101070F0F7F0F7F0F0FA1
:100D00007E0F0F7F0F7F0F0F070101010000000012
:100D100000000000000001010000000000000000D1
:100D200000000000000000000000000000000000C3
:100D300000000000000000000000000000000000B3
:100D400000000000000000000000000000000000A3
:100D50000000000000000000000000000000000093
:100D60000000000000000000000000000000000083
:100D70000000000000000000000000000000000073
:100D80000000000000000000000000000000000063
:100D90000000000000000000000000000000000053
:100DA0000000000000000000000000000000000043
:100DB000AF00AE000029003A003B003C003D003E81
:100DC000003F00BD00C25C35001E001F0020002156
:100DD0000022002300BE0000002B0014001A0008AF
:100DE0000015000000170000006A0039000400161A
:100DF000000700090000000A000000C35CE10032A7
:100E0000001D001B000600190005000000C45CE086
:100E100000E300E2000000015100002C000000404F
:100E2000004100420043004400450046004C00A938
:100E30000024002500260027002D002E002A004C4B
:100E400000AA001C0018000C00120013002F003034
:100E500000A800AE000B000D000E000F00330034A0
:100E60000028003100000011001000360037003863
:100E700000E50052004B0000002C000151E600E4A8
:100E800000500051004F004E000000000000000024
:100E90000000000000000000000000C95C0000002D
:100EA00000000000000000000000000000CA5C001C
:100EB0000000000000000000000000000000000032
:100EC0000000000000000000000000000000000022
:100ED0000000000000000000000000000000000012
:100EE0000000000000000000000000000000000002
:100EF00000000000000000000000000000000000F2
:100F000000000000000000C55C00000000000000C0
:100F1000000000000000000000C65C0000000000AF
:100F200000000000000000000000000000000000C1
:100F300000000000000000000000000000000000B1
:100F400000000000000000000000000000000000A1
:100F50000000000000000000000000000000000091
:100F60000000000001010101010101010102020272
:100F70000202020202020303030303030303040445
:100F8000040404040405050505050606060606070F
:100F90000707070708080808090909090A0A0A0BC8
:100FA0000B0B0C0C0C0D0D0D0E0E0E0F0F0F101069
:100FB00011111112121313141415151616171718F0
:100FC0001819191A1A1B1B1C1D1D1E1E1F2020215B
:100FD0002222232424252626272829292A2B2C2DA2
:100FE0002D2E2F30313232333435363738393A3BC3
:100FF0003C3D3E3F404142434445464748494A4CB8
:101000004D4E4F50515354555658595A5B5D5E5F83
:10101000616264656668696B6C6D6F707273757719
:10102000787A7B7D7E8082838587888A8C8E8F917B
:10103000939596989A9C9EA0A2A3A5A7A9ABADAFA5
:10104000B1B3B5B7BABCBEC0C2C4C6C9CBCDCFD18F
:10105000D4D6D8DBDDDFE2E4E7E9EBEEF0F3F5F838
:10106000FAFDFF0809000102060703040500112428
:101070001FBECFEFDAE0DEBFCDBF04B603FE18C05F
:101080008091D8079091D907A091DA07B091DB073A
:101090008730904BA740B04B59F41092D80710926C
:1010A000D9071092DA071092DB07E0E0F8E3099520
:1010B00012E0A0E0B1E0EAE5FDE602C005900D9285
:1010C000A030B107D9F727E0A0E0B2E001C01D923F
:1010D000A83DB207E1F70E9471080C94AB360C945E
:1010E0000000A2E3B0E0E7E7F8E00C94623585B7D2
:1010F000806885BF85B7806885BF84B7877F84BFD8
:101100000FB6F894A8958091600088618093600084
:10111000109260000FBE90E080E80FB6F8948093C4
:101120006100909361000FBE83E99FE190930102FB
:10113000809300020E94E51D0E94041E8091E2003F
:1011400084608093E2007894809173048823A1F0F6
:101150001091E9001F709091EC00892F817090FD33
:1011600080E8182B1092E9008091E80083FD0E942E
:10117000D41A1F701093E90082E084BD93E095BDFE
:101180009AEF97BD80936E000E94042F811102C0D8
:101190000E94F42E0E94D621809323018091230186
:1011A000882321F010927D0185E003C085E08093C3
:1011B0007D0180937E010E94B32181110E94E8335A
:1011C00080912301882311F090E001C096E0909374
:1011D0001F0286E0891B80931E02809123018111EA
:1011E0000CC084E191E090932101809320018FE075
:1011F00091E0909313018093120180E090E061E010
:1012000070E0E0911201F0911301E80FF91F2081C5
:10121000E22FE295EF70F0E041A12F70DB0102C0F8
:10122000AA0FBB1F2A95E2F79D01242B21A301964B
:101230008330910531F780E090E061E070E0E0916B
:101240001201F0911301E80FF91F2081E22FE295BE
:10125000EF70F0E032A12F70AB0101C0440F2A956E
:10126000EAF7242F2095232322A3019683309105AA
:1012700031F780E090E041E050E0E0912001F09112
:101280002101E80FF91F2081A22FA295AF70B0E0D5
:1012900091963C9191972F70BA0101C0660F2A95E3
:1012A000EAF7262F2095232391962C932081E22F75
:1012B000E295EF70F0E062A12F70DA0102C0AA0F90
:1012C000BB1F2A95E2F79D01262B22A301968630AB
:1012D000910599F680912301811102C026982E9ADA
:1012E000E6E0F2E0ACE4B3E0119211921D921D929F
:1012F00022E0EE31F207C1F780E00E948114F894F9
:1013000089E18093CC0082E08093C80088E98093D3
:10131000C90086E08093CA00109205021092040270
:10132000109203021092020278948091D80080619A
:101330008093D80035E33A95F1F700008091D90009
:101340008170809322010E945D26811102C00E945B
:10135000692682E090E00E94A2358093B60284E084
:1013600090E00E94A235182F82E290E00E94A23500
:10137000212F30E0382B30932102209320020E944D
:10138000C6234FEF69EF70E0415060407040E1F7D5
:1013900000C000000E94C62380914C0380FF08C05B
:1013A0006FEF7FEF80E090E00E94D4350E94902C98
:1013B00083E090E00E94A2350E94CD290E94A42ED5
:1013C0000E94B321811106C00E94D62181111FC045
:1013D00082E01EC010921E0310921D0310921C0387
:1013E0008FEF8093B202EAE6F2E0A2E2B2E011925D
:1013F0001D9282E0E23BF807D1F714E241E06FE191
:10140000812F0E94422E1F5F1C36C1F7DDCF80E086
:101410008093470380E880937D040E949B326DE0B7
:1014200070E081E191E00E94771A892B89F5809123
:10143000470363E070E081FD28C08EE091E00E94E8
:10144000771A892B29F56DE070E08EEF90E00E940D
:10145000771A892BE9F40E94052DDC01CB01805D10
:101460009A48AF4FBF4F8093BF079093C007A09398
:10147000C107B093C2070E94A42E81E08093C407E5
:101480008093C3071092480303C08BE091E0D7CF4D
:101490008091B302811138C00E945D26811104C081
:1014A0000E9469260E942B3088E090E00E94AA35B5
:1014B0006093BA077093BB078093BC079093BD07F6
:1014C000809199078360809399076E7F71F40E94E1
:1014D0002B3088E090E00E94AA356093BA077093A1
:1014E000BB078093BC079093BD070E94E12F0E9429
:1014F000382F8091BA0780FF04C060E086950E9473
:101500009D3181E08093B3029091230181E098277F
:1015100090931303A82FA91BA093B50290912301C8
:1015200080931403909123018093B402809123014E
:10153000811106C084E38093320185E380933101F9
:1015400080913201E82FE295EF70F0E041A1282F61
:101550002F7081E090E0BC0102C0660F771F2A95D2
:10156000E2F79B01362F3095342331A332A1232B90
:1015700022A320913101E22FE295EF70F0E031A13A
:101580002F7001C0880F2A95EAF7982F9095932322
:1015900091A392A1892B82A38FE891E00197F1F7A3
:1015A00000C0000070911403A5E1B3E002E311E074
:1015B00041E351E060E0671751F1F80121918F019B
:1015C000822F82958F7090E0FC0180A190E02F70B7
:1015D00002C0959587952A95E2F78170FA0191915D
:1015E000AF01292F22952F7030E0F90120A130E0C2
:1015F0009F7002C0359527959A95E2F720FF02C0AB
:1016000092E001C090E0892B8D936F5FD4CF0E9450
:10161000B321811102C00E94EB3384E291E09093E8
:10162000C8078093C70722242394312C6AE7862EAB
:101630009E012F5F3F4F590180917304853041F522
:1016400000E112E1809173048530D1F4809173043C
:10165000843021F00E94022E0E9422228091720486
:10166000882381F30E94C623ECE4F3E081919191F9
:10167000892B09F06BC633E0E436F307B9F7E2CF04
:10168000109266040E94D2290E94492D0E948E1455
:101690000E94C623982E81110E94052DE7EBF2E0EF
:1016A000ACE4B3E000E010E0602F2D913D9181911A
:1016B000919182279327009779F170E0EE24E394CB
:1016C000F12CAC014E215F21452B09F179A36AA3CE
:1016D0002E213F2181E0232B09F480E08BA30E947F
:1016E000112D8160782F9DA38CA349A15AA16BA1D4
:1016F0008DA10E94EF11000F111FF801E954FD4F59
:1017000080819181E826F926F182E0821AC07F5F0C
:10171000EE0CFF1C7930A9F60F5F1F4F0C3011053E
:1017200019F68FEF8EA38FA318A60E94112D81604A
:10173000782F9AA789A74EA15FA168A58AA50E94C4
:10174000EF110E94B321882309F4D0C0C090DA02BF
:10175000D090DB020D2C000CEE08FF081091300138
:10176000412F50E0ECEDF2E081E090E0481759079E
:1017700064F0219131912901330F66087708C40C78
:10178000D51CE61CF71C0196F1CFF7FE03C0C12C57
:10179000D12C76016091D6027091D7028091D80247
:1017A0009091D9020E94DA2C6BA77CA78DA79EA7E7
:1017B000A0E6BAEEA70196010E9466362B013C0115
:1017C00088EC189F90011124C901330FAA0BBB0BA1
:1017D0002BA53CA54DA55EA5280F391F4A1F5B1FF1
:1017E000A5E0B0E00E9466369B01AC01C301B201E6
:1017F0000E94183629013A0157FD0BC0213F3105DF
:10180000410551054CF0A0EF4A2E512C612C712C52
:1018100003C0412C512C32016BA57CA58DA59EA542
:10182000693C71058105910514F18091D50290E024
:10183000019669E170E00E9404368093D502880F1A
:10184000991FFC01E652FD4F11821082183110F4ED
:101850001F5F01C018E1109330010E94052D6093B5
:10186000D6027093D7028093D8029093D90272E087
:10187000C716D104E104F1041CF4412C512C3201AF
:101880006091D1027091D2028091D3029091D402E2
:101890000E94DA2C6B017C0185E6C816D104E104B4
:1018A000F10484F00E94052D6093D1027093D2025E
:1018B0008093D3029093D40280911F038093D0022F
:1018C0004092CF021091D002A091CF02B0E0A11BB4
:1018D000B109A70196010E94713624E630E040E08C
:1018E00050E00E943A36120F10931F038091980720
:1018F000882309F493C080919707E091BA07E69591
:10190000E81BE093D407823059F4F0E0E95DFE4F24
:10191000E4910E2F10E0EBEBEE2EEBE2FE2E2FC04B
:10192000853061F4E695F0E0EC5DFE4FE4910E2F1A
:1019300010E071E8E72E7BE2F72E21C08B3061F4D6
:10194000E695F0E0EF5DFE4FE4910E2F10E065EFBD
:10195000E62E6AE2F62E13C0813159F4F0E0E25E21
:10196000FE4FE4910E2F10E05FE6E52E5AE2F52ED1
:1019700006C000ED17E04AE0E42E4AE2F42E809122
:10198000D507882361F01092D5070E94112D9093FE
:10199000D3078093D2071092D7071092D6070E94E0
:1019A000112DE091D207F091D3079C012E1B3F0B24
:1019B0002F3F3F4798F520910E032223B1F010925C
:1019C0000E0320910C0330910D03821B930B8F3F6C
:1019D0009F4758F4205D3A4830930D0320930C0341
:1019E00080919907886080939907C090D607D0901E
:1019F000D7070E0F1F1F1093D3070093D20782ED56
:101A000097E0F70109958091D6079091D707892B28
:101A100029F4CD2819F081E080930E03D12CF12C0C
:101A200080911403D81608F08AC00D2D10E0F8013B
:101A3000EE5CFE4F8081E82FE295EF70F0E0E0A1D0
:101A4000F0E08F7002C0F595E7958A95E2F7E170B6
:101A5000D801AF5CBE4F2C91A22FA295AF70B0E021
:101A600090968C9190E02F7002C0959587952A955D
:101A7000E2F780FF02C082E001C080E04E2F482BD9
:101A8000D801AB5EBC4FEC918E2F837090E0242F79
:101A9000042E000C330B8217930709F44EC0EE0F8F
:101AA000EE0FE42BEC93E0901303ED0CEF70F0E0FD
:101AB000EF56FE4F0F5E1C4F9081D8018C91890F1D
:101AC0008C938430ACF08E2D90E0FC01E15FFC4FF4
:101AD00020812F5F2083880F991F880F991FFC0199
:101AE000E757FE4F828193810E949B1421E001C041
:101AF00020E0F80180818D3FA4F48E2D90E0FC0160
:101B0000E15FFC4F208121502083880F991F880FAF
:101B1000991FFC01E757FE4F808191810E949B1421
:101B200021E0D8018C91082E000C990B64E070E044
:101B30000E940436F8018083F22AD39471CFF11009
:101B40000E945A268091C407882309F449C28091D3
:101B5000490390914A030E94F62C883C910508F4B1
:101B60003AC10E94112D90934A038093490380E06B
:101B70000E94C21A0E94D621882309F4ABC080912A
:101B80001E0381112EC00E9436130E94CB1280E0EA
:101B900090E00E94AA131FE10FE1D02E8FE0C82E23
:101BA0008D2D811B6C2D0E94EA35911108C041E0FA
:101BB000612F85E70E94422EB3E0EB2E02C0A2E027
:101BC000EA2E00E041E0612F882D801B0E94422E0A
:101BD0000F5F0E11F7CF13501E3F11F781E0809376
:101BE0001E0340901F0380E00E94C21A85E891E026
:101BF0000E94AA1A81E00E94C21A80913301481201
:101C000005C080911B03803309F449C04092330121
:101C100080E380931B03512C612C712C10921A03CA
:101C2000C301B2012AE030E040E050E00E941836E3
:101C3000605D603329F0411451046104710409F4BA
:101C400060E360931903C301B2012AE030E040E091
:101C500050E00E941836211531054105510551F01B
:101C6000CA01B9012AE030E040E050E00E94183695
:101C7000605D01C060E360931803C301B20124E614
:101C800030E040E050E00E94183621153105410552
:101C9000510511F0205D01C020E32093170387E177
:101CA00093E00E94AA1A80911C0390911D030E9448
:101CB000F62C8D32914008F48EC080911F030E9453
:101CC00036130E94CB120E94112D90931D03809316
:101CD0001C0381C06091230370912403809125032C
:101CE000909126030E94DA2C20913401022F10E0FB
:101CF00020E030E0061717072807390708F05BC017
:101D00000E94052D60932303709324038093250381
:101D10009093260380E00E94C21A809122038130B2
:101D200009F443C0F8F0823009F045C080912003E7
:101D300090E001968170992780932003B101681B80
:101D4000790BCB0123EB289FB001299F700D112443
:101D500066557E4FE6E0880F991FEA95E1F7865DAC
:101D60009E4F27C08091210390E0019663E070E0D0
:101D70000E940436809321039101281B390BC9016D
:101D800037FF03C091958195910924EA289FB001FE
:101D9000299F700D112462557B4FF6E0880F991F23
:101DA000FA95E1F782519C4F04C060E173E08EEA3E
:101DB00093E00E948E1280911F03823020F41092D3
:101DC00022038FEFF1C28E3108F0EAC281E08093E6
:101DD00022030E94052D8091C407882309F4E5C0E1
:101DE00020917E0430917F042115310509F4DDC076
:101DF000809148038111D9C0082F10E03101082ECD
:101E000002C0660C771C0A94E2F7A901462157210B
:101E1000452B11F48F5FF0CF90914703980165E057
:101E2000220F331F6A95E1F790FD12C08295880F4B
:101E3000807680933701220F232F221F330B319599
:101E400020933A01815E8093380110923B0112C0C9
:101E500045E0369527954A95E1F7220F220F220F8C
:101E60002093370110923A01295F2093380183E0D3
:101E700080933B0124E630E047E050E065E371E009
:101E800088E70E944633892B09F08FC08091470371
:101E900080FD22C0A80125E0440F551F2A95E1F7D7
:101EA00040585B4F04E610E020E230E060E488E751
:101EB0000E946733892B09F078C00E941C2E609421
:101EC000709480917E0490917F04682279227092B0
:101ED0007F0460927E0469C080E2E7E2F3E0DF0104
:101EE0001D928A95E9F7680195E0CC0CDD1C9A9566
:101EF000E1F7E5EAF1E0FAABE9AB21EA31E03CA732
:101F00002BA7A9A9BAA90D91BAABA9ABEBA5FCA5C2
:101F10008191FCA7EBA79601280F311DB9016058EC
:101F20007B4F78AB6FA710E0095D1C4FF80197E07D
:101F30009F01201B310B322D01C0330F2A95EAF788
:101F40004FA458A820E0D2018D912D018323692F41
:101F5000621B6770462F062E000C550BB82F01C070
:101F6000BB0F6A95EAF76B2F519541955109477060
:101F7000552701C086954A95EAF7682B8081682B22
:101F800060832F5F2830F9F6915031969F3F81F69C
:101F9000E9A9FAA9E95AF14009F0B3CF04E610E043
:101FA00020E230E047E253E081CF8091C3078823ED
:101FB000B9F00E94052D0091BF071091C007209134
:101FC000C1073091C207DC01CB01801B910BA20B32
:101FD000B30B8F3F9F4FAF4FBF4710F40E94022EAD
:101FE000911001C0F1100E941C2E0E94492D909169
:101FF0004B03891721F080934B030E948E1480912C
:102000007304843009F018CB83E08093E900809159
:10201000E80082FF11CB8091E80085FF23C00E9479
:10202000361F81111DC080E2E82EF12C8E010F5F5A
:102030001F4F09C08091F100D8018D938D01B1E04F
:10204000EB1AF10869F08091E80085FDF3CF8091EB
:10205000E8008B778093E8000E94361F882399F36D
:1020600091E001C090E08091E8008B778093E800D8
:10207000992309F4E1CAE9818E2F90E0FC013197A0
:10208000E331F10508F03AC1EA5AFF4F0C94593692
:102090001A8289E098C08A81823009F478C183303D
:1020A00051F0813009F02AC10E94052D9B838C8359
:1020B0007D836E8325C1FE013196CE014996ACE445
:1020C000B3E02C9111963C911197129632832383A1
:1020D0003296E817F907A9F713C18A81823009F00F
:1020E0000DC16B817C818D819E810E945F360E9433
:1020F000D02E06C14C816B818A810E94C62D9D83A2
:102100004DC12D813E813227232732274C816B819F
:102110008A810E946A2DF4C00E94912DF1C08A81AB
:102120008138B1F050F4803809F0EAC020E04B81EA
:102130006091BC078091BB0723C08238E9F08338E7
:1021400009F0DEC020E04091BD076C818B8118C092
:1021500060E08B810E949D318B81811103C00E94C0
:102160008531CEC08091BA0781608093BA0760E064
:1021700086950E949D31C4C08B818093BE07C0C0EC
:102180000E94CF30BDC08A81813899F030F4803808
:1021900009F0B6C08091BD0716C0823891F083382F
:1021A00009F0AEC08091BB078B838091BC078C8304
:1021B000A7C08091BA0780FF02C0869504C080E066
:1021C00002C08091BE078B839BC06091BA0770915B
:1021D000BB078091BC079091BD070E94F42F90C06F
:1021E00080E149C01A8289E7EECF0A811B8110275E
:1021F00001271027CC80D12C7501C80189579C4F2D
:1022000097012A193B092C153D0508F079C00937BB
:10221000110528F40E94A235F701848303C0D70179
:1022200014961C920F5F1F4FBFEFEB1AFB0AE5CF0E
:102230000A811B81102701271027CC80D12C750122
:10224000C80189579C4F97012A193B092C153D0558
:1022500008F056C00937110520F4F70164810E9487
:10226000B6350F5F1F4FFFEFEF1AFF0AE9CF0E944D
:102270005A2D46C084E08A8343C00A811B811027FF
:1022800001271027CC80D12C7501C80187969701B2
:102290002A193B092C153D0598F5003623E0120755
:1022A00030F40E94A235D70114968C9302C0F70136
:1022B00014820F5F1F4FFFEFEF1AFF0AE6CF0A816C
:1022C0001B81102701271027CC80D12C7501C80154
:1022D000879697012A193B092C153D0588F400368D
:1022E00023E0120728F4D70114966C910E94B635AA
:1022F0000F5F1F4FBFEFEB1AFB0AE9CF8FEF898308
:1023000080917304843009F097C91091E9001F701F
:102310009091EC00892F817090FD80E8182B82E06D
:102320008093E9008091E80080FF0CC040E050E01D
:1023300060E270E0C5010E94691F8091E8008E771D
:102340008093E8001F701093E90076C909BD19BD9C
:1023500009B400FEFDCF8091D8008F7D8093D80016
:102360008091E00082608093E0008091E00081FD38
:10237000FCCF109266040E94D2294FEF64E37CE008
:10238000415060407040E1F700C000005BC986E248
:1023900090E00E94A2351B821C821D828E83B0CFEA
:1023A00082E0809322038BE48093340114CD109259
:1023B00066040E94D2292FEF84E39CE021508040E4
:1023C0009040E1F700C000009CE088E10FB6F8946F
:1023D000A895809360000FBE90936000FFCFA7E1A7
:1023E000B0E0E5EFF1E10C9471354B8B5C8B6D8BBC
:1023F0007E8B8F8B61111092950786E09E01235F83
:102400003F4FD901E82F1D92EA95E9F795E0FE01CB
:102410007396D90101900D929A95E1F79C894E89A6
:102420005F897B897D879E876F87598B488BF901F0
:10243000DE01179601900D928A95E1F7CE0107967D
:102440000E94D72781113EC086E0FE013796DE014B
:10245000119601900D928A95E1F7FF81E8856A85D2
:102460007B856115710531F0EF3F31F481E0FF3F6D
:1024700019F403C081E001C080E080FD23C02091F9
:102480005B0730E0C90101968770992740918C075E
:1024900050E08417950779F1F983EA837D836C8393
:1024A00096E0929FD001939FB00D1124A45AB84F8B
:1024B000FE01319601900D929A95E1F780935B07AA
:1024C0000E94082716E080918C0790915B0789177E
:1024D00009F1189FC0011124845A984F0E94D727F0
:1024E0008823C1F080918C0790E00196877099272E
:1024F00080938C07E8CF109266040E94D229109234
:102500005B0710928C07E5E5F7E086E0DF011D929E
:102510008A95E9F76796E3E00C948D35A0E0B0E08A
:10252000E4E9F2E10C9468357C016B01C0E0D0E095
:1025300000E010E0AA24A394B12CFE0183E0F695FC
:10254000E7958A95E1F7EE0DFF1DE4918C2F8770DA
:10255000950102C0220F331F8A95E2F7E22369F04A
:1025600048013FEF831A930AF601E00FF11F8491AF
:10257000BE010E94802E840104C0BE0180E00E9442
:10258000802E2196C11582E0D807B9F6CDB7DEB707
:10259000ECE00C948435A0E0B0E0E1EDF2E10C94C5
:1025A0006D3590911E038091690291111FC01FE14A
:1025B000181B85E0E82EF12CC0E091E7D92EDC2F26
:1025C0000D2D0C1B8D2F90E08E159F0544F4612F6F
:1025D0006D1B41E0802F0E94422EDF5FF3CFCF5F63
:1025E00081E0E81AF108C33051F73BC090916802CE
:1025F000282F291B1216D4F41FE1191B153088F15E
:10260000DAE1D91BC0E001E7F02EFC1A612F6C1B48
:1026100040E08F2D0E94422E41E06D2F8F2D0E94B1
:10262000422ECF5FDF5FC33079F71BC02223C9F092
:102630001FE1181B1530A8F0DAE1D81BC0E001E754
:10264000F02EFC1A40E06D2F8F2D0E94422E612F3C
:102650006C1B41E08F2D0E94422ECF5FDF5FC330A5
:1026600079F7CDB7DEB7E7E00C948935A0E0B0E0AC
:10267000ECE3F3E10C946C35082F80911E03882362
:1026800051F08AE6C82E82E0D82EC2E2D2E014E2EF
:102690009FE1E92E24C0C4E241E06FE18C2F0E944B
:1026A000422ECF5FCC36C1F750C08881F980F81A2E
:1026B000F7FE06C06E2D681B40E0812F0E94422E5F
:1026C000F601818181936F0189818993FF2031F027
:1026D0006E2D681B41E0812F0E94422E1F5F9E01DC
:1026E000225232401B3609F7C90186599D4F7C01A1
:1026F000FC019081E901CE5DDD4F901740F48881A7
:10270000282F30E02F31310514F48F5F10C00917E6
:1027100010F001110DC08881882351F088816FE18C
:10272000681B40E08BE60E94422E8881815088839E
:10273000F7010083888121979881891731F06FE133
:10274000681B41E08BE60E94422ECDB7DEB7E8E081
:102750000C948835EF92FF920F931F93CF93DF93E2
:102760007C0180911E0381111DC0C1E041E062E146
:102770008C2F0E94422E41E06FE18C2F0E94422E4E
:10278000CF5FC13299F7C3E141E06C2F80E00E9436
:10279000422E41E06C2F81E20E94422ECF5FCF316A
:1027A00099F723C0F7012181822F66E00E94EA3564
:1027B0008081263008F0885F990F880F11E0180F8C
:1027C000C3E0C80F03E1090FD4E1D90FF70142813B
:1027D000602F812F0E94422EF70142816D2F812FA1
:1027E0000E94422E1F5FC113F1CFCDB7DEB7E6E0E6
:1027F0000C948A35CF93DF93EC010E94D621882375
:1028000071F1CE010E94AA138A81882341F180913F
:10281000B202082E000C990B01966FE170E00E9445
:1028200004368093B202892B69F4DCE7C0E040E013
:102830006C2F8D2F0E94422ECF5FCF31C1F7DF5F0B
:10284000DF37A1F7CCE7DFE18091B2026D2F681B83
:1028500041E08C2F0E94422ECF5FCF37A9F7DF9146
:10286000CF9108951F920F920FB60F9211242F93BC
:102870008F939F93EF93FF939091CE0080910202EC
:102880008F5F803408F080E020910302821739F0D6
:10289000E82FF0E0E557F94F908380930202FF9113
:1028A000EF919F918F912F910F900FBE0F901F90DE
:1028B00018951F920F920FB60F9211248F939F932A
:1028C000EF93FF939091040280910502981304C046
:1028D00088E98093C9000CC0809105028F5FE82FC2
:1028E000F0E0EC59FC4F90819093CE00809305026C
:1028F000FF91EF919F918F910F900FBE0F901F90BE
:102900001895813031F038F0823039F4809A889A05
:102910000895809801C0809A88980895CF9381FB8C
:10292000CC27C0F90E94B321882319F08C2F0E9474
:102930008114CF910895AAE0B0E0E1EAF4E10C94AB
:102940007035182F092F9E838F8381E088870E941E
:10295000112D8160782F9A8789874E815F816885E4
:102960008A850E94EF1109831A831B820E94112D10
:102970008160782F9D838C8349815A816B818D8101
:102980000E94EF112A96E4E00C948C35A9E0B0E0A7
:10299000ECECF4E10C946535FC018081918123819C
:1029A0003481232B31F09F3F31F491E08F3F19F4B4
:1029B00003C091E001C090E090FDE9C47F0185E093
:1029C000DE01119601900D928A95E1F7F7012281BF
:1029D00089819A81222349F00E947B27182F682F32
:1029E00089819A810E947A2903C00E944629182F62
:1029F00069817A81812F0E94F42D8C01F7018281F7
:102A0000882399F1C80190568115F0E29F0748F09C
:102A1000905E811520E1920720F0915C81159F4125
:102A200018F4C801992708C00F3F110509F010F4E8
:102A3000C80102C080E090E09C012450310924329A
:102A4000310518F08B970E9780F4E091D502F0E0F5
:102A5000EE0FFF1FE652FD4F808191818F3F4FE7C0
:102A6000940719F0019691838083F701928199234D
:102A700009F47EC4980122513F452031310508F008
:102A80000BC18FEF93E00E94A235811180C40251E7
:102A900077E8A72E73E0B72E002379F0A114F4E0B5
:102AA000BF0609F474C4C5010E94A235811101C09A
:102AB00001502FEFA21AB20AEFCF1E821F82188692
:102AC0001986662463946AE0562E85010F5F1F4FB6
:102AD000C5010E94A2358E831F82882309F457C442
:102AE0009FEF980F933060F48F836E8232E0A30ED5
:102AF000B11CC8010E94A2358887811102C047C459
:102B000058018E010A5F1F4FF80120812223E9F24C
:102B1000213009F053C08181813081F47801F2E0E5
:102B2000EF0EF11CF8018281893319F460E570E041
:102B300002C060E070E00E94F1290AC0823051F4C6
:102B40007801F2E0EF0EF11CF80182810E942C3234
:102B5000870190C0833049F47801F2E0EF0EF11C58
:102B6000F80182810E94F231F3CF843019F00F5FB7
:102B70001F4F80C0F80122810E5F1F4F80E090E060
:102B800030E0205331092A30310568F4589EA00105
:102B9000599E500D1124C901840F951F0F5F1F4FBF
:102BA000F8012081EDCF009709F464C0EFE9FFE060
:102BB0003197F1F700C000000197F5CFE22FF0E068
:102BC000E653F94F7490822F86958695869590E00E
:102BD000FC01E654F94FE4902770F12C022E02C05C
:102BE000F594E7940A94E2F7F1E0EF22FF24FC0168
:102BF000E655F94FC490D12C022E02C0D594C7944B
:102C00000A94E2F731E0C322DD24FC01E656F94FD5
:102C10008490912C02C0959487942A95E2F741E024
:102C200084229924E114F10419F081EE0E942C32DF
:102C3000C114D10441F186EE0E942C3289E378164A
:102C4000E1F060E070E0872D0E94F129C114D10409
:102C500019F086EE0E94F231E114F10419F081EED0
:102C60000E94F2318114910429F060E070E08CE25E
:102C70000E94F1290F5F1F4F47CF60E570E089E3A5
:102C80000E94F129E6CFF9E37F12DBCF60E570E027
:102C900089E30E94F129E0CF00312FE5120711F4FA
:102CA00081E005C001313FE5130731F482E00E9465
:102CB000C1290E949E1A6BC38091220181110AC012
:102CC0009801215031092E3F3105C8F00F3EEFEF3A
:102CD0001E07A8F4C7010E94FA13F7018281003889
:102CE000FFE51F0709F450C001382FE5120709F46A
:102CF00092C001153CE5130709F0A6C035C089E66E
:102D00008093CB060093CC06212F33272093CD064A
:102D10009093CE06892F90E087599F4F820F931F83
:102D2000800F911D8093CF06EBECF6E098EB21919C
:102D3000809104028F5F30910502831303C00FB6A8
:102D400007FE0DC0309105028317E1F3A82FB0E014
:102D5000AC59BC4F2C93809304029093C90046E079
:102D6000E03DF40721F7B6CF882309F410C30E9491
:102D7000B321882309F40BC381E00E9481140E94CF
:102D800085310E94022E80C0882309F45DC060E076
:102D900070E082E70E94F1298091BA0780FF54C059
:102DA00090916404992341F081608093BA0760E0B8
:102DB00086950E949D3128C00E94382F8091BA07C5
:102DC00080FF22C09E012A5F3F4F4091BD076FEFF9
:102DD0008FEF0E94433088859E812F813091BA0702
:102DE00030FF12C0EBE9F7E02483938385833396A9
:102DF00037E0E73AF307C1F70E943F2F8FE99FE0E2
:102E00000197F1F700C000009091640481E08927E8
:102E10008093640419C08823A1F08091D3068111A6
:102E200006C081E08093D30682EE0E942C320E947D
:102E3000112D9093D2068093D1068BE20E942C3202
:102E400003C08BE20E94F231F70192819923F9F0DD
:102E50000E3DECE51E0709F4F1C0073AFDE51F073A
:102E600009F4EEC001152CE5120709F0EBC0109231
:102E700066040E94D2293FEF44E38CE03150404089
:102E80008040E1F700C000000E94902C80C2809139
:102E9000660482720B3CECE51E0709F4B8C0B8F575
:102EA000063C2CE5120709F49EC0D8F4033C4CE51F
:102EB000140709F48CC030F4023CFCE51F0709F448
:102EC0005CC0C0C0043C2CE5120709F485C0053C79
:102ED0003CE5130709F0B6C046E551E360E671E34F
:102EE0007FC0083C4CE5140709F487C008F480C093
:102EF000093CFCE51F0709F485C00A3C2CE51207D4
:102F000009F0A0C04FE251E362E271E369C0003D05
:102F10003CE5130709F48AC0A0F40D3CECE51E075C
:102F200009F47FC008F478C00E3C2CE5120709F4C0
:102F30002EC20F3C3CE5130709F084C064E082E038
:102F40007AC0063D4CE5140790F4033D8CE5180764
:102F500008F01DC2013DECE51E0709F46AC0023D00
:102F6000FCE51F0709F06EC063E181E164C00D3527
:102F70002DE5120709F40BC265C08091BA0780FFE6
:102F800020C08E7F8093BA076091BA077091BB070B
:102F90008091BC079091BD070E94F42F0E94382FAA
:102FA000809199078160809399073FEF40E782E025
:102FB000315040408040E1F700C000000E943F2FA8
:102FC000E6C181608093BA0761E086952CC04DED23
:102FD00051E367EE71E304C047EE51E36DED71E339
:102FE0000E94312FD4C140E651E366E571E3F8CF8A
:102FF0004CE351E369E471E3F3CF49E451E36CE35B
:1030000071E3EECF42E251E36FE271E3E9CF47E0D3
:1030100050E369E170E3E4CF49E150E367E070E336
:10302000DFCF61E081E00E949D31B1C16AE085E0BF
:1030300002C060E18BE00E941D2FA9C10E94692699
:103040000E94D711F70100811181992349F0C8012D
:103050000E947B27D82E682FC8010E947A2904C0BD
:10306000C8010E944629D82EB8018D2D0E94F42D4A
:103070000E94DF24082FD82EF70122813581329556
:103080003F70F92EF2944FE0F4224F2D50E04C3077
:10309000510508F064C1FA01E759FF4F0C94593605
:1030A000892F807F9F70192F882311F01295107F30
:1030B0002223B9F0112309F43EC180E2800F883049
:1030C00010F0D11006C090916604192B109366047D
:1030D00005C090919507192B109395070E94D4264F
:1030E0002AC1802F0E94F231112309F438C1005EF9
:1030F0001095083010F0D11006C090916604192385
:103100001093660405C090919507192310939507B5
:103110000E94D42624C1492F407F892F8F704032CE
:1031200011F08295807FF1E0DF120AC0222321F0A6
:10313000363008F014C108C0353008F010C114C092
:10314000222329F03111F7C00E94E72908C1332357
:1031500059F0093309F000C12FEF37EE43E0215059
:1031600030404040E1F7F6C00E94DC29F8C0892FCA
:1031700086958695837019F0813059F0F0C022232E
:1031800019F0802F937002C080E090E00E94332DF0
:10319000FEC0222319F0802F937002C080E090E0DF
:1031A0000E941D2DF4C0892F8370A9F52111DBC069
:1031B000802F829586958770880F880F202F2F701B
:1031C000082E01C0220F0A94EAF704FF09C04FE05D
:1031D00050E001C0440F8A95EAF7842F809501C022
:1031E00080E096959695492F4370423069F088F4B7
:1031F00090919607413019F0822B892302C0922BBF
:10320000892B0E94CD29AFC0822B909196078927E8
:10321000F8CF822BF6CF222319F0892F817001C0BD
:103220008695882309F49FC0802F829586958770A4
:10323000880F880F202F2F70082E01C0220F0A94AC
:10324000EAF704FF09C04FE050E001C0440F8A953F
:10325000EAF7842F809501C080E096959695492FD6
:103260004370423059F078F490918806413019F05B
:10327000822B892309C0922B892B06C0822B909127
:103280008806892701C0822B0E94AF296CC0192FA4
:103290001F70222339F0812F0E94C129802F0E94A4
:1032A000E72961C00E94DC29812F0E94B4295BC0FC
:1032B000E1EF8E1709F1E81720F0F0EF8F1741F0DA
:1032C00036C042EF8417F9F0E3EF8E1719F12FC0E3
:1032D000222379F0353008F042C0292F2F7181E088
:1032E00090E001C0880F2A95EAF790918806892717
:1032F0001BC03630A0F5F1CF222339F0892F8F7112
:103300000E94C1292CC02223C9F3892F8F710E94EA
:10331000B42925C0222339F09F7181E001C0880FB4
:103320009A95EAF701C080E00E94AF2918C02223D5
:1033300031F0332319F3802F0E942C3210C0332335
:1033400021F3893349F4FFEF27EE33E0F1502040B9
:103350003040E1F700C00000802F0E94F23188EF7A
:103360008F0D8430A0F40E94492D0E948E140FC04E
:1033700000314FE5140721F481E00E94B42999CC73
:1033800001318FE5180709F097CC82E0F6CF299636
:10339000EFE00C948135CF93DF93C0918606D091F6
:1033A00087068A30B1F420917D04CE018058944084
:1033B000622F70E00E944E35281B822F66E00E942B
:1033C000EA35C82FC15008F48FC080E20E94CB19A3
:1033D000F9CF8D30E9F4C058D44020917D04622F9C
:1033E00070E0CE010E944E35281B822F9E01280FCF
:1033F000311D2115324018F080E0C0E0D0E0C80F48
:10340000D11DC058DB4FD0938706C09386066CC091
:1034100096E0FE01A0E8B6E001900D929A95E1F7E2
:10342000803E30F086E0FE0111928A95E9F70BC0EC
:10343000F6E08F9FB00111246159774F46E050E0CC
:10344000CE010E949935C0918606D091870646E04C
:1034500050E0BE0180E896E00E949536892B49F144
:103460009E0120583440A90185E0569547958A95DC
:10347000E1F781E090E0BC0102C0660F771F4A953A
:10348000E2F740917E0450917F04462B572B2B5F2F
:103490003F4F65E0369527956A95E1F702C0880FA2
:1034A000991F2A95E2F7842B952B90937F048093A4
:1034B0007E049E012A57344040917D04642F70E0C1
:1034C000C9010E944E35481B463010F4240F311DAF
:1034D000211582E0380710F020E030E020583B4F03
:1034E0003093870620938606DF91CF910895EF925F
:1034F000FF920F931F93CF93DF93EC017B0164E660
:1035000070E088E70E94A1328C01EC0EFD1ECE1502
:10351000DF0561F017FD0AC0FE01849164E670E0EA
:103520000E9416338C012196892B89F30E948E33D9
:10353000C801CDB7DEB7E6E00C948A3580918806E5
:10354000982F9670963011F4886001C0877F0E9492
:10355000AF2908950F931F93CF93DF93EC01FC01E4
:1035600001900020E9F78F0101501109C017D10720
:1035700020F489910E94CB19F9CFDF91CF911F914F
:103580000F91089590917D04899FC00111248115A8
:1035900022E0920714F080E090E080589B4F9093D7
:1035A0008706809386060895AAE2B0E0EAEDFAE184
:1035B0000C947135E5E7F4E08DE794E02091F1009B
:1035C00021938E179F07D1F780917604833009F4F9
:1035D00063C030F4813071F0823009F49FC0B6C00E
:1035E0008A3009F48BC08B3009F46EC0893009F041
:1035F000ADC020C080917504813A09F0A7C08091C8
:10360000E800877F8093E8008091790490917A04A4
:10361000892B21F468E089E694E003C060E080E053
:1036200090E070E00E94322C8091E8008B778093CC
:10363000E8008CC080917504813209F087C08091C8
:10364000790490917A04009719F0029709F07EC0EE
:103650008091E800877F8093E8008091E80082FDF8
:1036600005C0809173048111F8CF70C02091F300E0
:103670008091F20090E0922B029731F48091F1005A
:10368000813011F0863021F48091F100809368043C
:103690008091E8008B7756C080917504813A09F0DB
:1036A00055C08091790490917A04892B09F04EC01D
:1036B0008091E800877F8093E8008091E80080FF98
:1036C000FCCF80913C0139C0809175048132F1F5C5
:1036D0008091790490917A04892BC1F58091E8005A
:1036E000877F8093E8000E94DE2B8091770480938F
:1036F0003C01109266040E94D22928C08091750472
:10370000813221F58091E800877F8093E8000E9454
:10371000DE2B809178048093670418C08091750433
:10372000813AA1F48091E800877F8093E80080913E
:10373000E80080FFFCCF809167048093F1008091C6
:10374000E8008E778093E8000E94DE2B8091E800ED
:1037500083FFDFC18091750490917604492F50E07A
:103760004A30510508F0D5C1FA01EB58FF4F0C94CF
:103770005936803821F0823809F0CBC108C08091D9
:10378000710490917204992389F082600FC0809136
:1037900079048F70873008F0BCC18093E900809174
:1037A000EB0085FB882780F91092E9009091E800F2
:1037B000977F9093E8008093F1001092F10070C120
:1037C000282F2D7F09F0A5C1882319F0823061F0E0
:1037D000A0C180917704813009F09BC1933009F03A
:1037E00080E0809372042EC08091770481112AC0FA
:1037F000809179048F702FEF280F263008F089C14F
:103800008093E9002091EB0020FF1CC0933021F44D
:103810008091EB00806214C09091EB0090619093D6
:10382000EB0021E030E0A90102C0440F551F8A954A
:10383000E2F74093EA001092EA008091EB00886082
:103840008093EB001092E9008091E800877F8093DD
:10385000E8000E94DE2B5DC181115BC110917704ED
:103860001F778091E3008078812B8093E300809123
:10387000E800877F8093E8000E94DE2B8091E800BB
:1038800080FFFCCF8091E30080688093E3001111FA
:1038900002C082E001C083E0809373043AC1805883
:1038A000823008F036C120917704309178042C3DA5
:1038B00053E0350779F583E08A838AE289834FB73D
:1038C000F894DE01139620E03EE051E2E32FF0E0B1
:1038D00050935700E49120FF03C0E295EF703F5FE3
:1038E000EF708E2F90E0EA3010F0C79601C0C096BE
:1038F0008D939D932F5F243149F74FBF8091E8004E
:10390000877F8093E8006AE270E0CE0101960E9412
:10391000322CB4C08091790490917A04432F5527BA
:1039200043305105A9F068F44130510509F400C154
:103930004230510509F0EDC08BE590E0EEEDF7E087
:103940004BC04132510529F14232510589F1E1C0A4
:10395000C901992781309105A1F058F0029709F02B
:10396000D8C0EBE4F8E0E4918E2F90E0EBE4F8E0CF
:1039700030C0EBE6F8E0E4918E2F90E0EBE6F8E063
:1039800028C0E7E5F8E0E4918E2F90E0E7E5F8E065
:1039900020C08330910508F0BCC0880F991FFC013E
:1039A000EE54FE4F0190F081E02D89E090E014C0CC
:1039B0008330910508F0ADC0FC01EE0FFF1FE45508
:1039C000FE4F0190F081E02DDC01A755BE4F8C9198
:1039D00090E0009709F49DC02091E800277F209394
:1039E000E80020917B0430917C042817390708F403
:1039F000C90140E0009789F120917304222309F462
:103A00003DC02530D9F12091E80023FD37C0209139
:103A1000E80022FD2FC02091E80020FFEBCF40916D
:103A2000F3002091F20030E0342B009759F0283059
:103A3000310540F444914093F100319601972F5F96
:103A40003F4FF3CF41E02830310509F040E02091AD
:103A5000E8002E772093E800CDCF4111CDCF0AC0EA
:103A600080917304882351F0853041F08091E80003
:103A700083FD04C08091E80082FFF2CF8091E800CE
:103A80008B778093E80045C0803809F042C0809170
:103A9000E800877F8093E800809174048093F100B0
:103AA0008091E8008E77D3CE811133C08091770466
:103AB000909178049927029764F58091E800877FB8
:103AC0008093E80010917704109374040E94DE2B19
:103AD000111106C08091E30087FD02C081E001C0A2
:103AE00084E08093730442E061EC81E00E94FD2B4E
:103AF00042E261EC84E00E94FD2B42E261EC82E054
:103B00000E94FD2B42E260EC83E00E94FD2B80913D
:103B100073048091E80083FF10C08091E800877FE4
:103B20008093E8008091EB0080628093EB0005C0F9
:103B300082E190E0E9E3F8E04FCFAA96E3E00C944D
:103B40008D351F920F920FB60F9211242F933F9332
:103B50004F935F936F937F938F939F93AF93BF9395
:103B6000CF93DF93EF93FF93C091E900CF708091E3
:103B7000EC00D82FD17080FDD0E81092E900809140
:103B8000F000877F8093F00078940E94D41A1092FE
:103B9000E9008091F00088608093F000CD2BCF7019
:103BA000C093E900FF91EF91DF91CF91BF91AF9169
:103BB0009F918F917F916F915F914F913F912F9145
:103BC0000F900FBE0F901F901895E8EDF0E08081E8
:103BD0008E7F80831092E2001092DA001092E10052
:103BE000A0EEB0E08C9181608C9380818F77808390
:103BF00019BCA7EDB0E08C918E7F8C9380818F7E75
:103C00008083109265040895A0E0B0E0EAE0FEE150
:103C10000C946C35C8EDD0E088818F7E8883E7ED09
:103C2000F0E080818160808384E082BF81E08093C6
:103C3000650488818E7F888302EE10E0F80110828F
:103C40001092DA0081EEC82ED12CF6011082888104
:103C50008F77888388818068888388818F7D888337
:103C600019BC109273041092740410927204109292
:103C7000710490EEE92EF12CF70180818B7F808317
:103C800088818160888342E060E080E00E94FD2BB3
:103C9000F60180818E7F8083F8018081816080833E
:103CA000808188608083F70180818E7F8083888116
:103CB00080618883CDB7DEB7E8E00C9488351F9229
:103CC0000F920FB60F9211242F933F934F935F9350
:103CD0006F937F938F939F93AF93BF93EF93FF93D4
:103CE0008091E10082FF09C08091E20082FF05C05F
:103CF0008091E1008B7F8093E1008091DA0080FF6A
:103D00002AC08091D80080FF26C08091DA008E7F83
:103D10008093DA008091D90080FF18C080E189BDCE
:103D200082E189BD09B400FEFDCF81E08093730478
:103D30008091650481110FC00E94E51D0E94041E40
:103D40008091E20084608093E20005C019BC10926B
:103D50007304109265048091E10080FF17C0809188
:103D6000E20080FF13C08091E2008E7F8093E2002A
:103D70008091E20080618093E2008091D8008062AF
:103D80008093D80019BC85E0809373048091E10092
:103D900084FF30C08091E20084FF2CC080E189BDA7
:103DA00082E189BD09B400FEFDCF8091D8008F7DEE
:103DB0008093D8008091E1008F7E8093E100809114
:103DC000E2008F7E8093E2008091E2008160809328
:103DD000E20080917404882311F084E007C0809190
:103DE000E30087FD02C081E001C083E0809373049B
:103DF000809173048091E10083FF27C08091E200ED
:103E000083FF23C08091E100877F8093E10082E0FF
:103E100080937304109274048091E1008E7F8093EC
:103E2000E1008091E2008E7F8093E2008091E200C9
:103E300080618093E20042E060E080E00E94FD2B20
:103E40008091F00088608093F000FF91EF91BF9126
:103E5000AF919F918F917F916F915F914F913F9122
:103E60002F910F900FBE0F901F9018952091E40096
:103E70003091E50095E64091EC00842F817040FF81
:103E800023C08091E80080FD1DC0809173048823C9
:103E900099F0853099F08091EB0085FD11C040913B
:103EA000E4005091E5002417350729F3915011F0F3
:103EB0009A01E1CF84E0089582E0089583E00895B7
:103EC00081E0089580E008954091E80042FFDDCF51
:103ED0000895EF92FF920F931F93CF93DF937C018E
:103EE0008B010E94361F811119C0E70101151105D0
:103EF000A1F08091E80085FD0AC08091E8008E77EE
:103F00008093E8000E94361F882381F307C08991BF
:103F10008093F10001501109E9CF80E0CDB7DEB701
:103F2000E6E00C948A3580E00895A0E0B0E0EBE98B
:103F3000FFE10C946A357C015B016A0180912207E4
:103F40008A3018F001E010E002C00AE010E0C1E0A1
:103F5000D0E0B501C701F6010995811115C0219680
:103F60000C171D0794F0CC9F9001CD9F300D300DA4
:103F7000112480E090E045E34A95F1F700000196B6
:103F800082179307C1F7E5CF81E0CDB7DEB7EAE04E
:103F90000C948635A0E0B0E0E0EDFFE10C946C35C8
:103FA000C82F7B01D42F6901FB016081718182815F
:103FB00093810E94DA2C643671058105910510F415
:103FC000DD2339F10C2E000CDD0B01151105A9F0D4
:103FD000FE0183E0EE0FFF1F8A95E1F7E35CFE4FE1
:103FE000818192818752994F408150E004171507D3
:103FF00008F4A801B6010E94A236CE010E94D33473
:10400000882341F00E94052DF7016083718382832C
:10401000938381E0CDB7DEB7E8E00C948835A1E06A
:10402000B0E0E5E1F0E20C9470358091C30789833C
:104030002091FD0630E090E041E02817390709F4AF
:1040400040E001E010E09E012F5F3F4F6EE177E01E
:1040500087E00E94CA1F2196E4E00C948C35A1E011
:10406000B0E0E5E3F0E20C94703580911F038983A2
:1040700041E09091FC06981301C040E001E010E09F
:104080009E012F5F3F4F6AE177E086E00E94CA1FE2
:104090002196E4E00C948C35A8E0B0E0E2E5F0E293
:1040A0000C94703585E0EAEBF7E0DE0111960190A3
:1040B0000D928A95E1F78091970790919807A091CA
:1040C00099078E839F83A88741E08885811101C06D
:1040D00040E008E010E09E012F5F3F4F66E177E08F
:1040E00085E00E94CA1F8111109299072896E4E08A
:1040F0000C948C350F931F93CF93DF93EC014CE01E
:1041000050E066EE76E00E94953641E0892B09F496
:1041100040E00CE010E09E016EE077E082E00E945B
:10412000CA1FDF91CF911F910F910895A1E0B0E0D8
:10413000ECE9F0E20C946635C62E4A015901682E6E
:10414000880F7708C3010E94D334882309F466C01E
:10415000C30123E0880F991F2A95E1F7FC01E35C76
:10416000FE4F438150E04115510511F041E050E010
:10417000FC01E35CFE4F648175816752794FCE018B
:1041800001960E94A236F40160817181828193813F
:104190000E94DA2C643671058105910538F4B70167
:1041A000C8010E94B92E99818917D1F10C2C000CFD
:1041B000DD08C6010E94D334782E8823E1F0E11493
:1041C000F104C9F0960183E0220F331F8A95E1F7CD
:1041D000F901E35CFE4F438150E0E416F50608F474
:1041E000A701F901E35CFE4F648175816752794F45
:1041F000C5010E94A236B701C8010E94B92E91E004
:104200002981281390E0D92ED72089F00E94052D0E
:10421000F401608371838283938309C0D12C02C02F
:10422000DD24D394A701B801C5010E94A2368D2DCB
:104230002196EEE00C948235A1E0B0E0E2E2F1E2FA
:104240000C946835EE24E394F12C03EF16E09E0104
:104250002F5F3F4F42E157E064E083E00E949620E9
:10426000982E882309F44EC0E12C80E09091B4028E
:10427000E91608F044C00091B5020E0D10E0980157
:10428000215F3C4F6901E1E0F0E0EC0FFD1FEE0D16
:10429000F11DF080F9019081F91A8F2C9801220FFD
:1042A000331F220F331FA90145575E4F5A011814BF
:1042B00064F48A94F60180818F5F8083F5018081A8
:1042C00091810E949B1481E0F2CF9F2DF7FC90E03A
:1042D000F91A000F111F000F111F07571E4FFF2063
:1042E00061F0F394F601808181508083F801808130
:1042F00091810E949B1481E0F2CFE394B7CF8111AA
:104300000E945A26892D2196ECE00C948435ACE06D
:10431000B0E0EDE8F1E20C946C356B018CE0E82E36
:10432000F12C0AED16E09E012F5F3F4F4AE057E067
:1043300061E080E00E949620882349F09CE0FE0125
:104340003196AEEFB6E001900D929A95E1F79CE0C0
:10435000EEEFF6E0D60101900D929A95E1F72C96DA
:10436000E8E00C9488358091D806811118C08091BE
:10437000D80080618093D8008AE18A95F1F700C067
:104380008091D90080FD02C082E001C081E080936D
:10439000D806823021F40E94E51D1092730481E05A
:1043A0009091D806913009F080E0089526982E98D3
:1043B00083B186FB882780F991E089270895909141
:1043C000200292FF0DC0282F2871283019F4877F12
:1043D000846006C0282F2471243011F48B7F8860FC
:1043E00093FF0DC0282F2871283119F4877E84612E
:1043F00006C0282F2471243111F48B7E886120910E
:10440000210220FF0DC0382F3871383019F4877F12
:10441000816006C0382F3171313011F48E7F886091
:1044200021FF0DC0282F2871283119F4877E816162
:1044300006C0282F2171213111F48E7E886194FDF0
:10444000877E0895A2E1B0E0E8E2F2E20C946E35D6
:104450000E94B3219E012F5F3F4F7901E0911F021F
:10446000882309F40FC18CE0D9011D928A95E9F7E0
:104470000E2F10E0000F111F045B1C4F80912207CC
:104480008A3050F447E851E2B701C8010E94951FF5
:10449000882309F448C00AC08091890690918A0651
:1044A0000E94F62C843F914068F74EC04AE750E2E4
:1044B000B701C8010E94951F8823A9F14CE151E280
:1044C000B701C8010E94951F882369F14CE450E2AE
:1044D000B701C8010E94951F882329F14FE250E2DD
:1044E000B701C8010E94951F8823E9F04FE050E210
:1044F000B701C8010E94951F8823A9F010922207D6
:1045000080911E0290E0880F991F4CE050E0B701A7
:10451000845B9C4F0E94953621E02093D406892B22
:10452000F1F410E02AC0809122078F3F19F08F5FCD
:1045300080932207809122078A3010F30E94112D68
:1045400090938A06809389068091D406882349F344
:104550008CE0F70111928A95E9F71092D406A091A8
:104560001E02B0E0AA0FBB1FA45BBC4F8CE0F7019A
:1045700001900D928A95E1F711E080912201882344
:1045800009F46BC02091D0066091020230910302C1
:10459000862F90E0432F50E0631710F4805C9F4F0C
:1045A000841B950B181619060CF055C0E22FF0E08D
:1045B00090910202809103029817D1F38091030237
:1045C0008F5F803408F080E0A82FB0E0A557B94F86
:1045D0009C9180930302E553F94F9083211103C00E
:1045E000993691F636C02430A1F52093D0068091FB
:1045F000CB06893659F52091CE063091CD06822F13
:1046000090E0830F911D3091CC06830F911D875947
:104610009F4F9091CF06981319C08091CC0690912E
:10462000CD068F3EFFEF9F0750F081E0211101C0C2
:1046300080E08F87CE010D960E94FA1307C02223D7
:1046400019F00E942C3202C00E94F2311092D00662
:1046500004C02F5F99CF2093D0068091D306882382
:1046600009F48FC08091D1069091D2060E94F62C59
:10467000893E934008F485C082EE0E94F231109288
:10468000D3067FC010911E02F0E0EE0FFF1FE45B27
:10469000FC4F8CE0AAEDB6E001900D928A95E1F70F
:1046A0006CE070E08AED96E00E94B92E8093D90606
:1046B000A12FB0E0AA0FBB1FA45BBC4F8CE0E6EEBD
:1046C000F6E001900D928A95E1F74091140350E0D5
:1046D0006091130370E0615F7C4FC7010E94A236B6
:1046E00089818093F30661E070E0C7010E94B92ED2
:1046F0008093F2068091FB068823A9F180FF10C009
:104700008091F40680FF0AC09091BA07916090935F
:10471000BA0760E086950E949D3102C00E948531F3
:104720008091FB0681FF09C020E04091F70660916F
:10473000F6068091F5060E94CF308091FB0682FF3D
:1047400009C08091FA06882319F00E946A3102C0DC
:104750000E94382F8091FB0683FF03C081E0809385
:10476000D5071092FB068091FC0680931F03809171
:10477000FD06882319F00E941C2E02C00E94022E02
:1047800010E0812F6296E6E00C948A352F923F92DA
:104790005F926F927F928F929F92AF92BF92CF92D1
:1047A000DF92EF92FF920F931F93CF93DF93CDB7DA
:1047B000DEB768970FB6F894DEBF0FBECDBF88E1B5
:1047C000E6E0F2E0DE01119601900D928A95E1F7A4
:1047D00080E090E061E070E0C12CD12C7601C394C0
:1047E00042E1842E42E0942E20E030E0FB01022ED4
:1047F00002C0EE0FFF1F0A94E2F7E823F923022E0E
:1048000002C0F595E7950A94E2F7409112015091A4
:104810001301E11113C0FA01E20FF31F4081E42FED
:10482000E295EF70F0E0A2A14F708B0102C0000F83
:10483000111F4A95E2F7A8014A2B12C0FA01E20FB4
:10484000F31F4081E42FE295EF70F0E052A14F702A
:10485000DB0101C0AA0F4A95EAF74A2F409545238C
:1048600042A32F5F3F4F2330310509F0BFCF1AE13C
:104870001A95F1F700C097018601082E04C0000FB9
:10488000111F221F331F0A94D2F75801A801409527
:104890005095209020013090210106E012E022E1A5
:1048A000622E22E0722EF801D1015D901D01252DAE
:1048B00022952F7030E0D90190962C9130E0B52DE3
:1048C000BF7002C035952795BA95E2F720FD05C067
:1048D000208131812A293B2904C020813181242370
:1048E00035233183208332968E169F06E9F6019692
:1048F0008830910509F078CF8091230181110DC096
:1049000080910A0290910B021E9902C0916001C031
:104910009E7F90930B0280930A0248E150E066E08C
:1049200072E0CE0101960E9495367C01D0901F0264
:10493000892B49F081E08093D7060E94112D909336
:10494000D6068093D5068091D7068823C9F080913A
:10495000D5069091D6060E94F62C0A9788F0ED2D88
:10496000F0E0EE0FFF1FE45BFC4FD8018D919D91AD
:104970008D01819391936A167B06B9F71092D70641
:10498000EF2819F40E94222202C081E090E068968C
:104990000FB6F894DEBF0FBECDBFDF91CF911F9150
:1049A0000F91FF90EF90DF90CF90BF90AF909F90CE
:1049B0008F907F906F905F903F902F900895CF934E
:1049C000DF938238910569F1B0F48133910509F4E0
:1049D0006FC048F48932910509F465C08A329105A7
:1049E00009F46BC08AC08533910509F457C0893337
:1049F0009105B9F082C0833E910571F138F4803E93
:104A00009105B1F0823E910511F177C0863E910586
:104A1000B9F1873E9105C9F1843E910509F06DC059
:104A200024C02091200220FD53C021FD51C065C04B
:104A30008091200280FD46C08091210280FF48C005
:104A40008091200284FD31C183EE90E030C18091DD
:104A5000200282FF3AC0F4CF8091200282FD35C04F
:104A60008091210280FD34C0EBCF8091210281FF33
:104A700035C08091200284FD18C187EE90E017C1F7
:104A80008091200283FF27C0F4CF8091200283FD14
:104A900022C08091210281FD21C0EBCF80912002B4
:104AA00085FD1FC021C08091200285FD1DC019C059
:104AB0008091200286FD1BC01DC08091200286FDD2
:104AC00019C015C089E390E0F2C082EE90E0EFC01B
:104AD00080EE90E0ECC086EE90E0E9C084EE90E0DD
:104AE000E6C089E290E0E3C085E390E0E0C08AE2BE
:104AF00090E0DDC081E390E0DAC0811531E59307F5
:104B000008F062C0811540E59407F0F09C0154E084
:104B1000369527955A95E1F7922F9370482F437059
:104B200021E030E002C0220F331F4A95E2F73C68D3
:104B3000392B982F9F709695969540E2949FC001CF
:104B40001124822B932BB3C08F3B910520F5883A1B
:104B5000910558F0885AE82FF0E0EE0FFF1FE3545C
:104B6000FE4F808191819464A2C0853A910548F0FE
:104B7000855AE82FF0E0E654FE4F808190E0906483
:104B800096C08430910508F092C0019709F08DC05D
:104B900081E090E08CC0811520E2920768F48115D5
:104BA00031E0930708F083C09C01205E3109283072
:104BB000310508F07AC07BC0811540E4940708F401
:104BC00074C09F70906A73C0811524E59207C8F580
:104BD000811533E59307B0F09C012370332741E042
:104BE00050E002C0440F551F2A95E2F7282F269562
:104BF000269580E2289F90011124CA01822B932BD5
:104C00009A6855C0811542E5940728F4982F8827A3
:104C1000816F906A4CC09C012370332741E050E0C3
:104C200002C0440F551F2A95E2F7282F2695269596
:104C300080E2289F90011124CA01822B932B9C684B
:104C400036C0EC01C1158AE5D807F8F4C11529E58D
:104C5000D20790F08C2F8F700E94DF2194E0D695C0
:104C6000C7959A95E1F7CF70D0E0DC2FCC27D069BB
:104C70009E01282BC9011BC0C11538E5D307A8F038
:104C80009C2F8827806F906A12C0CE0190568115A4
:104C9000904258F48D2F8F710E94DF21282F2F71A1
:104CA000CE0199279062922B02C080E090E0DF91C4
:104CB000CF9108950E94052D089580E090E00E9414
:104CC000B035883E9E4F19F40E94042F089580E06D
:104CD000089568EE7EEF80E090E00E94D43560E0B9
:104CE00082E090E00E94B63560E083E090E00E94B0
:104CF000B6351092960760E084E090E00E94B635E9
:104D000064E082E290E00E94B63560E085E090E0E9
:104D10000E94B63560E086E090E00E94B6356FEF05
:104D200087E090E00E94B63540E050E0BA0188E0AC
:104D300090E00E94C83560E08DE090E00E94B635BA
:104D400040E050E0BA0188E190E00E94C83560E0A0
:104D500087E190E00E94B63540E050E0BA018CE176
:104D600090E00E94C83560E070E080E290E00E9430
:104D7000D43540E050E0BA0188E190E00E94C835A7
:104D800080E00E94D52E0E94F42E40E050E0BA014F
:104D90008FE090E00E94C83540E050E0BA0183E126
:104DA00090E00E94C835089590916604809195071F
:104DB000892B8093230748E050E06DE877E083E299
:104DC00097E00E949536892BA9F088E0E3E2F7E0AE
:104DD000ADE8B7E001900D928A95E1F7E091C70741
:104DE000F091C807309731F00280F381E02D83E223
:104DF00097E00995089580E090E00E94332D80E0CF
:104E000090E00E941D2D109295070E94D4260895CF
:104E100080918C0790915B07891719F08F5F8770DD
:104E2000FBCF08950F931F93CF93DF9380915A0781
:104E300082958F7009F05AC080915707882309F432
:104E400055C080918C0710915B0760915507709158
:104E50005607C0915807D091590791E06F3F09F06C
:104E600090E0292F06E0811709F440C0209721F037
:104E70007F3F21F030E003C031E001C0322F90E0ED
:104E800030FD31C0089FF001099FF00D1124DF01B2
:104E9000A45AB84F11963C911197371324C03C91F6
:104EA000361321C012963C91129731111CC01396F3
:104EB0004D915C9114974C1B5D0B483C510598F447
:104EC00080915A078F70806180935A07EF59F84F8D
:104ED00080818F708061808385E597E00E94C61491
:104EE0000E94082703C001968770BDCFDF91CF9144
:104EF0001F910F910895CF92DF92FF920F931F930E
:104F0000CF93DF936C010091880680919607082B60
:104F1000C7E0D0E010E0C8010C2E02C0959587953F
:104F20000A94E2F780FD04C02197A8F7F12C09C08C
:104F3000FC2EB6018C2F0E94F42D0E94DF240197D5
:104F400099F38F2DDF91CF911F910F91FF90DF90FB
:104F5000CF900895CF93DF93EC010E947B27BE0191
:104F60000E94F42D0E94DF24DF91CF910895FC016F
:104F7000808191810E94AA2792959F70963079F046
:104F800010F4925001C09A50923068F4803F69F05A
:104F900018F4883E40F409C0843F29F406C0883ED6
:104FA00020F0813F11F080E0089581E00895A1E1B3
:104FB000B0E0EDEDF7E20C9469358C0185E0F80185
:104FC000DE011D9601900D928A95E1F7F801E280CD
:104FD0009091550760915607409158075091590795
:104FE0004115510531F06F3F31F481E09F3F19F4D5
:104FF00003C081E001C080E0F82FF1709F2E80FD9A
:1050000003C1F80130812181C380D48085E5A82EB9
:1050100087E0B82EF0905707F601E41BF50BFF2050
:1050200009F4CBC080915A07E83CF10508F096C01E
:10503000482F407F09F051C0621311C093130FC075
:10504000FE2CE1100CC08F70806180935A07C5015F
:105050000E94C61480915A07F801858312C1C114B9
:10506000D10431F02F3F31F481E03F3F19F403C008
:1050700081E001C080E080FD03C081E08E2502C098
:1050800080E090E0F82FF170FF2E80FF1CC080912F
:105090008C0740915B0756E0841709F4D0C090E07C
:1050A000589FF001599FF00D1124E45AF84F618187
:1050B000261306C06081631303C06281E61203C039
:1050C00001968770E9CFFE2CEE2009F4DAC08091BA
:1050D0005A07816080935A074DC062130AC0931328
:1050E00008C0E11006C0F8018583C8010E94C614FB
:1050F0006EC0C8010E94B727882351F1EE2041F10C
:1051000020915A07822F82958F7090E0029774F059
:10511000809155079091560798878F831986DB8673
:10512000CA862C87CE0107960E94C61486E0F80135
:10513000A5E5B7E001900D928A95E1F70E9412274C
:105140000AC06217C9F0C8010E94B72781111EC0AA
:10515000C8010E94C614FF24F39493C0482F407FD7
:1051600081F785E597E00E94C61486E0F50111926B
:105170008A95E9F7F12C85C09313E5CFE110E3CFD1
:10518000F8018583C8010E94C61438C0EE2001F3DF
:1051900020915A07822F82958F7090E0029734F207
:1051A00080915507909156079A8389831B82DD82EF
:1051B000CC822E83CE010196B7CFE83CF105F0F406
:1051C000FE2CEE2029F262130BC0931309C086E077
:1051D000F801A5E5B7E001900D928A95E1F751C07D
:1051E000C8010E94B7278111A1CF80915A07816021
:1051F00080935A07C8010E94C61443C086E0F50197
:1052000011928A95E9F73DC0EE2009F4A1CFC801BB
:105210000E94B727F82E882309F49ACF86E0F80178
:10522000A5E5B7E001900D928A95E1F780915507C9
:10523000909156070E94AA270E94122722C03D87FC
:105240002E878D859E850E94AA27292F22952F7053
:10525000223028F49F7039F0811105C00BC0243032
:1052600028F49F7049F4805E883020F0C8010E94C5
:10527000C6149F2CF92C05C0F8019581907F99F7F1
:10528000F9CF8F2D6196EBE00C948535292F9C305A
:1052900078F5893068F590E039E0239F800D911D05
:1052A0001124682F677023E0969587952A95E1F77A
:1052B000FC01EE0FFF1FE80FF91FE55DF84F40E01E
:1052C00050E080E0219130E0062E02C0369527950F
:1052D0000A94E2F721703327042E01C0220F0A94AA
:1052E000EAF7822B4F5F5F4F4330510559F708951E
:1052F00080E00895292F9C3088F5893078F590E07A
:1053000039E0239F800D911D1124282F277051E033
:1053100001C0550F2A95EAF723E0969587952A95BF
:10532000E1F7FC01EE0FFF1FE80FF91FE55DF84FF5
:1053300020E030E070E04081CB01022E02C0969563
:1053400087950A94E2F781708195842785238427C5
:1053500081932F5F3F4F2330310569F70895809384
:1053600088060E94FB26089521E030E001C0220F4C
:105370008A95EAF720958091880682230E94AF29BA
:10538000089521E030E001C0220F8A95EAF780916C
:105390008806822B0E94AF290895809396070E9469
:1053A000FB26089586E0E5E2F7E0DF011D928A958D
:1053B000E9F70E94FB260895882341F0809590919B
:1053C00066048923809366040E94D4260895882366
:1053D00039F090916604892B809366040E94D4264C
:1053E00008951F93CF93DF93182FEB010E942C3267
:1053F000209741F08FE99FE00197F1F700C000008E
:105400002197F6CF812F0E94F231DF91CF911F912A
:1054100008950895089508958091680408958093EB
:10542000CF077093D1076093D007809173048430C5
:10543000F9F48093E9008FEF9091E800815095FD99
:1054400006C095ED9A95F1F700008111F5CF809196
:10545000E80085FF0DC040E050E063E070E08FECB5
:1054600097E00E94691F8091E8008E778093E800A2
:105470000895BC0184E00E940F2A0895BC0183E0D6
:105480000E940F2A0895CF93DF9321E02093E90033
:105490002FEF3091E800215035FD06C035ED3A95EB
:1054A000F1F700002111F5CF2091E80025FF14C08D
:1054B000EC0140E050E068E070E00E94691F8091DC
:1054C000E8008E778093E80088E0FE01A9E6B4E06A
:1054D00001900D928A95E1F7DF91CF9108951F9386
:1054E000CF93DF93EC018C81811109C081E08C8323
:1054F0001092B90792E0909383018093820180918A
:105500007F0190918001891770F4E82FF0E09F01EE
:10551000220F331FE20FF31FE556F84F118210825E
:1055200012828F5FF0CF10E0609181011617C0F5F5
:10553000E12FF0E070E0CF010E94043620917F015E
:10554000820F2091B907022E000C330B90E0E21776
:10555000F307CCF020918301022E000C330B2E17A1
:105560003F078CF09C01220F331F820F931F9C0179
:105570002556384F4091BD076091BC078091BB070D
:105580000E9443300BC0FC01EE0FFF1F8E0F9F1FC8
:10559000FC01E556F84F1182108212821F5FC4CFC2
:1055A0000E943F2F809182012091B907280F2093FC
:1055B000B90790918301980F9093830119165CF4B9
:1055C000022E000C330B4091810150E041505109F3
:1055D0002417350734F0819580938201813009F4D6
:1055E0001C82DF91CF911F910895A0E0B0E0EBEF16
:1055F000FAE20C946735EC018A8180FF03C0BB247A
:10560000BA9402C0BB24B3948C8181110DC081E097
:10561000B81206C080918101815080939A0702C020
:1056200010929A0781E08C83A12C4AE0842E9090FE
:105630008101A91408F041C080917F01CA2CD12CAE
:105640008601080F111DC801880F991F080F191F27
:105650000556184FF80111821082128234E0E32EB1
:10566000F12C712C80919A07870D8B302CF0682DCE
:105670000E94F635892F02C087FD890D082E000C87
:10568000990BC816D90691F48091BD078E9DA00193
:105690008F9D500D11245595479555954795980127
:1056A0006091BC078091BB070E9443307B0CF1E006
:1056B000EF1AF108B9F6A394BACF0E943F2F809158
:1056C0009A0791E0B9120EC0811107C08091810143
:1056D000815080939A071C820FC0815080939A0753
:1056E000BC820AC090E001966091810170E00E9446
:1056F000043680939A078C83CDB7DEB7EDE00C9427
:105700008335FF920F931F93CF93DF93EC01F12C1E
:105710000FEF10E060918101F616F0F480917F01A7
:105720002F2D30E0280F311DC901880F991F280F38
:10573000391F2556384F70E0C8010E940436962F55
:105740008C814091BD076091BC07F99E800D1124AA
:105750000E944330F394DECF0E943F2F9A818C81C8
:1057600090FF02C08F5F01C081508C83CDB7DEB740
:10577000E5E00C948B35A3E0B0E0E1ECFBE20C94A7
:1057800070358C018091BA0780FF10C09E012F5F99
:105790003F4F4091BD076091BC07F80184810E9492
:1057A00043304B8169818A810E94C62FF801848130
:1057B0008F5F84832396E4E00C948C35809175048C
:1057C00087FF11C08091E80082FD05C080917304BD
:1057D0008111F8CF11C08091E8008B770BC08091C8
:1057E0007304882349F08091E80080FFF8CF80910E
:1057F000E8008E778093E8000895982F973068F539
:105800009093E900981739F07091EC002091ED0029
:105810005091F00003C0242F762F50E021FD02C0EC
:105820009F5FECCF3091EB003E7F3093EB003091E7
:10583000ED003D7F3093ED003091EB00316030930F
:10584000EB007093EC002093ED005093F00020915A
:10585000EE0027FDE5CF80E008958F708093E9008A
:1058600081E0089520917B0430917C04261737074E
:1058700048F06115710539F42091E8002E772093E6
:10588000E80001C0B901FC0120E06115710579F162
:10589000809173048823F1F18530F1F18091E80063
:1058A00083FD3CC08091E80082FD2EC08091E8001D
:1058B00080FFEBCF2091F3008091F20090E0922BDB
:1058C0006115710551F08830910538F421912093CC
:1058D000F100615071090196F3CF21E0089709F0BA
:1058E00020E08091E8008E778093E800CECF2111F0
:1058F000CFCF0AC080917304882361F0853061F0B6
:105900008091E80083FD0AC08091E80082FFF2CF19
:1059100080E0089582E0089583E0089581E008958D
:1059200081E08093E00080E28093D8001092C9006B
:105930008FE19EE40197F1F700C0000087E090EB53
:10594000DC018093D8079093D907A093DA07B0932E
:10595000DB079CE088E10FB6F894A895809360007F
:105960000FBE90936000FFCF78941F920F920FB6F6
:105970000F9211248F939F93AF93BF938091CB0786
:105980009091CC07A091CD07B091CE070196A11DB3
:10599000B11D8093CB079093CC07A093CD07B09314
:1059A000CE07BF91AF919F918F910F900FBE0F9037
:1059B0001F901895CF92DF92EF92FF922FB7F89435
:1059C000C090CB07D090CC07E090CD07F090CE07E9
:1059D0002FBFA7019601261B370B480B590BCA0195
:1059E000B901FF90EF90DF90CF9008959C014FB7E1
:1059F000F8948091CB079091CC07A091CD07B091FE
:105A0000CE074FBF821B930B08952FB7F894609178
:105A1000CB077091CC078091CD079091CE072FBF17
:105A200008952FB7F8948091CB079091CC07A0915F
:105A3000CD07B091CE072FBF08952091C9073091AF
:105A4000CA072817390771F09093CA078093C907CE
:105A5000E091C707F091C807309721F00084F185E5
:105A6000E02D099508952091C5073091C6072817A4
:105A7000390771F09093C6078093C507E091C70777
:105A8000F091C807309721F00680F781E02D099545
:105A900008950E94B321882359F0E091C707F0913F
:105AA000C807309729F00190F081E02D09950895FD
:105AB00080E00895CF93DF93C7E8D3E060E0CE01A4
:105AC0000E94B6352196C11584E0D807B9F7DF9159
:105AD000CF9108951F93CF93DF93962F8430E8F4EE
